{
	"contracts/GuardianRecoveryWallet.sol": {
		"GuardianRecoveryWallet": {
			"abi": [
				{
					"inputs": [
						{
							"internalType": "address",
							"name": "initialOwner",
							"type": "address"
						},
						{
							"internalType": "address[]",
							"name": "initialGuardians",
							"type": "address[]"
						},
						{
							"internalType": "uint256",
							"name": "threshold",
							"type": "uint256"
						}
					],
					"stateMutability": "nonpayable",
					"type": "constructor"
				},
				{
					"anonymous": false,
					"inputs": [
						{
							"indexed": true,
							"internalType": "address",
							"name": "target",
							"type": "address"
						},
						{
							"indexed": false,
							"internalType": "uint256",
							"name": "value",
							"type": "uint256"
						},
						{
							"indexed": false,
							"internalType": "bytes",
							"name": "data",
							"type": "bytes"
						},
						{
							"indexed": false,
							"internalType": "bytes",
							"name": "result",
							"type": "bytes"
						}
					],
					"name": "Executed",
					"type": "event"
				},
				{
					"anonymous": false,
					"inputs": [
						{
							"indexed": true,
							"internalType": "uint256",
							"name": "id",
							"type": "uint256"
						},
						{
							"indexed": false,
							"internalType": "address",
							"name": "guardian",
							"type": "address"
						},
						{
							"indexed": false,
							"internalType": "uint256",
							"name": "approvals",
							"type": "uint256"
						}
					],
					"name": "RecoveryApproved",
					"type": "event"
				},
				{
					"anonymous": false,
					"inputs": [
						{
							"indexed": true,
							"internalType": "uint256",
							"name": "id",
							"type": "uint256"
						}
					],
					"name": "RecoveryCancelled",
					"type": "event"
				},
				{
					"anonymous": false,
					"inputs": [
						{
							"indexed": true,
							"internalType": "uint256",
							"name": "id",
							"type": "uint256"
						},
						{
							"indexed": false,
							"internalType": "address",
							"name": "newOwner",
							"type": "address"
						}
					],
					"name": "RecoveryExecuted",
					"type": "event"
				},
				{
					"anonymous": false,
					"inputs": [
						{
							"indexed": true,
							"internalType": "uint256",
							"name": "id",
							"type": "uint256"
						},
						{
							"indexed": false,
							"internalType": "address",
							"name": "proposer",
							"type": "address"
						},
						{
							"indexed": false,
							"internalType": "address",
							"name": "proposedOwner",
							"type": "address"
						}
					],
					"name": "RecoveryProposed",
					"type": "event"
				},
				{
					"stateMutability": "payable",
					"type": "fallback"
				},
				{
					"inputs": [
						{
							"internalType": "address",
							"name": "g",
							"type": "address"
						}
					],
					"name": "addGuardian",
					"outputs": [],
					"stateMutability": "nonpayable",
					"type": "function"
				},
				{
					"inputs": [
						{
							"internalType": "uint256",
							"name": "id",
							"type": "uint256"
						}
					],
					"name": "approveRecovery",
					"outputs": [],
					"stateMutability": "nonpayable",
					"type": "function"
				},
				{
					"inputs": [
						{
							"internalType": "uint256",
							"name": "id",
							"type": "uint256"
						}
					],
					"name": "cancelRecovery",
					"outputs": [],
					"stateMutability": "nonpayable",
					"type": "function"
				},
				{
					"inputs": [
						{
							"internalType": "address",
							"name": "target",
							"type": "address"
						},
						{
							"internalType": "uint256",
							"name": "value",
							"type": "uint256"
						},
						{
							"internalType": "bytes",
							"name": "data",
							"type": "bytes"
						}
					],
					"name": "execute",
					"outputs": [
						{
							"internalType": "bytes",
							"name": "",
							"type": "bytes"
						}
					],
					"stateMutability": "payable",
					"type": "function"
				},
				{
					"inputs": [
						{
							"internalType": "uint256",
							"name": "id",
							"type": "uint256"
						}
					],
					"name": "executeRecovery",
					"outputs": [],
					"stateMutability": "nonpayable",
					"type": "function"
				},
				{
					"inputs": [],
					"name": "getGuardians",
					"outputs": [
						{
							"internalType": "address[]",
							"name": "",
							"type": "address[]"
						}
					],
					"stateMutability": "view",
					"type": "function"
				},
				{
					"inputs": [
						{
							"internalType": "uint256",
							"name": "id",
							"type": "uint256"
						}
					],
					"name": "getRecoveryApprovals",
					"outputs": [
						{
							"internalType": "uint256",
							"name": "",
							"type": "uint256"
						}
					],
					"stateMutability": "view",
					"type": "function"
				},
				{
					"inputs": [],
					"name": "guardianThreshold",
					"outputs": [
						{
							"internalType": "uint256",
							"name": "",
							"type": "uint256"
						}
					],
					"stateMutability": "view",
					"type": "function"
				},
				{
					"inputs": [
						{
							"internalType": "uint256",
							"name": "",
							"type": "uint256"
						}
					],
					"name": "guardiansList",
					"outputs": [
						{
							"internalType": "address",
							"name": "",
							"type": "address"
						}
					],
					"stateMutability": "view",
					"type": "function"
				},
				{
					"inputs": [
						{
							"internalType": "address",
							"name": "",
							"type": "address"
						}
					],
					"name": "isGuardian",
					"outputs": [
						{
							"internalType": "bool",
							"name": "",
							"type": "bool"
						}
					],
					"stateMutability": "view",
					"type": "function"
				},
				{
					"inputs": [],
					"name": "owner",
					"outputs": [
						{
							"internalType": "address",
							"name": "",
							"type": "address"
						}
					],
					"stateMutability": "view",
					"type": "function"
				},
				{
					"inputs": [
						{
							"internalType": "address",
							"name": "proposedOwner",
							"type": "address"
						}
					],
					"name": "proposeRecovery",
					"outputs": [
						{
							"internalType": "uint256",
							"name": "",
							"type": "uint256"
						}
					],
					"stateMutability": "nonpayable",
					"type": "function"
				},
				{
					"inputs": [],
					"name": "recoveryNonce",
					"outputs": [
						{
							"internalType": "uint256",
							"name": "",
							"type": "uint256"
						}
					],
					"stateMutability": "view",
					"type": "function"
				},
				{
					"inputs": [
						{
							"internalType": "address",
							"name": "g",
							"type": "address"
						}
					],
					"name": "removeGuardian",
					"outputs": [],
					"stateMutability": "nonpayable",
					"type": "function"
				},
				{
					"inputs": [
						{
							"internalType": "uint256",
							"name": "t",
							"type": "uint256"
						}
					],
					"name": "setThreshold",
					"outputs": [],
					"stateMutability": "nonpayable",
					"type": "function"
				},
				{
					"stateMutability": "payable",
					"type": "receive"
				}
			],
			"devdoc": {
				"kind": "dev",
				"methods": {},
				"version": 1
			},
			"evm": {
				"assembly": "    /* \"contracts/GuardianRecoveryWallet.sol\":122:5051  contract GuardianRecoveryWallet is ReentrancyGuard {... */\n  mstore(0x40, 0x80)\n    /* \"contracts/GuardianRecoveryWallet.sol\":1175:1787  constructor(address initialOwner, address[] memory initialGuardians, uint256 threshold) {... */\n  callvalue\n  dup1\n  iszero\n  tag_1\n  jumpi\n  0x00\n  dup1\n  revert\ntag_1:\n  pop\n  mload(0x40)\n  sub(codesize, bytecodeSize)\n  dup1\n  bytecodeSize\n  dup4\n  codecopy\n  dup2\n  dup2\n  add\n  0x40\n  mstore\n  dup2\n  add\n  swap1\n  tag_2\n  swap2\n  swap1\n  tag_3\n  jump\t// in\ntag_2:\n    /* \"@openzeppelin/contracts/security/ReentrancyGuard.sol\":1716:1717  1 */\n  0x01\n    /* \"@openzeppelin/contracts/security/ReentrancyGuard.sol\":1821:1828  _status */\n  0x00\n    /* \"@openzeppelin/contracts/security/ReentrancyGuard.sol\":1821:1843  _status = _NOT_ENTERED */\n  dup2\n  swap1\n  sstore\n  pop\n    /* \"contracts/GuardianRecoveryWallet.sol\":1305:1306  0 */\n  0x00\n    /* \"contracts/GuardianRecoveryWallet.sol\":1281:1307  initialOwner != address(0) */\n  0xffffffffffffffffffffffffffffffffffffffff\n  and\n    /* \"contracts/GuardianRecoveryWallet.sol\":1281:1293  initialOwner */\n  dup4\n    /* \"contracts/GuardianRecoveryWallet.sol\":1281:1307  initialOwner != address(0) */\n  0xffffffffffffffffffffffffffffffffffffffff\n  and\n  sub\n    /* \"contracts/GuardianRecoveryWallet.sol\":1273:1322  require(initialOwner != address(0), \"zero owner\") */\n  tag_8\n  jumpi\n  mload(0x40)\n  0x08c379a000000000000000000000000000000000000000000000000000000000\n  dup2\n  mstore\n  0x04\n  add\n  tag_9\n  swap1\n  tag_10\n  jump\t// in\ntag_9:\n  mload(0x40)\n  dup1\n  swap2\n  sub\n  swap1\n  revert\ntag_8:\n    /* \"contracts/GuardianRecoveryWallet.sol\":1367:1376  threshold */\n  dup1\n    /* \"contracts/GuardianRecoveryWallet.sol\":1340:1356  initialGuardians */\n  dup3\n    /* \"contracts/GuardianRecoveryWallet.sol\":1340:1363  initialGuardians.length */\n  mload\n    /* \"contracts/GuardianRecoveryWallet.sol\":1340:1376  initialGuardians.length >= threshold */\n  lt\n  iszero\n    /* \"contracts/GuardianRecoveryWallet.sol\":1340:1393  initialGuardians.length >= threshold && threshold > 0 */\n  dup1\n  iszero\n  tag_11\n  jumpi\n  pop\n    /* \"contracts/GuardianRecoveryWallet.sol\":1392:1393  0 */\n  0x00\n    /* \"contracts/GuardianRecoveryWallet.sol\":1380:1389  threshold */\n  dup2\n    /* \"contracts/GuardianRecoveryWallet.sol\":1380:1393  threshold > 0 */\n  gt\n    /* \"contracts/GuardianRecoveryWallet.sol\":1340:1393  initialGuardians.length >= threshold && threshold > 0 */\ntag_11:\n    /* \"contracts/GuardianRecoveryWallet.sol\":1332:1415  require(initialGuardians.length >= threshold && threshold > 0, \"invalid threshold\") */\n  tag_12\n  jumpi\n  mload(0x40)\n  0x08c379a000000000000000000000000000000000000000000000000000000000\n  dup2\n  mstore\n  0x04\n  add\n  tag_13\n  swap1\n  tag_14\n  jump\t// in\ntag_13:\n  mload(0x40)\n  dup1\n  swap2\n  sub\n  swap1\n  revert\ntag_12:\n    /* \"contracts/GuardianRecoveryWallet.sol\":1433:1445  initialOwner */\n  dup3\n    /* \"contracts/GuardianRecoveryWallet.sol\":1425:1430  owner */\n  0x01\n  0x00\n    /* \"contracts/GuardianRecoveryWallet.sol\":1425:1445  owner = initialOwner */\n  0x0100\n  exp\n  dup2\n  sload\n  dup2\n  0xffffffffffffffffffffffffffffffffffffffff\n  mul\n  not\n  and\n  swap1\n  dup4\n  0xffffffffffffffffffffffffffffffffffffffff\n  and\n  mul\n  or\n  swap1\n  sstore\n  pop\n    /* \"contracts/GuardianRecoveryWallet.sol\":1475:1484  threshold */\n  dup1\n    /* \"contracts/GuardianRecoveryWallet.sol\":1455:1472  guardianThreshold */\n  0x04\n    /* \"contracts/GuardianRecoveryWallet.sol\":1455:1484  guardianThreshold = threshold */\n  dup2\n  swap1\n  sstore\n  pop\n    /* \"contracts/GuardianRecoveryWallet.sol\":1499:1505  uint i */\n  0x00\n    /* \"contracts/GuardianRecoveryWallet.sol\":1494:1781  for (uint i = 0; i < initialGuardians.length; ++i) {... */\ntag_15:\n    /* \"contracts/GuardianRecoveryWallet.sol\":1515:1531  initialGuardians */\n  dup3\n    /* \"contracts/GuardianRecoveryWallet.sol\":1515:1538  initialGuardians.length */\n  mload\n    /* \"contracts/GuardianRecoveryWallet.sol\":1511:1512  i */\n  dup2\n    /* \"contracts/GuardianRecoveryWallet.sol\":1511:1538  i < initialGuardians.length */\n  lt\n    /* \"contracts/GuardianRecoveryWallet.sol\":1494:1781  for (uint i = 0; i < initialGuardians.length; ++i) {... */\n  iszero\n  tag_16\n  jumpi\n    /* \"contracts/GuardianRecoveryWallet.sol\":1559:1568  address g */\n  0x00\n    /* \"contracts/GuardianRecoveryWallet.sol\":1571:1587  initialGuardians */\n  dup4\n    /* \"contracts/GuardianRecoveryWallet.sol\":1588:1589  i */\n  dup3\n    /* \"contracts/GuardianRecoveryWallet.sol\":1571:1590  initialGuardians[i] */\n  dup2\n  mload\n  dup2\n  lt\n  tag_18\n  jumpi\n  tag_19\n  tag_20\n  jump\t// in\ntag_19:\ntag_18:\n  0x20\n  mul\n  0x20\n  add\n  add\n  mload\n    /* \"contracts/GuardianRecoveryWallet.sol\":1559:1590  address g = initialGuardians[i] */\n  swap1\n  pop\n    /* \"contracts/GuardianRecoveryWallet.sol\":1625:1626  0 */\n  0x00\n    /* \"contracts/GuardianRecoveryWallet.sol\":1612:1627  g != address(0) */\n  0xffffffffffffffffffffffffffffffffffffffff\n  and\n    /* \"contracts/GuardianRecoveryWallet.sol\":1612:1613  g */\n  dup2\n    /* \"contracts/GuardianRecoveryWallet.sol\":1612:1627  g != address(0) */\n  0xffffffffffffffffffffffffffffffffffffffff\n  and\n  sub\n    /* \"contracts/GuardianRecoveryWallet.sol\":1604:1645  require(g != address(0), \"zero guardian\") */\n  tag_21\n  jumpi\n  mload(0x40)\n  0x08c379a000000000000000000000000000000000000000000000000000000000\n  dup2\n  mstore\n  0x04\n  add\n  tag_22\n  swap1\n  tag_23\n  jump\t// in\ntag_22:\n  mload(0x40)\n  dup1\n  swap2\n  sub\n  swap1\n  revert\ntag_21:\n    /* \"contracts/GuardianRecoveryWallet.sol\":1664:1674  isGuardian */\n  0x02\n    /* \"contracts/GuardianRecoveryWallet.sol\":1664:1677  isGuardian[g] */\n  0x00\n    /* \"contracts/GuardianRecoveryWallet.sol\":1675:1676  g */\n  dup3\n    /* \"contracts/GuardianRecoveryWallet.sol\":1664:1677  isGuardian[g] */\n  0xffffffffffffffffffffffffffffffffffffffff\n  and\n  0xffffffffffffffffffffffffffffffffffffffff\n  and\n  dup2\n  mstore\n  0x20\n  add\n  swap1\n  dup2\n  mstore\n  0x20\n  add\n  0x00\n  keccak256\n  0x00\n  swap1\n  sload\n  swap1\n  0x0100\n  exp\n  swap1\n  div\n  0xff\n  and\n    /* \"contracts/GuardianRecoveryWallet.sol\":1659:1771  if (!isGuardian[g]) {... */\n  tag_24\n  jumpi\n    /* \"contracts/GuardianRecoveryWallet.sol\":1713:1717  true */\n  0x01\n    /* \"contracts/GuardianRecoveryWallet.sol\":1697:1707  isGuardian */\n  0x02\n    /* \"contracts/GuardianRecoveryWallet.sol\":1697:1710  isGuardian[g] */\n  0x00\n    /* \"contracts/GuardianRecoveryWallet.sol\":1708:1709  g */\n  dup4\n    /* \"contracts/GuardianRecoveryWallet.sol\":1697:1710  isGuardian[g] */\n  0xffffffffffffffffffffffffffffffffffffffff\n  and\n  0xffffffffffffffffffffffffffffffffffffffff\n  and\n  dup2\n  mstore\n  0x20\n  add\n  swap1\n  dup2\n  mstore\n  0x20\n  add\n  0x00\n  keccak256\n  0x00\n    /* \"contracts/GuardianRecoveryWallet.sol\":1697:1717  isGuardian[g] = true */\n  0x0100\n  exp\n  dup2\n  sload\n  dup2\n  0xff\n  mul\n  not\n  and\n  swap1\n  dup4\n  iszero\n  iszero\n  mul\n  or\n  swap1\n  sstore\n  pop\n    /* \"contracts/GuardianRecoveryWallet.sol\":1735:1748  guardiansList */\n  0x03\n    /* \"contracts/GuardianRecoveryWallet.sol\":1754:1755  g */\n  dup2\n    /* \"contracts/GuardianRecoveryWallet.sol\":1735:1756  guardiansList.push(g) */\n  swap1\n  dup1\n  0x01\n  dup2\n  sload\n  add\n  dup1\n  dup3\n  sstore\n  dup1\n  swap2\n  pop\n  pop\n  0x01\n  swap1\n  sub\n  swap1\n  0x00\n  mstore\n  keccak256(0x00, 0x20)\n  add\n  0x00\n  swap1\n  swap2\n  swap1\n  swap2\n  swap1\n  swap2\n  0x0100\n  exp\n  dup2\n  sload\n  dup2\n  0xffffffffffffffffffffffffffffffffffffffff\n  mul\n  not\n  and\n  swap1\n  dup4\n  0xffffffffffffffffffffffffffffffffffffffff\n  and\n  mul\n  or\n  swap1\n  sstore\n  pop\n    /* \"contracts/GuardianRecoveryWallet.sol\":1659:1771  if (!isGuardian[g]) {... */\ntag_24:\n    /* \"contracts/GuardianRecoveryWallet.sol\":1545:1781  {... */\n  pop\n    /* \"contracts/GuardianRecoveryWallet.sol\":1540:1543  ++i */\n  dup1\n  tag_26\n  swap1\n  tag_27\n  jump\t// in\ntag_26:\n  swap1\n  pop\n    /* \"contracts/GuardianRecoveryWallet.sol\":1494:1781  for (uint i = 0; i < initialGuardians.length; ++i) {... */\n  jump(tag_15)\ntag_16:\n  pop\n    /* \"contracts/GuardianRecoveryWallet.sol\":1175:1787  constructor(address initialOwner, address[] memory initialGuardians, uint256 threshold) {... */\n  pop\n  pop\n  pop\n    /* \"contracts/GuardianRecoveryWallet.sol\":122:5051  contract GuardianRecoveryWallet is ReentrancyGuard {... */\n  jump(tag_28)\n    /* \"#utility.yul\":7:82   */\ntag_29:\n    /* \"#utility.yul\":40:46   */\n  0x00\n    /* \"#utility.yul\":73:75   */\n  0x40\n    /* \"#utility.yul\":67:76   */\n  mload\n    /* \"#utility.yul\":57:76   */\n  swap1\n  pop\n    /* \"#utility.yul\":7:82   */\n  swap1\n  jump\t// out\n    /* \"#utility.yul\":88:205   */\ntag_30:\n    /* \"#utility.yul\":197:198   */\n  0x00\n    /* \"#utility.yul\":194:195   */\n  dup1\n    /* \"#utility.yul\":187:199   */\n  revert\n    /* \"#utility.yul\":211:328   */\ntag_31:\n    /* \"#utility.yul\":320:321   */\n  0x00\n    /* \"#utility.yul\":317:318   */\n  dup1\n    /* \"#utility.yul\":310:322   */\n  revert\n    /* \"#utility.yul\":334:460   */\ntag_32:\n    /* \"#utility.yul\":371:378   */\n  0x00\n    /* \"#utility.yul\":411:453   */\n  0xffffffffffffffffffffffffffffffffffffffff\n    /* \"#utility.yul\":404:409   */\n  dup3\n    /* \"#utility.yul\":400:454   */\n  and\n    /* \"#utility.yul\":389:454   */\n  swap1\n  pop\n    /* \"#utility.yul\":334:460   */\n  swap2\n  swap1\n  pop\n  jump\t// out\n    /* \"#utility.yul\":466:562   */\ntag_33:\n    /* \"#utility.yul\":503:510   */\n  0x00\n    /* \"#utility.yul\":532:556   */\n  tag_62\n    /* \"#utility.yul\":550:555   */\n  dup3\n    /* \"#utility.yul\":532:556   */\n  tag_32\n  jump\t// in\ntag_62:\n    /* \"#utility.yul\":521:556   */\n  swap1\n  pop\n    /* \"#utility.yul\":466:562   */\n  swap2\n  swap1\n  pop\n  jump\t// out\n    /* \"#utility.yul\":568:690   */\ntag_34:\n    /* \"#utility.yul\":641:665   */\n  tag_64\n    /* \"#utility.yul\":659:664   */\n  dup2\n    /* \"#utility.yul\":641:665   */\n  tag_33\n  jump\t// in\ntag_64:\n    /* \"#utility.yul\":634:639   */\n  dup2\n    /* \"#utility.yul\":631:666   */\n  eq\n    /* \"#utility.yul\":621:684   */\n  tag_65\n  jumpi\n    /* \"#utility.yul\":680:681   */\n  0x00\n    /* \"#utility.yul\":677:678   */\n  dup1\n    /* \"#utility.yul\":670:682   */\n  revert\n    /* \"#utility.yul\":621:684   */\ntag_65:\n    /* \"#utility.yul\":568:690   */\n  pop\n  jump\t// out\n    /* \"#utility.yul\":696:839   */\ntag_35:\n    /* \"#utility.yul\":753:758   */\n  0x00\n    /* \"#utility.yul\":784:790   */\n  dup2\n    /* \"#utility.yul\":778:791   */\n  mload\n    /* \"#utility.yul\":769:791   */\n  swap1\n  pop\n    /* \"#utility.yul\":800:833   */\n  tag_67\n    /* \"#utility.yul\":827:832   */\n  dup2\n    /* \"#utility.yul\":800:833   */\n  tag_34\n  jump\t// in\ntag_67:\n    /* \"#utility.yul\":696:839   */\n  swap3\n  swap2\n  pop\n  pop\n  jump\t// out\n    /* \"#utility.yul\":845:962   */\ntag_36:\n    /* \"#utility.yul\":954:955   */\n  0x00\n    /* \"#utility.yul\":951:952   */\n  dup1\n    /* \"#utility.yul\":944:956   */\n  revert\n    /* \"#utility.yul\":968:1070   */\ntag_37:\n    /* \"#utility.yul\":1009:1015   */\n  0x00\n    /* \"#utility.yul\":1060:1062   */\n  0x1f\n    /* \"#utility.yul\":1056:1063   */\n  not\n    /* \"#utility.yul\":1051:1053   */\n  0x1f\n    /* \"#utility.yul\":1044:1049   */\n  dup4\n    /* \"#utility.yul\":1040:1054   */\n  add\n    /* \"#utility.yul\":1036:1064   */\n  and\n    /* \"#utility.yul\":1026:1064   */\n  swap1\n  pop\n    /* \"#utility.yul\":968:1070   */\n  swap2\n  swap1\n  pop\n  jump\t// out\n    /* \"#utility.yul\":1076:1256   */\ntag_38:\n    /* \"#utility.yul\":1124:1201   */\n  0x4e487b7100000000000000000000000000000000000000000000000000000000\n    /* \"#utility.yul\":1121:1122   */\n  0x00\n    /* \"#utility.yul\":1114:1202   */\n  mstore\n    /* \"#utility.yul\":1221:1225   */\n  0x41\n    /* \"#utility.yul\":1218:1219   */\n  0x04\n    /* \"#utility.yul\":1211:1226   */\n  mstore\n    /* \"#utility.yul\":1245:1249   */\n  0x24\n    /* \"#utility.yul\":1242:1243   */\n  0x00\n    /* \"#utility.yul\":1235:1250   */\n  revert\n    /* \"#utility.yul\":1262:1543   */\ntag_39:\n    /* \"#utility.yul\":1345:1372   */\n  tag_72\n    /* \"#utility.yul\":1367:1371   */\n  dup3\n    /* \"#utility.yul\":1345:1372   */\n  tag_37\n  jump\t// in\ntag_72:\n    /* \"#utility.yul\":1337:1343   */\n  dup2\n    /* \"#utility.yul\":1333:1373   */\n  add\n    /* \"#utility.yul\":1475:1481   */\n  dup2\n    /* \"#utility.yul\":1463:1473   */\n  dup2\n    /* \"#utility.yul\":1460:1482   */\n  lt\n    /* \"#utility.yul\":1439:1457   */\n  0xffffffffffffffff\n    /* \"#utility.yul\":1427:1437   */\n  dup3\n    /* \"#utility.yul\":1424:1458   */\n  gt\n    /* \"#utility.yul\":1421:1483   */\n  or\n    /* \"#utility.yul\":1418:1506   */\n  iszero\n  tag_73\n  jumpi\n    /* \"#utility.yul\":1486:1504   */\n  tag_74\n  tag_38\n  jump\t// in\ntag_74:\n    /* \"#utility.yul\":1418:1506   */\ntag_73:\n    /* \"#utility.yul\":1526:1536   */\n  dup1\n    /* \"#utility.yul\":1522:1524   */\n  0x40\n    /* \"#utility.yul\":1515:1537   */\n  mstore\n    /* \"#utility.yul\":1305:1543   */\n  pop\n    /* \"#utility.yul\":1262:1543   */\n  pop\n  pop\n  jump\t// out\n    /* \"#utility.yul\":1549:1678   */\ntag_40:\n    /* \"#utility.yul\":1583:1589   */\n  0x00\n    /* \"#utility.yul\":1610:1630   */\n  tag_76\n  tag_29\n  jump\t// in\ntag_76:\n    /* \"#utility.yul\":1600:1630   */\n  swap1\n  pop\n    /* \"#utility.yul\":1639:1672   */\n  tag_77\n    /* \"#utility.yul\":1667:1671   */\n  dup3\n    /* \"#utility.yul\":1659:1665   */\n  dup3\n    /* \"#utility.yul\":1639:1672   */\n  tag_39\n  jump\t// in\ntag_77:\n    /* \"#utility.yul\":1549:1678   */\n  swap2\n  swap1\n  pop\n  jump\t// out\n    /* \"#utility.yul\":1684:1995   */\ntag_41:\n    /* \"#utility.yul\":1761:1765   */\n  0x00\n    /* \"#utility.yul\":1851:1869   */\n  0xffffffffffffffff\n    /* \"#utility.yul\":1843:1849   */\n  dup3\n    /* \"#utility.yul\":1840:1870   */\n  gt\n    /* \"#utility.yul\":1837:1893   */\n  iszero\n  tag_79\n  jumpi\n    /* \"#utility.yul\":1873:1891   */\n  tag_80\n  tag_38\n  jump\t// in\ntag_80:\n    /* \"#utility.yul\":1837:1893   */\ntag_79:\n    /* \"#utility.yul\":1923:1927   */\n  0x20\n    /* \"#utility.yul\":1915:1921   */\n  dup3\n    /* \"#utility.yul\":1911:1928   */\n  mul\n    /* \"#utility.yul\":1903:1928   */\n  swap1\n  pop\n    /* \"#utility.yul\":1983:1987   */\n  0x20\n    /* \"#utility.yul\":1977:1981   */\n  dup2\n    /* \"#utility.yul\":1973:1988   */\n  add\n    /* \"#utility.yul\":1965:1988   */\n  swap1\n  pop\n    /* \"#utility.yul\":1684:1995   */\n  swap2\n  swap1\n  pop\n  jump\t// out\n    /* \"#utility.yul\":2001:2118   */\ntag_42:\n    /* \"#utility.yul\":2110:2111   */\n  0x00\n    /* \"#utility.yul\":2107:2108   */\n  dup1\n    /* \"#utility.yul\":2100:2112   */\n  revert\n    /* \"#utility.yul\":2141:2873   */\ntag_43:\n    /* \"#utility.yul\":2248:2253   */\n  0x00\n    /* \"#utility.yul\":2273:2354   */\n  tag_83\n    /* \"#utility.yul\":2289:2353   */\n  tag_84\n    /* \"#utility.yul\":2346:2352   */\n  dup5\n    /* \"#utility.yul\":2289:2353   */\n  tag_41\n  jump\t// in\ntag_84:\n    /* \"#utility.yul\":2273:2354   */\n  tag_40\n  jump\t// in\ntag_83:\n    /* \"#utility.yul\":2264:2354   */\n  swap1\n  pop\n    /* \"#utility.yul\":2374:2379   */\n  dup1\n    /* \"#utility.yul\":2403:2409   */\n  dup4\n    /* \"#utility.yul\":2396:2401   */\n  dup3\n    /* \"#utility.yul\":2389:2410   */\n  mstore\n    /* \"#utility.yul\":2437:2441   */\n  0x20\n    /* \"#utility.yul\":2430:2435   */\n  dup3\n    /* \"#utility.yul\":2426:2442   */\n  add\n    /* \"#utility.yul\":2419:2442   */\n  swap1\n  pop\n    /* \"#utility.yul\":2490:2494   */\n  0x20\n    /* \"#utility.yul\":2482:2488   */\n  dup5\n    /* \"#utility.yul\":2478:2495   */\n  mul\n    /* \"#utility.yul\":2470:2476   */\n  dup4\n    /* \"#utility.yul\":2466:2496   */\n  add\n    /* \"#utility.yul\":2519:2522   */\n  dup6\n    /* \"#utility.yul\":2511:2517   */\n  dup2\n    /* \"#utility.yul\":2508:2523   */\n  gt\n    /* \"#utility.yul\":2505:2627   */\n  iszero\n  tag_85\n  jumpi\n    /* \"#utility.yul\":2538:2617   */\n  tag_86\n  tag_42\n  jump\t// in\ntag_86:\n    /* \"#utility.yul\":2505:2627   */\ntag_85:\n    /* \"#utility.yul\":2653:2659   */\n  dup4\n    /* \"#utility.yul\":2636:2867   */\ntag_87:\n    /* \"#utility.yul\":2670:2676   */\n  dup2\n    /* \"#utility.yul\":2665:2668   */\n  dup2\n    /* \"#utility.yul\":2662:2677   */\n  lt\n    /* \"#utility.yul\":2636:2867   */\n  iszero\n  tag_89\n  jumpi\n    /* \"#utility.yul\":2745:2748   */\n  dup1\n    /* \"#utility.yul\":2774:2822   */\n  tag_90\n    /* \"#utility.yul\":2818:2821   */\n  dup9\n    /* \"#utility.yul\":2806:2816   */\n  dup3\n    /* \"#utility.yul\":2774:2822   */\n  tag_35\n  jump\t// in\ntag_90:\n    /* \"#utility.yul\":2769:2772   */\n  dup5\n    /* \"#utility.yul\":2762:2823   */\n  mstore\n    /* \"#utility.yul\":2852:2856   */\n  0x20\n    /* \"#utility.yul\":2847:2850   */\n  dup5\n    /* \"#utility.yul\":2843:2857   */\n  add\n    /* \"#utility.yul\":2836:2857   */\n  swap4\n  pop\n    /* \"#utility.yul\":2712:2867   */\n  pop\n    /* \"#utility.yul\":2696:2700   */\n  0x20\n    /* \"#utility.yul\":2691:2694   */\n  dup2\n    /* \"#utility.yul\":2687:2701   */\n  add\n    /* \"#utility.yul\":2680:2701   */\n  swap1\n  pop\n    /* \"#utility.yul\":2636:2867   */\n  jump(tag_87)\ntag_89:\n    /* \"#utility.yul\":2640:2661   */\n  pop\n    /* \"#utility.yul\":2254:2873   */\n  pop\n  pop\n    /* \"#utility.yul\":2141:2873   */\n  swap4\n  swap3\n  pop\n  pop\n  pop\n  jump\t// out\n    /* \"#utility.yul\":2896:3281   */\ntag_44:\n    /* \"#utility.yul\":2978:2983   */\n  0x00\n    /* \"#utility.yul\":3027:3030   */\n  dup3\n    /* \"#utility.yul\":3020:3024   */\n  0x1f\n    /* \"#utility.yul\":3012:3018   */\n  dup4\n    /* \"#utility.yul\":3008:3025   */\n  add\n    /* \"#utility.yul\":3004:3031   */\n  slt\n    /* \"#utility.yul\":2994:3116   */\n  tag_92\n  jumpi\n    /* \"#utility.yul\":3035:3114   */\n  tag_93\n  tag_36\n  jump\t// in\ntag_93:\n    /* \"#utility.yul\":2994:3116   */\ntag_92:\n    /* \"#utility.yul\":3145:3151   */\n  dup2\n    /* \"#utility.yul\":3139:3152   */\n  mload\n    /* \"#utility.yul\":3170:3275   */\n  tag_94\n    /* \"#utility.yul\":3271:3274   */\n  dup5\n    /* \"#utility.yul\":3263:3269   */\n  dup3\n    /* \"#utility.yul\":3256:3260   */\n  0x20\n    /* \"#utility.yul\":3248:3254   */\n  dup7\n    /* \"#utility.yul\":3244:3261   */\n  add\n    /* \"#utility.yul\":3170:3275   */\n  tag_43\n  jump\t// in\ntag_94:\n    /* \"#utility.yul\":3161:3275   */\n  swap2\n  pop\n    /* \"#utility.yul\":2984:3281   */\n  pop\n    /* \"#utility.yul\":2896:3281   */\n  swap3\n  swap2\n  pop\n  pop\n  jump\t// out\n    /* \"#utility.yul\":3287:3364   */\ntag_45:\n    /* \"#utility.yul\":3324:3331   */\n  0x00\n    /* \"#utility.yul\":3353:3358   */\n  dup2\n    /* \"#utility.yul\":3342:3358   */\n  swap1\n  pop\n    /* \"#utility.yul\":3287:3364   */\n  swap2\n  swap1\n  pop\n  jump\t// out\n    /* \"#utility.yul\":3370:3492   */\ntag_46:\n    /* \"#utility.yul\":3443:3467   */\n  tag_97\n    /* \"#utility.yul\":3461:3466   */\n  dup2\n    /* \"#utility.yul\":3443:3467   */\n  tag_45\n  jump\t// in\ntag_97:\n    /* \"#utility.yul\":3436:3441   */\n  dup2\n    /* \"#utility.yul\":3433:3468   */\n  eq\n    /* \"#utility.yul\":3423:3486   */\n  tag_98\n  jumpi\n    /* \"#utility.yul\":3482:3483   */\n  0x00\n    /* \"#utility.yul\":3479:3480   */\n  dup1\n    /* \"#utility.yul\":3472:3484   */\n  revert\n    /* \"#utility.yul\":3423:3486   */\ntag_98:\n    /* \"#utility.yul\":3370:3492   */\n  pop\n  jump\t// out\n    /* \"#utility.yul\":3498:3641   */\ntag_47:\n    /* \"#utility.yul\":3555:3560   */\n  0x00\n    /* \"#utility.yul\":3586:3592   */\n  dup2\n    /* \"#utility.yul\":3580:3593   */\n  mload\n    /* \"#utility.yul\":3571:3593   */\n  swap1\n  pop\n    /* \"#utility.yul\":3602:3635   */\n  tag_100\n    /* \"#utility.yul\":3629:3634   */\n  dup2\n    /* \"#utility.yul\":3602:3635   */\n  tag_46\n  jump\t// in\ntag_100:\n    /* \"#utility.yul\":3498:3641   */\n  swap3\n  swap2\n  pop\n  pop\n  jump\t// out\n    /* \"#utility.yul\":3647:4513   */\ntag_3:\n    /* \"#utility.yul\":3760:3766   */\n  0x00\n    /* \"#utility.yul\":3768:3774   */\n  dup1\n    /* \"#utility.yul\":3776:3782   */\n  0x00\n    /* \"#utility.yul\":3825:3827   */\n  0x60\n    /* \"#utility.yul\":3813:3822   */\n  dup5\n    /* \"#utility.yul\":3804:3811   */\n  dup7\n    /* \"#utility.yul\":3800:3823   */\n  sub\n    /* \"#utility.yul\":3796:3828   */\n  slt\n    /* \"#utility.yul\":3793:3912   */\n  iszero\n  tag_102\n  jumpi\n    /* \"#utility.yul\":3831:3910   */\n  tag_103\n  tag_30\n  jump\t// in\ntag_103:\n    /* \"#utility.yul\":3793:3912   */\ntag_102:\n    /* \"#utility.yul\":3951:3952   */\n  0x00\n    /* \"#utility.yul\":3976:4040   */\n  tag_104\n    /* \"#utility.yul\":4032:4039   */\n  dup7\n    /* \"#utility.yul\":4023:4029   */\n  dup3\n    /* \"#utility.yul\":4012:4021   */\n  dup8\n    /* \"#utility.yul\":4008:4030   */\n  add\n    /* \"#utility.yul\":3976:4040   */\n  tag_35\n  jump\t// in\ntag_104:\n    /* \"#utility.yul\":3966:4040   */\n  swap4\n  pop\n    /* \"#utility.yul\":3922:4050   */\n  pop\n    /* \"#utility.yul\":4110:4112   */\n  0x20\n    /* \"#utility.yul\":4099:4108   */\n  dup5\n    /* \"#utility.yul\":4095:4113   */\n  add\n    /* \"#utility.yul\":4089:4114   */\n  mload\n    /* \"#utility.yul\":4141:4159   */\n  0xffffffffffffffff\n    /* \"#utility.yul\":4133:4139   */\n  dup2\n    /* \"#utility.yul\":4130:4160   */\n  gt\n    /* \"#utility.yul\":4127:4244   */\n  iszero\n  tag_105\n  jumpi\n    /* \"#utility.yul\":4163:4242   */\n  tag_106\n  tag_31\n  jump\t// in\ntag_106:\n    /* \"#utility.yul\":4127:4244   */\ntag_105:\n    /* \"#utility.yul\":4268:4357   */\n  tag_107\n    /* \"#utility.yul\":4349:4356   */\n  dup7\n    /* \"#utility.yul\":4340:4346   */\n  dup3\n    /* \"#utility.yul\":4329:4338   */\n  dup8\n    /* \"#utility.yul\":4325:4347   */\n  add\n    /* \"#utility.yul\":4268:4357   */\n  tag_44\n  jump\t// in\ntag_107:\n    /* \"#utility.yul\":4258:4357   */\n  swap3\n  pop\n    /* \"#utility.yul\":4060:4367   */\n  pop\n    /* \"#utility.yul\":4406:4408   */\n  0x40\n    /* \"#utility.yul\":4432:4496   */\n  tag_108\n    /* \"#utility.yul\":4488:4495   */\n  dup7\n    /* \"#utility.yul\":4479:4485   */\n  dup3\n    /* \"#utility.yul\":4468:4477   */\n  dup8\n    /* \"#utility.yul\":4464:4486   */\n  add\n    /* \"#utility.yul\":4432:4496   */\n  tag_47\n  jump\t// in\ntag_108:\n    /* \"#utility.yul\":4422:4496   */\n  swap2\n  pop\n    /* \"#utility.yul\":4377:4506   */\n  pop\n    /* \"#utility.yul\":3647:4513   */\n  swap3\n  pop\n  swap3\n  pop\n  swap3\n  jump\t// out\n    /* \"#utility.yul\":4519:4688   */\ntag_48:\n    /* \"#utility.yul\":4603:4614   */\n  0x00\n    /* \"#utility.yul\":4637:4643   */\n  dup3\n    /* \"#utility.yul\":4632:4635   */\n  dup3\n    /* \"#utility.yul\":4625:4644   */\n  mstore\n    /* \"#utility.yul\":4677:4681   */\n  0x20\n    /* \"#utility.yul\":4672:4675   */\n  dup3\n    /* \"#utility.yul\":4668:4682   */\n  add\n    /* \"#utility.yul\":4653:4682   */\n  swap1\n  pop\n    /* \"#utility.yul\":4519:4688   */\n  swap3\n  swap2\n  pop\n  pop\n  jump\t// out\n    /* \"#utility.yul\":4694:4854   */\ntag_49:\n    /* \"#utility.yul\":4834:4846   */\n  0x7a65726f206f776e657200000000000000000000000000000000000000000000\n    /* \"#utility.yul\":4830:4831   */\n  0x00\n    /* \"#utility.yul\":4822:4828   */\n  dup3\n    /* \"#utility.yul\":4818:4832   */\n  add\n    /* \"#utility.yul\":4811:4847   */\n  mstore\n    /* \"#utility.yul\":4694:4854   */\n  pop\n  jump\t// out\n    /* \"#utility.yul\":4860:5226   */\ntag_50:\n    /* \"#utility.yul\":5002:5005   */\n  0x00\n    /* \"#utility.yul\":5023:5090   */\n  tag_112\n    /* \"#utility.yul\":5087:5089   */\n  0x0a\n    /* \"#utility.yul\":5082:5085   */\n  dup4\n    /* \"#utility.yul\":5023:5090   */\n  tag_48\n  jump\t// in\ntag_112:\n    /* \"#utility.yul\":5016:5090   */\n  swap2\n  pop\n    /* \"#utility.yul\":5099:5192   */\n  tag_113\n    /* \"#utility.yul\":5188:5191   */\n  dup3\n    /* \"#utility.yul\":5099:5192   */\n  tag_49\n  jump\t// in\ntag_113:\n    /* \"#utility.yul\":5217:5219   */\n  0x20\n    /* \"#utility.yul\":5212:5215   */\n  dup3\n    /* \"#utility.yul\":5208:5220   */\n  add\n    /* \"#utility.yul\":5201:5220   */\n  swap1\n  pop\n    /* \"#utility.yul\":4860:5226   */\n  swap2\n  swap1\n  pop\n  jump\t// out\n    /* \"#utility.yul\":5232:5651   */\ntag_10:\n    /* \"#utility.yul\":5398:5402   */\n  0x00\n    /* \"#utility.yul\":5436:5438   */\n  0x20\n    /* \"#utility.yul\":5425:5434   */\n  dup3\n    /* \"#utility.yul\":5421:5439   */\n  add\n    /* \"#utility.yul\":5413:5439   */\n  swap1\n  pop\n    /* \"#utility.yul\":5485:5494   */\n  dup2\n    /* \"#utility.yul\":5479:5483   */\n  dup2\n    /* \"#utility.yul\":5475:5495   */\n  sub\n    /* \"#utility.yul\":5471:5472   */\n  0x00\n    /* \"#utility.yul\":5460:5469   */\n  dup4\n    /* \"#utility.yul\":5456:5473   */\n  add\n    /* \"#utility.yul\":5449:5496   */\n  mstore\n    /* \"#utility.yul\":5513:5644   */\n  tag_115\n    /* \"#utility.yul\":5639:5643   */\n  dup2\n    /* \"#utility.yul\":5513:5644   */\n  tag_50\n  jump\t// in\ntag_115:\n    /* \"#utility.yul\":5505:5644   */\n  swap1\n  pop\n    /* \"#utility.yul\":5232:5651   */\n  swap2\n  swap1\n  pop\n  jump\t// out\n    /* \"#utility.yul\":5657:5824   */\ntag_51:\n    /* \"#utility.yul\":5797:5816   */\n  0x696e76616c6964207468726573686f6c64000000000000000000000000000000\n    /* \"#utility.yul\":5793:5794   */\n  0x00\n    /* \"#utility.yul\":5785:5791   */\n  dup3\n    /* \"#utility.yul\":5781:5795   */\n  add\n    /* \"#utility.yul\":5774:5817   */\n  mstore\n    /* \"#utility.yul\":5657:5824   */\n  pop\n  jump\t// out\n    /* \"#utility.yul\":5830:6196   */\ntag_52:\n    /* \"#utility.yul\":5972:5975   */\n  0x00\n    /* \"#utility.yul\":5993:6060   */\n  tag_118\n    /* \"#utility.yul\":6057:6059   */\n  0x11\n    /* \"#utility.yul\":6052:6055   */\n  dup4\n    /* \"#utility.yul\":5993:6060   */\n  tag_48\n  jump\t// in\ntag_118:\n    /* \"#utility.yul\":5986:6060   */\n  swap2\n  pop\n    /* \"#utility.yul\":6069:6162   */\n  tag_119\n    /* \"#utility.yul\":6158:6161   */\n  dup3\n    /* \"#utility.yul\":6069:6162   */\n  tag_51\n  jump\t// in\ntag_119:\n    /* \"#utility.yul\":6187:6189   */\n  0x20\n    /* \"#utility.yul\":6182:6185   */\n  dup3\n    /* \"#utility.yul\":6178:6190   */\n  add\n    /* \"#utility.yul\":6171:6190   */\n  swap1\n  pop\n    /* \"#utility.yul\":5830:6196   */\n  swap2\n  swap1\n  pop\n  jump\t// out\n    /* \"#utility.yul\":6202:6621   */\ntag_14:\n    /* \"#utility.yul\":6368:6372   */\n  0x00\n    /* \"#utility.yul\":6406:6408   */\n  0x20\n    /* \"#utility.yul\":6395:6404   */\n  dup3\n    /* \"#utility.yul\":6391:6409   */\n  add\n    /* \"#utility.yul\":6383:6409   */\n  swap1\n  pop\n    /* \"#utility.yul\":6455:6464   */\n  dup2\n    /* \"#utility.yul\":6449:6453   */\n  dup2\n    /* \"#utility.yul\":6445:6465   */\n  sub\n    /* \"#utility.yul\":6441:6442   */\n  0x00\n    /* \"#utility.yul\":6430:6439   */\n  dup4\n    /* \"#utility.yul\":6426:6443   */\n  add\n    /* \"#utility.yul\":6419:6466   */\n  mstore\n    /* \"#utility.yul\":6483:6614   */\n  tag_121\n    /* \"#utility.yul\":6609:6613   */\n  dup2\n    /* \"#utility.yul\":6483:6614   */\n  tag_52\n  jump\t// in\ntag_121:\n    /* \"#utility.yul\":6475:6614   */\n  swap1\n  pop\n    /* \"#utility.yul\":6202:6621   */\n  swap2\n  swap1\n  pop\n  jump\t// out\n    /* \"#utility.yul\":6627:6807   */\ntag_20:\n    /* \"#utility.yul\":6675:6752   */\n  0x4e487b7100000000000000000000000000000000000000000000000000000000\n    /* \"#utility.yul\":6672:6673   */\n  0x00\n    /* \"#utility.yul\":6665:6753   */\n  mstore\n    /* \"#utility.yul\":6772:6776   */\n  0x32\n    /* \"#utility.yul\":6769:6770   */\n  0x04\n    /* \"#utility.yul\":6762:6777   */\n  mstore\n    /* \"#utility.yul\":6796:6800   */\n  0x24\n    /* \"#utility.yul\":6793:6794   */\n  0x00\n    /* \"#utility.yul\":6786:6801   */\n  revert\n    /* \"#utility.yul\":6813:6976   */\ntag_53:\n    /* \"#utility.yul\":6953:6968   */\n  0x7a65726f20677561726469616e00000000000000000000000000000000000000\n    /* \"#utility.yul\":6949:6950   */\n  0x00\n    /* \"#utility.yul\":6941:6947   */\n  dup3\n    /* \"#utility.yul\":6937:6951   */\n  add\n    /* \"#utility.yul\":6930:6969   */\n  mstore\n    /* \"#utility.yul\":6813:6976   */\n  pop\n  jump\t// out\n    /* \"#utility.yul\":6982:7348   */\ntag_54:\n    /* \"#utility.yul\":7124:7127   */\n  0x00\n    /* \"#utility.yul\":7145:7212   */\n  tag_125\n    /* \"#utility.yul\":7209:7211   */\n  0x0d\n    /* \"#utility.yul\":7204:7207   */\n  dup4\n    /* \"#utility.yul\":7145:7212   */\n  tag_48\n  jump\t// in\ntag_125:\n    /* \"#utility.yul\":7138:7212   */\n  swap2\n  pop\n    /* \"#utility.yul\":7221:7314   */\n  tag_126\n    /* \"#utility.yul\":7310:7313   */\n  dup3\n    /* \"#utility.yul\":7221:7314   */\n  tag_53\n  jump\t// in\ntag_126:\n    /* \"#utility.yul\":7339:7341   */\n  0x20\n    /* \"#utility.yul\":7334:7337   */\n  dup3\n    /* \"#utility.yul\":7330:7342   */\n  add\n    /* \"#utility.yul\":7323:7342   */\n  swap1\n  pop\n    /* \"#utility.yul\":6982:7348   */\n  swap2\n  swap1\n  pop\n  jump\t// out\n    /* \"#utility.yul\":7354:7773   */\ntag_23:\n    /* \"#utility.yul\":7520:7524   */\n  0x00\n    /* \"#utility.yul\":7558:7560   */\n  0x20\n    /* \"#utility.yul\":7547:7556   */\n  dup3\n    /* \"#utility.yul\":7543:7561   */\n  add\n    /* \"#utility.yul\":7535:7561   */\n  swap1\n  pop\n    /* \"#utility.yul\":7607:7616   */\n  dup2\n    /* \"#utility.yul\":7601:7605   */\n  dup2\n    /* \"#utility.yul\":7597:7617   */\n  sub\n    /* \"#utility.yul\":7593:7594   */\n  0x00\n    /* \"#utility.yul\":7582:7591   */\n  dup4\n    /* \"#utility.yul\":7578:7595   */\n  add\n    /* \"#utility.yul\":7571:7618   */\n  mstore\n    /* \"#utility.yul\":7635:7766   */\n  tag_128\n    /* \"#utility.yul\":7761:7765   */\n  dup2\n    /* \"#utility.yul\":7635:7766   */\n  tag_54\n  jump\t// in\ntag_128:\n    /* \"#utility.yul\":7627:7766   */\n  swap1\n  pop\n    /* \"#utility.yul\":7354:7773   */\n  swap2\n  swap1\n  pop\n  jump\t// out\n    /* \"#utility.yul\":7779:7959   */\ntag_55:\n    /* \"#utility.yul\":7827:7904   */\n  0x4e487b7100000000000000000000000000000000000000000000000000000000\n    /* \"#utility.yul\":7824:7825   */\n  0x00\n    /* \"#utility.yul\":7817:7905   */\n  mstore\n    /* \"#utility.yul\":7924:7928   */\n  0x11\n    /* \"#utility.yul\":7921:7922   */\n  0x04\n    /* \"#utility.yul\":7914:7929   */\n  mstore\n    /* \"#utility.yul\":7948:7952   */\n  0x24\n    /* \"#utility.yul\":7945:7946   */\n  0x00\n    /* \"#utility.yul\":7938:7953   */\n  revert\n    /* \"#utility.yul\":7965:8198   */\ntag_27:\n    /* \"#utility.yul\":8004:8007   */\n  0x00\n    /* \"#utility.yul\":8027:8051   */\n  tag_131\n    /* \"#utility.yul\":8045:8050   */\n  dup3\n    /* \"#utility.yul\":8027:8051   */\n  tag_45\n  jump\t// in\ntag_131:\n    /* \"#utility.yul\":8018:8051   */\n  swap2\n  pop\n    /* \"#utility.yul\":8073:8139   */\n  0xffffffffffffffffffffffffffffffffffffffffffffffffffffffffffffffff\n    /* \"#utility.yul\":8066:8071   */\n  dup3\n    /* \"#utility.yul\":8063:8140   */\n  sub\n    /* \"#utility.yul\":8060:8163   */\n  tag_132\n  jumpi\n    /* \"#utility.yul\":8143:8161   */\n  tag_133\n  tag_55\n  jump\t// in\ntag_133:\n    /* \"#utility.yul\":8060:8163   */\ntag_132:\n    /* \"#utility.yul\":8190:8191   */\n  0x01\n    /* \"#utility.yul\":8183:8188   */\n  dup3\n    /* \"#utility.yul\":8179:8192   */\n  add\n    /* \"#utility.yul\":8172:8192   */\n  swap1\n  pop\n    /* \"#utility.yul\":7965:8198   */\n  swap2\n  swap1\n  pop\n  jump\t// out\n    /* \"contracts/GuardianRecoveryWallet.sol\":122:5051  contract GuardianRecoveryWallet is ReentrancyGuard {... */\ntag_28:\n  dataSize(sub_0)\n  dup1\n  dataOffset(sub_0)\n  0x00\n  codecopy\n  0x00\n  return\nstop\n\nsub_0: assembly {\n        /* \"contracts/GuardianRecoveryWallet.sol\":122:5051  contract GuardianRecoveryWallet is ReentrancyGuard {... */\n      mstore(0x40, 0x80)\n      jumpi(tag_1, lt(calldatasize, 0x04))\n      shr(0xe0, calldataload(0x00))\n      dup1\n      0x7ee76082\n      gt\n      tag_18\n      jumpi\n      dup1\n      0xa526d83b\n      gt\n      tag_19\n      jumpi\n      dup1\n      0xa526d83b\n      eq\n      tag_14\n      jumpi\n      dup1\n      0xb61d27f6\n      eq\n      tag_15\n      jumpi\n      dup1\n      0xd5af4e20\n      eq\n      tag_16\n      jumpi\n      dup1\n      0xed894cd3\n      eq\n      tag_17\n      jumpi\n      jump(tag_2)\n    tag_19:\n      dup1\n      0x7ee76082\n      eq\n      tag_10\n      jumpi\n      dup1\n      0x8da5cb5b\n      eq\n      tag_11\n      jumpi\n      dup1\n      0x960bfe04\n      eq\n      tag_12\n      jumpi\n      dup1\n      0xa3b1290a\n      eq\n      tag_13\n      jumpi\n      jump(tag_2)\n    tag_18:\n      dup1\n      0x113647bb\n      gt\n      tag_20\n      jumpi\n      dup1\n      0x113647bb\n      eq\n      tag_6\n      jumpi\n      dup1\n      0x146104dc\n      eq\n      tag_7\n      jumpi\n      dup1\n      0x56570571\n      eq\n      tag_8\n      jumpi\n      dup1\n      0x71404156\n      eq\n      tag_9\n      jumpi\n      jump(tag_2)\n    tag_20:\n      dup1\n      0x0665f04b\n      eq\n      tag_3\n      jumpi\n      dup1\n      0x0c68ba21\n      eq\n      tag_4\n      jumpi\n      dup1\n      0x10de2676\n      eq\n      tag_5\n      jumpi\n      jump(tag_2)\n    tag_1:\n      jumpi(tag_2, calldatasize)\n      stop\n    tag_2:\n      stop\n        /* \"contracts/GuardianRecoveryWallet.sol\":4819:4921  function getGuardians() external view returns (address[] memory) {... */\n    tag_3:\n      callvalue\n      dup1\n      iszero\n      tag_25\n      jumpi\n      0x00\n      dup1\n      revert\n    tag_25:\n      pop\n      tag_26\n      tag_27\n      jump\t// in\n    tag_26:\n      mload(0x40)\n      tag_28\n      swap2\n      swap1\n      tag_29\n      jump\t// in\n    tag_28:\n      mload(0x40)\n      dup1\n      swap2\n      sub\n      swap1\n      return\n        /* \"contracts/GuardianRecoveryWallet.sol\":205:247  mapping(address => bool) public isGuardian */\n    tag_4:\n      callvalue\n      dup1\n      iszero\n      tag_30\n      jumpi\n      0x00\n      dup1\n      revert\n    tag_30:\n      pop\n      tag_31\n      0x04\n      dup1\n      calldatasize\n      sub\n      dup2\n      add\n      swap1\n      tag_32\n      swap2\n      swap1\n      tag_33\n      jump\t// in\n    tag_32:\n      tag_34\n      jump\t// in\n    tag_31:\n      mload(0x40)\n      tag_35\n      swap2\n      swap1\n      tag_36\n      jump\t// in\n    tag_35:\n      mload(0x40)\n      dup1\n      swap2\n      sub\n      swap1\n      return\n        /* \"contracts/GuardianRecoveryWallet.sol\":4531:4813  function cancelRecovery(uint256 id) external onlyOwner {... */\n    tag_5:\n      callvalue\n      dup1\n      iszero\n      tag_37\n      jumpi\n      0x00\n      dup1\n      revert\n    tag_37:\n      pop\n      tag_38\n      0x04\n      dup1\n      calldatasize\n      sub\n      dup2\n      add\n      swap1\n      tag_39\n      swap2\n      swap1\n      tag_40\n      jump\t// in\n    tag_39:\n      tag_41\n      jump\t// in\n    tag_38:\n      stop\n        /* \"contracts/GuardianRecoveryWallet.sol\":3703:4117  function approveRecovery(uint256 id) external onlyGuardian {... */\n    tag_6:\n      callvalue\n      dup1\n      iszero\n      tag_42\n      jumpi\n      0x00\n      dup1\n      revert\n    tag_42:\n      pop\n      tag_43\n      0x04\n      dup1\n      calldatasize\n      sub\n      dup2\n      add\n      swap1\n      tag_44\n      swap2\n      swap1\n      tag_40\n      jump\t// in\n    tag_44:\n      tag_45\n      jump\t// in\n    tag_43:\n      stop\n        /* \"contracts/GuardianRecoveryWallet.sol\":253:283  address[] public guardiansList */\n    tag_7:\n      callvalue\n      dup1\n      iszero\n      tag_46\n      jumpi\n      0x00\n      dup1\n      revert\n    tag_46:\n      pop\n      tag_47\n      0x04\n      dup1\n      calldatasize\n      sub\n      dup2\n      add\n      swap1\n      tag_48\n      swap2\n      swap1\n      tag_40\n      jump\t// in\n    tag_48:\n      tag_49\n      jump\t// in\n    tag_47:\n      mload(0x40)\n      tag_50\n      swap2\n      swap1\n      tag_51\n      jump\t// in\n    tag_50:\n      mload(0x40)\n      dup1\n      swap2\n      sub\n      swap1\n      return\n        /* \"contracts/GuardianRecoveryWallet.sol\":4123:4525  function executeRecovery(uint256 id) external onlyGuardian {... */\n    tag_8:\n      callvalue\n      dup1\n      iszero\n      tag_52\n      jumpi\n      0x00\n      dup1\n      revert\n    tag_52:\n      pop\n      tag_53\n      0x04\n      dup1\n      calldatasize\n      sub\n      dup2\n      add\n      swap1\n      tag_54\n      swap2\n      swap1\n      tag_40\n      jump\t// in\n    tag_54:\n      tag_55\n      jump\t// in\n    tag_53:\n      stop\n        /* \"contracts/GuardianRecoveryWallet.sol\":2440:2959  function removeGuardian(address g) external onlyOwner {... */\n    tag_9:\n      callvalue\n      dup1\n      iszero\n      tag_56\n      jumpi\n      0x00\n      dup1\n      revert\n    tag_56:\n      pop\n      tag_57\n      0x04\n      dup1\n      calldatasize\n      sub\n      dup2\n      add\n      swap1\n      tag_58\n      swap2\n      swap1\n      tag_33\n      jump\t// in\n    tag_58:\n      tag_59\n      jump\t// in\n    tag_57:\n      stop\n        /* \"contracts/GuardianRecoveryWallet.sol\":3135:3697  function proposeRecovery(address proposedOwner) external onlyGuardian returns (uint256) {... */\n    tag_10:\n      callvalue\n      dup1\n      iszero\n      tag_60\n      jumpi\n      0x00\n      dup1\n      revert\n    tag_60:\n      pop\n      tag_61\n      0x04\n      dup1\n      calldatasize\n      sub\n      dup2\n      add\n      swap1\n      tag_62\n      swap2\n      swap1\n      tag_33\n      jump\t// in\n    tag_62:\n      tag_63\n      jump\t// in\n    tag_61:\n      mload(0x40)\n      tag_64\n      swap2\n      swap1\n      tag_65\n      jump\t// in\n    tag_64:\n      mload(0x40)\n      dup1\n      swap2\n      sub\n      swap1\n      return\n        /* \"contracts/GuardianRecoveryWallet.sol\":179:199  address public owner */\n    tag_11:\n      callvalue\n      dup1\n      iszero\n      tag_66\n      jumpi\n      0x00\n      dup1\n      revert\n    tag_66:\n      pop\n      tag_67\n      tag_68\n      jump\t// in\n    tag_67:\n      mload(0x40)\n      tag_69\n      swap2\n      swap1\n      tag_51\n      jump\t// in\n    tag_69:\n      mload(0x40)\n      dup1\n      swap2\n      sub\n      swap1\n      return\n        /* \"contracts/GuardianRecoveryWallet.sol\":2965:3129  function setThreshold(uint256 t) external onlyOwner {... */\n    tag_12:\n      callvalue\n      dup1\n      iszero\n      tag_70\n      jumpi\n      0x00\n      dup1\n      revert\n    tag_70:\n      pop\n      tag_71\n      0x04\n      dup1\n      calldatasize\n      sub\n      dup2\n      add\n      swap1\n      tag_72\n      swap2\n      swap1\n      tag_40\n      jump\t// in\n    tag_72:\n      tag_73\n      jump\t// in\n    tag_71:\n      stop\n        /* \"contracts/GuardianRecoveryWallet.sol\":4927:5049  function getRecoveryApprovals(uint256 id) external view returns (uint256) {... */\n    tag_13:\n      callvalue\n      dup1\n      iszero\n      tag_74\n      jumpi\n      0x00\n      dup1\n      revert\n    tag_74:\n      pop\n      tag_75\n      0x04\n      dup1\n      calldatasize\n      sub\n      dup2\n      add\n      swap1\n      tag_76\n      swap2\n      swap1\n      tag_40\n      jump\t// in\n    tag_76:\n      tag_77\n      jump\t// in\n    tag_75:\n      mload(0x40)\n      tag_78\n      swap2\n      swap1\n      tag_65\n      jump\t// in\n    tag_78:\n      mload(0x40)\n      dup1\n      swap2\n      sub\n      swap1\n      return\n        /* \"contracts/GuardianRecoveryWallet.sol\":2225:2434  function addGuardian(address g) external onlyOwner {... */\n    tag_14:\n      callvalue\n      dup1\n      iszero\n      tag_79\n      jumpi\n      0x00\n      dup1\n      revert\n    tag_79:\n      pop\n      tag_80\n      0x04\n      dup1\n      calldatasize\n      sub\n      dup2\n      add\n      swap1\n      tag_81\n      swap2\n      swap1\n      tag_33\n      jump\t// in\n    tag_81:\n      tag_82\n      jump\t// in\n    tag_80:\n      stop\n        /* \"contracts/GuardianRecoveryWallet.sol\":1793:2149  function execute(address target, uint256 value, bytes calldata data) external payable nonReentrant returns (bytes memory) {... */\n    tag_15:\n      tag_83\n      0x04\n      dup1\n      calldatasize\n      sub\n      dup2\n      add\n      swap1\n      tag_84\n      swap2\n      swap1\n      tag_85\n      jump\t// in\n    tag_84:\n      tag_86\n      jump\t// in\n    tag_83:\n      mload(0x40)\n      tag_87\n      swap2\n      swap1\n      tag_88\n      jump\t// in\n    tag_87:\n      mload(0x40)\n      dup1\n      swap2\n      sub\n      swap1\n      return\n        /* \"contracts/GuardianRecoveryWallet.sol\":289:321  uint256 public guardianThreshold */\n    tag_16:\n      callvalue\n      dup1\n      iszero\n      tag_89\n      jumpi\n      0x00\n      dup1\n      revert\n    tag_89:\n      pop\n      tag_90\n      tag_91\n      jump\t// in\n    tag_90:\n      mload(0x40)\n      tag_92\n      swap2\n      swap1\n      tag_65\n      jump\t// in\n    tag_92:\n      mload(0x40)\n      dup1\n      swap2\n      sub\n      swap1\n      return\n        /* \"contracts/GuardianRecoveryWallet.sol\":562:590  uint256 public recoveryNonce */\n    tag_17:\n      callvalue\n      dup1\n      iszero\n      tag_93\n      jumpi\n      0x00\n      dup1\n      revert\n    tag_93:\n      pop\n      tag_94\n      tag_95\n      jump\t// in\n    tag_94:\n      mload(0x40)\n      tag_96\n      swap2\n      swap1\n      tag_65\n      jump\t// in\n    tag_96:\n      mload(0x40)\n      dup1\n      swap2\n      sub\n      swap1\n      return\n        /* \"contracts/GuardianRecoveryWallet.sol\":4819:4921  function getGuardians() external view returns (address[] memory) {... */\n    tag_27:\n        /* \"contracts/GuardianRecoveryWallet.sol\":4866:4882  address[] memory */\n      0x60\n        /* \"contracts/GuardianRecoveryWallet.sol\":4901:4914  guardiansList */\n      0x03\n        /* \"contracts/GuardianRecoveryWallet.sol\":4894:4914  return guardiansList */\n      dup1\n      sload\n      dup1\n      0x20\n      mul\n      0x20\n      add\n      mload(0x40)\n      swap1\n      dup2\n      add\n      0x40\n      mstore\n      dup1\n      swap3\n      swap2\n      swap1\n      dup2\n      dup2\n      mstore\n      0x20\n      add\n      dup3\n      dup1\n      sload\n      dup1\n      iszero\n      tag_98\n      jumpi\n      0x20\n      mul\n      dup3\n      add\n      swap2\n      swap1\n      0x00\n      mstore\n      keccak256(0x00, 0x20)\n      swap1\n    tag_99:\n      dup2\n      0x00\n      swap1\n      sload\n      swap1\n      0x0100\n      exp\n      swap1\n      div\n      0xffffffffffffffffffffffffffffffffffffffff\n      and\n      0xffffffffffffffffffffffffffffffffffffffff\n      and\n      dup2\n      mstore\n      0x20\n      add\n      swap1\n      0x01\n      add\n      swap1\n      dup1\n      dup4\n      gt\n      tag_99\n      jumpi\n    tag_98:\n      pop\n      pop\n      pop\n      pop\n      pop\n      swap1\n      pop\n        /* \"contracts/GuardianRecoveryWallet.sol\":4819:4921  function getGuardians() external view returns (address[] memory) {... */\n      swap1\n      jump\t// out\n        /* \"contracts/GuardianRecoveryWallet.sol\":205:247  mapping(address => bool) public isGuardian */\n    tag_34:\n      mstore(0x20, 0x02)\n      dup1\n      0x00\n      mstore\n      keccak256(0x00, 0x40)\n      0x00\n      swap2\n      pop\n      sload\n      swap1\n      0x0100\n      exp\n      swap1\n      div\n      0xff\n      and\n      dup2\n      jump\t// out\n        /* \"contracts/GuardianRecoveryWallet.sol\":4531:4813  function cancelRecovery(uint256 id) external onlyOwner {... */\n    tag_41:\n        /* \"contracts/GuardianRecoveryWallet.sol\":1025:1030  owner */\n      0x01\n      0x00\n      swap1\n      sload\n      swap1\n      0x0100\n      exp\n      swap1\n      div\n      0xffffffffffffffffffffffffffffffffffffffff\n      and\n        /* \"contracts/GuardianRecoveryWallet.sol\":1011:1030  msg.sender == owner */\n      0xffffffffffffffffffffffffffffffffffffffff\n      and\n        /* \"contracts/GuardianRecoveryWallet.sol\":1011:1021  msg.sender */\n      caller\n        /* \"contracts/GuardianRecoveryWallet.sol\":1011:1030  msg.sender == owner */\n      0xffffffffffffffffffffffffffffffffffffffff\n      and\n      eq\n        /* \"contracts/GuardianRecoveryWallet.sol\":1003:1045  require(msg.sender == owner, \"only owner\") */\n      tag_101\n      jumpi\n      mload(0x40)\n      0x08c379a000000000000000000000000000000000000000000000000000000000\n      dup2\n      mstore\n      0x04\n      add\n      tag_102\n      swap1\n      tag_103\n      jump\t// in\n    tag_102:\n      mload(0x40)\n      dup1\n      swap2\n      sub\n      swap1\n      revert\n    tag_101:\n        /* \"contracts/GuardianRecoveryWallet.sol\":4596:4614  Recovery storage r */\n      0x00\n        /* \"contracts/GuardianRecoveryWallet.sol\":4617:4627  recoveries */\n      0x05\n        /* \"contracts/GuardianRecoveryWallet.sol\":4617:4631  recoveries[id] */\n      0x00\n        /* \"contracts/GuardianRecoveryWallet.sol\":4628:4630  id */\n      dup4\n        /* \"contracts/GuardianRecoveryWallet.sol\":4617:4631  recoveries[id] */\n      dup2\n      mstore\n      0x20\n      add\n      swap1\n      dup2\n      mstore\n      0x20\n      add\n      0x00\n      keccak256\n        /* \"contracts/GuardianRecoveryWallet.sol\":4596:4631  Recovery storage r = recoveries[id] */\n      swap1\n      pop\n        /* \"contracts/GuardianRecoveryWallet.sol\":4676:4677  0 */\n      0x00\n        /* \"contracts/GuardianRecoveryWallet.sol\":4649:4678  r.proposedOwner != address(0) */\n      0xffffffffffffffffffffffffffffffffffffffff\n      and\n        /* \"contracts/GuardianRecoveryWallet.sol\":4649:4650  r */\n      dup2\n        /* \"contracts/GuardianRecoveryWallet.sol\":4649:4664  r.proposedOwner */\n      0x00\n      add\n      0x00\n      swap1\n      sload\n      swap1\n      0x0100\n      exp\n      swap1\n      div\n      0xffffffffffffffffffffffffffffffffffffffff\n      and\n        /* \"contracts/GuardianRecoveryWallet.sol\":4649:4678  r.proposedOwner != address(0) */\n      0xffffffffffffffffffffffffffffffffffffffff\n      and\n      sub\n        /* \"contracts/GuardianRecoveryWallet.sol\":4641:4693  require(r.proposedOwner != address(0), \"invalid id\") */\n      tag_105\n      jumpi\n      mload(0x40)\n      0x08c379a000000000000000000000000000000000000000000000000000000000\n      dup2\n      mstore\n      0x04\n      add\n      tag_106\n      swap1\n      tag_107\n      jump\t// in\n    tag_106:\n      mload(0x40)\n      dup1\n      swap2\n      sub\n      swap1\n      revert\n    tag_105:\n        /* \"contracts/GuardianRecoveryWallet.sol\":4712:4713  r */\n      dup1\n        /* \"contracts/GuardianRecoveryWallet.sol\":4712:4722  r.executed */\n      0x03\n      add\n      0x00\n      swap1\n      sload\n      swap1\n      0x0100\n      exp\n      swap1\n      div\n      0xff\n      and\n        /* \"contracts/GuardianRecoveryWallet.sol\":4711:4722  !r.executed */\n      iszero\n        /* \"contracts/GuardianRecoveryWallet.sol\":4703:4743  require(!r.executed, \"already executed\") */\n      tag_108\n      jumpi\n      mload(0x40)\n      0x08c379a000000000000000000000000000000000000000000000000000000000\n      dup2\n      mstore\n      0x04\n      add\n      tag_109\n      swap1\n      tag_110\n      jump\t// in\n    tag_109:\n      mload(0x40)\n      dup1\n      swap2\n      sub\n      swap1\n      revert\n    tag_108:\n        /* \"contracts/GuardianRecoveryWallet.sol\":4766:4770  true */\n      0x01\n        /* \"contracts/GuardianRecoveryWallet.sol\":4753:4754  r */\n      dup2\n        /* \"contracts/GuardianRecoveryWallet.sol\":4753:4763  r.executed */\n      0x03\n      add\n      0x00\n        /* \"contracts/GuardianRecoveryWallet.sol\":4753:4770  r.executed = true */\n      0x0100\n      exp\n      dup2\n      sload\n      dup2\n      0xff\n      mul\n      not\n      and\n      swap1\n      dup4\n      iszero\n      iszero\n      mul\n      or\n      swap1\n      sstore\n      pop\n        /* \"contracts/GuardianRecoveryWallet.sol\":4803:4805  id */\n      dup2\n        /* \"contracts/GuardianRecoveryWallet.sol\":4785:4806  RecoveryCancelled(id) */\n      0x02019f620969ef34023e1048f0b0f0e1c337f94acda5cfad6aaceb5698967455\n      mload(0x40)\n      mload(0x40)\n      dup1\n      swap2\n      sub\n      swap1\n      log2\n        /* \"contracts/GuardianRecoveryWallet.sol\":4586:4813  {... */\n      pop\n        /* \"contracts/GuardianRecoveryWallet.sol\":4531:4813  function cancelRecovery(uint256 id) external onlyOwner {... */\n      pop\n      jump\t// out\n        /* \"contracts/GuardianRecoveryWallet.sol\":3703:4117  function approveRecovery(uint256 id) external onlyGuardian {... */\n    tag_45:\n        /* \"contracts/GuardianRecoveryWallet.sol\":1111:1121  isGuardian */\n      0x02\n        /* \"contracts/GuardianRecoveryWallet.sol\":1111:1133  isGuardian[msg.sender] */\n      0x00\n        /* \"contracts/GuardianRecoveryWallet.sol\":1122:1132  msg.sender */\n      caller\n        /* \"contracts/GuardianRecoveryWallet.sol\":1111:1133  isGuardian[msg.sender] */\n      0xffffffffffffffffffffffffffffffffffffffff\n      and\n      0xffffffffffffffffffffffffffffffffffffffff\n      and\n      dup2\n      mstore\n      0x20\n      add\n      swap1\n      dup2\n      mstore\n      0x20\n      add\n      0x00\n      keccak256\n      0x00\n      swap1\n      sload\n      swap1\n      0x0100\n      exp\n      swap1\n      div\n      0xff\n      and\n        /* \"contracts/GuardianRecoveryWallet.sol\":1103:1151  require(isGuardian[msg.sender], \"only guardian\") */\n      tag_112\n      jumpi\n      mload(0x40)\n      0x08c379a000000000000000000000000000000000000000000000000000000000\n      dup2\n      mstore\n      0x04\n      add\n      tag_113\n      swap1\n      tag_114\n      jump\t// in\n    tag_113:\n      mload(0x40)\n      dup1\n      swap2\n      sub\n      swap1\n      revert\n    tag_112:\n        /* \"contracts/GuardianRecoveryWallet.sol\":3772:3790  Recovery storage r */\n      0x00\n        /* \"contracts/GuardianRecoveryWallet.sol\":3793:3803  recoveries */\n      0x05\n        /* \"contracts/GuardianRecoveryWallet.sol\":3793:3807  recoveries[id] */\n      0x00\n        /* \"contracts/GuardianRecoveryWallet.sol\":3804:3806  id */\n      dup4\n        /* \"contracts/GuardianRecoveryWallet.sol\":3793:3807  recoveries[id] */\n      dup2\n      mstore\n      0x20\n      add\n      swap1\n      dup2\n      mstore\n      0x20\n      add\n      0x00\n      keccak256\n        /* \"contracts/GuardianRecoveryWallet.sol\":3772:3807  Recovery storage r = recoveries[id] */\n      swap1\n      pop\n        /* \"contracts/GuardianRecoveryWallet.sol\":3852:3853  0 */\n      0x00\n        /* \"contracts/GuardianRecoveryWallet.sol\":3825:3854  r.proposedOwner != address(0) */\n      0xffffffffffffffffffffffffffffffffffffffff\n      and\n        /* \"contracts/GuardianRecoveryWallet.sol\":3825:3826  r */\n      dup2\n        /* \"contracts/GuardianRecoveryWallet.sol\":3825:3840  r.proposedOwner */\n      0x00\n      add\n      0x00\n      swap1\n      sload\n      swap1\n      0x0100\n      exp\n      swap1\n      div\n      0xffffffffffffffffffffffffffffffffffffffff\n      and\n        /* \"contracts/GuardianRecoveryWallet.sol\":3825:3854  r.proposedOwner != address(0) */\n      0xffffffffffffffffffffffffffffffffffffffff\n      and\n      sub\n        /* \"contracts/GuardianRecoveryWallet.sol\":3817:3869  require(r.proposedOwner != address(0), \"invalid id\") */\n      tag_116\n      jumpi\n      mload(0x40)\n      0x08c379a000000000000000000000000000000000000000000000000000000000\n      dup2\n      mstore\n      0x04\n      add\n      tag_117\n      swap1\n      tag_107\n      jump\t// in\n    tag_117:\n      mload(0x40)\n      dup1\n      swap2\n      sub\n      swap1\n      revert\n    tag_116:\n        /* \"contracts/GuardianRecoveryWallet.sol\":3888:3889  r */\n      dup1\n        /* \"contracts/GuardianRecoveryWallet.sol\":3888:3898  r.executed */\n      0x03\n      add\n      0x00\n      swap1\n      sload\n      swap1\n      0x0100\n      exp\n      swap1\n      div\n      0xff\n      and\n        /* \"contracts/GuardianRecoveryWallet.sol\":3887:3898  !r.executed */\n      iszero\n        /* \"contracts/GuardianRecoveryWallet.sol\":3879:3919  require(!r.executed, \"already executed\") */\n      tag_118\n      jumpi\n      mload(0x40)\n      0x08c379a000000000000000000000000000000000000000000000000000000000\n      dup2\n      mstore\n      0x04\n      add\n      tag_119\n      swap1\n      tag_110\n      jump\t// in\n    tag_119:\n      mload(0x40)\n      dup1\n      swap2\n      sub\n      swap1\n      revert\n    tag_118:\n        /* \"contracts/GuardianRecoveryWallet.sol\":3938:3939  r */\n      dup1\n        /* \"contracts/GuardianRecoveryWallet.sol\":3938:3950  r.approvedBy */\n      0x04\n      add\n        /* \"contracts/GuardianRecoveryWallet.sol\":3938:3962  r.approvedBy[msg.sender] */\n      0x00\n        /* \"contracts/GuardianRecoveryWallet.sol\":3951:3961  msg.sender */\n      caller\n        /* \"contracts/GuardianRecoveryWallet.sol\":3938:3962  r.approvedBy[msg.sender] */\n      0xffffffffffffffffffffffffffffffffffffffff\n      and\n      0xffffffffffffffffffffffffffffffffffffffff\n      and\n      dup2\n      mstore\n      0x20\n      add\n      swap1\n      dup2\n      mstore\n      0x20\n      add\n      0x00\n      keccak256\n      0x00\n      swap1\n      sload\n      swap1\n      0x0100\n      exp\n      swap1\n      div\n      0xff\n      and\n        /* \"contracts/GuardianRecoveryWallet.sol\":3937:3962  !r.approvedBy[msg.sender] */\n      iszero\n        /* \"contracts/GuardianRecoveryWallet.sol\":3929:3983  require(!r.approvedBy[msg.sender], \"already approved\") */\n      tag_120\n      jumpi\n      mload(0x40)\n      0x08c379a000000000000000000000000000000000000000000000000000000000\n      dup2\n      mstore\n      0x04\n      add\n      tag_121\n      swap1\n      tag_122\n      jump\t// in\n    tag_121:\n      mload(0x40)\n      dup1\n      swap2\n      sub\n      swap1\n      revert\n    tag_120:\n        /* \"contracts/GuardianRecoveryWallet.sol\":4020:4024  true */\n      0x01\n        /* \"contracts/GuardianRecoveryWallet.sol\":3993:3994  r */\n      dup2\n        /* \"contracts/GuardianRecoveryWallet.sol\":3993:4005  r.approvedBy */\n      0x04\n      add\n        /* \"contracts/GuardianRecoveryWallet.sol\":3993:4017  r.approvedBy[msg.sender] */\n      0x00\n        /* \"contracts/GuardianRecoveryWallet.sol\":4006:4016  msg.sender */\n      caller\n        /* \"contracts/GuardianRecoveryWallet.sol\":3993:4017  r.approvedBy[msg.sender] */\n      0xffffffffffffffffffffffffffffffffffffffff\n      and\n      0xffffffffffffffffffffffffffffffffffffffff\n      and\n      dup2\n      mstore\n      0x20\n      add\n      swap1\n      dup2\n      mstore\n      0x20\n      add\n      0x00\n      keccak256\n      0x00\n        /* \"contracts/GuardianRecoveryWallet.sol\":3993:4024  r.approvedBy[msg.sender] = true */\n      0x0100\n      exp\n      dup2\n      sload\n      dup2\n      0xff\n      mul\n      not\n      and\n      swap1\n      dup4\n      iszero\n      iszero\n      mul\n      or\n      swap1\n      sstore\n      pop\n        /* \"contracts/GuardianRecoveryWallet.sol\":4049:4050  1 */\n      0x01\n        /* \"contracts/GuardianRecoveryWallet.sol\":4034:4035  r */\n      dup2\n        /* \"contracts/GuardianRecoveryWallet.sol\":4034:4045  r.approvals */\n      0x01\n      add\n      0x00\n        /* \"contracts/GuardianRecoveryWallet.sol\":4034:4050  r.approvals += 1 */\n      dup3\n      dup3\n      sload\n      tag_123\n      swap2\n      swap1\n      tag_124\n      jump\t// in\n    tag_123:\n      swap3\n      pop\n      pop\n      dup2\n      swap1\n      sstore\n      pop\n        /* \"contracts/GuardianRecoveryWallet.sol\":4082:4084  id */\n      dup2\n        /* \"contracts/GuardianRecoveryWallet.sol\":4065:4110  RecoveryApproved(id, msg.sender, r.approvals) */\n      0xd4f9207b620466cd2586fa5270946a1c9526b0a7a65f5116a4e75352ade070ee\n        /* \"contracts/GuardianRecoveryWallet.sol\":4086:4096  msg.sender */\n      caller\n        /* \"contracts/GuardianRecoveryWallet.sol\":4098:4099  r */\n      dup4\n        /* \"contracts/GuardianRecoveryWallet.sol\":4098:4109  r.approvals */\n      0x01\n      add\n      sload\n        /* \"contracts/GuardianRecoveryWallet.sol\":4065:4110  RecoveryApproved(id, msg.sender, r.approvals) */\n      mload(0x40)\n      tag_125\n      swap3\n      swap2\n      swap1\n      tag_126\n      jump\t// in\n    tag_125:\n      mload(0x40)\n      dup1\n      swap2\n      sub\n      swap1\n      log2\n        /* \"contracts/GuardianRecoveryWallet.sol\":3762:4117  {... */\n      pop\n        /* \"contracts/GuardianRecoveryWallet.sol\":3703:4117  function approveRecovery(uint256 id) external onlyGuardian {... */\n      pop\n      jump\t// out\n        /* \"contracts/GuardianRecoveryWallet.sol\":253:283  address[] public guardiansList */\n    tag_49:\n      0x03\n      dup2\n      dup2\n      sload\n      dup2\n      lt\n      tag_127\n      jumpi\n      0x00\n      dup1\n      revert\n    tag_127:\n      swap1\n      0x00\n      mstore\n      keccak256(0x00, 0x20)\n      add\n      0x00\n      swap2\n      pop\n      sload\n      swap1\n      0x0100\n      exp\n      swap1\n      div\n      0xffffffffffffffffffffffffffffffffffffffff\n      and\n      dup2\n      jump\t// out\n        /* \"contracts/GuardianRecoveryWallet.sol\":4123:4525  function executeRecovery(uint256 id) external onlyGuardian {... */\n    tag_55:\n        /* \"contracts/GuardianRecoveryWallet.sol\":1111:1121  isGuardian */\n      0x02\n        /* \"contracts/GuardianRecoveryWallet.sol\":1111:1133  isGuardian[msg.sender] */\n      0x00\n        /* \"contracts/GuardianRecoveryWallet.sol\":1122:1132  msg.sender */\n      caller\n        /* \"contracts/GuardianRecoveryWallet.sol\":1111:1133  isGuardian[msg.sender] */\n      0xffffffffffffffffffffffffffffffffffffffff\n      and\n      0xffffffffffffffffffffffffffffffffffffffff\n      and\n      dup2\n      mstore\n      0x20\n      add\n      swap1\n      dup2\n      mstore\n      0x20\n      add\n      0x00\n      keccak256\n      0x00\n      swap1\n      sload\n      swap1\n      0x0100\n      exp\n      swap1\n      div\n      0xff\n      and\n        /* \"contracts/GuardianRecoveryWallet.sol\":1103:1151  require(isGuardian[msg.sender], \"only guardian\") */\n      tag_130\n      jumpi\n      mload(0x40)\n      0x08c379a000000000000000000000000000000000000000000000000000000000\n      dup2\n      mstore\n      0x04\n      add\n      tag_131\n      swap1\n      tag_114\n      jump\t// in\n    tag_131:\n      mload(0x40)\n      dup1\n      swap2\n      sub\n      swap1\n      revert\n    tag_130:\n        /* \"contracts/GuardianRecoveryWallet.sol\":4192:4210  Recovery storage r */\n      0x00\n        /* \"contracts/GuardianRecoveryWallet.sol\":4213:4223  recoveries */\n      0x05\n        /* \"contracts/GuardianRecoveryWallet.sol\":4213:4227  recoveries[id] */\n      0x00\n        /* \"contracts/GuardianRecoveryWallet.sol\":4224:4226  id */\n      dup4\n        /* \"contracts/GuardianRecoveryWallet.sol\":4213:4227  recoveries[id] */\n      dup2\n      mstore\n      0x20\n      add\n      swap1\n      dup2\n      mstore\n      0x20\n      add\n      0x00\n      keccak256\n        /* \"contracts/GuardianRecoveryWallet.sol\":4192:4227  Recovery storage r = recoveries[id] */\n      swap1\n      pop\n        /* \"contracts/GuardianRecoveryWallet.sol\":4272:4273  0 */\n      0x00\n        /* \"contracts/GuardianRecoveryWallet.sol\":4245:4274  r.proposedOwner != address(0) */\n      0xffffffffffffffffffffffffffffffffffffffff\n      and\n        /* \"contracts/GuardianRecoveryWallet.sol\":4245:4246  r */\n      dup2\n        /* \"contracts/GuardianRecoveryWallet.sol\":4245:4260  r.proposedOwner */\n      0x00\n      add\n      0x00\n      swap1\n      sload\n      swap1\n      0x0100\n      exp\n      swap1\n      div\n      0xffffffffffffffffffffffffffffffffffffffff\n      and\n        /* \"contracts/GuardianRecoveryWallet.sol\":4245:4274  r.proposedOwner != address(0) */\n      0xffffffffffffffffffffffffffffffffffffffff\n      and\n      sub\n        /* \"contracts/GuardianRecoveryWallet.sol\":4237:4289  require(r.proposedOwner != address(0), \"invalid id\") */\n      tag_133\n      jumpi\n      mload(0x40)\n      0x08c379a000000000000000000000000000000000000000000000000000000000\n      dup2\n      mstore\n      0x04\n      add\n      tag_134\n      swap1\n      tag_107\n      jump\t// in\n    tag_134:\n      mload(0x40)\n      dup1\n      swap2\n      sub\n      swap1\n      revert\n    tag_133:\n        /* \"contracts/GuardianRecoveryWallet.sol\":4308:4309  r */\n      dup1\n        /* \"contracts/GuardianRecoveryWallet.sol\":4308:4318  r.executed */\n      0x03\n      add\n      0x00\n      swap1\n      sload\n      swap1\n      0x0100\n      exp\n      swap1\n      div\n      0xff\n      and\n        /* \"contracts/GuardianRecoveryWallet.sol\":4307:4318  !r.executed */\n      iszero\n        /* \"contracts/GuardianRecoveryWallet.sol\":4299:4339  require(!r.executed, \"already executed\") */\n      tag_135\n      jumpi\n      mload(0x40)\n      0x08c379a000000000000000000000000000000000000000000000000000000000\n      dup2\n      mstore\n      0x04\n      add\n      tag_136\n      swap1\n      tag_110\n      jump\t// in\n    tag_136:\n      mload(0x40)\n      dup1\n      swap2\n      sub\n      swap1\n      revert\n    tag_135:\n        /* \"contracts/GuardianRecoveryWallet.sol\":4372:4389  guardianThreshold */\n      sload(0x04)\n        /* \"contracts/GuardianRecoveryWallet.sol\":4357:4358  r */\n      dup2\n        /* \"contracts/GuardianRecoveryWallet.sol\":4357:4368  r.approvals */\n      0x01\n      add\n      sload\n        /* \"contracts/GuardianRecoveryWallet.sol\":4357:4389  r.approvals >= guardianThreshold */\n      lt\n      iszero\n        /* \"contracts/GuardianRecoveryWallet.sol\":4349:4416  require(r.approvals >= guardianThreshold, \"insufficient approvals\") */\n      tag_137\n      jumpi\n      mload(0x40)\n      0x08c379a000000000000000000000000000000000000000000000000000000000\n      dup2\n      mstore\n      0x04\n      add\n      tag_138\n      swap1\n      tag_139\n      jump\t// in\n    tag_138:\n      mload(0x40)\n      dup1\n      swap2\n      sub\n      swap1\n      revert\n    tag_137:\n        /* \"contracts/GuardianRecoveryWallet.sol\":4434:4435  r */\n      dup1\n        /* \"contracts/GuardianRecoveryWallet.sol\":4434:4449  r.proposedOwner */\n      0x00\n      add\n      0x00\n      swap1\n      sload\n      swap1\n      0x0100\n      exp\n      swap1\n      div\n      0xffffffffffffffffffffffffffffffffffffffff\n      and\n        /* \"contracts/GuardianRecoveryWallet.sol\":4426:4431  owner */\n      0x01\n      0x00\n        /* \"contracts/GuardianRecoveryWallet.sol\":4426:4449  owner = r.proposedOwner */\n      0x0100\n      exp\n      dup2\n      sload\n      dup2\n      0xffffffffffffffffffffffffffffffffffffffff\n      mul\n      not\n      and\n      swap1\n      dup4\n      0xffffffffffffffffffffffffffffffffffffffff\n      and\n      mul\n      or\n      swap1\n      sstore\n      pop\n        /* \"contracts/GuardianRecoveryWallet.sol\":4472:4476  true */\n      0x01\n        /* \"contracts/GuardianRecoveryWallet.sol\":4459:4460  r */\n      dup2\n        /* \"contracts/GuardianRecoveryWallet.sol\":4459:4469  r.executed */\n      0x03\n      add\n      0x00\n        /* \"contracts/GuardianRecoveryWallet.sol\":4459:4476  r.executed = true */\n      0x0100\n      exp\n      dup2\n      sload\n      dup2\n      0xff\n      mul\n      not\n      and\n      swap1\n      dup4\n      iszero\n      iszero\n      mul\n      or\n      swap1\n      sstore\n      pop\n        /* \"contracts/GuardianRecoveryWallet.sol\":4508:4510  id */\n      dup2\n        /* \"contracts/GuardianRecoveryWallet.sol\":4491:4518  RecoveryExecuted(id, owner) */\n      0xbdd579cd1fe7b2900a091daff9c05a996778a8b5d2c00f64d37d2ef13ca2e0e2\n        /* \"contracts/GuardianRecoveryWallet.sol\":4512:4517  owner */\n      0x01\n      0x00\n      swap1\n      sload\n      swap1\n      0x0100\n      exp\n      swap1\n      div\n      0xffffffffffffffffffffffffffffffffffffffff\n      and\n        /* \"contracts/GuardianRecoveryWallet.sol\":4491:4518  RecoveryExecuted(id, owner) */\n      mload(0x40)\n      tag_140\n      swap2\n      swap1\n      tag_51\n      jump\t// in\n    tag_140:\n      mload(0x40)\n      dup1\n      swap2\n      sub\n      swap1\n      log2\n        /* \"contracts/GuardianRecoveryWallet.sol\":4182:4525  {... */\n      pop\n        /* \"contracts/GuardianRecoveryWallet.sol\":4123:4525  function executeRecovery(uint256 id) external onlyGuardian {... */\n      pop\n      jump\t// out\n        /* \"contracts/GuardianRecoveryWallet.sol\":2440:2959  function removeGuardian(address g) external onlyOwner {... */\n    tag_59:\n        /* \"contracts/GuardianRecoveryWallet.sol\":1025:1030  owner */\n      0x01\n      0x00\n      swap1\n      sload\n      swap1\n      0x0100\n      exp\n      swap1\n      div\n      0xffffffffffffffffffffffffffffffffffffffff\n      and\n        /* \"contracts/GuardianRecoveryWallet.sol\":1011:1030  msg.sender == owner */\n      0xffffffffffffffffffffffffffffffffffffffff\n      and\n        /* \"contracts/GuardianRecoveryWallet.sol\":1011:1021  msg.sender */\n      caller\n        /* \"contracts/GuardianRecoveryWallet.sol\":1011:1030  msg.sender == owner */\n      0xffffffffffffffffffffffffffffffffffffffff\n      and\n      eq\n        /* \"contracts/GuardianRecoveryWallet.sol\":1003:1045  require(msg.sender == owner, \"only owner\") */\n      tag_142\n      jumpi\n      mload(0x40)\n      0x08c379a000000000000000000000000000000000000000000000000000000000\n      dup2\n      mstore\n      0x04\n      add\n      tag_143\n      swap1\n      tag_103\n      jump\t// in\n    tag_143:\n      mload(0x40)\n      dup1\n      swap2\n      sub\n      swap1\n      revert\n    tag_142:\n        /* \"contracts/GuardianRecoveryWallet.sol\":2512:2522  isGuardian */\n      0x02\n        /* \"contracts/GuardianRecoveryWallet.sol\":2512:2525  isGuardian[g] */\n      0x00\n        /* \"contracts/GuardianRecoveryWallet.sol\":2523:2524  g */\n      dup3\n        /* \"contracts/GuardianRecoveryWallet.sol\":2512:2525  isGuardian[g] */\n      0xffffffffffffffffffffffffffffffffffffffff\n      and\n      0xffffffffffffffffffffffffffffffffffffffff\n      and\n      dup2\n      mstore\n      0x20\n      add\n      swap1\n      dup2\n      mstore\n      0x20\n      add\n      0x00\n      keccak256\n      0x00\n      swap1\n      sload\n      swap1\n      0x0100\n      exp\n      swap1\n      div\n      0xff\n      and\n        /* \"contracts/GuardianRecoveryWallet.sol\":2504:2542  require(isGuardian[g], \"not guardian\") */\n      tag_145\n      jumpi\n      mload(0x40)\n      0x08c379a000000000000000000000000000000000000000000000000000000000\n      dup2\n      mstore\n      0x04\n      add\n      tag_146\n      swap1\n      tag_147\n      jump\t// in\n    tag_146:\n      mload(0x40)\n      dup1\n      swap2\n      sub\n      swap1\n      revert\n    tag_145:\n        /* \"contracts/GuardianRecoveryWallet.sol\":2568:2573  false */\n      0x00\n        /* \"contracts/GuardianRecoveryWallet.sol\":2552:2562  isGuardian */\n      0x02\n        /* \"contracts/GuardianRecoveryWallet.sol\":2552:2565  isGuardian[g] */\n      0x00\n        /* \"contracts/GuardianRecoveryWallet.sol\":2563:2564  g */\n      dup4\n        /* \"contracts/GuardianRecoveryWallet.sol\":2552:2565  isGuardian[g] */\n      0xffffffffffffffffffffffffffffffffffffffff\n      and\n      0xffffffffffffffffffffffffffffffffffffffff\n      and\n      dup2\n      mstore\n      0x20\n      add\n      swap1\n      dup2\n      mstore\n      0x20\n      add\n      0x00\n      keccak256\n      0x00\n        /* \"contracts/GuardianRecoveryWallet.sol\":2552:2573  isGuardian[g] = false */\n      0x0100\n      exp\n      dup2\n      sload\n      dup2\n      0xff\n      mul\n      not\n      and\n      swap1\n      dup4\n      iszero\n      iszero\n      mul\n      or\n      swap1\n      sstore\n      pop\n        /* \"contracts/GuardianRecoveryWallet.sol\":2588:2594  uint i */\n      0x00\n        /* \"contracts/GuardianRecoveryWallet.sol\":2583:2833  for (uint i = 0; i < guardiansList.length; ++i) {... */\n    tag_148:\n        /* \"contracts/GuardianRecoveryWallet.sol\":2604:2617  guardiansList */\n      0x03\n        /* \"contracts/GuardianRecoveryWallet.sol\":2604:2624  guardiansList.length */\n      dup1\n      sload\n      swap1\n      pop\n        /* \"contracts/GuardianRecoveryWallet.sol\":2600:2601  i */\n      dup2\n        /* \"contracts/GuardianRecoveryWallet.sol\":2600:2624  i < guardiansList.length */\n      lt\n        /* \"contracts/GuardianRecoveryWallet.sol\":2583:2833  for (uint i = 0; i < guardiansList.length; ++i) {... */\n      iszero\n      tag_149\n      jumpi\n        /* \"contracts/GuardianRecoveryWallet.sol\":2669:2670  g */\n      dup2\n        /* \"contracts/GuardianRecoveryWallet.sol\":2649:2670  guardiansList[i] == g */\n      0xffffffffffffffffffffffffffffffffffffffff\n      and\n        /* \"contracts/GuardianRecoveryWallet.sol\":2649:2662  guardiansList */\n      0x03\n        /* \"contracts/GuardianRecoveryWallet.sol\":2663:2664  i */\n      dup3\n        /* \"contracts/GuardianRecoveryWallet.sol\":2649:2665  guardiansList[i] */\n      dup2\n      sload\n      dup2\n      lt\n      tag_151\n      jumpi\n      tag_152\n      tag_153\n      jump\t// in\n    tag_152:\n    tag_151:\n      swap1\n      0x00\n      mstore\n      keccak256(0x00, 0x20)\n      add\n      0x00\n      swap1\n      sload\n      swap1\n      0x0100\n      exp\n      swap1\n      div\n      0xffffffffffffffffffffffffffffffffffffffff\n      and\n        /* \"contracts/GuardianRecoveryWallet.sol\":2649:2670  guardiansList[i] == g */\n      0xffffffffffffffffffffffffffffffffffffffff\n      and\n      sub\n        /* \"contracts/GuardianRecoveryWallet.sol\":2645:2823  if (guardiansList[i] == g) {... */\n      tag_155\n      jumpi\n        /* \"contracts/GuardianRecoveryWallet.sol\":2709:2722  guardiansList */\n      0x03\n        /* \"contracts/GuardianRecoveryWallet.sol\":2746:2747  1 */\n      0x01\n        /* \"contracts/GuardianRecoveryWallet.sol\":2723:2736  guardiansList */\n      0x03\n        /* \"contracts/GuardianRecoveryWallet.sol\":2723:2743  guardiansList.length */\n      dup1\n      sload\n      swap1\n      pop\n        /* \"contracts/GuardianRecoveryWallet.sol\":2723:2747  guardiansList.length - 1 */\n      tag_156\n      swap2\n      swap1\n      tag_157\n      jump\t// in\n    tag_156:\n        /* \"contracts/GuardianRecoveryWallet.sol\":2709:2748  guardiansList[guardiansList.length - 1] */\n      dup2\n      sload\n      dup2\n      lt\n      tag_158\n      jumpi\n      tag_159\n      tag_153\n      jump\t// in\n    tag_159:\n    tag_158:\n      swap1\n      0x00\n      mstore\n      keccak256(0x00, 0x20)\n      add\n      0x00\n      swap1\n      sload\n      swap1\n      0x0100\n      exp\n      swap1\n      div\n      0xffffffffffffffffffffffffffffffffffffffff\n      and\n        /* \"contracts/GuardianRecoveryWallet.sol\":2690:2703  guardiansList */\n      0x03\n        /* \"contracts/GuardianRecoveryWallet.sol\":2704:2705  i */\n      dup3\n        /* \"contracts/GuardianRecoveryWallet.sol\":2690:2706  guardiansList[i] */\n      dup2\n      sload\n      dup2\n      lt\n      tag_161\n      jumpi\n      tag_162\n      tag_153\n      jump\t// in\n    tag_162:\n    tag_161:\n      swap1\n      0x00\n      mstore\n      keccak256(0x00, 0x20)\n      add\n      0x00\n        /* \"contracts/GuardianRecoveryWallet.sol\":2690:2748  guardiansList[i] = guardiansList[guardiansList.length - 1] */\n      0x0100\n      exp\n      dup2\n      sload\n      dup2\n      0xffffffffffffffffffffffffffffffffffffffff\n      mul\n      not\n      and\n      swap1\n      dup4\n      0xffffffffffffffffffffffffffffffffffffffff\n      and\n      mul\n      or\n      swap1\n      sstore\n      pop\n        /* \"contracts/GuardianRecoveryWallet.sol\":2766:2779  guardiansList */\n      0x03\n        /* \"contracts/GuardianRecoveryWallet.sol\":2766:2785  guardiansList.pop() */\n      dup1\n      sload\n      dup1\n      tag_164\n      jumpi\n      tag_165\n      tag_166\n      jump\t// in\n    tag_165:\n    tag_164:\n      0x01\n      swap1\n      sub\n      dup2\n      dup2\n      swap1\n      0x00\n      mstore\n      keccak256(0x00, 0x20)\n      add\n      exp(0x0100, 0x00)\n      dup2\n      sload\n      swap1\n      0xffffffffffffffffffffffffffffffffffffffff\n      mul\n      not\n      and\n      swap1\n      sstore\n      swap1\n      sstore\n        /* \"contracts/GuardianRecoveryWallet.sol\":2803:2808  break */\n      jump(tag_149)\n        /* \"contracts/GuardianRecoveryWallet.sol\":2645:2823  if (guardiansList[i] == g) {... */\n    tag_155:\n        /* \"contracts/GuardianRecoveryWallet.sol\":2626:2629  ++i */\n      dup1\n      tag_168\n      swap1\n      tag_169\n      jump\t// in\n    tag_168:\n      swap1\n      pop\n        /* \"contracts/GuardianRecoveryWallet.sol\":2583:2833  for (uint i = 0; i < guardiansList.length; ++i) {... */\n      jump(tag_148)\n    tag_149:\n      pop\n        /* \"contracts/GuardianRecoveryWallet.sol\":2866:2879  guardiansList */\n      0x03\n        /* \"contracts/GuardianRecoveryWallet.sol\":2866:2886  guardiansList.length */\n      dup1\n      sload\n      swap1\n      pop\n        /* \"contracts/GuardianRecoveryWallet.sol\":2846:2863  guardianThreshold */\n      sload(0x04)\n        /* \"contracts/GuardianRecoveryWallet.sol\":2846:2886  guardianThreshold > guardiansList.length */\n      gt\n        /* \"contracts/GuardianRecoveryWallet.sol\":2842:2953  if (guardianThreshold > guardiansList.length) {... */\n      iszero\n      tag_170\n      jumpi\n        /* \"contracts/GuardianRecoveryWallet.sol\":2922:2935  guardiansList */\n      0x03\n        /* \"contracts/GuardianRecoveryWallet.sol\":2922:2942  guardiansList.length */\n      dup1\n      sload\n      swap1\n      pop\n        /* \"contracts/GuardianRecoveryWallet.sol\":2902:2919  guardianThreshold */\n      0x04\n        /* \"contracts/GuardianRecoveryWallet.sol\":2902:2942  guardianThreshold = guardiansList.length */\n      dup2\n      swap1\n      sstore\n      pop\n        /* \"contracts/GuardianRecoveryWallet.sol\":2842:2953  if (guardianThreshold > guardiansList.length) {... */\n    tag_170:\n        /* \"contracts/GuardianRecoveryWallet.sol\":2440:2959  function removeGuardian(address g) external onlyOwner {... */\n      pop\n      jump\t// out\n        /* \"contracts/GuardianRecoveryWallet.sol\":3135:3697  function proposeRecovery(address proposedOwner) external onlyGuardian returns (uint256) {... */\n    tag_63:\n        /* \"contracts/GuardianRecoveryWallet.sol\":3214:3221  uint256 */\n      0x00\n        /* \"contracts/GuardianRecoveryWallet.sol\":1111:1121  isGuardian */\n      0x02\n        /* \"contracts/GuardianRecoveryWallet.sol\":1111:1133  isGuardian[msg.sender] */\n      0x00\n        /* \"contracts/GuardianRecoveryWallet.sol\":1122:1132  msg.sender */\n      caller\n        /* \"contracts/GuardianRecoveryWallet.sol\":1111:1133  isGuardian[msg.sender] */\n      0xffffffffffffffffffffffffffffffffffffffff\n      and\n      0xffffffffffffffffffffffffffffffffffffffff\n      and\n      dup2\n      mstore\n      0x20\n      add\n      swap1\n      dup2\n      mstore\n      0x20\n      add\n      0x00\n      keccak256\n      0x00\n      swap1\n      sload\n      swap1\n      0x0100\n      exp\n      swap1\n      div\n      0xff\n      and\n        /* \"contracts/GuardianRecoveryWallet.sol\":1103:1151  require(isGuardian[msg.sender], \"only guardian\") */\n      tag_172\n      jumpi\n      mload(0x40)\n      0x08c379a000000000000000000000000000000000000000000000000000000000\n      dup2\n      mstore\n      0x04\n      add\n      tag_173\n      swap1\n      tag_114\n      jump\t// in\n    tag_173:\n      mload(0x40)\n      dup1\n      swap2\n      sub\n      swap1\n      revert\n    tag_172:\n        /* \"contracts/GuardianRecoveryWallet.sol\":3266:3267  0 */\n      0x00\n        /* \"contracts/GuardianRecoveryWallet.sol\":3241:3268  proposedOwner != address(0) */\n      0xffffffffffffffffffffffffffffffffffffffff\n      and\n        /* \"contracts/GuardianRecoveryWallet.sol\":3241:3254  proposedOwner */\n      dup3\n        /* \"contracts/GuardianRecoveryWallet.sol\":3241:3268  proposedOwner != address(0) */\n      0xffffffffffffffffffffffffffffffffffffffff\n      and\n      sub\n        /* \"contracts/GuardianRecoveryWallet.sol\":3233:3277  require(proposedOwner != address(0), \"zero\") */\n      tag_175\n      jumpi\n      mload(0x40)\n      0x08c379a000000000000000000000000000000000000000000000000000000000\n      dup2\n      mstore\n      0x04\n      add\n      tag_176\n      swap1\n      tag_177\n      jump\t// in\n    tag_176:\n      mload(0x40)\n      dup1\n      swap2\n      sub\n      swap1\n      revert\n    tag_175:\n        /* \"contracts/GuardianRecoveryWallet.sol\":3287:3297  uint256 id */\n      0x00\n        /* \"contracts/GuardianRecoveryWallet.sol\":3302:3315  recoveryNonce */\n      0x06\n      0x00\n        /* \"contracts/GuardianRecoveryWallet.sol\":3300:3315  ++recoveryNonce */\n      dup2\n      sload\n      tag_178\n      swap1\n      tag_169\n      jump\t// in\n    tag_178:\n      swap2\n      swap1\n      pop\n      dup2\n      swap1\n      sstore\n        /* \"contracts/GuardianRecoveryWallet.sol\":3287:3315  uint256 id = ++recoveryNonce */\n      swap1\n      pop\n        /* \"contracts/GuardianRecoveryWallet.sol\":3325:3343  Recovery storage r */\n      0x00\n        /* \"contracts/GuardianRecoveryWallet.sol\":3346:3356  recoveries */\n      0x05\n        /* \"contracts/GuardianRecoveryWallet.sol\":3346:3360  recoveries[id] */\n      0x00\n        /* \"contracts/GuardianRecoveryWallet.sol\":3357:3359  id */\n      dup4\n        /* \"contracts/GuardianRecoveryWallet.sol\":3346:3360  recoveries[id] */\n      dup2\n      mstore\n      0x20\n      add\n      swap1\n      dup2\n      mstore\n      0x20\n      add\n      0x00\n      keccak256\n        /* \"contracts/GuardianRecoveryWallet.sol\":3325:3360  Recovery storage r = recoveries[id] */\n      swap1\n      pop\n        /* \"contracts/GuardianRecoveryWallet.sol\":3388:3401  proposedOwner */\n      dup4\n        /* \"contracts/GuardianRecoveryWallet.sol\":3370:3371  r */\n      dup2\n        /* \"contracts/GuardianRecoveryWallet.sol\":3370:3385  r.proposedOwner */\n      0x00\n      add\n      0x00\n        /* \"contracts/GuardianRecoveryWallet.sol\":3370:3401  r.proposedOwner = proposedOwner */\n      0x0100\n      exp\n      dup2\n      sload\n      dup2\n      0xffffffffffffffffffffffffffffffffffffffff\n      mul\n      not\n      and\n      swap1\n      dup4\n      0xffffffffffffffffffffffffffffffffffffffff\n      and\n      mul\n      or\n      swap1\n      sstore\n      pop\n        /* \"contracts/GuardianRecoveryWallet.sol\":3425:3426  0 */\n      0x00\n        /* \"contracts/GuardianRecoveryWallet.sol\":3411:3412  r */\n      dup2\n        /* \"contracts/GuardianRecoveryWallet.sol\":3411:3422  r.approvals */\n      0x01\n      add\n        /* \"contracts/GuardianRecoveryWallet.sol\":3411:3426  r.approvals = 0 */\n      dup2\n      swap1\n      sstore\n      pop\n        /* \"contracts/GuardianRecoveryWallet.sol\":3450:3465  block.timestamp */\n      timestamp\n        /* \"contracts/GuardianRecoveryWallet.sol\":3436:3437  r */\n      dup2\n        /* \"contracts/GuardianRecoveryWallet.sol\":3436:3447  r.createdAt */\n      0x02\n      add\n        /* \"contracts/GuardianRecoveryWallet.sol\":3436:3465  r.createdAt = block.timestamp */\n      dup2\n      swap1\n      sstore\n      pop\n        /* \"contracts/GuardianRecoveryWallet.sol\":3488:3493  false */\n      0x00\n        /* \"contracts/GuardianRecoveryWallet.sol\":3475:3476  r */\n      dup2\n        /* \"contracts/GuardianRecoveryWallet.sol\":3475:3485  r.executed */\n      0x03\n      add\n      0x00\n        /* \"contracts/GuardianRecoveryWallet.sol\":3475:3493  r.executed = false */\n      0x0100\n      exp\n      dup2\n      sload\n      dup2\n      0xff\n      mul\n      not\n      and\n      swap1\n      dup4\n      iszero\n      iszero\n      mul\n      or\n      swap1\n      sstore\n      pop\n        /* \"contracts/GuardianRecoveryWallet.sol\":3530:3534  true */\n      0x01\n        /* \"contracts/GuardianRecoveryWallet.sol\":3503:3504  r */\n      dup2\n        /* \"contracts/GuardianRecoveryWallet.sol\":3503:3515  r.approvedBy */\n      0x04\n      add\n        /* \"contracts/GuardianRecoveryWallet.sol\":3503:3527  r.approvedBy[msg.sender] */\n      0x00\n        /* \"contracts/GuardianRecoveryWallet.sol\":3516:3526  msg.sender */\n      caller\n        /* \"contracts/GuardianRecoveryWallet.sol\":3503:3527  r.approvedBy[msg.sender] */\n      0xffffffffffffffffffffffffffffffffffffffff\n      and\n      0xffffffffffffffffffffffffffffffffffffffff\n      and\n      dup2\n      mstore\n      0x20\n      add\n      swap1\n      dup2\n      mstore\n      0x20\n      add\n      0x00\n      keccak256\n      0x00\n        /* \"contracts/GuardianRecoveryWallet.sol\":3503:3534  r.approvedBy[msg.sender] = true */\n      0x0100\n      exp\n      dup2\n      sload\n      dup2\n      0xff\n      mul\n      not\n      and\n      swap1\n      dup4\n      iszero\n      iszero\n      mul\n      or\n      swap1\n      sstore\n      pop\n        /* \"contracts/GuardianRecoveryWallet.sol\":3558:3559  1 */\n      0x01\n        /* \"contracts/GuardianRecoveryWallet.sol\":3544:3545  r */\n      dup2\n        /* \"contracts/GuardianRecoveryWallet.sol\":3544:3555  r.approvals */\n      0x01\n      add\n        /* \"contracts/GuardianRecoveryWallet.sol\":3544:3559  r.approvals = 1 */\n      dup2\n      swap1\n      sstore\n      pop\n        /* \"contracts/GuardianRecoveryWallet.sol\":3591:3593  id */\n      dup2\n        /* \"contracts/GuardianRecoveryWallet.sol\":3574:3621  RecoveryProposed(id, msg.sender, proposedOwner) */\n      0x1cb35b5c3390081f0283210f4fd58d68d6e6fef68913e6b75582139b1a4adc35\n        /* \"contracts/GuardianRecoveryWallet.sol\":3595:3605  msg.sender */\n      caller\n        /* \"contracts/GuardianRecoveryWallet.sol\":3607:3620  proposedOwner */\n      dup7\n        /* \"contracts/GuardianRecoveryWallet.sol\":3574:3621  RecoveryProposed(id, msg.sender, proposedOwner) */\n      mload(0x40)\n      tag_179\n      swap3\n      swap2\n      swap1\n      tag_180\n      jump\t// in\n    tag_179:\n      mload(0x40)\n      dup1\n      swap2\n      sub\n      swap1\n      log2\n        /* \"contracts/GuardianRecoveryWallet.sol\":3653:3655  id */\n      dup2\n        /* \"contracts/GuardianRecoveryWallet.sol\":3636:3671  RecoveryApproved(id, msg.sender, 1) */\n      0xd4f9207b620466cd2586fa5270946a1c9526b0a7a65f5116a4e75352ade070ee\n        /* \"contracts/GuardianRecoveryWallet.sol\":3657:3667  msg.sender */\n      caller\n        /* \"contracts/GuardianRecoveryWallet.sol\":3669:3670  1 */\n      0x01\n        /* \"contracts/GuardianRecoveryWallet.sol\":3636:3671  RecoveryApproved(id, msg.sender, 1) */\n      mload(0x40)\n      tag_181\n      swap3\n      swap2\n      swap1\n      tag_182\n      jump\t// in\n    tag_181:\n      mload(0x40)\n      dup1\n      swap2\n      sub\n      swap1\n      log2\n        /* \"contracts/GuardianRecoveryWallet.sol\":3688:3690  id */\n      dup2\n        /* \"contracts/GuardianRecoveryWallet.sol\":3681:3690  return id */\n      swap3\n      pop\n      pop\n      pop\n        /* \"contracts/GuardianRecoveryWallet.sol\":3135:3697  function proposeRecovery(address proposedOwner) external onlyGuardian returns (uint256) {... */\n      swap2\n      swap1\n      pop\n      jump\t// out\n        /* \"contracts/GuardianRecoveryWallet.sol\":179:199  address public owner */\n    tag_68:\n      0x01\n      0x00\n      swap1\n      sload\n      swap1\n      0x0100\n      exp\n      swap1\n      div\n      0xffffffffffffffffffffffffffffffffffffffff\n      and\n      dup2\n      jump\t// out\n        /* \"contracts/GuardianRecoveryWallet.sol\":2965:3129  function setThreshold(uint256 t) external onlyOwner {... */\n    tag_73:\n        /* \"contracts/GuardianRecoveryWallet.sol\":1025:1030  owner */\n      0x01\n      0x00\n      swap1\n      sload\n      swap1\n      0x0100\n      exp\n      swap1\n      div\n      0xffffffffffffffffffffffffffffffffffffffff\n      and\n        /* \"contracts/GuardianRecoveryWallet.sol\":1011:1030  msg.sender == owner */\n      0xffffffffffffffffffffffffffffffffffffffff\n      and\n        /* \"contracts/GuardianRecoveryWallet.sol\":1011:1021  msg.sender */\n      caller\n        /* \"contracts/GuardianRecoveryWallet.sol\":1011:1030  msg.sender == owner */\n      0xffffffffffffffffffffffffffffffffffffffff\n      and\n      eq\n        /* \"contracts/GuardianRecoveryWallet.sol\":1003:1045  require(msg.sender == owner, \"only owner\") */\n      tag_184\n      jumpi\n      mload(0x40)\n      0x08c379a000000000000000000000000000000000000000000000000000000000\n      dup2\n      mstore\n      0x04\n      add\n      tag_185\n      swap1\n      tag_103\n      jump\t// in\n    tag_185:\n      mload(0x40)\n      dup1\n      swap2\n      sub\n      swap1\n      revert\n    tag_184:\n        /* \"contracts/GuardianRecoveryWallet.sol\":3039:3040  0 */\n      0x00\n        /* \"contracts/GuardianRecoveryWallet.sol\":3035:3036  t */\n      dup2\n        /* \"contracts/GuardianRecoveryWallet.sol\":3035:3040  t > 0 */\n      gt\n        /* \"contracts/GuardianRecoveryWallet.sol\":3035:3069  t > 0 && t <= guardiansList.length */\n      dup1\n      iszero\n      tag_187\n      jumpi\n      pop\n        /* \"contracts/GuardianRecoveryWallet.sol\":3049:3062  guardiansList */\n      0x03\n        /* \"contracts/GuardianRecoveryWallet.sol\":3049:3069  guardiansList.length */\n      dup1\n      sload\n      swap1\n      pop\n        /* \"contracts/GuardianRecoveryWallet.sol\":3044:3045  t */\n      dup2\n        /* \"contracts/GuardianRecoveryWallet.sol\":3044:3069  t <= guardiansList.length */\n      gt\n      iszero\n        /* \"contracts/GuardianRecoveryWallet.sol\":3035:3069  t > 0 && t <= guardiansList.length */\n    tag_187:\n        /* \"contracts/GuardianRecoveryWallet.sol\":3027:3091  require(t > 0 && t <= guardiansList.length, \"invalid threshold\") */\n      tag_188\n      jumpi\n      mload(0x40)\n      0x08c379a000000000000000000000000000000000000000000000000000000000\n      dup2\n      mstore\n      0x04\n      add\n      tag_189\n      swap1\n      tag_190\n      jump\t// in\n    tag_189:\n      mload(0x40)\n      dup1\n      swap2\n      sub\n      swap1\n      revert\n    tag_188:\n        /* \"contracts/GuardianRecoveryWallet.sol\":3121:3122  t */\n      dup1\n        /* \"contracts/GuardianRecoveryWallet.sol\":3101:3118  guardianThreshold */\n      0x04\n        /* \"contracts/GuardianRecoveryWallet.sol\":3101:3122  guardianThreshold = t */\n      dup2\n      swap1\n      sstore\n      pop\n        /* \"contracts/GuardianRecoveryWallet.sol\":2965:3129  function setThreshold(uint256 t) external onlyOwner {... */\n      pop\n      jump\t// out\n        /* \"contracts/GuardianRecoveryWallet.sol\":4927:5049  function getRecoveryApprovals(uint256 id) external view returns (uint256) {... */\n    tag_77:\n        /* \"contracts/GuardianRecoveryWallet.sol\":4992:4999  uint256 */\n      0x00\n        /* \"contracts/GuardianRecoveryWallet.sol\":5018:5028  recoveries */\n      0x05\n        /* \"contracts/GuardianRecoveryWallet.sol\":5018:5032  recoveries[id] */\n      0x00\n        /* \"contracts/GuardianRecoveryWallet.sol\":5029:5031  id */\n      dup4\n        /* \"contracts/GuardianRecoveryWallet.sol\":5018:5032  recoveries[id] */\n      dup2\n      mstore\n      0x20\n      add\n      swap1\n      dup2\n      mstore\n      0x20\n      add\n      0x00\n      keccak256\n        /* \"contracts/GuardianRecoveryWallet.sol\":5018:5042  recoveries[id].approvals */\n      0x01\n      add\n      sload\n        /* \"contracts/GuardianRecoveryWallet.sol\":5011:5042  return recoveries[id].approvals */\n      swap1\n      pop\n        /* \"contracts/GuardianRecoveryWallet.sol\":4927:5049  function getRecoveryApprovals(uint256 id) external view returns (uint256) {... */\n      swap2\n      swap1\n      pop\n      jump\t// out\n        /* \"contracts/GuardianRecoveryWallet.sol\":2225:2434  function addGuardian(address g) external onlyOwner {... */\n    tag_82:\n        /* \"contracts/GuardianRecoveryWallet.sol\":1025:1030  owner */\n      0x01\n      0x00\n      swap1\n      sload\n      swap1\n      0x0100\n      exp\n      swap1\n      div\n      0xffffffffffffffffffffffffffffffffffffffff\n      and\n        /* \"contracts/GuardianRecoveryWallet.sol\":1011:1030  msg.sender == owner */\n      0xffffffffffffffffffffffffffffffffffffffff\n      and\n        /* \"contracts/GuardianRecoveryWallet.sol\":1011:1021  msg.sender */\n      caller\n        /* \"contracts/GuardianRecoveryWallet.sol\":1011:1030  msg.sender == owner */\n      0xffffffffffffffffffffffffffffffffffffffff\n      and\n      eq\n        /* \"contracts/GuardianRecoveryWallet.sol\":1003:1045  require(msg.sender == owner, \"only owner\") */\n      tag_193\n      jumpi\n      mload(0x40)\n      0x08c379a000000000000000000000000000000000000000000000000000000000\n      dup2\n      mstore\n      0x04\n      add\n      tag_194\n      swap1\n      tag_103\n      jump\t// in\n    tag_194:\n      mload(0x40)\n      dup1\n      swap2\n      sub\n      swap1\n      revert\n    tag_193:\n        /* \"contracts/GuardianRecoveryWallet.sol\":2307:2308  0 */\n      0x00\n        /* \"contracts/GuardianRecoveryWallet.sol\":2294:2309  g != address(0) */\n      0xffffffffffffffffffffffffffffffffffffffff\n      and\n        /* \"contracts/GuardianRecoveryWallet.sol\":2294:2295  g */\n      dup2\n        /* \"contracts/GuardianRecoveryWallet.sol\":2294:2309  g != address(0) */\n      0xffffffffffffffffffffffffffffffffffffffff\n      and\n      sub\n        /* \"contracts/GuardianRecoveryWallet.sol\":2286:2318  require(g != address(0), \"zero\") */\n      tag_196\n      jumpi\n      mload(0x40)\n      0x08c379a000000000000000000000000000000000000000000000000000000000\n      dup2\n      mstore\n      0x04\n      add\n      tag_197\n      swap1\n      tag_177\n      jump\t// in\n    tag_197:\n      mload(0x40)\n      dup1\n      swap2\n      sub\n      swap1\n      revert\n    tag_196:\n        /* \"contracts/GuardianRecoveryWallet.sol\":2333:2343  isGuardian */\n      0x02\n        /* \"contracts/GuardianRecoveryWallet.sol\":2333:2346  isGuardian[g] */\n      0x00\n        /* \"contracts/GuardianRecoveryWallet.sol\":2344:2345  g */\n      dup3\n        /* \"contracts/GuardianRecoveryWallet.sol\":2333:2346  isGuardian[g] */\n      0xffffffffffffffffffffffffffffffffffffffff\n      and\n      0xffffffffffffffffffffffffffffffffffffffff\n      and\n      dup2\n      mstore\n      0x20\n      add\n      swap1\n      dup2\n      mstore\n      0x20\n      add\n      0x00\n      keccak256\n      0x00\n      swap1\n      sload\n      swap1\n      0x0100\n      exp\n      swap1\n      div\n      0xff\n      and\n        /* \"contracts/GuardianRecoveryWallet.sol\":2328:2428  if (!isGuardian[g]) {... */\n      tag_198\n      jumpi\n        /* \"contracts/GuardianRecoveryWallet.sol\":2378:2382  true */\n      0x01\n        /* \"contracts/GuardianRecoveryWallet.sol\":2362:2372  isGuardian */\n      0x02\n        /* \"contracts/GuardianRecoveryWallet.sol\":2362:2375  isGuardian[g] */\n      0x00\n        /* \"contracts/GuardianRecoveryWallet.sol\":2373:2374  g */\n      dup4\n        /* \"contracts/GuardianRecoveryWallet.sol\":2362:2375  isGuardian[g] */\n      0xffffffffffffffffffffffffffffffffffffffff\n      and\n      0xffffffffffffffffffffffffffffffffffffffff\n      and\n      dup2\n      mstore\n      0x20\n      add\n      swap1\n      dup2\n      mstore\n      0x20\n      add\n      0x00\n      keccak256\n      0x00\n        /* \"contracts/GuardianRecoveryWallet.sol\":2362:2382  isGuardian[g] = true */\n      0x0100\n      exp\n      dup2\n      sload\n      dup2\n      0xff\n      mul\n      not\n      and\n      swap1\n      dup4\n      iszero\n      iszero\n      mul\n      or\n      swap1\n      sstore\n      pop\n        /* \"contracts/GuardianRecoveryWallet.sol\":2396:2409  guardiansList */\n      0x03\n        /* \"contracts/GuardianRecoveryWallet.sol\":2415:2416  g */\n      dup2\n        /* \"contracts/GuardianRecoveryWallet.sol\":2396:2417  guardiansList.push(g) */\n      swap1\n      dup1\n      0x01\n      dup2\n      sload\n      add\n      dup1\n      dup3\n      sstore\n      dup1\n      swap2\n      pop\n      pop\n      0x01\n      swap1\n      sub\n      swap1\n      0x00\n      mstore\n      keccak256(0x00, 0x20)\n      add\n      0x00\n      swap1\n      swap2\n      swap1\n      swap2\n      swap1\n      swap2\n      0x0100\n      exp\n      dup2\n      sload\n      dup2\n      0xffffffffffffffffffffffffffffffffffffffff\n      mul\n      not\n      and\n      swap1\n      dup4\n      0xffffffffffffffffffffffffffffffffffffffff\n      and\n      mul\n      or\n      swap1\n      sstore\n      pop\n        /* \"contracts/GuardianRecoveryWallet.sol\":2328:2428  if (!isGuardian[g]) {... */\n    tag_198:\n        /* \"contracts/GuardianRecoveryWallet.sol\":2225:2434  function addGuardian(address g) external onlyOwner {... */\n      pop\n      jump\t// out\n        /* \"contracts/GuardianRecoveryWallet.sol\":1793:2149  function execute(address target, uint256 value, bytes calldata data) external payable nonReentrant returns (bytes memory) {... */\n    tag_86:\n        /* \"contracts/GuardianRecoveryWallet.sol\":1901:1913  bytes memory */\n      0x60\n        /* \"@openzeppelin/contracts/security/ReentrancyGuard.sol\":2261:2282  _nonReentrantBefore() */\n      tag_201\n        /* \"@openzeppelin/contracts/security/ReentrancyGuard.sol\":2261:2280  _nonReentrantBefore */\n      tag_202\n        /* \"@openzeppelin/contracts/security/ReentrancyGuard.sol\":2261:2282  _nonReentrantBefore() */\n      jump\t// in\n    tag_201:\n        /* \"contracts/GuardianRecoveryWallet.sol\":1947:1952  owner */\n      0x01\n      0x00\n      swap1\n      sload\n      swap1\n      0x0100\n      exp\n      swap1\n      div\n      0xffffffffffffffffffffffffffffffffffffffff\n      and\n        /* \"contracts/GuardianRecoveryWallet.sol\":1933:1952  msg.sender == owner */\n      0xffffffffffffffffffffffffffffffffffffffff\n      and\n        /* \"contracts/GuardianRecoveryWallet.sol\":1933:1943  msg.sender */\n      caller\n        /* \"contracts/GuardianRecoveryWallet.sol\":1933:1952  msg.sender == owner */\n      0xffffffffffffffffffffffffffffffffffffffff\n      and\n      eq\n        /* \"contracts/GuardianRecoveryWallet.sol\":1925:1966  require(msg.sender == owner, \"not owner\") */\n      tag_204\n      jumpi\n      mload(0x40)\n      0x08c379a000000000000000000000000000000000000000000000000000000000\n      dup2\n      mstore\n      0x04\n      add\n      tag_205\n      swap1\n      tag_206\n      jump\t// in\n    tag_205:\n      mload(0x40)\n      dup1\n      swap2\n      sub\n      swap1\n      revert\n    tag_204:\n        /* \"contracts/GuardianRecoveryWallet.sol\":1977:1984  bool ok */\n      0x00\n        /* \"contracts/GuardianRecoveryWallet.sol\":1986:2002  bytes memory res */\n      dup1\n        /* \"contracts/GuardianRecoveryWallet.sol\":2006:2012  target */\n      dup7\n        /* \"contracts/GuardianRecoveryWallet.sol\":2006:2017  target.call */\n      0xffffffffffffffffffffffffffffffffffffffff\n      and\n        /* \"contracts/GuardianRecoveryWallet.sol\":2025:2030  value */\n      dup7\n        /* \"contracts/GuardianRecoveryWallet.sol\":2032:2036  data */\n      dup7\n      dup7\n        /* \"contracts/GuardianRecoveryWallet.sol\":2006:2037  target.call{value: value}(data) */\n      mload(0x40)\n      tag_207\n      swap3\n      swap2\n      swap1\n      tag_208\n      jump\t// in\n    tag_207:\n      0x00\n      mload(0x40)\n      dup1\n      dup4\n      sub\n      dup2\n      dup6\n      dup8\n      gas\n      call\n      swap3\n      pop\n      pop\n      pop\n      returndatasize\n      dup1\n      0x00\n      dup2\n      eq\n      tag_211\n      jumpi\n      mload(0x40)\n      swap2\n      pop\n      and(add(returndatasize, 0x3f), not(0x1f))\n      dup3\n      add\n      0x40\n      mstore\n      returndatasize\n      dup3\n      mstore\n      returndatasize\n      0x00\n      0x20\n      dup5\n      add\n      returndatacopy\n      jump(tag_210)\n    tag_211:\n      0x60\n      swap2\n      pop\n    tag_210:\n      pop\n        /* \"contracts/GuardianRecoveryWallet.sol\":1976:2037  (bool ok, bytes memory res) = target.call{value: value}(data) */\n      swap2\n      pop\n      swap2\n      pop\n        /* \"contracts/GuardianRecoveryWallet.sol\":2055:2057  ok */\n      dup2\n        /* \"contracts/GuardianRecoveryWallet.sol\":2047:2073  require(ok, \"call failed\") */\n      tag_212\n      jumpi\n      mload(0x40)\n      0x08c379a000000000000000000000000000000000000000000000000000000000\n      dup2\n      mstore\n      0x04\n      add\n      tag_213\n      swap1\n      tag_214\n      jump\t// in\n    tag_213:\n      mload(0x40)\n      dup1\n      swap2\n      sub\n      swap1\n      revert\n    tag_212:\n        /* \"contracts/GuardianRecoveryWallet.sol\":2097:2103  target */\n      dup7\n        /* \"contracts/GuardianRecoveryWallet.sol\":2088:2122  Executed(target, value, data, res) */\n      0xffffffffffffffffffffffffffffffffffffffff\n      and\n      0xe39b605d485d947e52b62c3b5028a14d5277db44425263c74171a85707154334\n        /* \"contracts/GuardianRecoveryWallet.sol\":2105:2110  value */\n      dup8\n        /* \"contracts/GuardianRecoveryWallet.sol\":2112:2116  data */\n      dup8\n      dup8\n        /* \"contracts/GuardianRecoveryWallet.sol\":2118:2121  res */\n      dup6\n        /* \"contracts/GuardianRecoveryWallet.sol\":2088:2122  Executed(target, value, data, res) */\n      mload(0x40)\n      tag_215\n      swap5\n      swap4\n      swap3\n      swap2\n      swap1\n      tag_216\n      jump\t// in\n    tag_215:\n      mload(0x40)\n      dup1\n      swap2\n      sub\n      swap1\n      log2\n        /* \"contracts/GuardianRecoveryWallet.sol\":2139:2142  res */\n      dup1\n        /* \"contracts/GuardianRecoveryWallet.sol\":2132:2142  return res */\n      swap3\n      pop\n      pop\n      pop\n        /* \"@openzeppelin/contracts/security/ReentrancyGuard.sol\":2303:2323  _nonReentrantAfter() */\n      tag_217\n        /* \"@openzeppelin/contracts/security/ReentrancyGuard.sol\":2303:2321  _nonReentrantAfter */\n      tag_218\n        /* \"@openzeppelin/contracts/security/ReentrancyGuard.sol\":2303:2323  _nonReentrantAfter() */\n      jump\t// in\n    tag_217:\n        /* \"contracts/GuardianRecoveryWallet.sol\":1793:2149  function execute(address target, uint256 value, bytes calldata data) external payable nonReentrant returns (bytes memory) {... */\n      swap5\n      swap4\n      pop\n      pop\n      pop\n      pop\n      jump\t// out\n        /* \"contracts/GuardianRecoveryWallet.sol\":289:321  uint256 public guardianThreshold */\n    tag_91:\n      sload(0x04)\n      dup2\n      jump\t// out\n        /* \"contracts/GuardianRecoveryWallet.sol\":562:590  uint256 public recoveryNonce */\n    tag_95:\n      sload(0x06)\n      dup2\n      jump\t// out\n        /* \"@openzeppelin/contracts/security/ReentrancyGuard.sol\":2336:2623  function _nonReentrantBefore() private {... */\n    tag_202:\n        /* \"@openzeppelin/contracts/security/ReentrancyGuard.sol\":1759:1760  2 */\n      0x02\n        /* \"@openzeppelin/contracts/security/ReentrancyGuard.sol\":2468:2475  _status */\n      sload(0x00)\n        /* \"@openzeppelin/contracts/security/ReentrancyGuard.sol\":2468:2487  _status != _ENTERED */\n      sub\n        /* \"@openzeppelin/contracts/security/ReentrancyGuard.sol\":2460:2523  require(_status != _ENTERED, \"ReentrancyGuard: reentrant call\") */\n      tag_220\n      jumpi\n      mload(0x40)\n      0x08c379a000000000000000000000000000000000000000000000000000000000\n      dup2\n      mstore\n      0x04\n      add\n      tag_221\n      swap1\n      tag_222\n      jump\t// in\n    tag_221:\n      mload(0x40)\n      dup1\n      swap2\n      sub\n      swap1\n      revert\n    tag_220:\n        /* \"@openzeppelin/contracts/security/ReentrancyGuard.sol\":1759:1760  2 */\n      0x02\n        /* \"@openzeppelin/contracts/security/ReentrancyGuard.sol\":2598:2605  _status */\n      0x00\n        /* \"@openzeppelin/contracts/security/ReentrancyGuard.sol\":2598:2616  _status = _ENTERED */\n      dup2\n      swap1\n      sstore\n      pop\n        /* \"@openzeppelin/contracts/security/ReentrancyGuard.sol\":2336:2623  function _nonReentrantBefore() private {... */\n      jump\t// out\n        /* \"@openzeppelin/contracts/security/ReentrancyGuard.sol\":2629:2838  function _nonReentrantAfter() private {... */\n    tag_218:\n        /* \"@openzeppelin/contracts/security/ReentrancyGuard.sol\":1716:1717  1 */\n      0x01\n        /* \"@openzeppelin/contracts/security/ReentrancyGuard.sol\":2809:2816  _status */\n      0x00\n        /* \"@openzeppelin/contracts/security/ReentrancyGuard.sol\":2809:2831  _status = _NOT_ENTERED */\n      dup2\n      swap1\n      sstore\n      pop\n        /* \"@openzeppelin/contracts/security/ReentrancyGuard.sol\":2629:2838  function _nonReentrantAfter() private {... */\n      jump\t// out\n        /* \"#utility.yul\":7:121   */\n    tag_224:\n        /* \"#utility.yul\":74:80   */\n      0x00\n        /* \"#utility.yul\":108:113   */\n      dup2\n        /* \"#utility.yul\":102:114   */\n      mload\n        /* \"#utility.yul\":92:114   */\n      swap1\n      pop\n        /* \"#utility.yul\":7:121   */\n      swap2\n      swap1\n      pop\n      jump\t// out\n        /* \"#utility.yul\":127:311   */\n    tag_225:\n        /* \"#utility.yul\":226:237   */\n      0x00\n        /* \"#utility.yul\":260:266   */\n      dup3\n        /* \"#utility.yul\":255:258   */\n      dup3\n        /* \"#utility.yul\":248:267   */\n      mstore\n        /* \"#utility.yul\":300:304   */\n      0x20\n        /* \"#utility.yul\":295:298   */\n      dup3\n        /* \"#utility.yul\":291:305   */\n      add\n        /* \"#utility.yul\":276:305   */\n      swap1\n      pop\n        /* \"#utility.yul\":127:311   */\n      swap3\n      swap2\n      pop\n      pop\n      jump\t// out\n        /* \"#utility.yul\":317:449   */\n    tag_226:\n        /* \"#utility.yul\":384:388   */\n      0x00\n        /* \"#utility.yul\":407:410   */\n      dup2\n        /* \"#utility.yul\":399:410   */\n      swap1\n      pop\n        /* \"#utility.yul\":437:441   */\n      0x20\n        /* \"#utility.yul\":432:435   */\n      dup3\n        /* \"#utility.yul\":428:442   */\n      add\n        /* \"#utility.yul\":420:442   */\n      swap1\n      pop\n        /* \"#utility.yul\":317:449   */\n      swap2\n      swap1\n      pop\n      jump\t// out\n        /* \"#utility.yul\":455:581   */\n    tag_227:\n        /* \"#utility.yul\":492:499   */\n      0x00\n        /* \"#utility.yul\":532:574   */\n      0xffffffffffffffffffffffffffffffffffffffff\n        /* \"#utility.yul\":525:530   */\n      dup3\n        /* \"#utility.yul\":521:575   */\n      and\n        /* \"#utility.yul\":510:575   */\n      swap1\n      pop\n        /* \"#utility.yul\":455:581   */\n      swap2\n      swap1\n      pop\n      jump\t// out\n        /* \"#utility.yul\":587:683   */\n    tag_228:\n        /* \"#utility.yul\":624:631   */\n      0x00\n        /* \"#utility.yul\":653:677   */\n      tag_294\n        /* \"#utility.yul\":671:676   */\n      dup3\n        /* \"#utility.yul\":653:677   */\n      tag_227\n      jump\t// in\n    tag_294:\n        /* \"#utility.yul\":642:677   */\n      swap1\n      pop\n        /* \"#utility.yul\":587:683   */\n      swap2\n      swap1\n      pop\n      jump\t// out\n        /* \"#utility.yul\":689:797   */\n    tag_229:\n        /* \"#utility.yul\":766:790   */\n      tag_296\n        /* \"#utility.yul\":784:789   */\n      dup2\n        /* \"#utility.yul\":766:790   */\n      tag_228\n      jump\t// in\n    tag_296:\n        /* \"#utility.yul\":761:764   */\n      dup3\n        /* \"#utility.yul\":754:791   */\n      mstore\n        /* \"#utility.yul\":689:797   */\n      pop\n      pop\n      jump\t// out\n        /* \"#utility.yul\":803:982   */\n    tag_230:\n        /* \"#utility.yul\":872:882   */\n      0x00\n        /* \"#utility.yul\":893:939   */\n      tag_298\n        /* \"#utility.yul\":935:938   */\n      dup4\n        /* \"#utility.yul\":927:933   */\n      dup4\n        /* \"#utility.yul\":893:939   */\n      tag_229\n      jump\t// in\n    tag_298:\n        /* \"#utility.yul\":971:975   */\n      0x20\n        /* \"#utility.yul\":966:969   */\n      dup4\n        /* \"#utility.yul\":962:976   */\n      add\n        /* \"#utility.yul\":948:976   */\n      swap1\n      pop\n        /* \"#utility.yul\":803:982   */\n      swap3\n      swap2\n      pop\n      pop\n      jump\t// out\n        /* \"#utility.yul\":988:1101   */\n    tag_231:\n        /* \"#utility.yul\":1058:1062   */\n      0x00\n        /* \"#utility.yul\":1090:1094   */\n      0x20\n        /* \"#utility.yul\":1085:1088   */\n      dup3\n        /* \"#utility.yul\":1081:1095   */\n      add\n        /* \"#utility.yul\":1073:1095   */\n      swap1\n      pop\n        /* \"#utility.yul\":988:1101   */\n      swap2\n      swap1\n      pop\n      jump\t// out\n        /* \"#utility.yul\":1137:1869   */\n    tag_232:\n        /* \"#utility.yul\":1256:1259   */\n      0x00\n        /* \"#utility.yul\":1285:1339   */\n      tag_301\n        /* \"#utility.yul\":1333:1338   */\n      dup3\n        /* \"#utility.yul\":1285:1339   */\n      tag_224\n      jump\t// in\n    tag_301:\n        /* \"#utility.yul\":1355:1441   */\n      tag_302\n        /* \"#utility.yul\":1434:1440   */\n      dup2\n        /* \"#utility.yul\":1429:1432   */\n      dup6\n        /* \"#utility.yul\":1355:1441   */\n      tag_225\n      jump\t// in\n    tag_302:\n        /* \"#utility.yul\":1348:1441   */\n      swap4\n      pop\n        /* \"#utility.yul\":1465:1521   */\n      tag_303\n        /* \"#utility.yul\":1515:1520   */\n      dup4\n        /* \"#utility.yul\":1465:1521   */\n      tag_226\n      jump\t// in\n    tag_303:\n        /* \"#utility.yul\":1544:1551   */\n      dup1\n        /* \"#utility.yul\":1575:1576   */\n      0x00\n        /* \"#utility.yul\":1560:1844   */\n    tag_304:\n        /* \"#utility.yul\":1585:1591   */\n      dup4\n        /* \"#utility.yul\":1582:1583   */\n      dup2\n        /* \"#utility.yul\":1579:1592   */\n      lt\n        /* \"#utility.yul\":1560:1844   */\n      iszero\n      tag_306\n      jumpi\n        /* \"#utility.yul\":1661:1667   */\n      dup2\n        /* \"#utility.yul\":1655:1668   */\n      mload\n        /* \"#utility.yul\":1688:1751   */\n      tag_307\n        /* \"#utility.yul\":1747:1750   */\n      dup9\n        /* \"#utility.yul\":1732:1745   */\n      dup3\n        /* \"#utility.yul\":1688:1751   */\n      tag_230\n      jump\t// in\n    tag_307:\n        /* \"#utility.yul\":1681:1751   */\n      swap8\n      pop\n        /* \"#utility.yul\":1774:1834   */\n      tag_308\n        /* \"#utility.yul\":1827:1833   */\n      dup4\n        /* \"#utility.yul\":1774:1834   */\n      tag_231\n      jump\t// in\n    tag_308:\n        /* \"#utility.yul\":1764:1834   */\n      swap3\n      pop\n        /* \"#utility.yul\":1620:1844   */\n      pop\n        /* \"#utility.yul\":1607:1608   */\n      0x01\n        /* \"#utility.yul\":1604:1605   */\n      dup2\n        /* \"#utility.yul\":1600:1609   */\n      add\n        /* \"#utility.yul\":1595:1609   */\n      swap1\n      pop\n        /* \"#utility.yul\":1560:1844   */\n      jump(tag_304)\n    tag_306:\n        /* \"#utility.yul\":1564:1578   */\n      pop\n        /* \"#utility.yul\":1860:1863   */\n      dup6\n        /* \"#utility.yul\":1853:1863   */\n      swap4\n      pop\n        /* \"#utility.yul\":1261:1869   */\n      pop\n      pop\n      pop\n        /* \"#utility.yul\":1137:1869   */\n      swap3\n      swap2\n      pop\n      pop\n      jump\t// out\n        /* \"#utility.yul\":1875:2248   */\n    tag_29:\n        /* \"#utility.yul\":2018:2022   */\n      0x00\n        /* \"#utility.yul\":2056:2058   */\n      0x20\n        /* \"#utility.yul\":2045:2054   */\n      dup3\n        /* \"#utility.yul\":2041:2059   */\n      add\n        /* \"#utility.yul\":2033:2059   */\n      swap1\n      pop\n        /* \"#utility.yul\":2105:2114   */\n      dup2\n        /* \"#utility.yul\":2099:2103   */\n      dup2\n        /* \"#utility.yul\":2095:2115   */\n      sub\n        /* \"#utility.yul\":2091:2092   */\n      0x00\n        /* \"#utility.yul\":2080:2089   */\n      dup4\n        /* \"#utility.yul\":2076:2093   */\n      add\n        /* \"#utility.yul\":2069:2116   */\n      mstore\n        /* \"#utility.yul\":2133:2241   */\n      tag_310\n        /* \"#utility.yul\":2236:2240   */\n      dup2\n        /* \"#utility.yul\":2227:2233   */\n      dup5\n        /* \"#utility.yul\":2133:2241   */\n      tag_232\n      jump\t// in\n    tag_310:\n        /* \"#utility.yul\":2125:2241   */\n      swap1\n      pop\n        /* \"#utility.yul\":1875:2248   */\n      swap3\n      swap2\n      pop\n      pop\n      jump\t// out\n        /* \"#utility.yul\":2335:2452   */\n    tag_234:\n        /* \"#utility.yul\":2444:2445   */\n      0x00\n        /* \"#utility.yul\":2441:2442   */\n      dup1\n        /* \"#utility.yul\":2434:2446   */\n      revert\n        /* \"#utility.yul\":2458:2575   */\n    tag_235:\n        /* \"#utility.yul\":2567:2568   */\n      0x00\n        /* \"#utility.yul\":2564:2565   */\n      dup1\n        /* \"#utility.yul\":2557:2569   */\n      revert\n        /* \"#utility.yul\":2581:2703   */\n    tag_236:\n        /* \"#utility.yul\":2654:2678   */\n      tag_315\n        /* \"#utility.yul\":2672:2677   */\n      dup2\n        /* \"#utility.yul\":2654:2678   */\n      tag_228\n      jump\t// in\n    tag_315:\n        /* \"#utility.yul\":2647:2652   */\n      dup2\n        /* \"#utility.yul\":2644:2679   */\n      eq\n        /* \"#utility.yul\":2634:2697   */\n      tag_316\n      jumpi\n        /* \"#utility.yul\":2693:2694   */\n      0x00\n        /* \"#utility.yul\":2690:2691   */\n      dup1\n        /* \"#utility.yul\":2683:2695   */\n      revert\n        /* \"#utility.yul\":2634:2697   */\n    tag_316:\n        /* \"#utility.yul\":2581:2703   */\n      pop\n      jump\t// out\n        /* \"#utility.yul\":2709:2848   */\n    tag_237:\n        /* \"#utility.yul\":2755:2760   */\n      0x00\n        /* \"#utility.yul\":2793:2799   */\n      dup2\n        /* \"#utility.yul\":2780:2800   */\n      calldataload\n        /* \"#utility.yul\":2771:2800   */\n      swap1\n      pop\n        /* \"#utility.yul\":2809:2842   */\n      tag_318\n        /* \"#utility.yul\":2836:2841   */\n      dup2\n        /* \"#utility.yul\":2809:2842   */\n      tag_236\n      jump\t// in\n    tag_318:\n        /* \"#utility.yul\":2709:2848   */\n      swap3\n      swap2\n      pop\n      pop\n      jump\t// out\n        /* \"#utility.yul\":2854:3183   */\n    tag_33:\n        /* \"#utility.yul\":2913:2919   */\n      0x00\n        /* \"#utility.yul\":2962:2964   */\n      0x20\n        /* \"#utility.yul\":2950:2959   */\n      dup3\n        /* \"#utility.yul\":2941:2948   */\n      dup5\n        /* \"#utility.yul\":2937:2960   */\n      sub\n        /* \"#utility.yul\":2933:2965   */\n      slt\n        /* \"#utility.yul\":2930:3049   */\n      iszero\n      tag_320\n      jumpi\n        /* \"#utility.yul\":2968:3047   */\n      tag_321\n      tag_234\n      jump\t// in\n    tag_321:\n        /* \"#utility.yul\":2930:3049   */\n    tag_320:\n        /* \"#utility.yul\":3088:3089   */\n      0x00\n        /* \"#utility.yul\":3113:3166   */\n      tag_322\n        /* \"#utility.yul\":3158:3165   */\n      dup5\n        /* \"#utility.yul\":3149:3155   */\n      dup3\n        /* \"#utility.yul\":3138:3147   */\n      dup6\n        /* \"#utility.yul\":3134:3156   */\n      add\n        /* \"#utility.yul\":3113:3166   */\n      tag_237\n      jump\t// in\n    tag_322:\n        /* \"#utility.yul\":3103:3166   */\n      swap2\n      pop\n        /* \"#utility.yul\":3059:3176   */\n      pop\n        /* \"#utility.yul\":2854:3183   */\n      swap3\n      swap2\n      pop\n      pop\n      jump\t// out\n        /* \"#utility.yul\":3189:3279   */\n    tag_238:\n        /* \"#utility.yul\":3223:3230   */\n      0x00\n        /* \"#utility.yul\":3266:3271   */\n      dup2\n        /* \"#utility.yul\":3259:3272   */\n      iszero\n        /* \"#utility.yul\":3252:3273   */\n      iszero\n        /* \"#utility.yul\":3241:3273   */\n      swap1\n      pop\n        /* \"#utility.yul\":3189:3279   */\n      swap2\n      swap1\n      pop\n      jump\t// out\n        /* \"#utility.yul\":3285:3394   */\n    tag_239:\n        /* \"#utility.yul\":3366:3387   */\n      tag_325\n        /* \"#utility.yul\":3381:3386   */\n      dup2\n        /* \"#utility.yul\":3366:3387   */\n      tag_238\n      jump\t// in\n    tag_325:\n        /* \"#utility.yul\":3361:3364   */\n      dup3\n        /* \"#utility.yul\":3354:3388   */\n      mstore\n        /* \"#utility.yul\":3285:3394   */\n      pop\n      pop\n      jump\t// out\n        /* \"#utility.yul\":3400:3610   */\n    tag_36:\n        /* \"#utility.yul\":3487:3491   */\n      0x00\n        /* \"#utility.yul\":3525:3527   */\n      0x20\n        /* \"#utility.yul\":3514:3523   */\n      dup3\n        /* \"#utility.yul\":3510:3528   */\n      add\n        /* \"#utility.yul\":3502:3528   */\n      swap1\n      pop\n        /* \"#utility.yul\":3538:3603   */\n      tag_327\n        /* \"#utility.yul\":3600:3601   */\n      0x00\n        /* \"#utility.yul\":3589:3598   */\n      dup4\n        /* \"#utility.yul\":3585:3602   */\n      add\n        /* \"#utility.yul\":3576:3582   */\n      dup5\n        /* \"#utility.yul\":3538:3603   */\n      tag_239\n      jump\t// in\n    tag_327:\n        /* \"#utility.yul\":3400:3610   */\n      swap3\n      swap2\n      pop\n      pop\n      jump\t// out\n        /* \"#utility.yul\":3616:3693   */\n    tag_240:\n        /* \"#utility.yul\":3653:3660   */\n      0x00\n        /* \"#utility.yul\":3682:3687   */\n      dup2\n        /* \"#utility.yul\":3671:3687   */\n      swap1\n      pop\n        /* \"#utility.yul\":3616:3693   */\n      swap2\n      swap1\n      pop\n      jump\t// out\n        /* \"#utility.yul\":3699:3821   */\n    tag_241:\n        /* \"#utility.yul\":3772:3796   */\n      tag_330\n        /* \"#utility.yul\":3790:3795   */\n      dup2\n        /* \"#utility.yul\":3772:3796   */\n      tag_240\n      jump\t// in\n    tag_330:\n        /* \"#utility.yul\":3765:3770   */\n      dup2\n        /* \"#utility.yul\":3762:3797   */\n      eq\n        /* \"#utility.yul\":3752:3815   */\n      tag_331\n      jumpi\n        /* \"#utility.yul\":3811:3812   */\n      0x00\n        /* \"#utility.yul\":3808:3809   */\n      dup1\n        /* \"#utility.yul\":3801:3813   */\n      revert\n        /* \"#utility.yul\":3752:3815   */\n    tag_331:\n        /* \"#utility.yul\":3699:3821   */\n      pop\n      jump\t// out\n        /* \"#utility.yul\":3827:3966   */\n    tag_242:\n        /* \"#utility.yul\":3873:3878   */\n      0x00\n        /* \"#utility.yul\":3911:3917   */\n      dup2\n        /* \"#utility.yul\":3898:3918   */\n      calldataload\n        /* \"#utility.yul\":3889:3918   */\n      swap1\n      pop\n        /* \"#utility.yul\":3927:3960   */\n      tag_333\n        /* \"#utility.yul\":3954:3959   */\n      dup2\n        /* \"#utility.yul\":3927:3960   */\n      tag_241\n      jump\t// in\n    tag_333:\n        /* \"#utility.yul\":3827:3966   */\n      swap3\n      swap2\n      pop\n      pop\n      jump\t// out\n        /* \"#utility.yul\":3972:4301   */\n    tag_40:\n        /* \"#utility.yul\":4031:4037   */\n      0x00\n        /* \"#utility.yul\":4080:4082   */\n      0x20\n        /* \"#utility.yul\":4068:4077   */\n      dup3\n        /* \"#utility.yul\":4059:4066   */\n      dup5\n        /* \"#utility.yul\":4055:4078   */\n      sub\n        /* \"#utility.yul\":4051:4083   */\n      slt\n        /* \"#utility.yul\":4048:4167   */\n      iszero\n      tag_335\n      jumpi\n        /* \"#utility.yul\":4086:4165   */\n      tag_336\n      tag_234\n      jump\t// in\n    tag_336:\n        /* \"#utility.yul\":4048:4167   */\n    tag_335:\n        /* \"#utility.yul\":4206:4207   */\n      0x00\n        /* \"#utility.yul\":4231:4284   */\n      tag_337\n        /* \"#utility.yul\":4276:4283   */\n      dup5\n        /* \"#utility.yul\":4267:4273   */\n      dup3\n        /* \"#utility.yul\":4256:4265   */\n      dup6\n        /* \"#utility.yul\":4252:4274   */\n      add\n        /* \"#utility.yul\":4231:4284   */\n      tag_242\n      jump\t// in\n    tag_337:\n        /* \"#utility.yul\":4221:4284   */\n      swap2\n      pop\n        /* \"#utility.yul\":4177:4294   */\n      pop\n        /* \"#utility.yul\":3972:4301   */\n      swap3\n      swap2\n      pop\n      pop\n      jump\t// out\n        /* \"#utility.yul\":4307:4425   */\n    tag_243:\n        /* \"#utility.yul\":4394:4418   */\n      tag_339\n        /* \"#utility.yul\":4412:4417   */\n      dup2\n        /* \"#utility.yul\":4394:4418   */\n      tag_228\n      jump\t// in\n    tag_339:\n        /* \"#utility.yul\":4389:4392   */\n      dup3\n        /* \"#utility.yul\":4382:4419   */\n      mstore\n        /* \"#utility.yul\":4307:4425   */\n      pop\n      pop\n      jump\t// out\n        /* \"#utility.yul\":4431:4653   */\n    tag_51:\n        /* \"#utility.yul\":4524:4528   */\n      0x00\n        /* \"#utility.yul\":4562:4564   */\n      0x20\n        /* \"#utility.yul\":4551:4560   */\n      dup3\n        /* \"#utility.yul\":4547:4565   */\n      add\n        /* \"#utility.yul\":4539:4565   */\n      swap1\n      pop\n        /* \"#utility.yul\":4575:4646   */\n      tag_341\n        /* \"#utility.yul\":4643:4644   */\n      0x00\n        /* \"#utility.yul\":4632:4641   */\n      dup4\n        /* \"#utility.yul\":4628:4645   */\n      add\n        /* \"#utility.yul\":4619:4625   */\n      dup5\n        /* \"#utility.yul\":4575:4646   */\n      tag_243\n      jump\t// in\n    tag_341:\n        /* \"#utility.yul\":4431:4653   */\n      swap3\n      swap2\n      pop\n      pop\n      jump\t// out\n        /* \"#utility.yul\":4659:4777   */\n    tag_244:\n        /* \"#utility.yul\":4746:4770   */\n      tag_343\n        /* \"#utility.yul\":4764:4769   */\n      dup2\n        /* \"#utility.yul\":4746:4770   */\n      tag_240\n      jump\t// in\n    tag_343:\n        /* \"#utility.yul\":4741:4744   */\n      dup3\n        /* \"#utility.yul\":4734:4771   */\n      mstore\n        /* \"#utility.yul\":4659:4777   */\n      pop\n      pop\n      jump\t// out\n        /* \"#utility.yul\":4783:5005   */\n    tag_65:\n        /* \"#utility.yul\":4876:4880   */\n      0x00\n        /* \"#utility.yul\":4914:4916   */\n      0x20\n        /* \"#utility.yul\":4903:4912   */\n      dup3\n        /* \"#utility.yul\":4899:4917   */\n      add\n        /* \"#utility.yul\":4891:4917   */\n      swap1\n      pop\n        /* \"#utility.yul\":4927:4998   */\n      tag_345\n        /* \"#utility.yul\":4995:4996   */\n      0x00\n        /* \"#utility.yul\":4984:4993   */\n      dup4\n        /* \"#utility.yul\":4980:4997   */\n      add\n        /* \"#utility.yul\":4971:4977   */\n      dup5\n        /* \"#utility.yul\":4927:4998   */\n      tag_244\n      jump\t// in\n    tag_345:\n        /* \"#utility.yul\":4783:5005   */\n      swap3\n      swap2\n      pop\n      pop\n      jump\t// out\n        /* \"#utility.yul\":5011:5128   */\n    tag_245:\n        /* \"#utility.yul\":5120:5121   */\n      0x00\n        /* \"#utility.yul\":5117:5118   */\n      dup1\n        /* \"#utility.yul\":5110:5122   */\n      revert\n        /* \"#utility.yul\":5134:5251   */\n    tag_246:\n        /* \"#utility.yul\":5243:5244   */\n      0x00\n        /* \"#utility.yul\":5240:5241   */\n      dup1\n        /* \"#utility.yul\":5233:5245   */\n      revert\n        /* \"#utility.yul\":5257:5374   */\n    tag_247:\n        /* \"#utility.yul\":5366:5367   */\n      0x00\n        /* \"#utility.yul\":5363:5364   */\n      dup1\n        /* \"#utility.yul\":5356:5368   */\n      revert\n        /* \"#utility.yul\":5393:5945   */\n    tag_248:\n        /* \"#utility.yul\":5450:5458   */\n      0x00\n        /* \"#utility.yul\":5460:5466   */\n      dup1\n        /* \"#utility.yul\":5510:5513   */\n      dup4\n        /* \"#utility.yul\":5503:5507   */\n      0x1f\n        /* \"#utility.yul\":5495:5501   */\n      dup5\n        /* \"#utility.yul\":5491:5508   */\n      add\n        /* \"#utility.yul\":5487:5514   */\n      slt\n        /* \"#utility.yul\":5477:5599   */\n      tag_350\n      jumpi\n        /* \"#utility.yul\":5518:5597   */\n      tag_351\n      tag_245\n      jump\t// in\n    tag_351:\n        /* \"#utility.yul\":5477:5599   */\n    tag_350:\n        /* \"#utility.yul\":5631:5637   */\n      dup3\n        /* \"#utility.yul\":5618:5638   */\n      calldataload\n        /* \"#utility.yul\":5608:5638   */\n      swap1\n      pop\n        /* \"#utility.yul\":5661:5679   */\n      0xffffffffffffffff\n        /* \"#utility.yul\":5653:5659   */\n      dup2\n        /* \"#utility.yul\":5650:5680   */\n      gt\n        /* \"#utility.yul\":5647:5764   */\n      iszero\n      tag_352\n      jumpi\n        /* \"#utility.yul\":5683:5762   */\n      tag_353\n      tag_246\n      jump\t// in\n    tag_353:\n        /* \"#utility.yul\":5647:5764   */\n    tag_352:\n        /* \"#utility.yul\":5797:5801   */\n      0x20\n        /* \"#utility.yul\":5789:5795   */\n      dup4\n        /* \"#utility.yul\":5785:5802   */\n      add\n        /* \"#utility.yul\":5773:5802   */\n      swap2\n      pop\n        /* \"#utility.yul\":5851:5854   */\n      dup4\n        /* \"#utility.yul\":5843:5847   */\n      0x01\n        /* \"#utility.yul\":5835:5841   */\n      dup3\n        /* \"#utility.yul\":5831:5848   */\n      mul\n        /* \"#utility.yul\":5821:5829   */\n      dup4\n        /* \"#utility.yul\":5817:5849   */\n      add\n        /* \"#utility.yul\":5814:5855   */\n      gt\n        /* \"#utility.yul\":5811:5939   */\n      iszero\n      tag_354\n      jumpi\n        /* \"#utility.yul\":5858:5937   */\n      tag_355\n      tag_247\n      jump\t// in\n    tag_355:\n        /* \"#utility.yul\":5811:5939   */\n    tag_354:\n        /* \"#utility.yul\":5393:5945   */\n      swap3\n      pop\n      swap3\n      swap1\n      pop\n      jump\t// out\n        /* \"#utility.yul\":5951:6768   */\n    tag_85:\n        /* \"#utility.yul\":6039:6045   */\n      0x00\n        /* \"#utility.yul\":6047:6053   */\n      dup1\n        /* \"#utility.yul\":6055:6061   */\n      0x00\n        /* \"#utility.yul\":6063:6069   */\n      dup1\n        /* \"#utility.yul\":6112:6114   */\n      0x60\n        /* \"#utility.yul\":6100:6109   */\n      dup6\n        /* \"#utility.yul\":6091:6098   */\n      dup8\n        /* \"#utility.yul\":6087:6110   */\n      sub\n        /* \"#utility.yul\":6083:6115   */\n      slt\n        /* \"#utility.yul\":6080:6199   */\n      iszero\n      tag_357\n      jumpi\n        /* \"#utility.yul\":6118:6197   */\n      tag_358\n      tag_234\n      jump\t// in\n    tag_358:\n        /* \"#utility.yul\":6080:6199   */\n    tag_357:\n        /* \"#utility.yul\":6238:6239   */\n      0x00\n        /* \"#utility.yul\":6263:6316   */\n      tag_359\n        /* \"#utility.yul\":6308:6315   */\n      dup8\n        /* \"#utility.yul\":6299:6305   */\n      dup3\n        /* \"#utility.yul\":6288:6297   */\n      dup9\n        /* \"#utility.yul\":6284:6306   */\n      add\n        /* \"#utility.yul\":6263:6316   */\n      tag_237\n      jump\t// in\n    tag_359:\n        /* \"#utility.yul\":6253:6316   */\n      swap5\n      pop\n        /* \"#utility.yul\":6209:6326   */\n      pop\n        /* \"#utility.yul\":6365:6367   */\n      0x20\n        /* \"#utility.yul\":6391:6444   */\n      tag_360\n        /* \"#utility.yul\":6436:6443   */\n      dup8\n        /* \"#utility.yul\":6427:6433   */\n      dup3\n        /* \"#utility.yul\":6416:6425   */\n      dup9\n        /* \"#utility.yul\":6412:6434   */\n      add\n        /* \"#utility.yul\":6391:6444   */\n      tag_242\n      jump\t// in\n    tag_360:\n        /* \"#utility.yul\":6381:6444   */\n      swap4\n      pop\n        /* \"#utility.yul\":6336:6454   */\n      pop\n        /* \"#utility.yul\":6521:6523   */\n      0x40\n        /* \"#utility.yul\":6510:6519   */\n      dup6\n        /* \"#utility.yul\":6506:6524   */\n      add\n        /* \"#utility.yul\":6493:6525   */\n      calldataload\n        /* \"#utility.yul\":6552:6570   */\n      0xffffffffffffffff\n        /* \"#utility.yul\":6544:6550   */\n      dup2\n        /* \"#utility.yul\":6541:6571   */\n      gt\n        /* \"#utility.yul\":6538:6655   */\n      iszero\n      tag_361\n      jumpi\n        /* \"#utility.yul\":6574:6653   */\n      tag_362\n      tag_235\n      jump\t// in\n    tag_362:\n        /* \"#utility.yul\":6538:6655   */\n    tag_361:\n        /* \"#utility.yul\":6687:6751   */\n      tag_363\n        /* \"#utility.yul\":6743:6750   */\n      dup8\n        /* \"#utility.yul\":6734:6740   */\n      dup3\n        /* \"#utility.yul\":6723:6732   */\n      dup9\n        /* \"#utility.yul\":6719:6741   */\n      add\n        /* \"#utility.yul\":6687:6751   */\n      tag_248\n      jump\t// in\n    tag_363:\n        /* \"#utility.yul\":6669:6751   */\n      swap3\n      pop\n      swap3\n      pop\n        /* \"#utility.yul\":6464:6761   */\n      pop\n        /* \"#utility.yul\":5951:6768   */\n      swap3\n      swap6\n      swap2\n      swap5\n      pop\n      swap3\n      pop\n      jump\t// out\n        /* \"#utility.yul\":6774:6872   */\n    tag_249:\n        /* \"#utility.yul\":6825:6831   */\n      0x00\n        /* \"#utility.yul\":6859:6864   */\n      dup2\n        /* \"#utility.yul\":6853:6865   */\n      mload\n        /* \"#utility.yul\":6843:6865   */\n      swap1\n      pop\n        /* \"#utility.yul\":6774:6872   */\n      swap2\n      swap1\n      pop\n      jump\t// out\n        /* \"#utility.yul\":6878:7046   */\n    tag_250:\n        /* \"#utility.yul\":6961:6972   */\n      0x00\n        /* \"#utility.yul\":6995:7001   */\n      dup3\n        /* \"#utility.yul\":6990:6993   */\n      dup3\n        /* \"#utility.yul\":6983:7002   */\n      mstore\n        /* \"#utility.yul\":7035:7039   */\n      0x20\n        /* \"#utility.yul\":7030:7033   */\n      dup3\n        /* \"#utility.yul\":7026:7040   */\n      add\n        /* \"#utility.yul\":7011:7040   */\n      swap1\n      pop\n        /* \"#utility.yul\":6878:7046   */\n      swap3\n      swap2\n      pop\n      pop\n      jump\t// out\n        /* \"#utility.yul\":7052:7298   */\n    tag_251:\n        /* \"#utility.yul\":7133:7134   */\n      0x00\n        /* \"#utility.yul\":7143:7256   */\n    tag_367:\n        /* \"#utility.yul\":7157:7163   */\n      dup4\n        /* \"#utility.yul\":7154:7155   */\n      dup2\n        /* \"#utility.yul\":7151:7164   */\n      lt\n        /* \"#utility.yul\":7143:7256   */\n      iszero\n      tag_369\n      jumpi\n        /* \"#utility.yul\":7242:7243   */\n      dup1\n        /* \"#utility.yul\":7237:7240   */\n      dup3\n        /* \"#utility.yul\":7233:7244   */\n      add\n        /* \"#utility.yul\":7227:7245   */\n      mload\n        /* \"#utility.yul\":7223:7224   */\n      dup2\n        /* \"#utility.yul\":7218:7221   */\n      dup5\n        /* \"#utility.yul\":7214:7225   */\n      add\n        /* \"#utility.yul\":7207:7246   */\n      mstore\n        /* \"#utility.yul\":7179:7181   */\n      0x20\n        /* \"#utility.yul\":7176:7177   */\n      dup2\n        /* \"#utility.yul\":7172:7182   */\n      add\n        /* \"#utility.yul\":7167:7182   */\n      swap1\n      pop\n        /* \"#utility.yul\":7143:7256   */\n      jump(tag_367)\n    tag_369:\n        /* \"#utility.yul\":7290:7291   */\n      0x00\n        /* \"#utility.yul\":7281:7287   */\n      dup5\n        /* \"#utility.yul\":7276:7279   */\n      dup5\n        /* \"#utility.yul\":7272:7288   */\n      add\n        /* \"#utility.yul\":7265:7292   */\n      mstore\n        /* \"#utility.yul\":7114:7298   */\n      pop\n        /* \"#utility.yul\":7052:7298   */\n      pop\n      pop\n      pop\n      jump\t// out\n        /* \"#utility.yul\":7304:7406   */\n    tag_252:\n        /* \"#utility.yul\":7345:7351   */\n      0x00\n        /* \"#utility.yul\":7396:7398   */\n      0x1f\n        /* \"#utility.yul\":7392:7399   */\n      not\n        /* \"#utility.yul\":7387:7389   */\n      0x1f\n        /* \"#utility.yul\":7380:7385   */\n      dup4\n        /* \"#utility.yul\":7376:7390   */\n      add\n        /* \"#utility.yul\":7372:7400   */\n      and\n        /* \"#utility.yul\":7362:7400   */\n      swap1\n      pop\n        /* \"#utility.yul\":7304:7406   */\n      swap2\n      swap1\n      pop\n      jump\t// out\n        /* \"#utility.yul\":7412:7785   */\n    tag_253:\n        /* \"#utility.yul\":7498:7501   */\n      0x00\n        /* \"#utility.yul\":7526:7564   */\n      tag_372\n        /* \"#utility.yul\":7558:7563   */\n      dup3\n        /* \"#utility.yul\":7526:7564   */\n      tag_249\n      jump\t// in\n    tag_372:\n        /* \"#utility.yul\":7580:7650   */\n      tag_373\n        /* \"#utility.yul\":7643:7649   */\n      dup2\n        /* \"#utility.yul\":7638:7641   */\n      dup6\n        /* \"#utility.yul\":7580:7650   */\n      tag_250\n      jump\t// in\n    tag_373:\n        /* \"#utility.yul\":7573:7650   */\n      swap4\n      pop\n        /* \"#utility.yul\":7659:7724   */\n      tag_374\n        /* \"#utility.yul\":7717:7723   */\n      dup2\n        /* \"#utility.yul\":7712:7715   */\n      dup6\n        /* \"#utility.yul\":7705:7709   */\n      0x20\n        /* \"#utility.yul\":7698:7703   */\n      dup7\n        /* \"#utility.yul\":7694:7710   */\n      add\n        /* \"#utility.yul\":7659:7724   */\n      tag_251\n      jump\t// in\n    tag_374:\n        /* \"#utility.yul\":7749:7778   */\n      tag_375\n        /* \"#utility.yul\":7771:7777   */\n      dup2\n        /* \"#utility.yul\":7749:7778   */\n      tag_252\n      jump\t// in\n    tag_375:\n        /* \"#utility.yul\":7744:7747   */\n      dup5\n        /* \"#utility.yul\":7740:7779   */\n      add\n        /* \"#utility.yul\":7733:7779   */\n      swap2\n      pop\n        /* \"#utility.yul\":7502:7785   */\n      pop\n        /* \"#utility.yul\":7412:7785   */\n      swap3\n      swap2\n      pop\n      pop\n      jump\t// out\n        /* \"#utility.yul\":7791:8100   */\n    tag_88:\n        /* \"#utility.yul\":7902:7906   */\n      0x00\n        /* \"#utility.yul\":7940:7942   */\n      0x20\n        /* \"#utility.yul\":7929:7938   */\n      dup3\n        /* \"#utility.yul\":7925:7943   */\n      add\n        /* \"#utility.yul\":7917:7943   */\n      swap1\n      pop\n        /* \"#utility.yul\":7989:7998   */\n      dup2\n        /* \"#utility.yul\":7983:7987   */\n      dup2\n        /* \"#utility.yul\":7979:7999   */\n      sub\n        /* \"#utility.yul\":7975:7976   */\n      0x00\n        /* \"#utility.yul\":7964:7973   */\n      dup4\n        /* \"#utility.yul\":7960:7977   */\n      add\n        /* \"#utility.yul\":7953:8000   */\n      mstore\n        /* \"#utility.yul\":8017:8093   */\n      tag_377\n        /* \"#utility.yul\":8088:8092   */\n      dup2\n        /* \"#utility.yul\":8079:8085   */\n      dup5\n        /* \"#utility.yul\":8017:8093   */\n      tag_253\n      jump\t// in\n    tag_377:\n        /* \"#utility.yul\":8009:8093   */\n      swap1\n      pop\n        /* \"#utility.yul\":7791:8100   */\n      swap3\n      swap2\n      pop\n      pop\n      jump\t// out\n        /* \"#utility.yul\":8106:8275   */\n    tag_254:\n        /* \"#utility.yul\":8190:8201   */\n      0x00\n        /* \"#utility.yul\":8224:8230   */\n      dup3\n        /* \"#utility.yul\":8219:8222   */\n      dup3\n        /* \"#utility.yul\":8212:8231   */\n      mstore\n        /* \"#utility.yul\":8264:8268   */\n      0x20\n        /* \"#utility.yul\":8259:8262   */\n      dup3\n        /* \"#utility.yul\":8255:8269   */\n      add\n        /* \"#utility.yul\":8240:8269   */\n      swap1\n      pop\n        /* \"#utility.yul\":8106:8275   */\n      swap3\n      swap2\n      pop\n      pop\n      jump\t// out\n        /* \"#utility.yul\":8281:8441   */\n    tag_255:\n        /* \"#utility.yul\":8421:8433   */\n      0x6f6e6c79206f776e657200000000000000000000000000000000000000000000\n        /* \"#utility.yul\":8417:8418   */\n      0x00\n        /* \"#utility.yul\":8409:8415   */\n      dup3\n        /* \"#utility.yul\":8405:8419   */\n      add\n        /* \"#utility.yul\":8398:8434   */\n      mstore\n        /* \"#utility.yul\":8281:8441   */\n      pop\n      jump\t// out\n        /* \"#utility.yul\":8447:8813   */\n    tag_256:\n        /* \"#utility.yul\":8589:8592   */\n      0x00\n        /* \"#utility.yul\":8610:8677   */\n      tag_381\n        /* \"#utility.yul\":8674:8676   */\n      0x0a\n        /* \"#utility.yul\":8669:8672   */\n      dup4\n        /* \"#utility.yul\":8610:8677   */\n      tag_254\n      jump\t// in\n    tag_381:\n        /* \"#utility.yul\":8603:8677   */\n      swap2\n      pop\n        /* \"#utility.yul\":8686:8779   */\n      tag_382\n        /* \"#utility.yul\":8775:8778   */\n      dup3\n        /* \"#utility.yul\":8686:8779   */\n      tag_255\n      jump\t// in\n    tag_382:\n        /* \"#utility.yul\":8804:8806   */\n      0x20\n        /* \"#utility.yul\":8799:8802   */\n      dup3\n        /* \"#utility.yul\":8795:8807   */\n      add\n        /* \"#utility.yul\":8788:8807   */\n      swap1\n      pop\n        /* \"#utility.yul\":8447:8813   */\n      swap2\n      swap1\n      pop\n      jump\t// out\n        /* \"#utility.yul\":8819:9238   */\n    tag_103:\n        /* \"#utility.yul\":8985:8989   */\n      0x00\n        /* \"#utility.yul\":9023:9025   */\n      0x20\n        /* \"#utility.yul\":9012:9021   */\n      dup3\n        /* \"#utility.yul\":9008:9026   */\n      add\n        /* \"#utility.yul\":9000:9026   */\n      swap1\n      pop\n        /* \"#utility.yul\":9072:9081   */\n      dup2\n        /* \"#utility.yul\":9066:9070   */\n      dup2\n        /* \"#utility.yul\":9062:9082   */\n      sub\n        /* \"#utility.yul\":9058:9059   */\n      0x00\n        /* \"#utility.yul\":9047:9056   */\n      dup4\n        /* \"#utility.yul\":9043:9060   */\n      add\n        /* \"#utility.yul\":9036:9083   */\n      mstore\n        /* \"#utility.yul\":9100:9231   */\n      tag_384\n        /* \"#utility.yul\":9226:9230   */\n      dup2\n        /* \"#utility.yul\":9100:9231   */\n      tag_256\n      jump\t// in\n    tag_384:\n        /* \"#utility.yul\":9092:9231   */\n      swap1\n      pop\n        /* \"#utility.yul\":8819:9238   */\n      swap2\n      swap1\n      pop\n      jump\t// out\n        /* \"#utility.yul\":9244:9404   */\n    tag_257:\n        /* \"#utility.yul\":9384:9396   */\n      0x696e76616c696420696400000000000000000000000000000000000000000000\n        /* \"#utility.yul\":9380:9381   */\n      0x00\n        /* \"#utility.yul\":9372:9378   */\n      dup3\n        /* \"#utility.yul\":9368:9382   */\n      add\n        /* \"#utility.yul\":9361:9397   */\n      mstore\n        /* \"#utility.yul\":9244:9404   */\n      pop\n      jump\t// out\n        /* \"#utility.yul\":9410:9776   */\n    tag_258:\n        /* \"#utility.yul\":9552:9555   */\n      0x00\n        /* \"#utility.yul\":9573:9640   */\n      tag_387\n        /* \"#utility.yul\":9637:9639   */\n      0x0a\n        /* \"#utility.yul\":9632:9635   */\n      dup4\n        /* \"#utility.yul\":9573:9640   */\n      tag_254\n      jump\t// in\n    tag_387:\n        /* \"#utility.yul\":9566:9640   */\n      swap2\n      pop\n        /* \"#utility.yul\":9649:9742   */\n      tag_388\n        /* \"#utility.yul\":9738:9741   */\n      dup3\n        /* \"#utility.yul\":9649:9742   */\n      tag_257\n      jump\t// in\n    tag_388:\n        /* \"#utility.yul\":9767:9769   */\n      0x20\n        /* \"#utility.yul\":9762:9765   */\n      dup3\n        /* \"#utility.yul\":9758:9770   */\n      add\n        /* \"#utility.yul\":9751:9770   */\n      swap1\n      pop\n        /* \"#utility.yul\":9410:9776   */\n      swap2\n      swap1\n      pop\n      jump\t// out\n        /* \"#utility.yul\":9782:10201   */\n    tag_107:\n        /* \"#utility.yul\":9948:9952   */\n      0x00\n        /* \"#utility.yul\":9986:9988   */\n      0x20\n        /* \"#utility.yul\":9975:9984   */\n      dup3\n        /* \"#utility.yul\":9971:9989   */\n      add\n        /* \"#utility.yul\":9963:9989   */\n      swap1\n      pop\n        /* \"#utility.yul\":10035:10044   */\n      dup2\n        /* \"#utility.yul\":10029:10033   */\n      dup2\n        /* \"#utility.yul\":10025:10045   */\n      sub\n        /* \"#utility.yul\":10021:10022   */\n      0x00\n        /* \"#utility.yul\":10010:10019   */\n      dup4\n        /* \"#utility.yul\":10006:10023   */\n      add\n        /* \"#utility.yul\":9999:10046   */\n      mstore\n        /* \"#utility.yul\":10063:10194   */\n      tag_390\n        /* \"#utility.yul\":10189:10193   */\n      dup2\n        /* \"#utility.yul\":10063:10194   */\n      tag_258\n      jump\t// in\n    tag_390:\n        /* \"#utility.yul\":10055:10194   */\n      swap1\n      pop\n        /* \"#utility.yul\":9782:10201   */\n      swap2\n      swap1\n      pop\n      jump\t// out\n        /* \"#utility.yul\":10207:10373   */\n    tag_259:\n        /* \"#utility.yul\":10347:10365   */\n      0x616c726561647920657865637574656400000000000000000000000000000000\n        /* \"#utility.yul\":10343:10344   */\n      0x00\n        /* \"#utility.yul\":10335:10341   */\n      dup3\n        /* \"#utility.yul\":10331:10345   */\n      add\n        /* \"#utility.yul\":10324:10366   */\n      mstore\n        /* \"#utility.yul\":10207:10373   */\n      pop\n      jump\t// out\n        /* \"#utility.yul\":10379:10745   */\n    tag_260:\n        /* \"#utility.yul\":10521:10524   */\n      0x00\n        /* \"#utility.yul\":10542:10609   */\n      tag_393\n        /* \"#utility.yul\":10606:10608   */\n      0x10\n        /* \"#utility.yul\":10601:10604   */\n      dup4\n        /* \"#utility.yul\":10542:10609   */\n      tag_254\n      jump\t// in\n    tag_393:\n        /* \"#utility.yul\":10535:10609   */\n      swap2\n      pop\n        /* \"#utility.yul\":10618:10711   */\n      tag_394\n        /* \"#utility.yul\":10707:10710   */\n      dup3\n        /* \"#utility.yul\":10618:10711   */\n      tag_259\n      jump\t// in\n    tag_394:\n        /* \"#utility.yul\":10736:10738   */\n      0x20\n        /* \"#utility.yul\":10731:10734   */\n      dup3\n        /* \"#utility.yul\":10727:10739   */\n      add\n        /* \"#utility.yul\":10720:10739   */\n      swap1\n      pop\n        /* \"#utility.yul\":10379:10745   */\n      swap2\n      swap1\n      pop\n      jump\t// out\n        /* \"#utility.yul\":10751:11170   */\n    tag_110:\n        /* \"#utility.yul\":10917:10921   */\n      0x00\n        /* \"#utility.yul\":10955:10957   */\n      0x20\n        /* \"#utility.yul\":10944:10953   */\n      dup3\n        /* \"#utility.yul\":10940:10958   */\n      add\n        /* \"#utility.yul\":10932:10958   */\n      swap1\n      pop\n        /* \"#utility.yul\":11004:11013   */\n      dup2\n        /* \"#utility.yul\":10998:11002   */\n      dup2\n        /* \"#utility.yul\":10994:11014   */\n      sub\n        /* \"#utility.yul\":10990:10991   */\n      0x00\n        /* \"#utility.yul\":10979:10988   */\n      dup4\n        /* \"#utility.yul\":10975:10992   */\n      add\n        /* \"#utility.yul\":10968:11015   */\n      mstore\n        /* \"#utility.yul\":11032:11163   */\n      tag_396\n        /* \"#utility.yul\":11158:11162   */\n      dup2\n        /* \"#utility.yul\":11032:11163   */\n      tag_260\n      jump\t// in\n    tag_396:\n        /* \"#utility.yul\":11024:11163   */\n      swap1\n      pop\n        /* \"#utility.yul\":10751:11170   */\n      swap2\n      swap1\n      pop\n      jump\t// out\n        /* \"#utility.yul\":11176:11339   */\n    tag_261:\n        /* \"#utility.yul\":11316:11331   */\n      0x6f6e6c7920677561726469616e00000000000000000000000000000000000000\n        /* \"#utility.yul\":11312:11313   */\n      0x00\n        /* \"#utility.yul\":11304:11310   */\n      dup3\n        /* \"#utility.yul\":11300:11314   */\n      add\n        /* \"#utility.yul\":11293:11332   */\n      mstore\n        /* \"#utility.yul\":11176:11339   */\n      pop\n      jump\t// out\n        /* \"#utility.yul\":11345:11711   */\n    tag_262:\n        /* \"#utility.yul\":11487:11490   */\n      0x00\n        /* \"#utility.yul\":11508:11575   */\n      tag_399\n        /* \"#utility.yul\":11572:11574   */\n      0x0d\n        /* \"#utility.yul\":11567:11570   */\n      dup4\n        /* \"#utility.yul\":11508:11575   */\n      tag_254\n      jump\t// in\n    tag_399:\n        /* \"#utility.yul\":11501:11575   */\n      swap2\n      pop\n        /* \"#utility.yul\":11584:11677   */\n      tag_400\n        /* \"#utility.yul\":11673:11676   */\n      dup3\n        /* \"#utility.yul\":11584:11677   */\n      tag_261\n      jump\t// in\n    tag_400:\n        /* \"#utility.yul\":11702:11704   */\n      0x20\n        /* \"#utility.yul\":11697:11700   */\n      dup3\n        /* \"#utility.yul\":11693:11705   */\n      add\n        /* \"#utility.yul\":11686:11705   */\n      swap1\n      pop\n        /* \"#utility.yul\":11345:11711   */\n      swap2\n      swap1\n      pop\n      jump\t// out\n        /* \"#utility.yul\":11717:12136   */\n    tag_114:\n        /* \"#utility.yul\":11883:11887   */\n      0x00\n        /* \"#utility.yul\":11921:11923   */\n      0x20\n        /* \"#utility.yul\":11910:11919   */\n      dup3\n        /* \"#utility.yul\":11906:11924   */\n      add\n        /* \"#utility.yul\":11898:11924   */\n      swap1\n      pop\n        /* \"#utility.yul\":11970:11979   */\n      dup2\n        /* \"#utility.yul\":11964:11968   */\n      dup2\n        /* \"#utility.yul\":11960:11980   */\n      sub\n        /* \"#utility.yul\":11956:11957   */\n      0x00\n        /* \"#utility.yul\":11945:11954   */\n      dup4\n        /* \"#utility.yul\":11941:11958   */\n      add\n        /* \"#utility.yul\":11934:11981   */\n      mstore\n        /* \"#utility.yul\":11998:12129   */\n      tag_402\n        /* \"#utility.yul\":12124:12128   */\n      dup2\n        /* \"#utility.yul\":11998:12129   */\n      tag_262\n      jump\t// in\n    tag_402:\n        /* \"#utility.yul\":11990:12129   */\n      swap1\n      pop\n        /* \"#utility.yul\":11717:12136   */\n      swap2\n      swap1\n      pop\n      jump\t// out\n        /* \"#utility.yul\":12142:12308   */\n    tag_263:\n        /* \"#utility.yul\":12282:12300   */\n      0x616c726561647920617070726f76656400000000000000000000000000000000\n        /* \"#utility.yul\":12278:12279   */\n      0x00\n        /* \"#utility.yul\":12270:12276   */\n      dup3\n        /* \"#utility.yul\":12266:12280   */\n      add\n        /* \"#utility.yul\":12259:12301   */\n      mstore\n        /* \"#utility.yul\":12142:12308   */\n      pop\n      jump\t// out\n        /* \"#utility.yul\":12314:12680   */\n    tag_264:\n        /* \"#utility.yul\":12456:12459   */\n      0x00\n        /* \"#utility.yul\":12477:12544   */\n      tag_405\n        /* \"#utility.yul\":12541:12543   */\n      0x10\n        /* \"#utility.yul\":12536:12539   */\n      dup4\n        /* \"#utility.yul\":12477:12544   */\n      tag_254\n      jump\t// in\n    tag_405:\n        /* \"#utility.yul\":12470:12544   */\n      swap2\n      pop\n        /* \"#utility.yul\":12553:12646   */\n      tag_406\n        /* \"#utility.yul\":12642:12645   */\n      dup3\n        /* \"#utility.yul\":12553:12646   */\n      tag_263\n      jump\t// in\n    tag_406:\n        /* \"#utility.yul\":12671:12673   */\n      0x20\n        /* \"#utility.yul\":12666:12669   */\n      dup3\n        /* \"#utility.yul\":12662:12674   */\n      add\n        /* \"#utility.yul\":12655:12674   */\n      swap1\n      pop\n        /* \"#utility.yul\":12314:12680   */\n      swap2\n      swap1\n      pop\n      jump\t// out\n        /* \"#utility.yul\":12686:13105   */\n    tag_122:\n        /* \"#utility.yul\":12852:12856   */\n      0x00\n        /* \"#utility.yul\":12890:12892   */\n      0x20\n        /* \"#utility.yul\":12879:12888   */\n      dup3\n        /* \"#utility.yul\":12875:12893   */\n      add\n        /* \"#utility.yul\":12867:12893   */\n      swap1\n      pop\n        /* \"#utility.yul\":12939:12948   */\n      dup2\n        /* \"#utility.yul\":12933:12937   */\n      dup2\n        /* \"#utility.yul\":12929:12949   */\n      sub\n        /* \"#utility.yul\":12925:12926   */\n      0x00\n        /* \"#utility.yul\":12914:12923   */\n      dup4\n        /* \"#utility.yul\":12910:12927   */\n      add\n        /* \"#utility.yul\":12903:12950   */\n      mstore\n        /* \"#utility.yul\":12967:13098   */\n      tag_408\n        /* \"#utility.yul\":13093:13097   */\n      dup2\n        /* \"#utility.yul\":12967:13098   */\n      tag_264\n      jump\t// in\n    tag_408:\n        /* \"#utility.yul\":12959:13098   */\n      swap1\n      pop\n        /* \"#utility.yul\":12686:13105   */\n      swap2\n      swap1\n      pop\n      jump\t// out\n        /* \"#utility.yul\":13111:13291   */\n    tag_265:\n        /* \"#utility.yul\":13159:13236   */\n      0x4e487b7100000000000000000000000000000000000000000000000000000000\n        /* \"#utility.yul\":13156:13157   */\n      0x00\n        /* \"#utility.yul\":13149:13237   */\n      mstore\n        /* \"#utility.yul\":13256:13260   */\n      0x11\n        /* \"#utility.yul\":13253:13254   */\n      0x04\n        /* \"#utility.yul\":13246:13261   */\n      mstore\n        /* \"#utility.yul\":13280:13284   */\n      0x24\n        /* \"#utility.yul\":13277:13278   */\n      0x00\n        /* \"#utility.yul\":13270:13285   */\n      revert\n        /* \"#utility.yul\":13297:13488   */\n    tag_124:\n        /* \"#utility.yul\":13337:13340   */\n      0x00\n        /* \"#utility.yul\":13356:13376   */\n      tag_411\n        /* \"#utility.yul\":13374:13375   */\n      dup3\n        /* \"#utility.yul\":13356:13376   */\n      tag_240\n      jump\t// in\n    tag_411:\n        /* \"#utility.yul\":13351:13376   */\n      swap2\n      pop\n        /* \"#utility.yul\":13390:13410   */\n      tag_412\n        /* \"#utility.yul\":13408:13409   */\n      dup4\n        /* \"#utility.yul\":13390:13410   */\n      tag_240\n      jump\t// in\n    tag_412:\n        /* \"#utility.yul\":13385:13410   */\n      swap3\n      pop\n        /* \"#utility.yul\":13433:13434   */\n      dup3\n        /* \"#utility.yul\":13430:13431   */\n      dup3\n        /* \"#utility.yul\":13426:13435   */\n      add\n        /* \"#utility.yul\":13419:13435   */\n      swap1\n      pop\n        /* \"#utility.yul\":13454:13457   */\n      dup1\n        /* \"#utility.yul\":13451:13452   */\n      dup3\n        /* \"#utility.yul\":13448:13458   */\n      gt\n        /* \"#utility.yul\":13445:13481   */\n      iszero\n      tag_413\n      jumpi\n        /* \"#utility.yul\":13461:13479   */\n      tag_414\n      tag_265\n      jump\t// in\n    tag_414:\n        /* \"#utility.yul\":13445:13481   */\n    tag_413:\n        /* \"#utility.yul\":13297:13488   */\n      swap3\n      swap2\n      pop\n      pop\n      jump\t// out\n        /* \"#utility.yul\":13494:13826   */\n    tag_126:\n        /* \"#utility.yul\":13615:13619   */\n      0x00\n        /* \"#utility.yul\":13653:13655   */\n      0x40\n        /* \"#utility.yul\":13642:13651   */\n      dup3\n        /* \"#utility.yul\":13638:13656   */\n      add\n        /* \"#utility.yul\":13630:13656   */\n      swap1\n      pop\n        /* \"#utility.yul\":13666:13737   */\n      tag_416\n        /* \"#utility.yul\":13734:13735   */\n      0x00\n        /* \"#utility.yul\":13723:13732   */\n      dup4\n        /* \"#utility.yul\":13719:13736   */\n      add\n        /* \"#utility.yul\":13710:13716   */\n      dup6\n        /* \"#utility.yul\":13666:13737   */\n      tag_243\n      jump\t// in\n    tag_416:\n        /* \"#utility.yul\":13747:13819   */\n      tag_417\n        /* \"#utility.yul\":13815:13817   */\n      0x20\n        /* \"#utility.yul\":13804:13813   */\n      dup4\n        /* \"#utility.yul\":13800:13818   */\n      add\n        /* \"#utility.yul\":13791:13797   */\n      dup5\n        /* \"#utility.yul\":13747:13819   */\n      tag_244\n      jump\t// in\n    tag_417:\n        /* \"#utility.yul\":13494:13826   */\n      swap4\n      swap3\n      pop\n      pop\n      pop\n      jump\t// out\n        /* \"#utility.yul\":13832:14004   */\n    tag_266:\n        /* \"#utility.yul\":13972:13996   */\n      0x696e73756666696369656e7420617070726f76616c7300000000000000000000\n        /* \"#utility.yul\":13968:13969   */\n      0x00\n        /* \"#utility.yul\":13960:13966   */\n      dup3\n        /* \"#utility.yul\":13956:13970   */\n      add\n        /* \"#utility.yul\":13949:13997   */\n      mstore\n        /* \"#utility.yul\":13832:14004   */\n      pop\n      jump\t// out\n        /* \"#utility.yul\":14010:14376   */\n    tag_267:\n        /* \"#utility.yul\":14152:14155   */\n      0x00\n        /* \"#utility.yul\":14173:14240   */\n      tag_420\n        /* \"#utility.yul\":14237:14239   */\n      0x16\n        /* \"#utility.yul\":14232:14235   */\n      dup4\n        /* \"#utility.yul\":14173:14240   */\n      tag_254\n      jump\t// in\n    tag_420:\n        /* \"#utility.yul\":14166:14240   */\n      swap2\n      pop\n        /* \"#utility.yul\":14249:14342   */\n      tag_421\n        /* \"#utility.yul\":14338:14341   */\n      dup3\n        /* \"#utility.yul\":14249:14342   */\n      tag_266\n      jump\t// in\n    tag_421:\n        /* \"#utility.yul\":14367:14369   */\n      0x20\n        /* \"#utility.yul\":14362:14365   */\n      dup3\n        /* \"#utility.yul\":14358:14370   */\n      add\n        /* \"#utility.yul\":14351:14370   */\n      swap1\n      pop\n        /* \"#utility.yul\":14010:14376   */\n      swap2\n      swap1\n      pop\n      jump\t// out\n        /* \"#utility.yul\":14382:14801   */\n    tag_139:\n        /* \"#utility.yul\":14548:14552   */\n      0x00\n        /* \"#utility.yul\":14586:14588   */\n      0x20\n        /* \"#utility.yul\":14575:14584   */\n      dup3\n        /* \"#utility.yul\":14571:14589   */\n      add\n        /* \"#utility.yul\":14563:14589   */\n      swap1\n      pop\n        /* \"#utility.yul\":14635:14644   */\n      dup2\n        /* \"#utility.yul\":14629:14633   */\n      dup2\n        /* \"#utility.yul\":14625:14645   */\n      sub\n        /* \"#utility.yul\":14621:14622   */\n      0x00\n        /* \"#utility.yul\":14610:14619   */\n      dup4\n        /* \"#utility.yul\":14606:14623   */\n      add\n        /* \"#utility.yul\":14599:14646   */\n      mstore\n        /* \"#utility.yul\":14663:14794   */\n      tag_423\n        /* \"#utility.yul\":14789:14793   */\n      dup2\n        /* \"#utility.yul\":14663:14794   */\n      tag_267\n      jump\t// in\n    tag_423:\n        /* \"#utility.yul\":14655:14794   */\n      swap1\n      pop\n        /* \"#utility.yul\":14382:14801   */\n      swap2\n      swap1\n      pop\n      jump\t// out\n        /* \"#utility.yul\":14807:14969   */\n    tag_268:\n        /* \"#utility.yul\":14947:14961   */\n      0x6e6f7420677561726469616e0000000000000000000000000000000000000000\n        /* \"#utility.yul\":14943:14944   */\n      0x00\n        /* \"#utility.yul\":14935:14941   */\n      dup3\n        /* \"#utility.yul\":14931:14945   */\n      add\n        /* \"#utility.yul\":14924:14962   */\n      mstore\n        /* \"#utility.yul\":14807:14969   */\n      pop\n      jump\t// out\n        /* \"#utility.yul\":14975:15341   */\n    tag_269:\n        /* \"#utility.yul\":15117:15120   */\n      0x00\n        /* \"#utility.yul\":15138:15205   */\n      tag_426\n        /* \"#utility.yul\":15202:15204   */\n      0x0c\n        /* \"#utility.yul\":15197:15200   */\n      dup4\n        /* \"#utility.yul\":15138:15205   */\n      tag_254\n      jump\t// in\n    tag_426:\n        /* \"#utility.yul\":15131:15205   */\n      swap2\n      pop\n        /* \"#utility.yul\":15214:15307   */\n      tag_427\n        /* \"#utility.yul\":15303:15306   */\n      dup3\n        /* \"#utility.yul\":15214:15307   */\n      tag_268\n      jump\t// in\n    tag_427:\n        /* \"#utility.yul\":15332:15334   */\n      0x20\n        /* \"#utility.yul\":15327:15330   */\n      dup3\n        /* \"#utility.yul\":15323:15335   */\n      add\n        /* \"#utility.yul\":15316:15335   */\n      swap1\n      pop\n        /* \"#utility.yul\":14975:15341   */\n      swap2\n      swap1\n      pop\n      jump\t// out\n        /* \"#utility.yul\":15347:15766   */\n    tag_147:\n        /* \"#utility.yul\":15513:15517   */\n      0x00\n        /* \"#utility.yul\":15551:15553   */\n      0x20\n        /* \"#utility.yul\":15540:15549   */\n      dup3\n        /* \"#utility.yul\":15536:15554   */\n      add\n        /* \"#utility.yul\":15528:15554   */\n      swap1\n      pop\n        /* \"#utility.yul\":15600:15609   */\n      dup2\n        /* \"#utility.yul\":15594:15598   */\n      dup2\n        /* \"#utility.yul\":15590:15610   */\n      sub\n        /* \"#utility.yul\":15586:15587   */\n      0x00\n        /* \"#utility.yul\":15575:15584   */\n      dup4\n        /* \"#utility.yul\":15571:15588   */\n      add\n        /* \"#utility.yul\":15564:15611   */\n      mstore\n        /* \"#utility.yul\":15628:15759   */\n      tag_429\n        /* \"#utility.yul\":15754:15758   */\n      dup2\n        /* \"#utility.yul\":15628:15759   */\n      tag_269\n      jump\t// in\n    tag_429:\n        /* \"#utility.yul\":15620:15759   */\n      swap1\n      pop\n        /* \"#utility.yul\":15347:15766   */\n      swap2\n      swap1\n      pop\n      jump\t// out\n        /* \"#utility.yul\":15772:15952   */\n    tag_153:\n        /* \"#utility.yul\":15820:15897   */\n      0x4e487b7100000000000000000000000000000000000000000000000000000000\n        /* \"#utility.yul\":15817:15818   */\n      0x00\n        /* \"#utility.yul\":15810:15898   */\n      mstore\n        /* \"#utility.yul\":15917:15921   */\n      0x32\n        /* \"#utility.yul\":15914:15915   */\n      0x04\n        /* \"#utility.yul\":15907:15922   */\n      mstore\n        /* \"#utility.yul\":15941:15945   */\n      0x24\n        /* \"#utility.yul\":15938:15939   */\n      0x00\n        /* \"#utility.yul\":15931:15946   */\n      revert\n        /* \"#utility.yul\":15958:16152   */\n    tag_157:\n        /* \"#utility.yul\":15998:16002   */\n      0x00\n        /* \"#utility.yul\":16018:16038   */\n      tag_432\n        /* \"#utility.yul\":16036:16037   */\n      dup3\n        /* \"#utility.yul\":16018:16038   */\n      tag_240\n      jump\t// in\n    tag_432:\n        /* \"#utility.yul\":16013:16038   */\n      swap2\n      pop\n        /* \"#utility.yul\":16052:16072   */\n      tag_433\n        /* \"#utility.yul\":16070:16071   */\n      dup4\n        /* \"#utility.yul\":16052:16072   */\n      tag_240\n      jump\t// in\n    tag_433:\n        /* \"#utility.yul\":16047:16072   */\n      swap3\n      pop\n        /* \"#utility.yul\":16096:16097   */\n      dup3\n        /* \"#utility.yul\":16093:16094   */\n      dup3\n        /* \"#utility.yul\":16089:16098   */\n      sub\n        /* \"#utility.yul\":16081:16098   */\n      swap1\n      pop\n        /* \"#utility.yul\":16120:16121   */\n      dup2\n        /* \"#utility.yul\":16114:16118   */\n      dup2\n        /* \"#utility.yul\":16111:16122   */\n      gt\n        /* \"#utility.yul\":16108:16145   */\n      iszero\n      tag_434\n      jumpi\n        /* \"#utility.yul\":16125:16143   */\n      tag_435\n      tag_265\n      jump\t// in\n    tag_435:\n        /* \"#utility.yul\":16108:16145   */\n    tag_434:\n        /* \"#utility.yul\":15958:16152   */\n      swap3\n      swap2\n      pop\n      pop\n      jump\t// out\n        /* \"#utility.yul\":16158:16338   */\n    tag_166:\n        /* \"#utility.yul\":16206:16283   */\n      0x4e487b7100000000000000000000000000000000000000000000000000000000\n        /* \"#utility.yul\":16203:16204   */\n      0x00\n        /* \"#utility.yul\":16196:16284   */\n      mstore\n        /* \"#utility.yul\":16303:16307   */\n      0x31\n        /* \"#utility.yul\":16300:16301   */\n      0x04\n        /* \"#utility.yul\":16293:16308   */\n      mstore\n        /* \"#utility.yul\":16327:16331   */\n      0x24\n        /* \"#utility.yul\":16324:16325   */\n      0x00\n        /* \"#utility.yul\":16317:16332   */\n      revert\n        /* \"#utility.yul\":16344:16577   */\n    tag_169:\n        /* \"#utility.yul\":16383:16386   */\n      0x00\n        /* \"#utility.yul\":16406:16430   */\n      tag_438\n        /* \"#utility.yul\":16424:16429   */\n      dup3\n        /* \"#utility.yul\":16406:16430   */\n      tag_240\n      jump\t// in\n    tag_438:\n        /* \"#utility.yul\":16397:16430   */\n      swap2\n      pop\n        /* \"#utility.yul\":16452:16518   */\n      0xffffffffffffffffffffffffffffffffffffffffffffffffffffffffffffffff\n        /* \"#utility.yul\":16445:16450   */\n      dup3\n        /* \"#utility.yul\":16442:16519   */\n      sub\n        /* \"#utility.yul\":16439:16542   */\n      tag_439\n      jumpi\n        /* \"#utility.yul\":16522:16540   */\n      tag_440\n      tag_265\n      jump\t// in\n    tag_440:\n        /* \"#utility.yul\":16439:16542   */\n    tag_439:\n        /* \"#utility.yul\":16569:16570   */\n      0x01\n        /* \"#utility.yul\":16562:16567   */\n      dup3\n        /* \"#utility.yul\":16558:16571   */\n      add\n        /* \"#utility.yul\":16551:16571   */\n      swap1\n      pop\n        /* \"#utility.yul\":16344:16577   */\n      swap2\n      swap1\n      pop\n      jump\t// out\n        /* \"#utility.yul\":16583:16737   */\n    tag_270:\n        /* \"#utility.yul\":16723:16729   */\n      0x7a65726f00000000000000000000000000000000000000000000000000000000\n        /* \"#utility.yul\":16719:16720   */\n      0x00\n        /* \"#utility.yul\":16711:16717   */\n      dup3\n        /* \"#utility.yul\":16707:16721   */\n      add\n        /* \"#utility.yul\":16700:16730   */\n      mstore\n        /* \"#utility.yul\":16583:16737   */\n      pop\n      jump\t// out\n        /* \"#utility.yul\":16743:17108   */\n    tag_271:\n        /* \"#utility.yul\":16885:16888   */\n      0x00\n        /* \"#utility.yul\":16906:16972   */\n      tag_443\n        /* \"#utility.yul\":16970:16971   */\n      0x04\n        /* \"#utility.yul\":16965:16968   */\n      dup4\n        /* \"#utility.yul\":16906:16972   */\n      tag_254\n      jump\t// in\n    tag_443:\n        /* \"#utility.yul\":16899:16972   */\n      swap2\n      pop\n        /* \"#utility.yul\":16981:17074   */\n      tag_444\n        /* \"#utility.yul\":17070:17073   */\n      dup3\n        /* \"#utility.yul\":16981:17074   */\n      tag_270\n      jump\t// in\n    tag_444:\n        /* \"#utility.yul\":17099:17101   */\n      0x20\n        /* \"#utility.yul\":17094:17097   */\n      dup3\n        /* \"#utility.yul\":17090:17102   */\n      add\n        /* \"#utility.yul\":17083:17102   */\n      swap1\n      pop\n        /* \"#utility.yul\":16743:17108   */\n      swap2\n      swap1\n      pop\n      jump\t// out\n        /* \"#utility.yul\":17114:17533   */\n    tag_177:\n        /* \"#utility.yul\":17280:17284   */\n      0x00\n        /* \"#utility.yul\":17318:17320   */\n      0x20\n        /* \"#utility.yul\":17307:17316   */\n      dup3\n        /* \"#utility.yul\":17303:17321   */\n      add\n        /* \"#utility.yul\":17295:17321   */\n      swap1\n      pop\n        /* \"#utility.yul\":17367:17376   */\n      dup2\n        /* \"#utility.yul\":17361:17365   */\n      dup2\n        /* \"#utility.yul\":17357:17377   */\n      sub\n        /* \"#utility.yul\":17353:17354   */\n      0x00\n        /* \"#utility.yul\":17342:17351   */\n      dup4\n        /* \"#utility.yul\":17338:17355   */\n      add\n        /* \"#utility.yul\":17331:17378   */\n      mstore\n        /* \"#utility.yul\":17395:17526   */\n      tag_446\n        /* \"#utility.yul\":17521:17525   */\n      dup2\n        /* \"#utility.yul\":17395:17526   */\n      tag_271\n      jump\t// in\n    tag_446:\n        /* \"#utility.yul\":17387:17526   */\n      swap1\n      pop\n        /* \"#utility.yul\":17114:17533   */\n      swap2\n      swap1\n      pop\n      jump\t// out\n        /* \"#utility.yul\":17539:17871   */\n    tag_180:\n        /* \"#utility.yul\":17660:17664   */\n      0x00\n        /* \"#utility.yul\":17698:17700   */\n      0x40\n        /* \"#utility.yul\":17687:17696   */\n      dup3\n        /* \"#utility.yul\":17683:17701   */\n      add\n        /* \"#utility.yul\":17675:17701   */\n      swap1\n      pop\n        /* \"#utility.yul\":17711:17782   */\n      tag_448\n        /* \"#utility.yul\":17779:17780   */\n      0x00\n        /* \"#utility.yul\":17768:17777   */\n      dup4\n        /* \"#utility.yul\":17764:17781   */\n      add\n        /* \"#utility.yul\":17755:17761   */\n      dup6\n        /* \"#utility.yul\":17711:17782   */\n      tag_243\n      jump\t// in\n    tag_448:\n        /* \"#utility.yul\":17792:17864   */\n      tag_449\n        /* \"#utility.yul\":17860:17862   */\n      0x20\n        /* \"#utility.yul\":17849:17858   */\n      dup4\n        /* \"#utility.yul\":17845:17863   */\n      add\n        /* \"#utility.yul\":17836:17842   */\n      dup5\n        /* \"#utility.yul\":17792:17864   */\n      tag_243\n      jump\t// in\n    tag_449:\n        /* \"#utility.yul\":17539:17871   */\n      swap4\n      swap3\n      pop\n      pop\n      pop\n      jump\t// out\n        /* \"#utility.yul\":17877:17962   */\n    tag_272:\n        /* \"#utility.yul\":17922:17929   */\n      0x00\n        /* \"#utility.yul\":17951:17956   */\n      dup2\n        /* \"#utility.yul\":17940:17956   */\n      swap1\n      pop\n        /* \"#utility.yul\":17877:17962   */\n      swap2\n      swap1\n      pop\n      jump\t// out\n        /* \"#utility.yul\":17968:18028   */\n    tag_273:\n        /* \"#utility.yul\":17996:17999   */\n      0x00\n        /* \"#utility.yul\":18017:18022   */\n      dup2\n        /* \"#utility.yul\":18010:18022   */\n      swap1\n      pop\n        /* \"#utility.yul\":17968:18028   */\n      swap2\n      swap1\n      pop\n      jump\t// out\n        /* \"#utility.yul\":18034:18192   */\n    tag_274:\n        /* \"#utility.yul\":18092:18101   */\n      0x00\n        /* \"#utility.yul\":18125:18186   */\n      tag_453\n        /* \"#utility.yul\":18143:18185   */\n      tag_454\n        /* \"#utility.yul\":18152:18184   */\n      tag_455\n        /* \"#utility.yul\":18178:18183   */\n      dup5\n        /* \"#utility.yul\":18152:18184   */\n      tag_272\n      jump\t// in\n    tag_455:\n        /* \"#utility.yul\":18143:18185   */\n      tag_273\n      jump\t// in\n    tag_454:\n        /* \"#utility.yul\":18125:18186   */\n      tag_240\n      jump\t// in\n    tag_453:\n        /* \"#utility.yul\":18112:18186   */\n      swap1\n      pop\n        /* \"#utility.yul\":18034:18192   */\n      swap2\n      swap1\n      pop\n      jump\t// out\n        /* \"#utility.yul\":18198:18345   */\n    tag_275:\n        /* \"#utility.yul\":18293:18338   */\n      tag_457\n        /* \"#utility.yul\":18332:18337   */\n      dup2\n        /* \"#utility.yul\":18293:18338   */\n      tag_274\n      jump\t// in\n    tag_457:\n        /* \"#utility.yul\":18288:18291   */\n      dup3\n        /* \"#utility.yul\":18281:18339   */\n      mstore\n        /* \"#utility.yul\":18198:18345   */\n      pop\n      pop\n      jump\t// out\n        /* \"#utility.yul\":18351:18699   */\n    tag_182:\n        /* \"#utility.yul\":18480:18484   */\n      0x00\n        /* \"#utility.yul\":18518:18520   */\n      0x40\n        /* \"#utility.yul\":18507:18516   */\n      dup3\n        /* \"#utility.yul\":18503:18521   */\n      add\n        /* \"#utility.yul\":18495:18521   */\n      swap1\n      pop\n        /* \"#utility.yul\":18531:18602   */\n      tag_459\n        /* \"#utility.yul\":18599:18600   */\n      0x00\n        /* \"#utility.yul\":18588:18597   */\n      dup4\n        /* \"#utility.yul\":18584:18601   */\n      add\n        /* \"#utility.yul\":18575:18581   */\n      dup6\n        /* \"#utility.yul\":18531:18602   */\n      tag_243\n      jump\t// in\n    tag_459:\n        /* \"#utility.yul\":18612:18692   */\n      tag_460\n        /* \"#utility.yul\":18688:18690   */\n      0x20\n        /* \"#utility.yul\":18677:18686   */\n      dup4\n        /* \"#utility.yul\":18673:18691   */\n      add\n        /* \"#utility.yul\":18664:18670   */\n      dup5\n        /* \"#utility.yul\":18612:18692   */\n      tag_275\n      jump\t// in\n    tag_460:\n        /* \"#utility.yul\":18351:18699   */\n      swap4\n      swap3\n      pop\n      pop\n      pop\n      jump\t// out\n        /* \"#utility.yul\":18705:18872   */\n    tag_276:\n        /* \"#utility.yul\":18845:18864   */\n      0x696e76616c6964207468726573686f6c64000000000000000000000000000000\n        /* \"#utility.yul\":18841:18842   */\n      0x00\n        /* \"#utility.yul\":18833:18839   */\n      dup3\n        /* \"#utility.yul\":18829:18843   */\n      add\n        /* \"#utility.yul\":18822:18865   */\n      mstore\n        /* \"#utility.yul\":18705:18872   */\n      pop\n      jump\t// out\n        /* \"#utility.yul\":18878:19244   */\n    tag_277:\n        /* \"#utility.yul\":19020:19023   */\n      0x00\n        /* \"#utility.yul\":19041:19108   */\n      tag_463\n        /* \"#utility.yul\":19105:19107   */\n      0x11\n        /* \"#utility.yul\":19100:19103   */\n      dup4\n        /* \"#utility.yul\":19041:19108   */\n      tag_254\n      jump\t// in\n    tag_463:\n        /* \"#utility.yul\":19034:19108   */\n      swap2\n      pop\n        /* \"#utility.yul\":19117:19210   */\n      tag_464\n        /* \"#utility.yul\":19206:19209   */\n      dup3\n        /* \"#utility.yul\":19117:19210   */\n      tag_276\n      jump\t// in\n    tag_464:\n        /* \"#utility.yul\":19235:19237   */\n      0x20\n        /* \"#utility.yul\":19230:19233   */\n      dup3\n        /* \"#utility.yul\":19226:19238   */\n      add\n        /* \"#utility.yul\":19219:19238   */\n      swap1\n      pop\n        /* \"#utility.yul\":18878:19244   */\n      swap2\n      swap1\n      pop\n      jump\t// out\n        /* \"#utility.yul\":19250:19669   */\n    tag_190:\n        /* \"#utility.yul\":19416:19420   */\n      0x00\n        /* \"#utility.yul\":19454:19456   */\n      0x20\n        /* \"#utility.yul\":19443:19452   */\n      dup3\n        /* \"#utility.yul\":19439:19457   */\n      add\n        /* \"#utility.yul\":19431:19457   */\n      swap1\n      pop\n        /* \"#utility.yul\":19503:19512   */\n      dup2\n        /* \"#utility.yul\":19497:19501   */\n      dup2\n        /* \"#utility.yul\":19493:19513   */\n      sub\n        /* \"#utility.yul\":19489:19490   */\n      0x00\n        /* \"#utility.yul\":19478:19487   */\n      dup4\n        /* \"#utility.yul\":19474:19491   */\n      add\n        /* \"#utility.yul\":19467:19514   */\n      mstore\n        /* \"#utility.yul\":19531:19662   */\n      tag_466\n        /* \"#utility.yul\":19657:19661   */\n      dup2\n        /* \"#utility.yul\":19531:19662   */\n      tag_277\n      jump\t// in\n    tag_466:\n        /* \"#utility.yul\":19523:19662   */\n      swap1\n      pop\n        /* \"#utility.yul\":19250:19669   */\n      swap2\n      swap1\n      pop\n      jump\t// out\n        /* \"#utility.yul\":19675:19834   */\n    tag_278:\n        /* \"#utility.yul\":19815:19826   */\n      0x6e6f74206f776e65720000000000000000000000000000000000000000000000\n        /* \"#utility.yul\":19811:19812   */\n      0x00\n        /* \"#utility.yul\":19803:19809   */\n      dup3\n        /* \"#utility.yul\":19799:19813   */\n      add\n        /* \"#utility.yul\":19792:19827   */\n      mstore\n        /* \"#utility.yul\":19675:19834   */\n      pop\n      jump\t// out\n        /* \"#utility.yul\":19840:20205   */\n    tag_279:\n        /* \"#utility.yul\":19982:19985   */\n      0x00\n        /* \"#utility.yul\":20003:20069   */\n      tag_469\n        /* \"#utility.yul\":20067:20068   */\n      0x09\n        /* \"#utility.yul\":20062:20065   */\n      dup4\n        /* \"#utility.yul\":20003:20069   */\n      tag_254\n      jump\t// in\n    tag_469:\n        /* \"#utility.yul\":19996:20069   */\n      swap2\n      pop\n        /* \"#utility.yul\":20078:20171   */\n      tag_470\n        /* \"#utility.yul\":20167:20170   */\n      dup3\n        /* \"#utility.yul\":20078:20171   */\n      tag_278\n      jump\t// in\n    tag_470:\n        /* \"#utility.yul\":20196:20198   */\n      0x20\n        /* \"#utility.yul\":20191:20194   */\n      dup3\n        /* \"#utility.yul\":20187:20199   */\n      add\n        /* \"#utility.yul\":20180:20199   */\n      swap1\n      pop\n        /* \"#utility.yul\":19840:20205   */\n      swap2\n      swap1\n      pop\n      jump\t// out\n        /* \"#utility.yul\":20211:20630   */\n    tag_206:\n        /* \"#utility.yul\":20377:20381   */\n      0x00\n        /* \"#utility.yul\":20415:20417   */\n      0x20\n        /* \"#utility.yul\":20404:20413   */\n      dup3\n        /* \"#utility.yul\":20400:20418   */\n      add\n        /* \"#utility.yul\":20392:20418   */\n      swap1\n      pop\n        /* \"#utility.yul\":20464:20473   */\n      dup2\n        /* \"#utility.yul\":20458:20462   */\n      dup2\n        /* \"#utility.yul\":20454:20474   */\n      sub\n        /* \"#utility.yul\":20450:20451   */\n      0x00\n        /* \"#utility.yul\":20439:20448   */\n      dup4\n        /* \"#utility.yul\":20435:20452   */\n      add\n        /* \"#utility.yul\":20428:20475   */\n      mstore\n        /* \"#utility.yul\":20492:20623   */\n      tag_472\n        /* \"#utility.yul\":20618:20622   */\n      dup2\n        /* \"#utility.yul\":20492:20623   */\n      tag_279\n      jump\t// in\n    tag_472:\n        /* \"#utility.yul\":20484:20623   */\n      swap1\n      pop\n        /* \"#utility.yul\":20211:20630   */\n      swap2\n      swap1\n      pop\n      jump\t// out\n        /* \"#utility.yul\":20636:20783   */\n    tag_280:\n        /* \"#utility.yul\":20737:20748   */\n      0x00\n        /* \"#utility.yul\":20774:20777   */\n      dup2\n        /* \"#utility.yul\":20759:20777   */\n      swap1\n      pop\n        /* \"#utility.yul\":20636:20783   */\n      swap3\n      swap2\n      pop\n      pop\n      jump\t// out\n        /* \"#utility.yul\":20789:20935   */\n    tag_281:\n        /* \"#utility.yul\":20886:20892   */\n      dup3\n        /* \"#utility.yul\":20881:20884   */\n      dup2\n        /* \"#utility.yul\":20876:20879   */\n      dup4\n        /* \"#utility.yul\":20863:20893   */\n      calldatacopy\n        /* \"#utility.yul\":20927:20928   */\n      0x00\n        /* \"#utility.yul\":20918:20924   */\n      dup4\n        /* \"#utility.yul\":20913:20916   */\n      dup4\n        /* \"#utility.yul\":20909:20925   */\n      add\n        /* \"#utility.yul\":20902:20929   */\n      mstore\n        /* \"#utility.yul\":20789:20935   */\n      pop\n      pop\n      pop\n      jump\t// out\n        /* \"#utility.yul\":20963:21290   */\n    tag_282:\n        /* \"#utility.yul\":21077:21080   */\n      0x00\n        /* \"#utility.yul\":21098:21186   */\n      tag_476\n        /* \"#utility.yul\":21179:21185   */\n      dup4\n        /* \"#utility.yul\":21174:21177   */\n      dup6\n        /* \"#utility.yul\":21098:21186   */\n      tag_280\n      jump\t// in\n    tag_476:\n        /* \"#utility.yul\":21091:21186   */\n      swap4\n      pop\n        /* \"#utility.yul\":21196:21252   */\n      tag_477\n        /* \"#utility.yul\":21245:21251   */\n      dup4\n        /* \"#utility.yul\":21240:21243   */\n      dup6\n        /* \"#utility.yul\":21233:21238   */\n      dup5\n        /* \"#utility.yul\":21196:21252   */\n      tag_281\n      jump\t// in\n    tag_477:\n        /* \"#utility.yul\":21277:21283   */\n      dup3\n        /* \"#utility.yul\":21272:21275   */\n      dup5\n        /* \"#utility.yul\":21268:21284   */\n      add\n        /* \"#utility.yul\":21261:21284   */\n      swap1\n      pop\n        /* \"#utility.yul\":20963:21290   */\n      swap4\n      swap3\n      pop\n      pop\n      pop\n      jump\t// out\n        /* \"#utility.yul\":21296:21587   */\n    tag_208:\n        /* \"#utility.yul\":21436:21439   */\n      0x00\n        /* \"#utility.yul\":21458:21561   */\n      tag_479\n        /* \"#utility.yul\":21557:21560   */\n      dup3\n        /* \"#utility.yul\":21548:21554   */\n      dup5\n        /* \"#utility.yul\":21540:21546   */\n      dup7\n        /* \"#utility.yul\":21458:21561   */\n      tag_282\n      jump\t// in\n    tag_479:\n        /* \"#utility.yul\":21451:21561   */\n      swap2\n      pop\n        /* \"#utility.yul\":21578:21581   */\n      dup2\n        /* \"#utility.yul\":21571:21581   */\n      swap1\n      pop\n        /* \"#utility.yul\":21296:21587   */\n      swap4\n      swap3\n      pop\n      pop\n      pop\n      jump\t// out\n        /* \"#utility.yul\":21593:21754   */\n    tag_283:\n        /* \"#utility.yul\":21733:21746   */\n      0x63616c6c206661696c6564000000000000000000000000000000000000000000\n        /* \"#utility.yul\":21729:21730   */\n      0x00\n        /* \"#utility.yul\":21721:21727   */\n      dup3\n        /* \"#utility.yul\":21717:21731   */\n      add\n        /* \"#utility.yul\":21710:21747   */\n      mstore\n        /* \"#utility.yul\":21593:21754   */\n      pop\n      jump\t// out\n        /* \"#utility.yul\":21760:22126   */\n    tag_284:\n        /* \"#utility.yul\":21902:21905   */\n      0x00\n        /* \"#utility.yul\":21923:21990   */\n      tag_482\n        /* \"#utility.yul\":21987:21989   */\n      0x0b\n        /* \"#utility.yul\":21982:21985   */\n      dup4\n        /* \"#utility.yul\":21923:21990   */\n      tag_254\n      jump\t// in\n    tag_482:\n        /* \"#utility.yul\":21916:21990   */\n      swap2\n      pop\n        /* \"#utility.yul\":21999:22092   */\n      tag_483\n        /* \"#utility.yul\":22088:22091   */\n      dup3\n        /* \"#utility.yul\":21999:22092   */\n      tag_283\n      jump\t// in\n    tag_483:\n        /* \"#utility.yul\":22117:22119   */\n      0x20\n        /* \"#utility.yul\":22112:22115   */\n      dup3\n        /* \"#utility.yul\":22108:22120   */\n      add\n        /* \"#utility.yul\":22101:22120   */\n      swap1\n      pop\n        /* \"#utility.yul\":21760:22126   */\n      swap2\n      swap1\n      pop\n      jump\t// out\n        /* \"#utility.yul\":22132:22551   */\n    tag_214:\n        /* \"#utility.yul\":22298:22302   */\n      0x00\n        /* \"#utility.yul\":22336:22338   */\n      0x20\n        /* \"#utility.yul\":22325:22334   */\n      dup3\n        /* \"#utility.yul\":22321:22339   */\n      add\n        /* \"#utility.yul\":22313:22339   */\n      swap1\n      pop\n        /* \"#utility.yul\":22385:22394   */\n      dup2\n        /* \"#utility.yul\":22379:22383   */\n      dup2\n        /* \"#utility.yul\":22375:22395   */\n      sub\n        /* \"#utility.yul\":22371:22372   */\n      0x00\n        /* \"#utility.yul\":22360:22369   */\n      dup4\n        /* \"#utility.yul\":22356:22373   */\n      add\n        /* \"#utility.yul\":22349:22396   */\n      mstore\n        /* \"#utility.yul\":22413:22544   */\n      tag_485\n        /* \"#utility.yul\":22539:22543   */\n      dup2\n        /* \"#utility.yul\":22413:22544   */\n      tag_284\n      jump\t// in\n    tag_485:\n        /* \"#utility.yul\":22405:22544   */\n      swap1\n      pop\n        /* \"#utility.yul\":22132:22551   */\n      swap2\n      swap1\n      pop\n      jump\t// out\n        /* \"#utility.yul\":22579:22893   */\n    tag_285:\n        /* \"#utility.yul\":22675:22678   */\n      0x00\n        /* \"#utility.yul\":22696:22766   */\n      tag_487\n        /* \"#utility.yul\":22759:22765   */\n      dup4\n        /* \"#utility.yul\":22754:22757   */\n      dup6\n        /* \"#utility.yul\":22696:22766   */\n      tag_250\n      jump\t// in\n    tag_487:\n        /* \"#utility.yul\":22689:22766   */\n      swap4\n      pop\n        /* \"#utility.yul\":22776:22832   */\n      tag_488\n        /* \"#utility.yul\":22825:22831   */\n      dup4\n        /* \"#utility.yul\":22820:22823   */\n      dup6\n        /* \"#utility.yul\":22813:22818   */\n      dup5\n        /* \"#utility.yul\":22776:22832   */\n      tag_281\n      jump\t// in\n    tag_488:\n        /* \"#utility.yul\":22857:22886   */\n      tag_489\n        /* \"#utility.yul\":22879:22885   */\n      dup4\n        /* \"#utility.yul\":22857:22886   */\n      tag_252\n      jump\t// in\n    tag_489:\n        /* \"#utility.yul\":22852:22855   */\n      dup5\n        /* \"#utility.yul\":22848:22887   */\n      add\n        /* \"#utility.yul\":22841:22887   */\n      swap1\n      pop\n        /* \"#utility.yul\":22579:22893   */\n      swap4\n      swap3\n      pop\n      pop\n      pop\n      jump\t// out\n        /* \"#utility.yul\":22899:23535   */\n    tag_216:\n        /* \"#utility.yul\":23094:23098   */\n      0x00\n        /* \"#utility.yul\":23132:23134   */\n      0x60\n        /* \"#utility.yul\":23121:23130   */\n      dup3\n        /* \"#utility.yul\":23117:23135   */\n      add\n        /* \"#utility.yul\":23109:23135   */\n      swap1\n      pop\n        /* \"#utility.yul\":23145:23216   */\n      tag_491\n        /* \"#utility.yul\":23213:23214   */\n      0x00\n        /* \"#utility.yul\":23202:23211   */\n      dup4\n        /* \"#utility.yul\":23198:23215   */\n      add\n        /* \"#utility.yul\":23189:23195   */\n      dup8\n        /* \"#utility.yul\":23145:23216   */\n      tag_244\n      jump\t// in\n    tag_491:\n        /* \"#utility.yul\":23263:23272   */\n      dup2\n        /* \"#utility.yul\":23257:23261   */\n      dup2\n        /* \"#utility.yul\":23253:23273   */\n      sub\n        /* \"#utility.yul\":23248:23250   */\n      0x20\n        /* \"#utility.yul\":23237:23246   */\n      dup4\n        /* \"#utility.yul\":23233:23251   */\n      add\n        /* \"#utility.yul\":23226:23274   */\n      mstore\n        /* \"#utility.yul\":23291:23377   */\n      tag_492\n        /* \"#utility.yul\":23372:23376   */\n      dup2\n        /* \"#utility.yul\":23363:23369   */\n      dup6\n        /* \"#utility.yul\":23355:23361   */\n      dup8\n        /* \"#utility.yul\":23291:23377   */\n      tag_285\n      jump\t// in\n    tag_492:\n        /* \"#utility.yul\":23283:23377   */\n      swap1\n      pop\n        /* \"#utility.yul\":23424:23433   */\n      dup2\n        /* \"#utility.yul\":23418:23422   */\n      dup2\n        /* \"#utility.yul\":23414:23434   */\n      sub\n        /* \"#utility.yul\":23409:23411   */\n      0x40\n        /* \"#utility.yul\":23398:23407   */\n      dup4\n        /* \"#utility.yul\":23394:23412   */\n      add\n        /* \"#utility.yul\":23387:23435   */\n      mstore\n        /* \"#utility.yul\":23452:23528   */\n      tag_493\n        /* \"#utility.yul\":23523:23527   */\n      dup2\n        /* \"#utility.yul\":23514:23520   */\n      dup5\n        /* \"#utility.yul\":23452:23528   */\n      tag_253\n      jump\t// in\n    tag_493:\n        /* \"#utility.yul\":23444:23528   */\n      swap1\n      pop\n        /* \"#utility.yul\":22899:23535   */\n      swap6\n      swap5\n      pop\n      pop\n      pop\n      pop\n      pop\n      jump\t// out\n        /* \"#utility.yul\":23541:23722   */\n    tag_286:\n        /* \"#utility.yul\":23681:23714   */\n      0x5265656e7472616e637947756172643a207265656e7472616e742063616c6c00\n        /* \"#utility.yul\":23677:23678   */\n      0x00\n        /* \"#utility.yul\":23669:23675   */\n      dup3\n        /* \"#utility.yul\":23665:23679   */\n      add\n        /* \"#utility.yul\":23658:23715   */\n      mstore\n        /* \"#utility.yul\":23541:23722   */\n      pop\n      jump\t// out\n        /* \"#utility.yul\":23728:24094   */\n    tag_287:\n        /* \"#utility.yul\":23870:23873   */\n      0x00\n        /* \"#utility.yul\":23891:23958   */\n      tag_496\n        /* \"#utility.yul\":23955:23957   */\n      0x1f\n        /* \"#utility.yul\":23950:23953   */\n      dup4\n        /* \"#utility.yul\":23891:23958   */\n      tag_254\n      jump\t// in\n    tag_496:\n        /* \"#utility.yul\":23884:23958   */\n      swap2\n      pop\n        /* \"#utility.yul\":23967:24060   */\n      tag_497\n        /* \"#utility.yul\":24056:24059   */\n      dup3\n        /* \"#utility.yul\":23967:24060   */\n      tag_286\n      jump\t// in\n    tag_497:\n        /* \"#utility.yul\":24085:24087   */\n      0x20\n        /* \"#utility.yul\":24080:24083   */\n      dup3\n        /* \"#utility.yul\":24076:24088   */\n      add\n        /* \"#utility.yul\":24069:24088   */\n      swap1\n      pop\n        /* \"#utility.yul\":23728:24094   */\n      swap2\n      swap1\n      pop\n      jump\t// out\n        /* \"#utility.yul\":24100:24519   */\n    tag_222:\n        /* \"#utility.yul\":24266:24270   */\n      0x00\n        /* \"#utility.yul\":24304:24306   */\n      0x20\n        /* \"#utility.yul\":24293:24302   */\n      dup3\n        /* \"#utility.yul\":24289:24307   */\n      add\n        /* \"#utility.yul\":24281:24307   */\n      swap1\n      pop\n        /* \"#utility.yul\":24353:24362   */\n      dup2\n        /* \"#utility.yul\":24347:24351   */\n      dup2\n        /* \"#utility.yul\":24343:24363   */\n      sub\n        /* \"#utility.yul\":24339:24340   */\n      0x00\n        /* \"#utility.yul\":24328:24337   */\n      dup4\n        /* \"#utility.yul\":24324:24341   */\n      add\n        /* \"#utility.yul\":24317:24364   */\n      mstore\n        /* \"#utility.yul\":24381:24512   */\n      tag_499\n        /* \"#utility.yul\":24507:24511   */\n      dup2\n        /* \"#utility.yul\":24381:24512   */\n      tag_287\n      jump\t// in\n    tag_499:\n        /* \"#utility.yul\":24373:24512   */\n      swap1\n      pop\n        /* \"#utility.yul\":24100:24519   */\n      swap2\n      swap1\n      pop\n      jump\t// out\n\n    auxdata: 0xa26469706673582212206c18d28d66cba1da2d701a293cad48dba2d7b710ac4cd0380dd1fcbaf15bb16064736f6c63430008140033\n}\n",
				"bytecode": {
					"linkReferences": {},
					"object": "608060405234801562000010575f80fd5b50604051620029bb380380620029bb833981810160405281019062000036919062000520565b60015f819055505f73ffffffffffffffffffffffffffffffffffffffff168373ffffffffffffffffffffffffffffffffffffffff1603620000ae576040517f08c379a0000000000000000000000000000000000000000000000000000000008152600401620000a590620005f6565b60405180910390fd5b80825110158015620000bf57505f81115b62000101576040517f08c379a0000000000000000000000000000000000000000000000000000000008152600401620000f89062000664565b60405180910390fd5b8260015f6101000a81548173ffffffffffffffffffffffffffffffffffffffff021916908373ffffffffffffffffffffffffffffffffffffffff160217905550806004819055505f5b825181101562000300575f8382815181106200016b576200016a62000684565b5b602002602001015190505f73ffffffffffffffffffffffffffffffffffffffff168173ffffffffffffffffffffffffffffffffffffffff1603620001e6576040517f08c379a0000000000000000000000000000000000000000000000000000000008152600401620001dd90620006ff565b60405180910390fd5b60025f8273ffffffffffffffffffffffffffffffffffffffff1673ffffffffffffffffffffffffffffffffffffffff1681526020019081526020015f205f9054906101000a900460ff16620002eb57600160025f8373ffffffffffffffffffffffffffffffffffffffff1673ffffffffffffffffffffffffffffffffffffffff1681526020019081526020015f205f6101000a81548160ff021916908315150217905550600381908060018154018082558091505060019003905f5260205f20015f9091909190916101000a81548173ffffffffffffffffffffffffffffffffffffffff021916908373ffffffffffffffffffffffffffffffffffffffff1602179055505b5080620002f8906200074c565b90506200014a565b5050505062000798565b5f604051905090565b5f80fd5b5f80fd5b5f73ffffffffffffffffffffffffffffffffffffffff82169050919050565b5f62000346826200031b565b9050919050565b62000358816200033a565b811462000363575f80fd5b50565b5f8151905062000376816200034d565b92915050565b5f80fd5b5f601f19601f8301169050919050565b7f4e487b71000000000000000000000000000000000000000000000000000000005f52604160045260245ffd5b620003c88262000380565b810181811067ffffffffffffffff82111715620003ea57620003e962000390565b5b80604052505050565b5f620003fe6200030a565b90506200040c8282620003bd565b919050565b5f67ffffffffffffffff8211156200042e576200042d62000390565b5b602082029050602081019050919050565b5f80fd5b5f62000459620004538462000411565b620003f3565b905080838252602082019050602084028301858111156200047f576200047e6200043f565b5b835b81811015620004ac578062000497888262000366565b84526020840193505060208101905062000481565b5050509392505050565b5f82601f830112620004cd57620004cc6200037c565b5b8151620004df84826020860162000443565b91505092915050565b5f819050919050565b620004fc81620004e8565b811462000507575f80fd5b50565b5f815190506200051a81620004f1565b92915050565b5f805f606084860312156200053a576200053962000313565b5b5f620005498682870162000366565b935050602084015167ffffffffffffffff8111156200056d576200056c62000317565b5b6200057b86828701620004b6565b92505060406200058e868287016200050a565b9150509250925092565b5f82825260208201905092915050565b7f7a65726f206f776e6572000000000000000000000000000000000000000000005f82015250565b5f620005de600a8362000598565b9150620005eb82620005a8565b602082019050919050565b5f6020820190508181035f8301526200060f81620005d0565b9050919050565b7f696e76616c6964207468726573686f6c640000000000000000000000000000005f82015250565b5f6200064c60118362000598565b9150620006598262000616565b602082019050919050565b5f6020820190508181035f8301526200067d816200063e565b9050919050565b7f4e487b71000000000000000000000000000000000000000000000000000000005f52603260045260245ffd5b7f7a65726f20677561726469616e000000000000000000000000000000000000005f82015250565b5f620006e7600d8362000598565b9150620006f482620006b1565b602082019050919050565b5f6020820190508181035f8301526200071881620006d9565b9050919050565b7f4e487b71000000000000000000000000000000000000000000000000000000005f52601160045260245ffd5b5f6200075882620004e8565b91507fffffffffffffffffffffffffffffffffffffffffffffffffffffffffffffffff82036200078d576200078c6200071f565b5b600182019050919050565b61221580620007a65f395ff3fe6080604052600436106100eb575f3560e01c80637ee7608211610089578063a526d83b11610058578063a526d83b14610300578063b61d27f614610328578063d5af4e2014610358578063ed894cd314610382576100f2565b80637ee76082146102365780638da5cb5b14610272578063960bfe041461029c578063a3b1290a146102c4576100f2565b8063113647bb116100c5578063113647bb14610182578063146104dc146101aa57806356570571146101e6578063714041561461020e576100f2565b80630665f04b146100f45780630c68ba211461011e57806310de26761461015a576100f2565b366100f257005b005b3480156100ff575f80fd5b506101086103ac565b6040516101159190611765565b60405180910390f35b348015610129575f80fd5b50610144600480360381019061013f91906117b7565b610437565b60405161015191906117fc565b60405180910390f35b348015610165575f80fd5b50610180600480360381019061017b9190611848565b610454565b005b34801561018d575f80fd5b506101a860048036038101906101a39190611848565b610625565b005b3480156101b5575f80fd5b506101d060048036038101906101cb9190611848565b6108e3565b6040516101dd9190611882565b60405180910390f35b3480156101f1575f80fd5b5061020c60048036038101906102079190611848565b61091e565b005b348015610219575f80fd5b50610234600480360381019061022f91906117b7565b610bc0565b005b348015610241575f80fd5b5061025c600480360381019061025791906117b7565b610ec9565b60405161026991906118aa565b60405180910390f35b34801561027d575f80fd5b5061028661113a565b6040516102939190611882565b60405180910390f35b3480156102a7575f80fd5b506102c260048036038101906102bd9190611848565b61115f565b005b3480156102cf575f80fd5b506102ea60048036038101906102e59190611848565b61124b565b6040516102f791906118aa565b60405180910390f35b34801561030b575f80fd5b50610326600480360381019061032191906117b7565b611268565b005b610342600480360381019061033d9190611924565b61146c565b60405161034f9190611a1f565b60405180910390f35b348015610363575f80fd5b5061036c61161c565b60405161037991906118aa565b60405180910390f35b34801561038d575f80fd5b50610396611622565b6040516103a391906118aa565b60405180910390f35b6060600380548060200260200160405190810160405280929190818152602001828054801561042d57602002820191905f5260205f20905b815f9054906101000a900473ffffffffffffffffffffffffffffffffffffffff1673ffffffffffffffffffffffffffffffffffffffff16815260200190600101908083116103e4575b5050505050905090565b6002602052805f5260405f205f915054906101000a900460ff1681565b60015f9054906101000a900473ffffffffffffffffffffffffffffffffffffffff1673ffffffffffffffffffffffffffffffffffffffff163373ffffffffffffffffffffffffffffffffffffffff16146104e3576040517f08c379a00000000000000000000000000000000000000000000000000000000081526004016104da90611a99565b60405180910390fd5b5f60055f8381526020019081526020015f2090505f73ffffffffffffffffffffffffffffffffffffffff16815f015f9054906101000a900473ffffffffffffffffffffffffffffffffffffffff1673ffffffffffffffffffffffffffffffffffffffff1603610587576040517f08c379a000000000000000000000000000000000000000000000000000000000815260040161057e90611b01565b60405180910390fd5b806003015f9054906101000a900460ff16156105d8576040517f08c379a00000000000000000000000000000000000000000000000000000000081526004016105cf90611b69565b60405180910390fd5b6001816003015f6101000a81548160ff021916908315150217905550817f02019f620969ef34023e1048f0b0f0e1c337f94acda5cfad6aaceb569896745560405160405180910390a25050565b60025f3373ffffffffffffffffffffffffffffffffffffffff1673ffffffffffffffffffffffffffffffffffffffff1681526020019081526020015f205f9054906101000a900460ff166106ae576040517f08c379a00000000000000000000000000000000000000000000000000000000081526004016106a590611bd1565b60405180910390fd5b5f60055f8381526020019081526020015f2090505f73ffffffffffffffffffffffffffffffffffffffff16815f015f9054906101000a900473ffffffffffffffffffffffffffffffffffffffff1673ffffffffffffffffffffffffffffffffffffffff1603610752576040517f08c379a000000000000000000000000000000000000000000000000000000000815260040161074990611b01565b60405180910390fd5b806003015f9054906101000a900460ff16156107a3576040517f08c379a000000000000000000000000000000000000000000000000000000000815260040161079a90611b69565b60405180910390fd5b806004015f3373ffffffffffffffffffffffffffffffffffffffff1673ffffffffffffffffffffffffffffffffffffffff1681526020019081526020015f205f9054906101000a900460ff161561082f576040517f08c379a000000000000000000000000000000000000000000000000000000000815260040161082690611c39565b60405180910390fd5b6001816004015f3373ffffffffffffffffffffffffffffffffffffffff1673ffffffffffffffffffffffffffffffffffffffff1681526020019081526020015f205f6101000a81548160ff0219169083151502179055506001816001015f82825461089a9190611c84565b92505081905550817fd4f9207b620466cd2586fa5270946a1c9526b0a7a65f5116a4e75352ade070ee3383600101546040516108d7929190611cb7565b60405180910390a25050565b600381815481106108f2575f80fd5b905f5260205f20015f915054906101000a900473ffffffffffffffffffffffffffffffffffffffff1681565b60025f3373ffffffffffffffffffffffffffffffffffffffff1673ffffffffffffffffffffffffffffffffffffffff1681526020019081526020015f205f9054906101000a900460ff166109a7576040517f08c379a000000000000000000000000000000000000000000000000000000000815260040161099e90611bd1565b60405180910390fd5b5f60055f8381526020019081526020015f2090505f73ffffffffffffffffffffffffffffffffffffffff16815f015f9054906101000a900473ffffffffffffffffffffffffffffffffffffffff1673ffffffffffffffffffffffffffffffffffffffff1603610a4b576040517f08c379a0000000000000000000000000000000000000000000000000000000008152600401610a4290611b01565b60405180910390fd5b806003015f9054906101000a900460ff1615610a9c576040517f08c379a0000000000000000000000000000000000000000000000000000000008152600401610a9390611b69565b60405180910390fd5b60045481600101541015610ae5576040517f08c379a0000000000000000000000000000000000000000000000000000000008152600401610adc90611d28565b60405180910390fd5b805f015f9054906101000a900473ffffffffffffffffffffffffffffffffffffffff1660015f6101000a81548173ffffffffffffffffffffffffffffffffffffffff021916908373ffffffffffffffffffffffffffffffffffffffff1602179055506001816003015f6101000a81548160ff021916908315150217905550817fbdd579cd1fe7b2900a091daff9c05a996778a8b5d2c00f64d37d2ef13ca2e0e260015f9054906101000a900473ffffffffffffffffffffffffffffffffffffffff16604051610bb49190611882565b60405180910390a25050565b60015f9054906101000a900473ffffffffffffffffffffffffffffffffffffffff1673ffffffffffffffffffffffffffffffffffffffff163373ffffffffffffffffffffffffffffffffffffffff1614610c4f576040517f08c379a0000000000000000000000000000000000000000000000000000000008152600401610c4690611a99565b60405180910390fd5b60025f8273ffffffffffffffffffffffffffffffffffffffff1673ffffffffffffffffffffffffffffffffffffffff1681526020019081526020015f205f9054906101000a900460ff16610cd8576040517f08c379a0000000000000000000000000000000000000000000000000000000008152600401610ccf90611d90565b60405180910390fd5b5f60025f8373ffffffffffffffffffffffffffffffffffffffff1673ffffffffffffffffffffffffffffffffffffffff1681526020019081526020015f205f6101000a81548160ff0219169083151502179055505f5b600380549050811015610ea9578173ffffffffffffffffffffffffffffffffffffffff1660038281548110610d6657610d65611dae565b5b905f5260205f20015f9054906101000a900473ffffffffffffffffffffffffffffffffffffffff1673ffffffffffffffffffffffffffffffffffffffff1603610e985760036001600380549050610dbd9190611ddb565b81548110610dce57610dcd611dae565b5b905f5260205f20015f9054906101000a900473ffffffffffffffffffffffffffffffffffffffff1660038281548110610e0a57610e09611dae565b5b905f5260205f20015f6101000a81548173ffffffffffffffffffffffffffffffffffffffff021916908373ffffffffffffffffffffffffffffffffffffffff1602179055506003805480610e6157610e60611e0e565b5b600190038181905f5260205f20015f6101000a81549073ffffffffffffffffffffffffffffffffffffffff02191690559055610ea9565b80610ea290611e3b565b9050610d2e565b506003805490506004541115610ec6576003805490506004819055505b50565b5f60025f3373ffffffffffffffffffffffffffffffffffffffff1673ffffffffffffffffffffffffffffffffffffffff1681526020019081526020015f205f9054906101000a900460ff16610f53576040517f08c379a0000000000000000000000000000000000000000000000000000000008152600401610f4a90611bd1565b60405180910390fd5b5f73ffffffffffffffffffffffffffffffffffffffff168273ffffffffffffffffffffffffffffffffffffffff1603610fc1576040517f08c379a0000000000000000000000000000000000000000000000000000000008152600401610fb890611ecc565b60405180910390fd5b5f60065f8154610fd090611e3b565b91905081905590505f60055f8381526020019081526020015f20905083815f015f6101000a81548173ffffffffffffffffffffffffffffffffffffffff021916908373ffffffffffffffffffffffffffffffffffffffff1602179055505f81600101819055504281600201819055505f816003015f6101000a81548160ff0219169083151502179055506001816004015f3373ffffffffffffffffffffffffffffffffffffffff1673ffffffffffffffffffffffffffffffffffffffff1681526020019081526020015f205f6101000a81548160ff02191690831515021790555060018160010181905550817f1cb35b5c3390081f0283210f4fd58d68d6e6fef68913e6b75582139b1a4adc3533866040516110ed929190611eea565b60405180910390a2817fd4f9207b620466cd2586fa5270946a1c9526b0a7a65f5116a4e75352ade070ee336001604051611128929190611f53565b60405180910390a28192505050919050565b60015f9054906101000a900473ffffffffffffffffffffffffffffffffffffffff1681565b60015f9054906101000a900473ffffffffffffffffffffffffffffffffffffffff1673ffffffffffffffffffffffffffffffffffffffff163373ffffffffffffffffffffffffffffffffffffffff16146111ee576040517f08c379a00000000000000000000000000000000000000000000000000000000081526004016111e590611a99565b60405180910390fd5b5f8111801561120257506003805490508111155b611241576040517f08c379a000000000000000000000000000000000000000000000000000000000815260040161123890611fc4565b60405180910390fd5b8060048190555050565b5f60055f8381526020019081526020015f20600101549050919050565b60015f9054906101000a900473ffffffffffffffffffffffffffffffffffffffff1673ffffffffffffffffffffffffffffffffffffffff163373ffffffffffffffffffffffffffffffffffffffff16146112f7576040517f08c379a00000000000000000000000000000000000000000000000000000000081526004016112ee90611a99565b60405180910390fd5b5f73ffffffffffffffffffffffffffffffffffffffff168173ffffffffffffffffffffffffffffffffffffffff1603611365576040517f08c379a000000000000000000000000000000000000000000000000000000000815260040161135c90611ecc565b60405180910390fd5b60025f8273ffffffffffffffffffffffffffffffffffffffff1673ffffffffffffffffffffffffffffffffffffffff1681526020019081526020015f205f9054906101000a900460ff1661146957600160025f8373ffffffffffffffffffffffffffffffffffffffff1673ffffffffffffffffffffffffffffffffffffffff1681526020019081526020015f205f6101000a81548160ff021916908315150217905550600381908060018154018082558091505060019003905f5260205f20015f9091909190916101000a81548173ffffffffffffffffffffffffffffffffffffffff021916908373ffffffffffffffffffffffffffffffffffffffff1602179055505b50565b6060611476611628565b60015f9054906101000a900473ffffffffffffffffffffffffffffffffffffffff1673ffffffffffffffffffffffffffffffffffffffff163373ffffffffffffffffffffffffffffffffffffffff1614611505576040517f08c379a00000000000000000000000000000000000000000000000000000000081526004016114fc9061202c565b60405180910390fd5b5f808673ffffffffffffffffffffffffffffffffffffffff1686868660405161152f929190612086565b5f6040518083038185875af1925050503d805f8114611569576040519150601f19603f3d011682016040523d82523d5f602084013e61156e565b606091505b5091509150816115b3576040517f08c379a00000000000000000000000000000000000000000000000000000000081526004016115aa906120e8565b60405180910390fd5b8673ffffffffffffffffffffffffffffffffffffffff167fe39b605d485d947e52b62c3b5028a14d5277db44425263c74171a85707154334878787856040516115ff9493929190612132565b60405180910390a28092505050611614611675565b949350505050565b60045481565b60065481565b60025f540361166c576040517f08c379a0000000000000000000000000000000000000000000000000000000008152600401611663906121c1565b60405180910390fd5b60025f81905550565b60015f81905550565b5f81519050919050565b5f82825260208201905092915050565b5f819050602082019050919050565b5f73ffffffffffffffffffffffffffffffffffffffff82169050919050565b5f6116d0826116a7565b9050919050565b6116e0816116c6565b82525050565b5f6116f183836116d7565b60208301905092915050565b5f602082019050919050565b5f6117138261167e565b61171d8185611688565b935061172883611698565b805f5b8381101561175857815161173f88826116e6565b975061174a836116fd565b92505060018101905061172b565b5085935050505092915050565b5f6020820190508181035f83015261177d8184611709565b905092915050565b5f80fd5b5f80fd5b611796816116c6565b81146117a0575f80fd5b50565b5f813590506117b18161178d565b92915050565b5f602082840312156117cc576117cb611785565b5b5f6117d9848285016117a3565b91505092915050565b5f8115159050919050565b6117f6816117e2565b82525050565b5f60208201905061180f5f8301846117ed565b92915050565b5f819050919050565b61182781611815565b8114611831575f80fd5b50565b5f813590506118428161181e565b92915050565b5f6020828403121561185d5761185c611785565b5b5f61186a84828501611834565b91505092915050565b61187c816116c6565b82525050565b5f6020820190506118955f830184611873565b92915050565b6118a481611815565b82525050565b5f6020820190506118bd5f83018461189b565b92915050565b5f80fd5b5f80fd5b5f80fd5b5f8083601f8401126118e4576118e36118c3565b5b8235905067ffffffffffffffff811115611901576119006118c7565b5b60208301915083600182028301111561191d5761191c6118cb565b5b9250929050565b5f805f806060858703121561193c5761193b611785565b5b5f611949878288016117a3565b945050602061195a87828801611834565b935050604085013567ffffffffffffffff81111561197b5761197a611789565b5b611987878288016118cf565b925092505092959194509250565b5f81519050919050565b5f82825260208201905092915050565b5f5b838110156119cc5780820151818401526020810190506119b1565b5f8484015250505050565b5f601f19601f8301169050919050565b5f6119f182611995565b6119fb818561199f565b9350611a0b8185602086016119af565b611a14816119d7565b840191505092915050565b5f6020820190508181035f830152611a3781846119e7565b905092915050565b5f82825260208201905092915050565b7f6f6e6c79206f776e6572000000000000000000000000000000000000000000005f82015250565b5f611a83600a83611a3f565b9150611a8e82611a4f565b602082019050919050565b5f6020820190508181035f830152611ab081611a77565b9050919050565b7f696e76616c6964206964000000000000000000000000000000000000000000005f82015250565b5f611aeb600a83611a3f565b9150611af682611ab7565b602082019050919050565b5f6020820190508181035f830152611b1881611adf565b9050919050565b7f616c7265616479206578656375746564000000000000000000000000000000005f82015250565b5f611b53601083611a3f565b9150611b5e82611b1f565b602082019050919050565b5f6020820190508181035f830152611b8081611b47565b9050919050565b7f6f6e6c7920677561726469616e000000000000000000000000000000000000005f82015250565b5f611bbb600d83611a3f565b9150611bc682611b87565b602082019050919050565b5f6020820190508181035f830152611be881611baf565b9050919050565b7f616c726561647920617070726f766564000000000000000000000000000000005f82015250565b5f611c23601083611a3f565b9150611c2e82611bef565b602082019050919050565b5f6020820190508181035f830152611c5081611c17565b9050919050565b7f4e487b71000000000000000000000000000000000000000000000000000000005f52601160045260245ffd5b5f611c8e82611815565b9150611c9983611815565b9250828201905080821115611cb157611cb0611c57565b5b92915050565b5f604082019050611cca5f830185611873565b611cd7602083018461189b565b9392505050565b7f696e73756666696369656e7420617070726f76616c73000000000000000000005f82015250565b5f611d12601683611a3f565b9150611d1d82611cde565b602082019050919050565b5f6020820190508181035f830152611d3f81611d06565b9050919050565b7f6e6f7420677561726469616e00000000000000000000000000000000000000005f82015250565b5f611d7a600c83611a3f565b9150611d8582611d46565b602082019050919050565b5f6020820190508181035f830152611da781611d6e565b9050919050565b7f4e487b71000000000000000000000000000000000000000000000000000000005f52603260045260245ffd5b5f611de582611815565b9150611df083611815565b9250828203905081811115611e0857611e07611c57565b5b92915050565b7f4e487b71000000000000000000000000000000000000000000000000000000005f52603160045260245ffd5b5f611e4582611815565b91507fffffffffffffffffffffffffffffffffffffffffffffffffffffffffffffffff8203611e7757611e76611c57565b5b600182019050919050565b7f7a65726f000000000000000000000000000000000000000000000000000000005f82015250565b5f611eb6600483611a3f565b9150611ec182611e82565b602082019050919050565b5f6020820190508181035f830152611ee381611eaa565b9050919050565b5f604082019050611efd5f830185611873565b611f0a6020830184611873565b9392505050565b5f819050919050565b5f819050919050565b5f611f3d611f38611f3384611f11565b611f1a565b611815565b9050919050565b611f4d81611f23565b82525050565b5f604082019050611f665f830185611873565b611f736020830184611f44565b9392505050565b7f696e76616c6964207468726573686f6c640000000000000000000000000000005f82015250565b5f611fae601183611a3f565b9150611fb982611f7a565b602082019050919050565b5f6020820190508181035f830152611fdb81611fa2565b9050919050565b7f6e6f74206f776e657200000000000000000000000000000000000000000000005f82015250565b5f612016600983611a3f565b915061202182611fe2565b602082019050919050565b5f6020820190508181035f8301526120438161200a565b9050919050565b5f81905092915050565b828183375f83830152505050565b5f61206d838561204a565b935061207a838584612054565b82840190509392505050565b5f612092828486612062565b91508190509392505050565b7f63616c6c206661696c65640000000000000000000000000000000000000000005f82015250565b5f6120d2600b83611a3f565b91506120dd8261209e565b602082019050919050565b5f6020820190508181035f8301526120ff816120c6565b9050919050565b5f612111838561199f565b935061211e838584612054565b612127836119d7565b840190509392505050565b5f6060820190506121455f83018761189b565b8181036020830152612158818587612106565b9050818103604083015261216c81846119e7565b905095945050505050565b7f5265656e7472616e637947756172643a207265656e7472616e742063616c6c005f82015250565b5f6121ab601f83611a3f565b91506121b682612177565b602082019050919050565b5f6020820190508181035f8301526121d88161219f565b905091905056fea26469706673582212206c18d28d66cba1da2d701a293cad48dba2d7b710ac4cd0380dd1fcbaf15bb16064736f6c63430008140033",
					"opcodes": "PUSH1 0x80 PUSH1 0x40 MSTORE CALLVALUE DUP1 ISZERO PUSH3 0x10 JUMPI PUSH0 DUP1 REVERT JUMPDEST POP PUSH1 0x40 MLOAD PUSH3 0x29BB CODESIZE SUB DUP1 PUSH3 0x29BB DUP4 CODECOPY DUP2 DUP2 ADD PUSH1 0x40 MSTORE DUP2 ADD SWAP1 PUSH3 0x36 SWAP2 SWAP1 PUSH3 0x520 JUMP JUMPDEST PUSH1 0x1 PUSH0 DUP2 SWAP1 SSTORE POP PUSH0 PUSH20 0xFFFFFFFFFFFFFFFFFFFFFFFFFFFFFFFFFFFFFFFF AND DUP4 PUSH20 0xFFFFFFFFFFFFFFFFFFFFFFFFFFFFFFFFFFFFFFFF AND SUB PUSH3 0xAE JUMPI PUSH1 0x40 MLOAD PUSH32 0x8C379A000000000000000000000000000000000000000000000000000000000 DUP2 MSTORE PUSH1 0x4 ADD PUSH3 0xA5 SWAP1 PUSH3 0x5F6 JUMP JUMPDEST PUSH1 0x40 MLOAD DUP1 SWAP2 SUB SWAP1 REVERT JUMPDEST DUP1 DUP3 MLOAD LT ISZERO DUP1 ISZERO PUSH3 0xBF JUMPI POP PUSH0 DUP2 GT JUMPDEST PUSH3 0x101 JUMPI PUSH1 0x40 MLOAD PUSH32 0x8C379A000000000000000000000000000000000000000000000000000000000 DUP2 MSTORE PUSH1 0x4 ADD PUSH3 0xF8 SWAP1 PUSH3 0x664 JUMP JUMPDEST PUSH1 0x40 MLOAD DUP1 SWAP2 SUB SWAP1 REVERT JUMPDEST DUP3 PUSH1 0x1 PUSH0 PUSH2 0x100 EXP DUP2 SLOAD DUP2 PUSH20 0xFFFFFFFFFFFFFFFFFFFFFFFFFFFFFFFFFFFFFFFF MUL NOT AND SWAP1 DUP4 PUSH20 0xFFFFFFFFFFFFFFFFFFFFFFFFFFFFFFFFFFFFFFFF AND MUL OR SWAP1 SSTORE POP DUP1 PUSH1 0x4 DUP2 SWAP1 SSTORE POP PUSH0 JUMPDEST DUP3 MLOAD DUP2 LT ISZERO PUSH3 0x300 JUMPI PUSH0 DUP4 DUP3 DUP2 MLOAD DUP2 LT PUSH3 0x16B JUMPI PUSH3 0x16A PUSH3 0x684 JUMP JUMPDEST JUMPDEST PUSH1 0x20 MUL PUSH1 0x20 ADD ADD MLOAD SWAP1 POP PUSH0 PUSH20 0xFFFFFFFFFFFFFFFFFFFFFFFFFFFFFFFFFFFFFFFF AND DUP2 PUSH20 0xFFFFFFFFFFFFFFFFFFFFFFFFFFFFFFFFFFFFFFFF AND SUB PUSH3 0x1E6 JUMPI PUSH1 0x40 MLOAD PUSH32 0x8C379A000000000000000000000000000000000000000000000000000000000 DUP2 MSTORE PUSH1 0x4 ADD PUSH3 0x1DD SWAP1 PUSH3 0x6FF JUMP JUMPDEST PUSH1 0x40 MLOAD DUP1 SWAP2 SUB SWAP1 REVERT JUMPDEST PUSH1 0x2 PUSH0 DUP3 PUSH20 0xFFFFFFFFFFFFFFFFFFFFFFFFFFFFFFFFFFFFFFFF AND PUSH20 0xFFFFFFFFFFFFFFFFFFFFFFFFFFFFFFFFFFFFFFFF AND DUP2 MSTORE PUSH1 0x20 ADD SWAP1 DUP2 MSTORE PUSH1 0x20 ADD PUSH0 KECCAK256 PUSH0 SWAP1 SLOAD SWAP1 PUSH2 0x100 EXP SWAP1 DIV PUSH1 0xFF AND PUSH3 0x2EB JUMPI PUSH1 0x1 PUSH1 0x2 PUSH0 DUP4 PUSH20 0xFFFFFFFFFFFFFFFFFFFFFFFFFFFFFFFFFFFFFFFF AND PUSH20 0xFFFFFFFFFFFFFFFFFFFFFFFFFFFFFFFFFFFFFFFF AND DUP2 MSTORE PUSH1 0x20 ADD SWAP1 DUP2 MSTORE PUSH1 0x20 ADD PUSH0 KECCAK256 PUSH0 PUSH2 0x100 EXP DUP2 SLOAD DUP2 PUSH1 0xFF MUL NOT AND SWAP1 DUP4 ISZERO ISZERO MUL OR SWAP1 SSTORE POP PUSH1 0x3 DUP2 SWAP1 DUP1 PUSH1 0x1 DUP2 SLOAD ADD DUP1 DUP3 SSTORE DUP1 SWAP2 POP POP PUSH1 0x1 SWAP1 SUB SWAP1 PUSH0 MSTORE PUSH1 0x20 PUSH0 KECCAK256 ADD PUSH0 SWAP1 SWAP2 SWAP1 SWAP2 SWAP1 SWAP2 PUSH2 0x100 EXP DUP2 SLOAD DUP2 PUSH20 0xFFFFFFFFFFFFFFFFFFFFFFFFFFFFFFFFFFFFFFFF MUL NOT AND SWAP1 DUP4 PUSH20 0xFFFFFFFFFFFFFFFFFFFFFFFFFFFFFFFFFFFFFFFF AND MUL OR SWAP1 SSTORE POP JUMPDEST POP DUP1 PUSH3 0x2F8 SWAP1 PUSH3 0x74C JUMP JUMPDEST SWAP1 POP PUSH3 0x14A JUMP JUMPDEST POP POP POP POP PUSH3 0x798 JUMP JUMPDEST PUSH0 PUSH1 0x40 MLOAD SWAP1 POP SWAP1 JUMP JUMPDEST PUSH0 DUP1 REVERT JUMPDEST PUSH0 DUP1 REVERT JUMPDEST PUSH0 PUSH20 0xFFFFFFFFFFFFFFFFFFFFFFFFFFFFFFFFFFFFFFFF DUP3 AND SWAP1 POP SWAP2 SWAP1 POP JUMP JUMPDEST PUSH0 PUSH3 0x346 DUP3 PUSH3 0x31B JUMP JUMPDEST SWAP1 POP SWAP2 SWAP1 POP JUMP JUMPDEST PUSH3 0x358 DUP2 PUSH3 0x33A JUMP JUMPDEST DUP2 EQ PUSH3 0x363 JUMPI PUSH0 DUP1 REVERT JUMPDEST POP JUMP JUMPDEST PUSH0 DUP2 MLOAD SWAP1 POP PUSH3 0x376 DUP2 PUSH3 0x34D JUMP JUMPDEST SWAP3 SWAP2 POP POP JUMP JUMPDEST PUSH0 DUP1 REVERT JUMPDEST PUSH0 PUSH1 0x1F NOT PUSH1 0x1F DUP4 ADD AND SWAP1 POP SWAP2 SWAP1 POP JUMP JUMPDEST PUSH32 0x4E487B7100000000000000000000000000000000000000000000000000000000 PUSH0 MSTORE PUSH1 0x41 PUSH1 0x4 MSTORE PUSH1 0x24 PUSH0 REVERT JUMPDEST PUSH3 0x3C8 DUP3 PUSH3 0x380 JUMP JUMPDEST DUP2 ADD DUP2 DUP2 LT PUSH8 0xFFFFFFFFFFFFFFFF DUP3 GT OR ISZERO PUSH3 0x3EA JUMPI PUSH3 0x3E9 PUSH3 0x390 JUMP JUMPDEST JUMPDEST DUP1 PUSH1 0x40 MSTORE POP POP POP JUMP JUMPDEST PUSH0 PUSH3 0x3FE PUSH3 0x30A JUMP JUMPDEST SWAP1 POP PUSH3 0x40C DUP3 DUP3 PUSH3 0x3BD JUMP JUMPDEST SWAP2 SWAP1 POP JUMP JUMPDEST PUSH0 PUSH8 0xFFFFFFFFFFFFFFFF DUP3 GT ISZERO PUSH3 0x42E JUMPI PUSH3 0x42D PUSH3 0x390 JUMP JUMPDEST JUMPDEST PUSH1 0x20 DUP3 MUL SWAP1 POP PUSH1 0x20 DUP2 ADD SWAP1 POP SWAP2 SWAP1 POP JUMP JUMPDEST PUSH0 DUP1 REVERT JUMPDEST PUSH0 PUSH3 0x459 PUSH3 0x453 DUP5 PUSH3 0x411 JUMP JUMPDEST PUSH3 0x3F3 JUMP JUMPDEST SWAP1 POP DUP1 DUP4 DUP3 MSTORE PUSH1 0x20 DUP3 ADD SWAP1 POP PUSH1 0x20 DUP5 MUL DUP4 ADD DUP6 DUP2 GT ISZERO PUSH3 0x47F JUMPI PUSH3 0x47E PUSH3 0x43F JUMP JUMPDEST JUMPDEST DUP4 JUMPDEST DUP2 DUP2 LT ISZERO PUSH3 0x4AC JUMPI DUP1 PUSH3 0x497 DUP9 DUP3 PUSH3 0x366 JUMP JUMPDEST DUP5 MSTORE PUSH1 0x20 DUP5 ADD SWAP4 POP POP PUSH1 0x20 DUP2 ADD SWAP1 POP PUSH3 0x481 JUMP JUMPDEST POP POP POP SWAP4 SWAP3 POP POP POP JUMP JUMPDEST PUSH0 DUP3 PUSH1 0x1F DUP4 ADD SLT PUSH3 0x4CD JUMPI PUSH3 0x4CC PUSH3 0x37C JUMP JUMPDEST JUMPDEST DUP2 MLOAD PUSH3 0x4DF DUP5 DUP3 PUSH1 0x20 DUP7 ADD PUSH3 0x443 JUMP JUMPDEST SWAP2 POP POP SWAP3 SWAP2 POP POP JUMP JUMPDEST PUSH0 DUP2 SWAP1 POP SWAP2 SWAP1 POP JUMP JUMPDEST PUSH3 0x4FC DUP2 PUSH3 0x4E8 JUMP JUMPDEST DUP2 EQ PUSH3 0x507 JUMPI PUSH0 DUP1 REVERT JUMPDEST POP JUMP JUMPDEST PUSH0 DUP2 MLOAD SWAP1 POP PUSH3 0x51A DUP2 PUSH3 0x4F1 JUMP JUMPDEST SWAP3 SWAP2 POP POP JUMP JUMPDEST PUSH0 DUP1 PUSH0 PUSH1 0x60 DUP5 DUP7 SUB SLT ISZERO PUSH3 0x53A JUMPI PUSH3 0x539 PUSH3 0x313 JUMP JUMPDEST JUMPDEST PUSH0 PUSH3 0x549 DUP7 DUP3 DUP8 ADD PUSH3 0x366 JUMP JUMPDEST SWAP4 POP POP PUSH1 0x20 DUP5 ADD MLOAD PUSH8 0xFFFFFFFFFFFFFFFF DUP2 GT ISZERO PUSH3 0x56D JUMPI PUSH3 0x56C PUSH3 0x317 JUMP JUMPDEST JUMPDEST PUSH3 0x57B DUP7 DUP3 DUP8 ADD PUSH3 0x4B6 JUMP JUMPDEST SWAP3 POP POP PUSH1 0x40 PUSH3 0x58E DUP7 DUP3 DUP8 ADD PUSH3 0x50A JUMP JUMPDEST SWAP2 POP POP SWAP3 POP SWAP3 POP SWAP3 JUMP JUMPDEST PUSH0 DUP3 DUP3 MSTORE PUSH1 0x20 DUP3 ADD SWAP1 POP SWAP3 SWAP2 POP POP JUMP JUMPDEST PUSH32 0x7A65726F206F776E657200000000000000000000000000000000000000000000 PUSH0 DUP3 ADD MSTORE POP JUMP JUMPDEST PUSH0 PUSH3 0x5DE PUSH1 0xA DUP4 PUSH3 0x598 JUMP JUMPDEST SWAP2 POP PUSH3 0x5EB DUP3 PUSH3 0x5A8 JUMP JUMPDEST PUSH1 0x20 DUP3 ADD SWAP1 POP SWAP2 SWAP1 POP JUMP JUMPDEST PUSH0 PUSH1 0x20 DUP3 ADD SWAP1 POP DUP2 DUP2 SUB PUSH0 DUP4 ADD MSTORE PUSH3 0x60F DUP2 PUSH3 0x5D0 JUMP JUMPDEST SWAP1 POP SWAP2 SWAP1 POP JUMP JUMPDEST PUSH32 0x696E76616C6964207468726573686F6C64000000000000000000000000000000 PUSH0 DUP3 ADD MSTORE POP JUMP JUMPDEST PUSH0 PUSH3 0x64C PUSH1 0x11 DUP4 PUSH3 0x598 JUMP JUMPDEST SWAP2 POP PUSH3 0x659 DUP3 PUSH3 0x616 JUMP JUMPDEST PUSH1 0x20 DUP3 ADD SWAP1 POP SWAP2 SWAP1 POP JUMP JUMPDEST PUSH0 PUSH1 0x20 DUP3 ADD SWAP1 POP DUP2 DUP2 SUB PUSH0 DUP4 ADD MSTORE PUSH3 0x67D DUP2 PUSH3 0x63E JUMP JUMPDEST SWAP1 POP SWAP2 SWAP1 POP JUMP JUMPDEST PUSH32 0x4E487B7100000000000000000000000000000000000000000000000000000000 PUSH0 MSTORE PUSH1 0x32 PUSH1 0x4 MSTORE PUSH1 0x24 PUSH0 REVERT JUMPDEST PUSH32 0x7A65726F20677561726469616E00000000000000000000000000000000000000 PUSH0 DUP3 ADD MSTORE POP JUMP JUMPDEST PUSH0 PUSH3 0x6E7 PUSH1 0xD DUP4 PUSH3 0x598 JUMP JUMPDEST SWAP2 POP PUSH3 0x6F4 DUP3 PUSH3 0x6B1 JUMP JUMPDEST PUSH1 0x20 DUP3 ADD SWAP1 POP SWAP2 SWAP1 POP JUMP JUMPDEST PUSH0 PUSH1 0x20 DUP3 ADD SWAP1 POP DUP2 DUP2 SUB PUSH0 DUP4 ADD MSTORE PUSH3 0x718 DUP2 PUSH3 0x6D9 JUMP JUMPDEST SWAP1 POP SWAP2 SWAP1 POP JUMP JUMPDEST PUSH32 0x4E487B7100000000000000000000000000000000000000000000000000000000 PUSH0 MSTORE PUSH1 0x11 PUSH1 0x4 MSTORE PUSH1 0x24 PUSH0 REVERT JUMPDEST PUSH0 PUSH3 0x758 DUP3 PUSH3 0x4E8 JUMP JUMPDEST SWAP2 POP PUSH32 0xFFFFFFFFFFFFFFFFFFFFFFFFFFFFFFFFFFFFFFFFFFFFFFFFFFFFFFFFFFFFFFFF DUP3 SUB PUSH3 0x78D JUMPI PUSH3 0x78C PUSH3 0x71F JUMP JUMPDEST JUMPDEST PUSH1 0x1 DUP3 ADD SWAP1 POP SWAP2 SWAP1 POP JUMP JUMPDEST PUSH2 0x2215 DUP1 PUSH3 0x7A6 PUSH0 CODECOPY PUSH0 RETURN INVALID PUSH1 0x80 PUSH1 0x40 MSTORE PUSH1 0x4 CALLDATASIZE LT PUSH2 0xEB JUMPI PUSH0 CALLDATALOAD PUSH1 0xE0 SHR DUP1 PUSH4 0x7EE76082 GT PUSH2 0x89 JUMPI DUP1 PUSH4 0xA526D83B GT PUSH2 0x58 JUMPI DUP1 PUSH4 0xA526D83B EQ PUSH2 0x300 JUMPI DUP1 PUSH4 0xB61D27F6 EQ PUSH2 0x328 JUMPI DUP1 PUSH4 0xD5AF4E20 EQ PUSH2 0x358 JUMPI DUP1 PUSH4 0xED894CD3 EQ PUSH2 0x382 JUMPI PUSH2 0xF2 JUMP JUMPDEST DUP1 PUSH4 0x7EE76082 EQ PUSH2 0x236 JUMPI DUP1 PUSH4 0x8DA5CB5B EQ PUSH2 0x272 JUMPI DUP1 PUSH4 0x960BFE04 EQ PUSH2 0x29C JUMPI DUP1 PUSH4 0xA3B1290A EQ PUSH2 0x2C4 JUMPI PUSH2 0xF2 JUMP JUMPDEST DUP1 PUSH4 0x113647BB GT PUSH2 0xC5 JUMPI DUP1 PUSH4 0x113647BB EQ PUSH2 0x182 JUMPI DUP1 PUSH4 0x146104DC EQ PUSH2 0x1AA JUMPI DUP1 PUSH4 0x56570571 EQ PUSH2 0x1E6 JUMPI DUP1 PUSH4 0x71404156 EQ PUSH2 0x20E JUMPI PUSH2 0xF2 JUMP JUMPDEST DUP1 PUSH4 0x665F04B EQ PUSH2 0xF4 JUMPI DUP1 PUSH4 0xC68BA21 EQ PUSH2 0x11E JUMPI DUP1 PUSH4 0x10DE2676 EQ PUSH2 0x15A JUMPI PUSH2 0xF2 JUMP JUMPDEST CALLDATASIZE PUSH2 0xF2 JUMPI STOP JUMPDEST STOP JUMPDEST CALLVALUE DUP1 ISZERO PUSH2 0xFF JUMPI PUSH0 DUP1 REVERT JUMPDEST POP PUSH2 0x108 PUSH2 0x3AC JUMP JUMPDEST PUSH1 0x40 MLOAD PUSH2 0x115 SWAP2 SWAP1 PUSH2 0x1765 JUMP JUMPDEST PUSH1 0x40 MLOAD DUP1 SWAP2 SUB SWAP1 RETURN JUMPDEST CALLVALUE DUP1 ISZERO PUSH2 0x129 JUMPI PUSH0 DUP1 REVERT JUMPDEST POP PUSH2 0x144 PUSH1 0x4 DUP1 CALLDATASIZE SUB DUP2 ADD SWAP1 PUSH2 0x13F SWAP2 SWAP1 PUSH2 0x17B7 JUMP JUMPDEST PUSH2 0x437 JUMP JUMPDEST PUSH1 0x40 MLOAD PUSH2 0x151 SWAP2 SWAP1 PUSH2 0x17FC JUMP JUMPDEST PUSH1 0x40 MLOAD DUP1 SWAP2 SUB SWAP1 RETURN JUMPDEST CALLVALUE DUP1 ISZERO PUSH2 0x165 JUMPI PUSH0 DUP1 REVERT JUMPDEST POP PUSH2 0x180 PUSH1 0x4 DUP1 CALLDATASIZE SUB DUP2 ADD SWAP1 PUSH2 0x17B SWAP2 SWAP1 PUSH2 0x1848 JUMP JUMPDEST PUSH2 0x454 JUMP JUMPDEST STOP JUMPDEST CALLVALUE DUP1 ISZERO PUSH2 0x18D JUMPI PUSH0 DUP1 REVERT JUMPDEST POP PUSH2 0x1A8 PUSH1 0x4 DUP1 CALLDATASIZE SUB DUP2 ADD SWAP1 PUSH2 0x1A3 SWAP2 SWAP1 PUSH2 0x1848 JUMP JUMPDEST PUSH2 0x625 JUMP JUMPDEST STOP JUMPDEST CALLVALUE DUP1 ISZERO PUSH2 0x1B5 JUMPI PUSH0 DUP1 REVERT JUMPDEST POP PUSH2 0x1D0 PUSH1 0x4 DUP1 CALLDATASIZE SUB DUP2 ADD SWAP1 PUSH2 0x1CB SWAP2 SWAP1 PUSH2 0x1848 JUMP JUMPDEST PUSH2 0x8E3 JUMP JUMPDEST PUSH1 0x40 MLOAD PUSH2 0x1DD SWAP2 SWAP1 PUSH2 0x1882 JUMP JUMPDEST PUSH1 0x40 MLOAD DUP1 SWAP2 SUB SWAP1 RETURN JUMPDEST CALLVALUE DUP1 ISZERO PUSH2 0x1F1 JUMPI PUSH0 DUP1 REVERT JUMPDEST POP PUSH2 0x20C PUSH1 0x4 DUP1 CALLDATASIZE SUB DUP2 ADD SWAP1 PUSH2 0x207 SWAP2 SWAP1 PUSH2 0x1848 JUMP JUMPDEST PUSH2 0x91E JUMP JUMPDEST STOP JUMPDEST CALLVALUE DUP1 ISZERO PUSH2 0x219 JUMPI PUSH0 DUP1 REVERT JUMPDEST POP PUSH2 0x234 PUSH1 0x4 DUP1 CALLDATASIZE SUB DUP2 ADD SWAP1 PUSH2 0x22F SWAP2 SWAP1 PUSH2 0x17B7 JUMP JUMPDEST PUSH2 0xBC0 JUMP JUMPDEST STOP JUMPDEST CALLVALUE DUP1 ISZERO PUSH2 0x241 JUMPI PUSH0 DUP1 REVERT JUMPDEST POP PUSH2 0x25C PUSH1 0x4 DUP1 CALLDATASIZE SUB DUP2 ADD SWAP1 PUSH2 0x257 SWAP2 SWAP1 PUSH2 0x17B7 JUMP JUMPDEST PUSH2 0xEC9 JUMP JUMPDEST PUSH1 0x40 MLOAD PUSH2 0x269 SWAP2 SWAP1 PUSH2 0x18AA JUMP JUMPDEST PUSH1 0x40 MLOAD DUP1 SWAP2 SUB SWAP1 RETURN JUMPDEST CALLVALUE DUP1 ISZERO PUSH2 0x27D JUMPI PUSH0 DUP1 REVERT JUMPDEST POP PUSH2 0x286 PUSH2 0x113A JUMP JUMPDEST PUSH1 0x40 MLOAD PUSH2 0x293 SWAP2 SWAP1 PUSH2 0x1882 JUMP JUMPDEST PUSH1 0x40 MLOAD DUP1 SWAP2 SUB SWAP1 RETURN JUMPDEST CALLVALUE DUP1 ISZERO PUSH2 0x2A7 JUMPI PUSH0 DUP1 REVERT JUMPDEST POP PUSH2 0x2C2 PUSH1 0x4 DUP1 CALLDATASIZE SUB DUP2 ADD SWAP1 PUSH2 0x2BD SWAP2 SWAP1 PUSH2 0x1848 JUMP JUMPDEST PUSH2 0x115F JUMP JUMPDEST STOP JUMPDEST CALLVALUE DUP1 ISZERO PUSH2 0x2CF JUMPI PUSH0 DUP1 REVERT JUMPDEST POP PUSH2 0x2EA PUSH1 0x4 DUP1 CALLDATASIZE SUB DUP2 ADD SWAP1 PUSH2 0x2E5 SWAP2 SWAP1 PUSH2 0x1848 JUMP JUMPDEST PUSH2 0x124B JUMP JUMPDEST PUSH1 0x40 MLOAD PUSH2 0x2F7 SWAP2 SWAP1 PUSH2 0x18AA JUMP JUMPDEST PUSH1 0x40 MLOAD DUP1 SWAP2 SUB SWAP1 RETURN JUMPDEST CALLVALUE DUP1 ISZERO PUSH2 0x30B JUMPI PUSH0 DUP1 REVERT JUMPDEST POP PUSH2 0x326 PUSH1 0x4 DUP1 CALLDATASIZE SUB DUP2 ADD SWAP1 PUSH2 0x321 SWAP2 SWAP1 PUSH2 0x17B7 JUMP JUMPDEST PUSH2 0x1268 JUMP JUMPDEST STOP JUMPDEST PUSH2 0x342 PUSH1 0x4 DUP1 CALLDATASIZE SUB DUP2 ADD SWAP1 PUSH2 0x33D SWAP2 SWAP1 PUSH2 0x1924 JUMP JUMPDEST PUSH2 0x146C JUMP JUMPDEST PUSH1 0x40 MLOAD PUSH2 0x34F SWAP2 SWAP1 PUSH2 0x1A1F JUMP JUMPDEST PUSH1 0x40 MLOAD DUP1 SWAP2 SUB SWAP1 RETURN JUMPDEST CALLVALUE DUP1 ISZERO PUSH2 0x363 JUMPI PUSH0 DUP1 REVERT JUMPDEST POP PUSH2 0x36C PUSH2 0x161C JUMP JUMPDEST PUSH1 0x40 MLOAD PUSH2 0x379 SWAP2 SWAP1 PUSH2 0x18AA JUMP JUMPDEST PUSH1 0x40 MLOAD DUP1 SWAP2 SUB SWAP1 RETURN JUMPDEST CALLVALUE DUP1 ISZERO PUSH2 0x38D JUMPI PUSH0 DUP1 REVERT JUMPDEST POP PUSH2 0x396 PUSH2 0x1622 JUMP JUMPDEST PUSH1 0x40 MLOAD PUSH2 0x3A3 SWAP2 SWAP1 PUSH2 0x18AA JUMP JUMPDEST PUSH1 0x40 MLOAD DUP1 SWAP2 SUB SWAP1 RETURN JUMPDEST PUSH1 0x60 PUSH1 0x3 DUP1 SLOAD DUP1 PUSH1 0x20 MUL PUSH1 0x20 ADD PUSH1 0x40 MLOAD SWAP1 DUP2 ADD PUSH1 0x40 MSTORE DUP1 SWAP3 SWAP2 SWAP1 DUP2 DUP2 MSTORE PUSH1 0x20 ADD DUP3 DUP1 SLOAD DUP1 ISZERO PUSH2 0x42D JUMPI PUSH1 0x20 MUL DUP3 ADD SWAP2 SWAP1 PUSH0 MSTORE PUSH1 0x20 PUSH0 KECCAK256 SWAP1 JUMPDEST DUP2 PUSH0 SWAP1 SLOAD SWAP1 PUSH2 0x100 EXP SWAP1 DIV PUSH20 0xFFFFFFFFFFFFFFFFFFFFFFFFFFFFFFFFFFFFFFFF AND PUSH20 0xFFFFFFFFFFFFFFFFFFFFFFFFFFFFFFFFFFFFFFFF AND DUP2 MSTORE PUSH1 0x20 ADD SWAP1 PUSH1 0x1 ADD SWAP1 DUP1 DUP4 GT PUSH2 0x3E4 JUMPI JUMPDEST POP POP POP POP POP SWAP1 POP SWAP1 JUMP JUMPDEST PUSH1 0x2 PUSH1 0x20 MSTORE DUP1 PUSH0 MSTORE PUSH1 0x40 PUSH0 KECCAK256 PUSH0 SWAP2 POP SLOAD SWAP1 PUSH2 0x100 EXP SWAP1 DIV PUSH1 0xFF AND DUP2 JUMP JUMPDEST PUSH1 0x1 PUSH0 SWAP1 SLOAD SWAP1 PUSH2 0x100 EXP SWAP1 DIV PUSH20 0xFFFFFFFFFFFFFFFFFFFFFFFFFFFFFFFFFFFFFFFF AND PUSH20 0xFFFFFFFFFFFFFFFFFFFFFFFFFFFFFFFFFFFFFFFF AND CALLER PUSH20 0xFFFFFFFFFFFFFFFFFFFFFFFFFFFFFFFFFFFFFFFF AND EQ PUSH2 0x4E3 JUMPI PUSH1 0x40 MLOAD PUSH32 0x8C379A000000000000000000000000000000000000000000000000000000000 DUP2 MSTORE PUSH1 0x4 ADD PUSH2 0x4DA SWAP1 PUSH2 0x1A99 JUMP JUMPDEST PUSH1 0x40 MLOAD DUP1 SWAP2 SUB SWAP1 REVERT JUMPDEST PUSH0 PUSH1 0x5 PUSH0 DUP4 DUP2 MSTORE PUSH1 0x20 ADD SWAP1 DUP2 MSTORE PUSH1 0x20 ADD PUSH0 KECCAK256 SWAP1 POP PUSH0 PUSH20 0xFFFFFFFFFFFFFFFFFFFFFFFFFFFFFFFFFFFFFFFF AND DUP2 PUSH0 ADD PUSH0 SWAP1 SLOAD SWAP1 PUSH2 0x100 EXP SWAP1 DIV PUSH20 0xFFFFFFFFFFFFFFFFFFFFFFFFFFFFFFFFFFFFFFFF AND PUSH20 0xFFFFFFFFFFFFFFFFFFFFFFFFFFFFFFFFFFFFFFFF AND SUB PUSH2 0x587 JUMPI PUSH1 0x40 MLOAD PUSH32 0x8C379A000000000000000000000000000000000000000000000000000000000 DUP2 MSTORE PUSH1 0x4 ADD PUSH2 0x57E SWAP1 PUSH2 0x1B01 JUMP JUMPDEST PUSH1 0x40 MLOAD DUP1 SWAP2 SUB SWAP1 REVERT JUMPDEST DUP1 PUSH1 0x3 ADD PUSH0 SWAP1 SLOAD SWAP1 PUSH2 0x100 EXP SWAP1 DIV PUSH1 0xFF AND ISZERO PUSH2 0x5D8 JUMPI PUSH1 0x40 MLOAD PUSH32 0x8C379A000000000000000000000000000000000000000000000000000000000 DUP2 MSTORE PUSH1 0x4 ADD PUSH2 0x5CF SWAP1 PUSH2 0x1B69 JUMP JUMPDEST PUSH1 0x40 MLOAD DUP1 SWAP2 SUB SWAP1 REVERT JUMPDEST PUSH1 0x1 DUP2 PUSH1 0x3 ADD PUSH0 PUSH2 0x100 EXP DUP2 SLOAD DUP2 PUSH1 0xFF MUL NOT AND SWAP1 DUP4 ISZERO ISZERO MUL OR SWAP1 SSTORE POP DUP2 PUSH32 0x2019F620969EF34023E1048F0B0F0E1C337F94ACDA5CFAD6AACEB5698967455 PUSH1 0x40 MLOAD PUSH1 0x40 MLOAD DUP1 SWAP2 SUB SWAP1 LOG2 POP POP JUMP JUMPDEST PUSH1 0x2 PUSH0 CALLER PUSH20 0xFFFFFFFFFFFFFFFFFFFFFFFFFFFFFFFFFFFFFFFF AND PUSH20 0xFFFFFFFFFFFFFFFFFFFFFFFFFFFFFFFFFFFFFFFF AND DUP2 MSTORE PUSH1 0x20 ADD SWAP1 DUP2 MSTORE PUSH1 0x20 ADD PUSH0 KECCAK256 PUSH0 SWAP1 SLOAD SWAP1 PUSH2 0x100 EXP SWAP1 DIV PUSH1 0xFF AND PUSH2 0x6AE JUMPI PUSH1 0x40 MLOAD PUSH32 0x8C379A000000000000000000000000000000000000000000000000000000000 DUP2 MSTORE PUSH1 0x4 ADD PUSH2 0x6A5 SWAP1 PUSH2 0x1BD1 JUMP JUMPDEST PUSH1 0x40 MLOAD DUP1 SWAP2 SUB SWAP1 REVERT JUMPDEST PUSH0 PUSH1 0x5 PUSH0 DUP4 DUP2 MSTORE PUSH1 0x20 ADD SWAP1 DUP2 MSTORE PUSH1 0x20 ADD PUSH0 KECCAK256 SWAP1 POP PUSH0 PUSH20 0xFFFFFFFFFFFFFFFFFFFFFFFFFFFFFFFFFFFFFFFF AND DUP2 PUSH0 ADD PUSH0 SWAP1 SLOAD SWAP1 PUSH2 0x100 EXP SWAP1 DIV PUSH20 0xFFFFFFFFFFFFFFFFFFFFFFFFFFFFFFFFFFFFFFFF AND PUSH20 0xFFFFFFFFFFFFFFFFFFFFFFFFFFFFFFFFFFFFFFFF AND SUB PUSH2 0x752 JUMPI PUSH1 0x40 MLOAD PUSH32 0x8C379A000000000000000000000000000000000000000000000000000000000 DUP2 MSTORE PUSH1 0x4 ADD PUSH2 0x749 SWAP1 PUSH2 0x1B01 JUMP JUMPDEST PUSH1 0x40 MLOAD DUP1 SWAP2 SUB SWAP1 REVERT JUMPDEST DUP1 PUSH1 0x3 ADD PUSH0 SWAP1 SLOAD SWAP1 PUSH2 0x100 EXP SWAP1 DIV PUSH1 0xFF AND ISZERO PUSH2 0x7A3 JUMPI PUSH1 0x40 MLOAD PUSH32 0x8C379A000000000000000000000000000000000000000000000000000000000 DUP2 MSTORE PUSH1 0x4 ADD PUSH2 0x79A SWAP1 PUSH2 0x1B69 JUMP JUMPDEST PUSH1 0x40 MLOAD DUP1 SWAP2 SUB SWAP1 REVERT JUMPDEST DUP1 PUSH1 0x4 ADD PUSH0 CALLER PUSH20 0xFFFFFFFFFFFFFFFFFFFFFFFFFFFFFFFFFFFFFFFF AND PUSH20 0xFFFFFFFFFFFFFFFFFFFFFFFFFFFFFFFFFFFFFFFF AND DUP2 MSTORE PUSH1 0x20 ADD SWAP1 DUP2 MSTORE PUSH1 0x20 ADD PUSH0 KECCAK256 PUSH0 SWAP1 SLOAD SWAP1 PUSH2 0x100 EXP SWAP1 DIV PUSH1 0xFF AND ISZERO PUSH2 0x82F JUMPI PUSH1 0x40 MLOAD PUSH32 0x8C379A000000000000000000000000000000000000000000000000000000000 DUP2 MSTORE PUSH1 0x4 ADD PUSH2 0x826 SWAP1 PUSH2 0x1C39 JUMP JUMPDEST PUSH1 0x40 MLOAD DUP1 SWAP2 SUB SWAP1 REVERT JUMPDEST PUSH1 0x1 DUP2 PUSH1 0x4 ADD PUSH0 CALLER PUSH20 0xFFFFFFFFFFFFFFFFFFFFFFFFFFFFFFFFFFFFFFFF AND PUSH20 0xFFFFFFFFFFFFFFFFFFFFFFFFFFFFFFFFFFFFFFFF AND DUP2 MSTORE PUSH1 0x20 ADD SWAP1 DUP2 MSTORE PUSH1 0x20 ADD PUSH0 KECCAK256 PUSH0 PUSH2 0x100 EXP DUP2 SLOAD DUP2 PUSH1 0xFF MUL NOT AND SWAP1 DUP4 ISZERO ISZERO MUL OR SWAP1 SSTORE POP PUSH1 0x1 DUP2 PUSH1 0x1 ADD PUSH0 DUP3 DUP3 SLOAD PUSH2 0x89A SWAP2 SWAP1 PUSH2 0x1C84 JUMP JUMPDEST SWAP3 POP POP DUP2 SWAP1 SSTORE POP DUP2 PUSH32 0xD4F9207B620466CD2586FA5270946A1C9526B0A7A65F5116A4E75352ADE070EE CALLER DUP4 PUSH1 0x1 ADD SLOAD PUSH1 0x40 MLOAD PUSH2 0x8D7 SWAP3 SWAP2 SWAP1 PUSH2 0x1CB7 JUMP JUMPDEST PUSH1 0x40 MLOAD DUP1 SWAP2 SUB SWAP1 LOG2 POP POP JUMP JUMPDEST PUSH1 0x3 DUP2 DUP2 SLOAD DUP2 LT PUSH2 0x8F2 JUMPI PUSH0 DUP1 REVERT JUMPDEST SWAP1 PUSH0 MSTORE PUSH1 0x20 PUSH0 KECCAK256 ADD PUSH0 SWAP2 POP SLOAD SWAP1 PUSH2 0x100 EXP SWAP1 DIV PUSH20 0xFFFFFFFFFFFFFFFFFFFFFFFFFFFFFFFFFFFFFFFF AND DUP2 JUMP JUMPDEST PUSH1 0x2 PUSH0 CALLER PUSH20 0xFFFFFFFFFFFFFFFFFFFFFFFFFFFFFFFFFFFFFFFF AND PUSH20 0xFFFFFFFFFFFFFFFFFFFFFFFFFFFFFFFFFFFFFFFF AND DUP2 MSTORE PUSH1 0x20 ADD SWAP1 DUP2 MSTORE PUSH1 0x20 ADD PUSH0 KECCAK256 PUSH0 SWAP1 SLOAD SWAP1 PUSH2 0x100 EXP SWAP1 DIV PUSH1 0xFF AND PUSH2 0x9A7 JUMPI PUSH1 0x40 MLOAD PUSH32 0x8C379A000000000000000000000000000000000000000000000000000000000 DUP2 MSTORE PUSH1 0x4 ADD PUSH2 0x99E SWAP1 PUSH2 0x1BD1 JUMP JUMPDEST PUSH1 0x40 MLOAD DUP1 SWAP2 SUB SWAP1 REVERT JUMPDEST PUSH0 PUSH1 0x5 PUSH0 DUP4 DUP2 MSTORE PUSH1 0x20 ADD SWAP1 DUP2 MSTORE PUSH1 0x20 ADD PUSH0 KECCAK256 SWAP1 POP PUSH0 PUSH20 0xFFFFFFFFFFFFFFFFFFFFFFFFFFFFFFFFFFFFFFFF AND DUP2 PUSH0 ADD PUSH0 SWAP1 SLOAD SWAP1 PUSH2 0x100 EXP SWAP1 DIV PUSH20 0xFFFFFFFFFFFFFFFFFFFFFFFFFFFFFFFFFFFFFFFF AND PUSH20 0xFFFFFFFFFFFFFFFFFFFFFFFFFFFFFFFFFFFFFFFF AND SUB PUSH2 0xA4B JUMPI PUSH1 0x40 MLOAD PUSH32 0x8C379A000000000000000000000000000000000000000000000000000000000 DUP2 MSTORE PUSH1 0x4 ADD PUSH2 0xA42 SWAP1 PUSH2 0x1B01 JUMP JUMPDEST PUSH1 0x40 MLOAD DUP1 SWAP2 SUB SWAP1 REVERT JUMPDEST DUP1 PUSH1 0x3 ADD PUSH0 SWAP1 SLOAD SWAP1 PUSH2 0x100 EXP SWAP1 DIV PUSH1 0xFF AND ISZERO PUSH2 0xA9C JUMPI PUSH1 0x40 MLOAD PUSH32 0x8C379A000000000000000000000000000000000000000000000000000000000 DUP2 MSTORE PUSH1 0x4 ADD PUSH2 0xA93 SWAP1 PUSH2 0x1B69 JUMP JUMPDEST PUSH1 0x40 MLOAD DUP1 SWAP2 SUB SWAP1 REVERT JUMPDEST PUSH1 0x4 SLOAD DUP2 PUSH1 0x1 ADD SLOAD LT ISZERO PUSH2 0xAE5 JUMPI PUSH1 0x40 MLOAD PUSH32 0x8C379A000000000000000000000000000000000000000000000000000000000 DUP2 MSTORE PUSH1 0x4 ADD PUSH2 0xADC SWAP1 PUSH2 0x1D28 JUMP JUMPDEST PUSH1 0x40 MLOAD DUP1 SWAP2 SUB SWAP1 REVERT JUMPDEST DUP1 PUSH0 ADD PUSH0 SWAP1 SLOAD SWAP1 PUSH2 0x100 EXP SWAP1 DIV PUSH20 0xFFFFFFFFFFFFFFFFFFFFFFFFFFFFFFFFFFFFFFFF AND PUSH1 0x1 PUSH0 PUSH2 0x100 EXP DUP2 SLOAD DUP2 PUSH20 0xFFFFFFFFFFFFFFFFFFFFFFFFFFFFFFFFFFFFFFFF MUL NOT AND SWAP1 DUP4 PUSH20 0xFFFFFFFFFFFFFFFFFFFFFFFFFFFFFFFFFFFFFFFF AND MUL OR SWAP1 SSTORE POP PUSH1 0x1 DUP2 PUSH1 0x3 ADD PUSH0 PUSH2 0x100 EXP DUP2 SLOAD DUP2 PUSH1 0xFF MUL NOT AND SWAP1 DUP4 ISZERO ISZERO MUL OR SWAP1 SSTORE POP DUP2 PUSH32 0xBDD579CD1FE7B2900A091DAFF9C05A996778A8B5D2C00F64D37D2EF13CA2E0E2 PUSH1 0x1 PUSH0 SWAP1 SLOAD SWAP1 PUSH2 0x100 EXP SWAP1 DIV PUSH20 0xFFFFFFFFFFFFFFFFFFFFFFFFFFFFFFFFFFFFFFFF AND PUSH1 0x40 MLOAD PUSH2 0xBB4 SWAP2 SWAP1 PUSH2 0x1882 JUMP JUMPDEST PUSH1 0x40 MLOAD DUP1 SWAP2 SUB SWAP1 LOG2 POP POP JUMP JUMPDEST PUSH1 0x1 PUSH0 SWAP1 SLOAD SWAP1 PUSH2 0x100 EXP SWAP1 DIV PUSH20 0xFFFFFFFFFFFFFFFFFFFFFFFFFFFFFFFFFFFFFFFF AND PUSH20 0xFFFFFFFFFFFFFFFFFFFFFFFFFFFFFFFFFFFFFFFF AND CALLER PUSH20 0xFFFFFFFFFFFFFFFFFFFFFFFFFFFFFFFFFFFFFFFF AND EQ PUSH2 0xC4F JUMPI PUSH1 0x40 MLOAD PUSH32 0x8C379A000000000000000000000000000000000000000000000000000000000 DUP2 MSTORE PUSH1 0x4 ADD PUSH2 0xC46 SWAP1 PUSH2 0x1A99 JUMP JUMPDEST PUSH1 0x40 MLOAD DUP1 SWAP2 SUB SWAP1 REVERT JUMPDEST PUSH1 0x2 PUSH0 DUP3 PUSH20 0xFFFFFFFFFFFFFFFFFFFFFFFFFFFFFFFFFFFFFFFF AND PUSH20 0xFFFFFFFFFFFFFFFFFFFFFFFFFFFFFFFFFFFFFFFF AND DUP2 MSTORE PUSH1 0x20 ADD SWAP1 DUP2 MSTORE PUSH1 0x20 ADD PUSH0 KECCAK256 PUSH0 SWAP1 SLOAD SWAP1 PUSH2 0x100 EXP SWAP1 DIV PUSH1 0xFF AND PUSH2 0xCD8 JUMPI PUSH1 0x40 MLOAD PUSH32 0x8C379A000000000000000000000000000000000000000000000000000000000 DUP2 MSTORE PUSH1 0x4 ADD PUSH2 0xCCF SWAP1 PUSH2 0x1D90 JUMP JUMPDEST PUSH1 0x40 MLOAD DUP1 SWAP2 SUB SWAP1 REVERT JUMPDEST PUSH0 PUSH1 0x2 PUSH0 DUP4 PUSH20 0xFFFFFFFFFFFFFFFFFFFFFFFFFFFFFFFFFFFFFFFF AND PUSH20 0xFFFFFFFFFFFFFFFFFFFFFFFFFFFFFFFFFFFFFFFF AND DUP2 MSTORE PUSH1 0x20 ADD SWAP1 DUP2 MSTORE PUSH1 0x20 ADD PUSH0 KECCAK256 PUSH0 PUSH2 0x100 EXP DUP2 SLOAD DUP2 PUSH1 0xFF MUL NOT AND SWAP1 DUP4 ISZERO ISZERO MUL OR SWAP1 SSTORE POP PUSH0 JUMPDEST PUSH1 0x3 DUP1 SLOAD SWAP1 POP DUP2 LT ISZERO PUSH2 0xEA9 JUMPI DUP2 PUSH20 0xFFFFFFFFFFFFFFFFFFFFFFFFFFFFFFFFFFFFFFFF AND PUSH1 0x3 DUP3 DUP2 SLOAD DUP2 LT PUSH2 0xD66 JUMPI PUSH2 0xD65 PUSH2 0x1DAE JUMP JUMPDEST JUMPDEST SWAP1 PUSH0 MSTORE PUSH1 0x20 PUSH0 KECCAK256 ADD PUSH0 SWAP1 SLOAD SWAP1 PUSH2 0x100 EXP SWAP1 DIV PUSH20 0xFFFFFFFFFFFFFFFFFFFFFFFFFFFFFFFFFFFFFFFF AND PUSH20 0xFFFFFFFFFFFFFFFFFFFFFFFFFFFFFFFFFFFFFFFF AND SUB PUSH2 0xE98 JUMPI PUSH1 0x3 PUSH1 0x1 PUSH1 0x3 DUP1 SLOAD SWAP1 POP PUSH2 0xDBD SWAP2 SWAP1 PUSH2 0x1DDB JUMP JUMPDEST DUP2 SLOAD DUP2 LT PUSH2 0xDCE JUMPI PUSH2 0xDCD PUSH2 0x1DAE JUMP JUMPDEST JUMPDEST SWAP1 PUSH0 MSTORE PUSH1 0x20 PUSH0 KECCAK256 ADD PUSH0 SWAP1 SLOAD SWAP1 PUSH2 0x100 EXP SWAP1 DIV PUSH20 0xFFFFFFFFFFFFFFFFFFFFFFFFFFFFFFFFFFFFFFFF AND PUSH1 0x3 DUP3 DUP2 SLOAD DUP2 LT PUSH2 0xE0A JUMPI PUSH2 0xE09 PUSH2 0x1DAE JUMP JUMPDEST JUMPDEST SWAP1 PUSH0 MSTORE PUSH1 0x20 PUSH0 KECCAK256 ADD PUSH0 PUSH2 0x100 EXP DUP2 SLOAD DUP2 PUSH20 0xFFFFFFFFFFFFFFFFFFFFFFFFFFFFFFFFFFFFFFFF MUL NOT AND SWAP1 DUP4 PUSH20 0xFFFFFFFFFFFFFFFFFFFFFFFFFFFFFFFFFFFFFFFF AND MUL OR SWAP1 SSTORE POP PUSH1 0x3 DUP1 SLOAD DUP1 PUSH2 0xE61 JUMPI PUSH2 0xE60 PUSH2 0x1E0E JUMP JUMPDEST JUMPDEST PUSH1 0x1 SWAP1 SUB DUP2 DUP2 SWAP1 PUSH0 MSTORE PUSH1 0x20 PUSH0 KECCAK256 ADD PUSH0 PUSH2 0x100 EXP DUP2 SLOAD SWAP1 PUSH20 0xFFFFFFFFFFFFFFFFFFFFFFFFFFFFFFFFFFFFFFFF MUL NOT AND SWAP1 SSTORE SWAP1 SSTORE PUSH2 0xEA9 JUMP JUMPDEST DUP1 PUSH2 0xEA2 SWAP1 PUSH2 0x1E3B JUMP JUMPDEST SWAP1 POP PUSH2 0xD2E JUMP JUMPDEST POP PUSH1 0x3 DUP1 SLOAD SWAP1 POP PUSH1 0x4 SLOAD GT ISZERO PUSH2 0xEC6 JUMPI PUSH1 0x3 DUP1 SLOAD SWAP1 POP PUSH1 0x4 DUP2 SWAP1 SSTORE POP JUMPDEST POP JUMP JUMPDEST PUSH0 PUSH1 0x2 PUSH0 CALLER PUSH20 0xFFFFFFFFFFFFFFFFFFFFFFFFFFFFFFFFFFFFFFFF AND PUSH20 0xFFFFFFFFFFFFFFFFFFFFFFFFFFFFFFFFFFFFFFFF AND DUP2 MSTORE PUSH1 0x20 ADD SWAP1 DUP2 MSTORE PUSH1 0x20 ADD PUSH0 KECCAK256 PUSH0 SWAP1 SLOAD SWAP1 PUSH2 0x100 EXP SWAP1 DIV PUSH1 0xFF AND PUSH2 0xF53 JUMPI PUSH1 0x40 MLOAD PUSH32 0x8C379A000000000000000000000000000000000000000000000000000000000 DUP2 MSTORE PUSH1 0x4 ADD PUSH2 0xF4A SWAP1 PUSH2 0x1BD1 JUMP JUMPDEST PUSH1 0x40 MLOAD DUP1 SWAP2 SUB SWAP1 REVERT JUMPDEST PUSH0 PUSH20 0xFFFFFFFFFFFFFFFFFFFFFFFFFFFFFFFFFFFFFFFF AND DUP3 PUSH20 0xFFFFFFFFFFFFFFFFFFFFFFFFFFFFFFFFFFFFFFFF AND SUB PUSH2 0xFC1 JUMPI PUSH1 0x40 MLOAD PUSH32 0x8C379A000000000000000000000000000000000000000000000000000000000 DUP2 MSTORE PUSH1 0x4 ADD PUSH2 0xFB8 SWAP1 PUSH2 0x1ECC JUMP JUMPDEST PUSH1 0x40 MLOAD DUP1 SWAP2 SUB SWAP1 REVERT JUMPDEST PUSH0 PUSH1 0x6 PUSH0 DUP2 SLOAD PUSH2 0xFD0 SWAP1 PUSH2 0x1E3B JUMP JUMPDEST SWAP2 SWAP1 POP DUP2 SWAP1 SSTORE SWAP1 POP PUSH0 PUSH1 0x5 PUSH0 DUP4 DUP2 MSTORE PUSH1 0x20 ADD SWAP1 DUP2 MSTORE PUSH1 0x20 ADD PUSH0 KECCAK256 SWAP1 POP DUP4 DUP2 PUSH0 ADD PUSH0 PUSH2 0x100 EXP DUP2 SLOAD DUP2 PUSH20 0xFFFFFFFFFFFFFFFFFFFFFFFFFFFFFFFFFFFFFFFF MUL NOT AND SWAP1 DUP4 PUSH20 0xFFFFFFFFFFFFFFFFFFFFFFFFFFFFFFFFFFFFFFFF AND MUL OR SWAP1 SSTORE POP PUSH0 DUP2 PUSH1 0x1 ADD DUP2 SWAP1 SSTORE POP TIMESTAMP DUP2 PUSH1 0x2 ADD DUP2 SWAP1 SSTORE POP PUSH0 DUP2 PUSH1 0x3 ADD PUSH0 PUSH2 0x100 EXP DUP2 SLOAD DUP2 PUSH1 0xFF MUL NOT AND SWAP1 DUP4 ISZERO ISZERO MUL OR SWAP1 SSTORE POP PUSH1 0x1 DUP2 PUSH1 0x4 ADD PUSH0 CALLER PUSH20 0xFFFFFFFFFFFFFFFFFFFFFFFFFFFFFFFFFFFFFFFF AND PUSH20 0xFFFFFFFFFFFFFFFFFFFFFFFFFFFFFFFFFFFFFFFF AND DUP2 MSTORE PUSH1 0x20 ADD SWAP1 DUP2 MSTORE PUSH1 0x20 ADD PUSH0 KECCAK256 PUSH0 PUSH2 0x100 EXP DUP2 SLOAD DUP2 PUSH1 0xFF MUL NOT AND SWAP1 DUP4 ISZERO ISZERO MUL OR SWAP1 SSTORE POP PUSH1 0x1 DUP2 PUSH1 0x1 ADD DUP2 SWAP1 SSTORE POP DUP2 PUSH32 0x1CB35B5C3390081F0283210F4FD58D68D6E6FEF68913E6B75582139B1A4ADC35 CALLER DUP7 PUSH1 0x40 MLOAD PUSH2 0x10ED SWAP3 SWAP2 SWAP1 PUSH2 0x1EEA JUMP JUMPDEST PUSH1 0x40 MLOAD DUP1 SWAP2 SUB SWAP1 LOG2 DUP2 PUSH32 0xD4F9207B620466CD2586FA5270946A1C9526B0A7A65F5116A4E75352ADE070EE CALLER PUSH1 0x1 PUSH1 0x40 MLOAD PUSH2 0x1128 SWAP3 SWAP2 SWAP1 PUSH2 0x1F53 JUMP JUMPDEST PUSH1 0x40 MLOAD DUP1 SWAP2 SUB SWAP1 LOG2 DUP2 SWAP3 POP POP POP SWAP2 SWAP1 POP JUMP JUMPDEST PUSH1 0x1 PUSH0 SWAP1 SLOAD SWAP1 PUSH2 0x100 EXP SWAP1 DIV PUSH20 0xFFFFFFFFFFFFFFFFFFFFFFFFFFFFFFFFFFFFFFFF AND DUP2 JUMP JUMPDEST PUSH1 0x1 PUSH0 SWAP1 SLOAD SWAP1 PUSH2 0x100 EXP SWAP1 DIV PUSH20 0xFFFFFFFFFFFFFFFFFFFFFFFFFFFFFFFFFFFFFFFF AND PUSH20 0xFFFFFFFFFFFFFFFFFFFFFFFFFFFFFFFFFFFFFFFF AND CALLER PUSH20 0xFFFFFFFFFFFFFFFFFFFFFFFFFFFFFFFFFFFFFFFF AND EQ PUSH2 0x11EE JUMPI PUSH1 0x40 MLOAD PUSH32 0x8C379A000000000000000000000000000000000000000000000000000000000 DUP2 MSTORE PUSH1 0x4 ADD PUSH2 0x11E5 SWAP1 PUSH2 0x1A99 JUMP JUMPDEST PUSH1 0x40 MLOAD DUP1 SWAP2 SUB SWAP1 REVERT JUMPDEST PUSH0 DUP2 GT DUP1 ISZERO PUSH2 0x1202 JUMPI POP PUSH1 0x3 DUP1 SLOAD SWAP1 POP DUP2 GT ISZERO JUMPDEST PUSH2 0x1241 JUMPI PUSH1 0x40 MLOAD PUSH32 0x8C379A000000000000000000000000000000000000000000000000000000000 DUP2 MSTORE PUSH1 0x4 ADD PUSH2 0x1238 SWAP1 PUSH2 0x1FC4 JUMP JUMPDEST PUSH1 0x40 MLOAD DUP1 SWAP2 SUB SWAP1 REVERT JUMPDEST DUP1 PUSH1 0x4 DUP2 SWAP1 SSTORE POP POP JUMP JUMPDEST PUSH0 PUSH1 0x5 PUSH0 DUP4 DUP2 MSTORE PUSH1 0x20 ADD SWAP1 DUP2 MSTORE PUSH1 0x20 ADD PUSH0 KECCAK256 PUSH1 0x1 ADD SLOAD SWAP1 POP SWAP2 SWAP1 POP JUMP JUMPDEST PUSH1 0x1 PUSH0 SWAP1 SLOAD SWAP1 PUSH2 0x100 EXP SWAP1 DIV PUSH20 0xFFFFFFFFFFFFFFFFFFFFFFFFFFFFFFFFFFFFFFFF AND PUSH20 0xFFFFFFFFFFFFFFFFFFFFFFFFFFFFFFFFFFFFFFFF AND CALLER PUSH20 0xFFFFFFFFFFFFFFFFFFFFFFFFFFFFFFFFFFFFFFFF AND EQ PUSH2 0x12F7 JUMPI PUSH1 0x40 MLOAD PUSH32 0x8C379A000000000000000000000000000000000000000000000000000000000 DUP2 MSTORE PUSH1 0x4 ADD PUSH2 0x12EE SWAP1 PUSH2 0x1A99 JUMP JUMPDEST PUSH1 0x40 MLOAD DUP1 SWAP2 SUB SWAP1 REVERT JUMPDEST PUSH0 PUSH20 0xFFFFFFFFFFFFFFFFFFFFFFFFFFFFFFFFFFFFFFFF AND DUP2 PUSH20 0xFFFFFFFFFFFFFFFFFFFFFFFFFFFFFFFFFFFFFFFF AND SUB PUSH2 0x1365 JUMPI PUSH1 0x40 MLOAD PUSH32 0x8C379A000000000000000000000000000000000000000000000000000000000 DUP2 MSTORE PUSH1 0x4 ADD PUSH2 0x135C SWAP1 PUSH2 0x1ECC JUMP JUMPDEST PUSH1 0x40 MLOAD DUP1 SWAP2 SUB SWAP1 REVERT JUMPDEST PUSH1 0x2 PUSH0 DUP3 PUSH20 0xFFFFFFFFFFFFFFFFFFFFFFFFFFFFFFFFFFFFFFFF AND PUSH20 0xFFFFFFFFFFFFFFFFFFFFFFFFFFFFFFFFFFFFFFFF AND DUP2 MSTORE PUSH1 0x20 ADD SWAP1 DUP2 MSTORE PUSH1 0x20 ADD PUSH0 KECCAK256 PUSH0 SWAP1 SLOAD SWAP1 PUSH2 0x100 EXP SWAP1 DIV PUSH1 0xFF AND PUSH2 0x1469 JUMPI PUSH1 0x1 PUSH1 0x2 PUSH0 DUP4 PUSH20 0xFFFFFFFFFFFFFFFFFFFFFFFFFFFFFFFFFFFFFFFF AND PUSH20 0xFFFFFFFFFFFFFFFFFFFFFFFFFFFFFFFFFFFFFFFF AND DUP2 MSTORE PUSH1 0x20 ADD SWAP1 DUP2 MSTORE PUSH1 0x20 ADD PUSH0 KECCAK256 PUSH0 PUSH2 0x100 EXP DUP2 SLOAD DUP2 PUSH1 0xFF MUL NOT AND SWAP1 DUP4 ISZERO ISZERO MUL OR SWAP1 SSTORE POP PUSH1 0x3 DUP2 SWAP1 DUP1 PUSH1 0x1 DUP2 SLOAD ADD DUP1 DUP3 SSTORE DUP1 SWAP2 POP POP PUSH1 0x1 SWAP1 SUB SWAP1 PUSH0 MSTORE PUSH1 0x20 PUSH0 KECCAK256 ADD PUSH0 SWAP1 SWAP2 SWAP1 SWAP2 SWAP1 SWAP2 PUSH2 0x100 EXP DUP2 SLOAD DUP2 PUSH20 0xFFFFFFFFFFFFFFFFFFFFFFFFFFFFFFFFFFFFFFFF MUL NOT AND SWAP1 DUP4 PUSH20 0xFFFFFFFFFFFFFFFFFFFFFFFFFFFFFFFFFFFFFFFF AND MUL OR SWAP1 SSTORE POP JUMPDEST POP JUMP JUMPDEST PUSH1 0x60 PUSH2 0x1476 PUSH2 0x1628 JUMP JUMPDEST PUSH1 0x1 PUSH0 SWAP1 SLOAD SWAP1 PUSH2 0x100 EXP SWAP1 DIV PUSH20 0xFFFFFFFFFFFFFFFFFFFFFFFFFFFFFFFFFFFFFFFF AND PUSH20 0xFFFFFFFFFFFFFFFFFFFFFFFFFFFFFFFFFFFFFFFF AND CALLER PUSH20 0xFFFFFFFFFFFFFFFFFFFFFFFFFFFFFFFFFFFFFFFF AND EQ PUSH2 0x1505 JUMPI PUSH1 0x40 MLOAD PUSH32 0x8C379A000000000000000000000000000000000000000000000000000000000 DUP2 MSTORE PUSH1 0x4 ADD PUSH2 0x14FC SWAP1 PUSH2 0x202C JUMP JUMPDEST PUSH1 0x40 MLOAD DUP1 SWAP2 SUB SWAP1 REVERT JUMPDEST PUSH0 DUP1 DUP7 PUSH20 0xFFFFFFFFFFFFFFFFFFFFFFFFFFFFFFFFFFFFFFFF AND DUP7 DUP7 DUP7 PUSH1 0x40 MLOAD PUSH2 0x152F SWAP3 SWAP2 SWAP1 PUSH2 0x2086 JUMP JUMPDEST PUSH0 PUSH1 0x40 MLOAD DUP1 DUP4 SUB DUP2 DUP6 DUP8 GAS CALL SWAP3 POP POP POP RETURNDATASIZE DUP1 PUSH0 DUP2 EQ PUSH2 0x1569 JUMPI PUSH1 0x40 MLOAD SWAP2 POP PUSH1 0x1F NOT PUSH1 0x3F RETURNDATASIZE ADD AND DUP3 ADD PUSH1 0x40 MSTORE RETURNDATASIZE DUP3 MSTORE RETURNDATASIZE PUSH0 PUSH1 0x20 DUP5 ADD RETURNDATACOPY PUSH2 0x156E JUMP JUMPDEST PUSH1 0x60 SWAP2 POP JUMPDEST POP SWAP2 POP SWAP2 POP DUP2 PUSH2 0x15B3 JUMPI PUSH1 0x40 MLOAD PUSH32 0x8C379A000000000000000000000000000000000000000000000000000000000 DUP2 MSTORE PUSH1 0x4 ADD PUSH2 0x15AA SWAP1 PUSH2 0x20E8 JUMP JUMPDEST PUSH1 0x40 MLOAD DUP1 SWAP2 SUB SWAP1 REVERT JUMPDEST DUP7 PUSH20 0xFFFFFFFFFFFFFFFFFFFFFFFFFFFFFFFFFFFFFFFF AND PUSH32 0xE39B605D485D947E52B62C3B5028A14D5277DB44425263C74171A85707154334 DUP8 DUP8 DUP8 DUP6 PUSH1 0x40 MLOAD PUSH2 0x15FF SWAP5 SWAP4 SWAP3 SWAP2 SWAP1 PUSH2 0x2132 JUMP JUMPDEST PUSH1 0x40 MLOAD DUP1 SWAP2 SUB SWAP1 LOG2 DUP1 SWAP3 POP POP POP PUSH2 0x1614 PUSH2 0x1675 JUMP JUMPDEST SWAP5 SWAP4 POP POP POP POP JUMP JUMPDEST PUSH1 0x4 SLOAD DUP2 JUMP JUMPDEST PUSH1 0x6 SLOAD DUP2 JUMP JUMPDEST PUSH1 0x2 PUSH0 SLOAD SUB PUSH2 0x166C JUMPI PUSH1 0x40 MLOAD PUSH32 0x8C379A000000000000000000000000000000000000000000000000000000000 DUP2 MSTORE PUSH1 0x4 ADD PUSH2 0x1663 SWAP1 PUSH2 0x21C1 JUMP JUMPDEST PUSH1 0x40 MLOAD DUP1 SWAP2 SUB SWAP1 REVERT JUMPDEST PUSH1 0x2 PUSH0 DUP2 SWAP1 SSTORE POP JUMP JUMPDEST PUSH1 0x1 PUSH0 DUP2 SWAP1 SSTORE POP JUMP JUMPDEST PUSH0 DUP2 MLOAD SWAP1 POP SWAP2 SWAP1 POP JUMP JUMPDEST PUSH0 DUP3 DUP3 MSTORE PUSH1 0x20 DUP3 ADD SWAP1 POP SWAP3 SWAP2 POP POP JUMP JUMPDEST PUSH0 DUP2 SWAP1 POP PUSH1 0x20 DUP3 ADD SWAP1 POP SWAP2 SWAP1 POP JUMP JUMPDEST PUSH0 PUSH20 0xFFFFFFFFFFFFFFFFFFFFFFFFFFFFFFFFFFFFFFFF DUP3 AND SWAP1 POP SWAP2 SWAP1 POP JUMP JUMPDEST PUSH0 PUSH2 0x16D0 DUP3 PUSH2 0x16A7 JUMP JUMPDEST SWAP1 POP SWAP2 SWAP1 POP JUMP JUMPDEST PUSH2 0x16E0 DUP2 PUSH2 0x16C6 JUMP JUMPDEST DUP3 MSTORE POP POP JUMP JUMPDEST PUSH0 PUSH2 0x16F1 DUP4 DUP4 PUSH2 0x16D7 JUMP JUMPDEST PUSH1 0x20 DUP4 ADD SWAP1 POP SWAP3 SWAP2 POP POP JUMP JUMPDEST PUSH0 PUSH1 0x20 DUP3 ADD SWAP1 POP SWAP2 SWAP1 POP JUMP JUMPDEST PUSH0 PUSH2 0x1713 DUP3 PUSH2 0x167E JUMP JUMPDEST PUSH2 0x171D DUP2 DUP6 PUSH2 0x1688 JUMP JUMPDEST SWAP4 POP PUSH2 0x1728 DUP4 PUSH2 0x1698 JUMP JUMPDEST DUP1 PUSH0 JUMPDEST DUP4 DUP2 LT ISZERO PUSH2 0x1758 JUMPI DUP2 MLOAD PUSH2 0x173F DUP9 DUP3 PUSH2 0x16E6 JUMP JUMPDEST SWAP8 POP PUSH2 0x174A DUP4 PUSH2 0x16FD JUMP JUMPDEST SWAP3 POP POP PUSH1 0x1 DUP2 ADD SWAP1 POP PUSH2 0x172B JUMP JUMPDEST POP DUP6 SWAP4 POP POP POP POP SWAP3 SWAP2 POP POP JUMP JUMPDEST PUSH0 PUSH1 0x20 DUP3 ADD SWAP1 POP DUP2 DUP2 SUB PUSH0 DUP4 ADD MSTORE PUSH2 0x177D DUP2 DUP5 PUSH2 0x1709 JUMP JUMPDEST SWAP1 POP SWAP3 SWAP2 POP POP JUMP JUMPDEST PUSH0 DUP1 REVERT JUMPDEST PUSH0 DUP1 REVERT JUMPDEST PUSH2 0x1796 DUP2 PUSH2 0x16C6 JUMP JUMPDEST DUP2 EQ PUSH2 0x17A0 JUMPI PUSH0 DUP1 REVERT JUMPDEST POP JUMP JUMPDEST PUSH0 DUP2 CALLDATALOAD SWAP1 POP PUSH2 0x17B1 DUP2 PUSH2 0x178D JUMP JUMPDEST SWAP3 SWAP2 POP POP JUMP JUMPDEST PUSH0 PUSH1 0x20 DUP3 DUP5 SUB SLT ISZERO PUSH2 0x17CC JUMPI PUSH2 0x17CB PUSH2 0x1785 JUMP JUMPDEST JUMPDEST PUSH0 PUSH2 0x17D9 DUP5 DUP3 DUP6 ADD PUSH2 0x17A3 JUMP JUMPDEST SWAP2 POP POP SWAP3 SWAP2 POP POP JUMP JUMPDEST PUSH0 DUP2 ISZERO ISZERO SWAP1 POP SWAP2 SWAP1 POP JUMP JUMPDEST PUSH2 0x17F6 DUP2 PUSH2 0x17E2 JUMP JUMPDEST DUP3 MSTORE POP POP JUMP JUMPDEST PUSH0 PUSH1 0x20 DUP3 ADD SWAP1 POP PUSH2 0x180F PUSH0 DUP4 ADD DUP5 PUSH2 0x17ED JUMP JUMPDEST SWAP3 SWAP2 POP POP JUMP JUMPDEST PUSH0 DUP2 SWAP1 POP SWAP2 SWAP1 POP JUMP JUMPDEST PUSH2 0x1827 DUP2 PUSH2 0x1815 JUMP JUMPDEST DUP2 EQ PUSH2 0x1831 JUMPI PUSH0 DUP1 REVERT JUMPDEST POP JUMP JUMPDEST PUSH0 DUP2 CALLDATALOAD SWAP1 POP PUSH2 0x1842 DUP2 PUSH2 0x181E JUMP JUMPDEST SWAP3 SWAP2 POP POP JUMP JUMPDEST PUSH0 PUSH1 0x20 DUP3 DUP5 SUB SLT ISZERO PUSH2 0x185D JUMPI PUSH2 0x185C PUSH2 0x1785 JUMP JUMPDEST JUMPDEST PUSH0 PUSH2 0x186A DUP5 DUP3 DUP6 ADD PUSH2 0x1834 JUMP JUMPDEST SWAP2 POP POP SWAP3 SWAP2 POP POP JUMP JUMPDEST PUSH2 0x187C DUP2 PUSH2 0x16C6 JUMP JUMPDEST DUP3 MSTORE POP POP JUMP JUMPDEST PUSH0 PUSH1 0x20 DUP3 ADD SWAP1 POP PUSH2 0x1895 PUSH0 DUP4 ADD DUP5 PUSH2 0x1873 JUMP JUMPDEST SWAP3 SWAP2 POP POP JUMP JUMPDEST PUSH2 0x18A4 DUP2 PUSH2 0x1815 JUMP JUMPDEST DUP3 MSTORE POP POP JUMP JUMPDEST PUSH0 PUSH1 0x20 DUP3 ADD SWAP1 POP PUSH2 0x18BD PUSH0 DUP4 ADD DUP5 PUSH2 0x189B JUMP JUMPDEST SWAP3 SWAP2 POP POP JUMP JUMPDEST PUSH0 DUP1 REVERT JUMPDEST PUSH0 DUP1 REVERT JUMPDEST PUSH0 DUP1 REVERT JUMPDEST PUSH0 DUP1 DUP4 PUSH1 0x1F DUP5 ADD SLT PUSH2 0x18E4 JUMPI PUSH2 0x18E3 PUSH2 0x18C3 JUMP JUMPDEST JUMPDEST DUP3 CALLDATALOAD SWAP1 POP PUSH8 0xFFFFFFFFFFFFFFFF DUP2 GT ISZERO PUSH2 0x1901 JUMPI PUSH2 0x1900 PUSH2 0x18C7 JUMP JUMPDEST JUMPDEST PUSH1 0x20 DUP4 ADD SWAP2 POP DUP4 PUSH1 0x1 DUP3 MUL DUP4 ADD GT ISZERO PUSH2 0x191D JUMPI PUSH2 0x191C PUSH2 0x18CB JUMP JUMPDEST JUMPDEST SWAP3 POP SWAP3 SWAP1 POP JUMP JUMPDEST PUSH0 DUP1 PUSH0 DUP1 PUSH1 0x60 DUP6 DUP8 SUB SLT ISZERO PUSH2 0x193C JUMPI PUSH2 0x193B PUSH2 0x1785 JUMP JUMPDEST JUMPDEST PUSH0 PUSH2 0x1949 DUP8 DUP3 DUP9 ADD PUSH2 0x17A3 JUMP JUMPDEST SWAP5 POP POP PUSH1 0x20 PUSH2 0x195A DUP8 DUP3 DUP9 ADD PUSH2 0x1834 JUMP JUMPDEST SWAP4 POP POP PUSH1 0x40 DUP6 ADD CALLDATALOAD PUSH8 0xFFFFFFFFFFFFFFFF DUP2 GT ISZERO PUSH2 0x197B JUMPI PUSH2 0x197A PUSH2 0x1789 JUMP JUMPDEST JUMPDEST PUSH2 0x1987 DUP8 DUP3 DUP9 ADD PUSH2 0x18CF JUMP JUMPDEST SWAP3 POP SWAP3 POP POP SWAP3 SWAP6 SWAP2 SWAP5 POP SWAP3 POP JUMP JUMPDEST PUSH0 DUP2 MLOAD SWAP1 POP SWAP2 SWAP1 POP JUMP JUMPDEST PUSH0 DUP3 DUP3 MSTORE PUSH1 0x20 DUP3 ADD SWAP1 POP SWAP3 SWAP2 POP POP JUMP JUMPDEST PUSH0 JUMPDEST DUP4 DUP2 LT ISZERO PUSH2 0x19CC JUMPI DUP1 DUP3 ADD MLOAD DUP2 DUP5 ADD MSTORE PUSH1 0x20 DUP2 ADD SWAP1 POP PUSH2 0x19B1 JUMP JUMPDEST PUSH0 DUP5 DUP5 ADD MSTORE POP POP POP POP JUMP JUMPDEST PUSH0 PUSH1 0x1F NOT PUSH1 0x1F DUP4 ADD AND SWAP1 POP SWAP2 SWAP1 POP JUMP JUMPDEST PUSH0 PUSH2 0x19F1 DUP3 PUSH2 0x1995 JUMP JUMPDEST PUSH2 0x19FB DUP2 DUP6 PUSH2 0x199F JUMP JUMPDEST SWAP4 POP PUSH2 0x1A0B DUP2 DUP6 PUSH1 0x20 DUP7 ADD PUSH2 0x19AF JUMP JUMPDEST PUSH2 0x1A14 DUP2 PUSH2 0x19D7 JUMP JUMPDEST DUP5 ADD SWAP2 POP POP SWAP3 SWAP2 POP POP JUMP JUMPDEST PUSH0 PUSH1 0x20 DUP3 ADD SWAP1 POP DUP2 DUP2 SUB PUSH0 DUP4 ADD MSTORE PUSH2 0x1A37 DUP2 DUP5 PUSH2 0x19E7 JUMP JUMPDEST SWAP1 POP SWAP3 SWAP2 POP POP JUMP JUMPDEST PUSH0 DUP3 DUP3 MSTORE PUSH1 0x20 DUP3 ADD SWAP1 POP SWAP3 SWAP2 POP POP JUMP JUMPDEST PUSH32 0x6F6E6C79206F776E657200000000000000000000000000000000000000000000 PUSH0 DUP3 ADD MSTORE POP JUMP JUMPDEST PUSH0 PUSH2 0x1A83 PUSH1 0xA DUP4 PUSH2 0x1A3F JUMP JUMPDEST SWAP2 POP PUSH2 0x1A8E DUP3 PUSH2 0x1A4F JUMP JUMPDEST PUSH1 0x20 DUP3 ADD SWAP1 POP SWAP2 SWAP1 POP JUMP JUMPDEST PUSH0 PUSH1 0x20 DUP3 ADD SWAP1 POP DUP2 DUP2 SUB PUSH0 DUP4 ADD MSTORE PUSH2 0x1AB0 DUP2 PUSH2 0x1A77 JUMP JUMPDEST SWAP1 POP SWAP2 SWAP1 POP JUMP JUMPDEST PUSH32 0x696E76616C696420696400000000000000000000000000000000000000000000 PUSH0 DUP3 ADD MSTORE POP JUMP JUMPDEST PUSH0 PUSH2 0x1AEB PUSH1 0xA DUP4 PUSH2 0x1A3F JUMP JUMPDEST SWAP2 POP PUSH2 0x1AF6 DUP3 PUSH2 0x1AB7 JUMP JUMPDEST PUSH1 0x20 DUP3 ADD SWAP1 POP SWAP2 SWAP1 POP JUMP JUMPDEST PUSH0 PUSH1 0x20 DUP3 ADD SWAP1 POP DUP2 DUP2 SUB PUSH0 DUP4 ADD MSTORE PUSH2 0x1B18 DUP2 PUSH2 0x1ADF JUMP JUMPDEST SWAP1 POP SWAP2 SWAP1 POP JUMP JUMPDEST PUSH32 0x616C726561647920657865637574656400000000000000000000000000000000 PUSH0 DUP3 ADD MSTORE POP JUMP JUMPDEST PUSH0 PUSH2 0x1B53 PUSH1 0x10 DUP4 PUSH2 0x1A3F JUMP JUMPDEST SWAP2 POP PUSH2 0x1B5E DUP3 PUSH2 0x1B1F JUMP JUMPDEST PUSH1 0x20 DUP3 ADD SWAP1 POP SWAP2 SWAP1 POP JUMP JUMPDEST PUSH0 PUSH1 0x20 DUP3 ADD SWAP1 POP DUP2 DUP2 SUB PUSH0 DUP4 ADD MSTORE PUSH2 0x1B80 DUP2 PUSH2 0x1B47 JUMP JUMPDEST SWAP1 POP SWAP2 SWAP1 POP JUMP JUMPDEST PUSH32 0x6F6E6C7920677561726469616E00000000000000000000000000000000000000 PUSH0 DUP3 ADD MSTORE POP JUMP JUMPDEST PUSH0 PUSH2 0x1BBB PUSH1 0xD DUP4 PUSH2 0x1A3F JUMP JUMPDEST SWAP2 POP PUSH2 0x1BC6 DUP3 PUSH2 0x1B87 JUMP JUMPDEST PUSH1 0x20 DUP3 ADD SWAP1 POP SWAP2 SWAP1 POP JUMP JUMPDEST PUSH0 PUSH1 0x20 DUP3 ADD SWAP1 POP DUP2 DUP2 SUB PUSH0 DUP4 ADD MSTORE PUSH2 0x1BE8 DUP2 PUSH2 0x1BAF JUMP JUMPDEST SWAP1 POP SWAP2 SWAP1 POP JUMP JUMPDEST PUSH32 0x616C726561647920617070726F76656400000000000000000000000000000000 PUSH0 DUP3 ADD MSTORE POP JUMP JUMPDEST PUSH0 PUSH2 0x1C23 PUSH1 0x10 DUP4 PUSH2 0x1A3F JUMP JUMPDEST SWAP2 POP PUSH2 0x1C2E DUP3 PUSH2 0x1BEF JUMP JUMPDEST PUSH1 0x20 DUP3 ADD SWAP1 POP SWAP2 SWAP1 POP JUMP JUMPDEST PUSH0 PUSH1 0x20 DUP3 ADD SWAP1 POP DUP2 DUP2 SUB PUSH0 DUP4 ADD MSTORE PUSH2 0x1C50 DUP2 PUSH2 0x1C17 JUMP JUMPDEST SWAP1 POP SWAP2 SWAP1 POP JUMP JUMPDEST PUSH32 0x4E487B7100000000000000000000000000000000000000000000000000000000 PUSH0 MSTORE PUSH1 0x11 PUSH1 0x4 MSTORE PUSH1 0x24 PUSH0 REVERT JUMPDEST PUSH0 PUSH2 0x1C8E DUP3 PUSH2 0x1815 JUMP JUMPDEST SWAP2 POP PUSH2 0x1C99 DUP4 PUSH2 0x1815 JUMP JUMPDEST SWAP3 POP DUP3 DUP3 ADD SWAP1 POP DUP1 DUP3 GT ISZERO PUSH2 0x1CB1 JUMPI PUSH2 0x1CB0 PUSH2 0x1C57 JUMP JUMPDEST JUMPDEST SWAP3 SWAP2 POP POP JUMP JUMPDEST PUSH0 PUSH1 0x40 DUP3 ADD SWAP1 POP PUSH2 0x1CCA PUSH0 DUP4 ADD DUP6 PUSH2 0x1873 JUMP JUMPDEST PUSH2 0x1CD7 PUSH1 0x20 DUP4 ADD DUP5 PUSH2 0x189B JUMP JUMPDEST SWAP4 SWAP3 POP POP POP JUMP JUMPDEST PUSH32 0x696E73756666696369656E7420617070726F76616C7300000000000000000000 PUSH0 DUP3 ADD MSTORE POP JUMP JUMPDEST PUSH0 PUSH2 0x1D12 PUSH1 0x16 DUP4 PUSH2 0x1A3F JUMP JUMPDEST SWAP2 POP PUSH2 0x1D1D DUP3 PUSH2 0x1CDE JUMP JUMPDEST PUSH1 0x20 DUP3 ADD SWAP1 POP SWAP2 SWAP1 POP JUMP JUMPDEST PUSH0 PUSH1 0x20 DUP3 ADD SWAP1 POP DUP2 DUP2 SUB PUSH0 DUP4 ADD MSTORE PUSH2 0x1D3F DUP2 PUSH2 0x1D06 JUMP JUMPDEST SWAP1 POP SWAP2 SWAP1 POP JUMP JUMPDEST PUSH32 0x6E6F7420677561726469616E0000000000000000000000000000000000000000 PUSH0 DUP3 ADD MSTORE POP JUMP JUMPDEST PUSH0 PUSH2 0x1D7A PUSH1 0xC DUP4 PUSH2 0x1A3F JUMP JUMPDEST SWAP2 POP PUSH2 0x1D85 DUP3 PUSH2 0x1D46 JUMP JUMPDEST PUSH1 0x20 DUP3 ADD SWAP1 POP SWAP2 SWAP1 POP JUMP JUMPDEST PUSH0 PUSH1 0x20 DUP3 ADD SWAP1 POP DUP2 DUP2 SUB PUSH0 DUP4 ADD MSTORE PUSH2 0x1DA7 DUP2 PUSH2 0x1D6E JUMP JUMPDEST SWAP1 POP SWAP2 SWAP1 POP JUMP JUMPDEST PUSH32 0x4E487B7100000000000000000000000000000000000000000000000000000000 PUSH0 MSTORE PUSH1 0x32 PUSH1 0x4 MSTORE PUSH1 0x24 PUSH0 REVERT JUMPDEST PUSH0 PUSH2 0x1DE5 DUP3 PUSH2 0x1815 JUMP JUMPDEST SWAP2 POP PUSH2 0x1DF0 DUP4 PUSH2 0x1815 JUMP JUMPDEST SWAP3 POP DUP3 DUP3 SUB SWAP1 POP DUP2 DUP2 GT ISZERO PUSH2 0x1E08 JUMPI PUSH2 0x1E07 PUSH2 0x1C57 JUMP JUMPDEST JUMPDEST SWAP3 SWAP2 POP POP JUMP JUMPDEST PUSH32 0x4E487B7100000000000000000000000000000000000000000000000000000000 PUSH0 MSTORE PUSH1 0x31 PUSH1 0x4 MSTORE PUSH1 0x24 PUSH0 REVERT JUMPDEST PUSH0 PUSH2 0x1E45 DUP3 PUSH2 0x1815 JUMP JUMPDEST SWAP2 POP PUSH32 0xFFFFFFFFFFFFFFFFFFFFFFFFFFFFFFFFFFFFFFFFFFFFFFFFFFFFFFFFFFFFFFFF DUP3 SUB PUSH2 0x1E77 JUMPI PUSH2 0x1E76 PUSH2 0x1C57 JUMP JUMPDEST JUMPDEST PUSH1 0x1 DUP3 ADD SWAP1 POP SWAP2 SWAP1 POP JUMP JUMPDEST PUSH32 0x7A65726F00000000000000000000000000000000000000000000000000000000 PUSH0 DUP3 ADD MSTORE POP JUMP JUMPDEST PUSH0 PUSH2 0x1EB6 PUSH1 0x4 DUP4 PUSH2 0x1A3F JUMP JUMPDEST SWAP2 POP PUSH2 0x1EC1 DUP3 PUSH2 0x1E82 JUMP JUMPDEST PUSH1 0x20 DUP3 ADD SWAP1 POP SWAP2 SWAP1 POP JUMP JUMPDEST PUSH0 PUSH1 0x20 DUP3 ADD SWAP1 POP DUP2 DUP2 SUB PUSH0 DUP4 ADD MSTORE PUSH2 0x1EE3 DUP2 PUSH2 0x1EAA JUMP JUMPDEST SWAP1 POP SWAP2 SWAP1 POP JUMP JUMPDEST PUSH0 PUSH1 0x40 DUP3 ADD SWAP1 POP PUSH2 0x1EFD PUSH0 DUP4 ADD DUP6 PUSH2 0x1873 JUMP JUMPDEST PUSH2 0x1F0A PUSH1 0x20 DUP4 ADD DUP5 PUSH2 0x1873 JUMP JUMPDEST SWAP4 SWAP3 POP POP POP JUMP JUMPDEST PUSH0 DUP2 SWAP1 POP SWAP2 SWAP1 POP JUMP JUMPDEST PUSH0 DUP2 SWAP1 POP SWAP2 SWAP1 POP JUMP JUMPDEST PUSH0 PUSH2 0x1F3D PUSH2 0x1F38 PUSH2 0x1F33 DUP5 PUSH2 0x1F11 JUMP JUMPDEST PUSH2 0x1F1A JUMP JUMPDEST PUSH2 0x1815 JUMP JUMPDEST SWAP1 POP SWAP2 SWAP1 POP JUMP JUMPDEST PUSH2 0x1F4D DUP2 PUSH2 0x1F23 JUMP JUMPDEST DUP3 MSTORE POP POP JUMP JUMPDEST PUSH0 PUSH1 0x40 DUP3 ADD SWAP1 POP PUSH2 0x1F66 PUSH0 DUP4 ADD DUP6 PUSH2 0x1873 JUMP JUMPDEST PUSH2 0x1F73 PUSH1 0x20 DUP4 ADD DUP5 PUSH2 0x1F44 JUMP JUMPDEST SWAP4 SWAP3 POP POP POP JUMP JUMPDEST PUSH32 0x696E76616C6964207468726573686F6C64000000000000000000000000000000 PUSH0 DUP3 ADD MSTORE POP JUMP JUMPDEST PUSH0 PUSH2 0x1FAE PUSH1 0x11 DUP4 PUSH2 0x1A3F JUMP JUMPDEST SWAP2 POP PUSH2 0x1FB9 DUP3 PUSH2 0x1F7A JUMP JUMPDEST PUSH1 0x20 DUP3 ADD SWAP1 POP SWAP2 SWAP1 POP JUMP JUMPDEST PUSH0 PUSH1 0x20 DUP3 ADD SWAP1 POP DUP2 DUP2 SUB PUSH0 DUP4 ADD MSTORE PUSH2 0x1FDB DUP2 PUSH2 0x1FA2 JUMP JUMPDEST SWAP1 POP SWAP2 SWAP1 POP JUMP JUMPDEST PUSH32 0x6E6F74206F776E65720000000000000000000000000000000000000000000000 PUSH0 DUP3 ADD MSTORE POP JUMP JUMPDEST PUSH0 PUSH2 0x2016 PUSH1 0x9 DUP4 PUSH2 0x1A3F JUMP JUMPDEST SWAP2 POP PUSH2 0x2021 DUP3 PUSH2 0x1FE2 JUMP JUMPDEST PUSH1 0x20 DUP3 ADD SWAP1 POP SWAP2 SWAP1 POP JUMP JUMPDEST PUSH0 PUSH1 0x20 DUP3 ADD SWAP1 POP DUP2 DUP2 SUB PUSH0 DUP4 ADD MSTORE PUSH2 0x2043 DUP2 PUSH2 0x200A JUMP JUMPDEST SWAP1 POP SWAP2 SWAP1 POP JUMP JUMPDEST PUSH0 DUP2 SWAP1 POP SWAP3 SWAP2 POP POP JUMP JUMPDEST DUP3 DUP2 DUP4 CALLDATACOPY PUSH0 DUP4 DUP4 ADD MSTORE POP POP POP JUMP JUMPDEST PUSH0 PUSH2 0x206D DUP4 DUP6 PUSH2 0x204A JUMP JUMPDEST SWAP4 POP PUSH2 0x207A DUP4 DUP6 DUP5 PUSH2 0x2054 JUMP JUMPDEST DUP3 DUP5 ADD SWAP1 POP SWAP4 SWAP3 POP POP POP JUMP JUMPDEST PUSH0 PUSH2 0x2092 DUP3 DUP5 DUP7 PUSH2 0x2062 JUMP JUMPDEST SWAP2 POP DUP2 SWAP1 POP SWAP4 SWAP3 POP POP POP JUMP JUMPDEST PUSH32 0x63616C6C206661696C6564000000000000000000000000000000000000000000 PUSH0 DUP3 ADD MSTORE POP JUMP JUMPDEST PUSH0 PUSH2 0x20D2 PUSH1 0xB DUP4 PUSH2 0x1A3F JUMP JUMPDEST SWAP2 POP PUSH2 0x20DD DUP3 PUSH2 0x209E JUMP JUMPDEST PUSH1 0x20 DUP3 ADD SWAP1 POP SWAP2 SWAP1 POP JUMP JUMPDEST PUSH0 PUSH1 0x20 DUP3 ADD SWAP1 POP DUP2 DUP2 SUB PUSH0 DUP4 ADD MSTORE PUSH2 0x20FF DUP2 PUSH2 0x20C6 JUMP JUMPDEST SWAP1 POP SWAP2 SWAP1 POP JUMP JUMPDEST PUSH0 PUSH2 0x2111 DUP4 DUP6 PUSH2 0x199F JUMP JUMPDEST SWAP4 POP PUSH2 0x211E DUP4 DUP6 DUP5 PUSH2 0x2054 JUMP JUMPDEST PUSH2 0x2127 DUP4 PUSH2 0x19D7 JUMP JUMPDEST DUP5 ADD SWAP1 POP SWAP4 SWAP3 POP POP POP JUMP JUMPDEST PUSH0 PUSH1 0x60 DUP3 ADD SWAP1 POP PUSH2 0x2145 PUSH0 DUP4 ADD DUP8 PUSH2 0x189B JUMP JUMPDEST DUP2 DUP2 SUB PUSH1 0x20 DUP4 ADD MSTORE PUSH2 0x2158 DUP2 DUP6 DUP8 PUSH2 0x2106 JUMP JUMPDEST SWAP1 POP DUP2 DUP2 SUB PUSH1 0x40 DUP4 ADD MSTORE PUSH2 0x216C DUP2 DUP5 PUSH2 0x19E7 JUMP JUMPDEST SWAP1 POP SWAP6 SWAP5 POP POP POP POP POP JUMP JUMPDEST PUSH32 0x5265656E7472616E637947756172643A207265656E7472616E742063616C6C00 PUSH0 DUP3 ADD MSTORE POP JUMP JUMPDEST PUSH0 PUSH2 0x21AB PUSH1 0x1F DUP4 PUSH2 0x1A3F JUMP JUMPDEST SWAP2 POP PUSH2 0x21B6 DUP3 PUSH2 0x2177 JUMP JUMPDEST PUSH1 0x20 DUP3 ADD SWAP1 POP SWAP2 SWAP1 POP JUMP JUMPDEST PUSH0 PUSH1 0x20 DUP3 ADD SWAP1 POP DUP2 DUP2 SUB PUSH0 DUP4 ADD MSTORE PUSH2 0x21D8 DUP2 PUSH2 0x219F JUMP JUMPDEST SWAP1 POP SWAP2 SWAP1 POP JUMP INVALID LOG2 PUSH5 0x6970667358 0x22 SLT KECCAK256 PUSH13 0x18D28D66CBA1DA2D701A293CAD BASEFEE 0xDB LOG2 0xD7 0xB7 LT 0xAC 0x4C 0xD0 CODESIZE 0xD 0xD1 0xFC 0xBA CALL JUMPDEST 0xB1 PUSH1 0x64 PUSH20 0x6F6C634300081400330000000000000000000000 "
				},
				"gasEstimates": {
					"creation": {
						"codeDepositCost": "1745000",
						"executionCost": "infinite",
						"totalCost": "infinite"
					},
					"external": {
						"": "174",
						"addGuardian(address)": "77844",
						"approveRecovery(uint256)": "infinite",
						"cancelRecovery(uint256)": "32488",
						"execute(address,uint256,bytes)": "infinite",
						"executeRecovery(uint256)": "65789",
						"getGuardians()": "infinite",
						"getRecoveryApprovals(uint256)": "infinite",
						"guardianThreshold()": "2491",
						"guardiansList(uint256)": "4989",
						"isGuardian(address)": "2879",
						"owner()": "2553",
						"proposeRecovery(address)": "infinite",
						"recoveryNonce()": "2513",
						"removeGuardian(address)": "infinite",
						"setThreshold(uint256)": "26915"
					}
				},
				"methodIdentifiers": {
					"addGuardian(address)": "a526d83b",
					"approveRecovery(uint256)": "113647bb",
					"cancelRecovery(uint256)": "10de2676",
					"execute(address,uint256,bytes)": "b61d27f6",
					"executeRecovery(uint256)": "56570571",
					"getGuardians()": "0665f04b",
					"getRecoveryApprovals(uint256)": "a3b1290a",
					"guardianThreshold()": "d5af4e20",
					"guardiansList(uint256)": "146104dc",
					"isGuardian(address)": "0c68ba21",
					"owner()": "8da5cb5b",
					"proposeRecovery(address)": "7ee76082",
					"recoveryNonce()": "ed894cd3",
					"removeGuardian(address)": "71404156",
					"setThreshold(uint256)": "960bfe04"
				}
			},
			"storageLayout": {
				"storage": [
					{
						"astId": 10,
						"contract": "contracts/GuardianRecoveryWallet.sol:GuardianRecoveryWallet",
						"label": "_status",
						"offset": 0,
						"slot": "0",
						"type": "t_uint256"
					},
					{
						"astId": 71,
						"contract": "contracts/GuardianRecoveryWallet.sol:GuardianRecoveryWallet",
						"label": "owner",
						"offset": 0,
						"slot": "1",
						"type": "t_address"
					},
					{
						"astId": 75,
						"contract": "contracts/GuardianRecoveryWallet.sol:GuardianRecoveryWallet",
						"label": "isGuardian",
						"offset": 0,
						"slot": "2",
						"type": "t_mapping(t_address,t_bool)"
					},
					{
						"astId": 78,
						"contract": "contracts/GuardianRecoveryWallet.sol:GuardianRecoveryWallet",
						"label": "guardiansList",
						"offset": 0,
						"slot": "3",
						"type": "t_array(t_address)dyn_storage"
					},
					{
						"astId": 80,
						"contract": "contracts/GuardianRecoveryWallet.sol:GuardianRecoveryWallet",
						"label": "guardianThreshold",
						"offset": 0,
						"slot": "4",
						"type": "t_uint256"
					},
					{
						"astId": 98,
						"contract": "contracts/GuardianRecoveryWallet.sol:GuardianRecoveryWallet",
						"label": "recoveries",
						"offset": 0,
						"slot": "5",
						"type": "t_mapping(t_uint256,t_struct(Recovery)93_storage)"
					},
					{
						"astId": 100,
						"contract": "contracts/GuardianRecoveryWallet.sol:GuardianRecoveryWallet",
						"label": "recoveryNonce",
						"offset": 0,
						"slot": "6",
						"type": "t_uint256"
					}
				],
				"types": {
					"t_address": {
						"encoding": "inplace",
						"label": "address",
						"numberOfBytes": "20"
					},
					"t_array(t_address)dyn_storage": {
						"base": "t_address",
						"encoding": "dynamic_array",
						"label": "address[]",
						"numberOfBytes": "32"
					},
					"t_bool": {
						"encoding": "inplace",
						"label": "bool",
						"numberOfBytes": "1"
					},
					"t_mapping(t_address,t_bool)": {
						"encoding": "mapping",
						"key": "t_address",
						"label": "mapping(address => bool)",
						"numberOfBytes": "32",
						"value": "t_bool"
					},
					"t_mapping(t_uint256,t_struct(Recovery)93_storage)": {
						"encoding": "mapping",
						"key": "t_uint256",
						"label": "mapping(uint256 => struct GuardianRecoveryWallet.Recovery)",
						"numberOfBytes": "32",
						"value": "t_struct(Recovery)93_storage"
					},
					"t_struct(Recovery)93_storage": {
						"encoding": "inplace",
						"label": "struct GuardianRecoveryWallet.Recovery",
						"members": [
							{
								"astId": 82,
								"contract": "contracts/GuardianRecoveryWallet.sol:GuardianRecoveryWallet",
								"label": "proposedOwner",
								"offset": 0,
								"slot": "0",
								"type": "t_address"
							},
							{
								"astId": 84,
								"contract": "contracts/GuardianRecoveryWallet.sol:GuardianRecoveryWallet",
								"label": "approvals",
								"offset": 0,
								"slot": "1",
								"type": "t_uint256"
							},
							{
								"astId": 86,
								"contract": "contracts/GuardianRecoveryWallet.sol:GuardianRecoveryWallet",
								"label": "createdAt",
								"offset": 0,
								"slot": "2",
								"type": "t_uint256"
							},
							{
								"astId": 88,
								"contract": "contracts/GuardianRecoveryWallet.sol:GuardianRecoveryWallet",
								"label": "executed",
								"offset": 0,
								"slot": "3",
								"type": "t_bool"
							},
							{
								"astId": 92,
								"contract": "contracts/GuardianRecoveryWallet.sol:GuardianRecoveryWallet",
								"label": "approvedBy",
								"offset": 0,
								"slot": "4",
								"type": "t_mapping(t_address,t_bool)"
							}
						],
						"numberOfBytes": "160"
					},
					"t_uint256": {
						"encoding": "inplace",
						"label": "uint256",
						"numberOfBytes": "32"
					}
				}
			},
			"userdoc": {
				"kind": "user",
				"methods": {},
				"version": 1
			}
		}
	}
}