{
	"contracts/PisoPaymaster.sol": {
		"PisoPaymaster": {
			"abi": [
				{
					"inputs": [
						{
							"internalType": "contract IERC20",
							"name": "piso_",
							"type": "address"
						},
						{
							"internalType": "address",
							"name": "admin",
							"type": "address"
						},
						{
							"internalType": "address",
							"name": "treasury_",
							"type": "address"
						}
					],
					"stateMutability": "nonpayable",
					"type": "constructor"
				},
				{
					"inputs": [],
					"name": "AccessControlBadConfirmation",
					"type": "error"
				},
				{
					"inputs": [
						{
							"internalType": "address",
							"name": "account",
							"type": "address"
						},
						{
							"internalType": "bytes32",
							"name": "neededRole",
							"type": "bytes32"
						}
					],
					"name": "AccessControlUnauthorizedAccount",
					"type": "error"
				},
				{
					"anonymous": false,
					"inputs": [
						{
							"indexed": true,
							"internalType": "address",
							"name": "user",
							"type": "address"
						},
						{
							"indexed": false,
							"internalType": "uint256",
							"name": "amount",
							"type": "uint256"
						}
					],
					"name": "Deposited",
					"type": "event"
				},
				{
					"anonymous": false,
					"inputs": [
						{
							"indexed": false,
							"internalType": "uint256",
							"name": "feeBps",
							"type": "uint256"
						},
						{
							"indexed": false,
							"internalType": "address",
							"name": "treasury",
							"type": "address"
						}
					],
					"name": "FeeParamsUpdated",
					"type": "event"
				},
				{
					"anonymous": false,
					"inputs": [
						{
							"indexed": true,
							"internalType": "address",
							"name": "relayer",
							"type": "address"
						},
						{
							"indexed": false,
							"internalType": "uint256",
							"name": "amount",
							"type": "uint256"
						},
						{
							"indexed": false,
							"internalType": "uint256",
							"name": "fee",
							"type": "uint256"
						}
					],
					"name": "RelayerPaid",
					"type": "event"
				},
				{
					"anonymous": false,
					"inputs": [
						{
							"indexed": true,
							"internalType": "bytes32",
							"name": "role",
							"type": "bytes32"
						},
						{
							"indexed": true,
							"internalType": "bytes32",
							"name": "previousAdminRole",
							"type": "bytes32"
						},
						{
							"indexed": true,
							"internalType": "bytes32",
							"name": "newAdminRole",
							"type": "bytes32"
						}
					],
					"name": "RoleAdminChanged",
					"type": "event"
				},
				{
					"anonymous": false,
					"inputs": [
						{
							"indexed": true,
							"internalType": "bytes32",
							"name": "role",
							"type": "bytes32"
						},
						{
							"indexed": true,
							"internalType": "address",
							"name": "account",
							"type": "address"
						},
						{
							"indexed": true,
							"internalType": "address",
							"name": "sender",
							"type": "address"
						}
					],
					"name": "RoleGranted",
					"type": "event"
				},
				{
					"anonymous": false,
					"inputs": [
						{
							"indexed": true,
							"internalType": "bytes32",
							"name": "role",
							"type": "bytes32"
						},
						{
							"indexed": true,
							"internalType": "address",
							"name": "account",
							"type": "address"
						},
						{
							"indexed": true,
							"internalType": "address",
							"name": "sender",
							"type": "address"
						}
					],
					"name": "RoleRevoked",
					"type": "event"
				},
				{
					"anonymous": false,
					"inputs": [
						{
							"indexed": true,
							"internalType": "address",
							"name": "user",
							"type": "address"
						},
						{
							"indexed": false,
							"internalType": "uint256",
							"name": "amount",
							"type": "uint256"
						}
					],
					"name": "Withdrawn",
					"type": "event"
				},
				{
					"inputs": [],
					"name": "DEFAULT_ADMIN_ROLE",
					"outputs": [
						{
							"internalType": "bytes32",
							"name": "",
							"type": "bytes32"
						}
					],
					"stateMutability": "view",
					"type": "function"
				},
				{
					"inputs": [],
					"name": "MANAGER_ROLE",
					"outputs": [
						{
							"internalType": "bytes32",
							"name": "",
							"type": "bytes32"
						}
					],
					"stateMutability": "view",
					"type": "function"
				},
				{
					"inputs": [
						{
							"internalType": "uint256",
							"name": "amount",
							"type": "uint256"
						}
					],
					"name": "deposit",
					"outputs": [],
					"stateMutability": "nonpayable",
					"type": "function"
				},
				{
					"inputs": [
						{
							"internalType": "address",
							"name": "",
							"type": "address"
						}
					],
					"name": "deposits",
					"outputs": [
						{
							"internalType": "uint256",
							"name": "",
							"type": "uint256"
						}
					],
					"stateMutability": "view",
					"type": "function"
				},
				{
					"inputs": [],
					"name": "feeBps",
					"outputs": [
						{
							"internalType": "uint256",
							"name": "",
							"type": "uint256"
						}
					],
					"stateMutability": "view",
					"type": "function"
				},
				{
					"inputs": [
						{
							"internalType": "bytes32",
							"name": "role",
							"type": "bytes32"
						}
					],
					"name": "getRoleAdmin",
					"outputs": [
						{
							"internalType": "bytes32",
							"name": "",
							"type": "bytes32"
						}
					],
					"stateMutability": "view",
					"type": "function"
				},
				{
					"inputs": [
						{
							"internalType": "bytes32",
							"name": "role",
							"type": "bytes32"
						},
						{
							"internalType": "address",
							"name": "account",
							"type": "address"
						}
					],
					"name": "grantRole",
					"outputs": [],
					"stateMutability": "nonpayable",
					"type": "function"
				},
				{
					"inputs": [
						{
							"internalType": "bytes32",
							"name": "role",
							"type": "bytes32"
						},
						{
							"internalType": "address",
							"name": "account",
							"type": "address"
						}
					],
					"name": "hasRole",
					"outputs": [
						{
							"internalType": "bool",
							"name": "",
							"type": "bool"
						}
					],
					"stateMutability": "view",
					"type": "function"
				},
				{
					"inputs": [
						{
							"internalType": "address",
							"name": "relayer",
							"type": "address"
						},
						{
							"internalType": "uint256",
							"name": "amount",
							"type": "uint256"
						}
					],
					"name": "payRelayer",
					"outputs": [],
					"stateMutability": "nonpayable",
					"type": "function"
				},
				{
					"inputs": [],
					"name": "piso",
					"outputs": [
						{
							"internalType": "contract IERC20",
							"name": "",
							"type": "address"
						}
					],
					"stateMutability": "view",
					"type": "function"
				},
				{
					"inputs": [
						{
							"internalType": "bytes32",
							"name": "role",
							"type": "bytes32"
						},
						{
							"internalType": "address",
							"name": "callerConfirmation",
							"type": "address"
						}
					],
					"name": "renounceRole",
					"outputs": [],
					"stateMutability": "nonpayable",
					"type": "function"
				},
				{
					"inputs": [
						{
							"internalType": "bytes32",
							"name": "role",
							"type": "bytes32"
						},
						{
							"internalType": "address",
							"name": "account",
							"type": "address"
						}
					],
					"name": "revokeRole",
					"outputs": [],
					"stateMutability": "nonpayable",
					"type": "function"
				},
				{
					"inputs": [
						{
							"internalType": "uint256",
							"name": "_feeBps",
							"type": "uint256"
						},
						{
							"internalType": "address",
							"name": "_treasury",
							"type": "address"
						}
					],
					"name": "setFeeParams",
					"outputs": [],
					"stateMutability": "nonpayable",
					"type": "function"
				},
				{
					"inputs": [
						{
							"internalType": "bytes4",
							"name": "interfaceId",
							"type": "bytes4"
						}
					],
					"name": "supportsInterface",
					"outputs": [
						{
							"internalType": "bool",
							"name": "",
							"type": "bool"
						}
					],
					"stateMutability": "view",
					"type": "function"
				},
				{
					"inputs": [
						{
							"internalType": "contract IERC20",
							"name": "token",
							"type": "address"
						},
						{
							"internalType": "address",
							"name": "to",
							"type": "address"
						},
						{
							"internalType": "uint256",
							"name": "amount",
							"type": "uint256"
						}
					],
					"name": "sweepToken",
					"outputs": [],
					"stateMutability": "nonpayable",
					"type": "function"
				},
				{
					"inputs": [],
					"name": "treasury",
					"outputs": [
						{
							"internalType": "address",
							"name": "",
							"type": "address"
						}
					],
					"stateMutability": "view",
					"type": "function"
				},
				{
					"inputs": [
						{
							"internalType": "uint256",
							"name": "amount",
							"type": "uint256"
						}
					],
					"name": "withdraw",
					"outputs": [],
					"stateMutability": "nonpayable",
					"type": "function"
				}
			],
			"devdoc": {
				"errors": {
					"AccessControlBadConfirmation()": [
						{
							"details": "The caller of a function is not the expected one. NOTE: Don't confuse with {AccessControlUnauthorizedAccount}."
						}
					],
					"AccessControlUnauthorizedAccount(address,bytes32)": [
						{
							"details": "The `account` is missing a role."
						}
					]
				},
				"events": {
					"RoleAdminChanged(bytes32,bytes32,bytes32)": {
						"details": "Emitted when `newAdminRole` is set as ``role``'s admin role, replacing `previousAdminRole` `DEFAULT_ADMIN_ROLE` is the starting admin for all roles, despite {RoleAdminChanged} not being emitted to signal this."
					},
					"RoleGranted(bytes32,address,address)": {
						"details": "Emitted when `account` is granted `role`. `sender` is the account that originated the contract call. This account bears the admin role (for the granted role). Expected in cases where the role was granted using the internal {AccessControl-_grantRole}."
					},
					"RoleRevoked(bytes32,address,address)": {
						"details": "Emitted when `account` is revoked `role`. `sender` is the account that originated the contract call:   - if using `revokeRole`, it is the admin role bearer   - if using `renounceRole`, it is the role bearer (i.e. `account`)"
					}
				},
				"kind": "dev",
				"methods": {
					"getRoleAdmin(bytes32)": {
						"details": "Returns the admin role that controls `role`. See {grantRole} and {revokeRole}. To change a role's admin, use {_setRoleAdmin}."
					},
					"grantRole(bytes32,address)": {
						"details": "Grants `role` to `account`. If `account` had not been already granted `role`, emits a {RoleGranted} event. Requirements: - the caller must have ``role``'s admin role. May emit a {RoleGranted} event."
					},
					"hasRole(bytes32,address)": {
						"details": "Returns `true` if `account` has been granted `role`."
					},
					"renounceRole(bytes32,address)": {
						"details": "Revokes `role` from the calling account. Roles are often managed via {grantRole} and {revokeRole}: this function's purpose is to provide a mechanism for accounts to lose their privileges if they are compromised (such as when a trusted device is misplaced). If the calling account had been revoked `role`, emits a {RoleRevoked} event. Requirements: - the caller must be `callerConfirmation`. May emit a {RoleRevoked} event."
					},
					"revokeRole(bytes32,address)": {
						"details": "Revokes `role` from `account`. If `account` had been granted `role`, emits a {RoleRevoked} event. Requirements: - the caller must have ``role``'s admin role. May emit a {RoleRevoked} event."
					},
					"supportsInterface(bytes4)": {
						"details": "Returns true if this contract implements the interface defined by `interfaceId`. See the corresponding https://eips.ethereum.org/EIPS/eip-165#how-interfaces-are-identified[ERC section] to learn more about how these ids are created. This function call must use less than 30 000 gas."
					}
				},
				"version": 1
			},
			"evm": {
				"assembly": "    /* \"contracts/PisoPaymaster.sol\":238:2891  contract PisoPaymaster is AccessControl, ReentrancyGuard {... */\n  mstore(0x40, 0xa0)\n    /* \"contracts/PisoPaymaster.sol\":430:432  50 */\n  0x32\n    /* \"contracts/PisoPaymaster.sol\":406:432  uint256 public feeBps = 50 */\n  0x02\n  sstore\n    /* \"contracts/PisoPaymaster.sol\":776:983  constructor(IERC20 piso_, address admin, address treasury_) {... */\n  callvalue\n  dup1\n  iszero\n  tag_1\n  jumpi\n  0x00\n  dup1\n  revert\ntag_1:\n  pop\n  mload(0x40)\n  sub(codesize, bytecodeSize)\n  dup1\n  bytecodeSize\n  dup4\n  codecopy\n  dup2\n  dup2\n  add\n  0x40\n  mstore\n  dup2\n  add\n  swap1\n  tag_2\n  swap2\n  swap1\n  tag_3\n  jump\t// in\ntag_2:\n    /* \"@openzeppelin/contracts/security/ReentrancyGuard.sol\":1716:1717  1 */\n  0x01\n    /* \"@openzeppelin/contracts/security/ReentrancyGuard.sol\":1821:1828  _status */\n  dup1\n    /* \"@openzeppelin/contracts/security/ReentrancyGuard.sol\":1821:1843  _status = _NOT_ENTERED */\n  dup2\n  swap1\n  sstore\n  pop\n    /* \"contracts/PisoPaymaster.sol\":853:858  piso_ */\n  dup3\n    /* \"contracts/PisoPaymaster.sol\":846:858  piso = piso_ */\n  0xffffffffffffffffffffffffffffffffffffffff\n  and\n  0x80\n  dup2\n  0xffffffffffffffffffffffffffffffffffffffff\n  and\n  dup2\n  mstore\n  pop\n  pop\n    /* \"contracts/PisoPaymaster.sol\":868:905  _grantRole(DEFAULT_ADMIN_ROLE, admin) */\n  tag_8\n    /* \"@openzeppelin/contracts/access/AccessControl.sol\":2241:2245  0x00 */\n  0x00\n    /* \"contracts/PisoPaymaster.sol\":879:897  DEFAULT_ADMIN_ROLE */\n  dup1\n  shl\n    /* \"contracts/PisoPaymaster.sol\":899:904  admin */\n  dup4\n    /* \"contracts/PisoPaymaster.sol\":868:878  _grantRole */\n  shl(0x20, tag_9)\n    /* \"contracts/PisoPaymaster.sol\":868:905  _grantRole(DEFAULT_ADMIN_ROLE, admin) */\n  0x20\n  shr\n  jump\t// in\ntag_8:\n  pop\n    /* \"contracts/PisoPaymaster.sol\":915:946  _grantRole(MANAGER_ROLE, admin) */\n  tag_10\n    /* \"contracts/PisoPaymaster.sol\":340:365  keccak256(\"MANAGER_ROLE\") */\n  0x241ecf16d79d0f8dbfb92cbc07fe17840425976cf0667f022fe9877caa831b08\n    /* \"contracts/PisoPaymaster.sol\":940:945  admin */\n  dup4\n    /* \"contracts/PisoPaymaster.sol\":915:925  _grantRole */\n  shl(0x20, tag_9)\n    /* \"contracts/PisoPaymaster.sol\":915:946  _grantRole(MANAGER_ROLE, admin) */\n  0x20\n  shr\n  jump\t// in\ntag_10:\n  pop\n    /* \"contracts/PisoPaymaster.sol\":967:976  treasury_ */\n  dup1\n    /* \"contracts/PisoPaymaster.sol\":956:964  treasury */\n  0x03\n  0x00\n    /* \"contracts/PisoPaymaster.sol\":956:976  treasury = treasury_ */\n  0x0100\n  exp\n  dup2\n  sload\n  dup2\n  0xffffffffffffffffffffffffffffffffffffffff\n  mul\n  not\n  and\n  swap1\n  dup4\n  0xffffffffffffffffffffffffffffffffffffffff\n  and\n  mul\n  or\n  swap1\n  sstore\n  pop\n    /* \"contracts/PisoPaymaster.sol\":776:983  constructor(IERC20 piso_, address admin, address treasury_) {... */\n  pop\n  pop\n  pop\n    /* \"contracts/PisoPaymaster.sol\":238:2891  contract PisoPaymaster is AccessControl, ReentrancyGuard {... */\n  jump(tag_11)\n    /* \"@openzeppelin/contracts/access/AccessControl.sol\":6155:6471  function _grantRole(bytes32 role, address account) internal virtual returns (bool) {... */\ntag_9:\n    /* \"@openzeppelin/contracts/access/AccessControl.sol\":6232:6236  bool */\n  0x00\n    /* \"@openzeppelin/contracts/access/AccessControl.sol\":6253:6275  hasRole(role, account) */\n  tag_13\n    /* \"@openzeppelin/contracts/access/AccessControl.sol\":6261:6265  role */\n  dup4\n    /* \"@openzeppelin/contracts/access/AccessControl.sol\":6267:6274  account */\n  dup4\n    /* \"@openzeppelin/contracts/access/AccessControl.sol\":6253:6260  hasRole */\n  shl(0x20, tag_14)\n    /* \"@openzeppelin/contracts/access/AccessControl.sol\":6253:6275  hasRole(role, account) */\n  0x20\n  shr\n  jump\t// in\ntag_13:\n    /* \"@openzeppelin/contracts/access/AccessControl.sol\":6248:6465  if (!hasRole(role, account)) {... */\n  tag_15\n  jumpi\n    /* \"@openzeppelin/contracts/access/AccessControl.sol\":6323:6327  true */\n  0x01\n    /* \"@openzeppelin/contracts/access/AccessControl.sol\":6291:6297  _roles */\n  0x00\n    /* \"@openzeppelin/contracts/access/AccessControl.sol\":6291:6303  _roles[role] */\n  dup1\n    /* \"@openzeppelin/contracts/access/AccessControl.sol\":6298:6302  role */\n  dup6\n    /* \"@openzeppelin/contracts/access/AccessControl.sol\":6291:6303  _roles[role] */\n  dup2\n  mstore\n  0x20\n  add\n  swap1\n  dup2\n  mstore\n  0x20\n  add\n  0x00\n  keccak256\n    /* \"@openzeppelin/contracts/access/AccessControl.sol\":6291:6311  _roles[role].hasRole */\n  0x00\n  add\n    /* \"@openzeppelin/contracts/access/AccessControl.sol\":6291:6320  _roles[role].hasRole[account] */\n  0x00\n    /* \"@openzeppelin/contracts/access/AccessControl.sol\":6312:6319  account */\n  dup5\n    /* \"@openzeppelin/contracts/access/AccessControl.sol\":6291:6320  _roles[role].hasRole[account] */\n  0xffffffffffffffffffffffffffffffffffffffff\n  and\n  0xffffffffffffffffffffffffffffffffffffffff\n  and\n  dup2\n  mstore\n  0x20\n  add\n  swap1\n  dup2\n  mstore\n  0x20\n  add\n  0x00\n  keccak256\n  0x00\n    /* \"@openzeppelin/contracts/access/AccessControl.sol\":6291:6327  _roles[role].hasRole[account] = true */\n  0x0100\n  exp\n  dup2\n  sload\n  dup2\n  0xff\n  mul\n  not\n  and\n  swap1\n  dup4\n  iszero\n  iszero\n  mul\n  or\n  swap1\n  sstore\n  pop\n    /* \"@openzeppelin/contracts/access/AccessControl.sol\":6373:6385  _msgSender() */\n  tag_16\n    /* \"@openzeppelin/contracts/access/AccessControl.sol\":6373:6383  _msgSender */\n  shl(0x20, tag_17)\n    /* \"@openzeppelin/contracts/access/AccessControl.sol\":6373:6385  _msgSender() */\n  0x20\n  shr\n  jump\t// in\ntag_16:\n    /* \"@openzeppelin/contracts/access/AccessControl.sol\":6346:6386  RoleGranted(role, account, _msgSender()) */\n  0xffffffffffffffffffffffffffffffffffffffff\n  and\n    /* \"@openzeppelin/contracts/access/AccessControl.sol\":6364:6371  account */\n  dup3\n    /* \"@openzeppelin/contracts/access/AccessControl.sol\":6346:6386  RoleGranted(role, account, _msgSender()) */\n  0xffffffffffffffffffffffffffffffffffffffff\n  and\n    /* \"@openzeppelin/contracts/access/AccessControl.sol\":6358:6362  role */\n  dup5\n    /* \"@openzeppelin/contracts/access/AccessControl.sol\":6346:6386  RoleGranted(role, account, _msgSender()) */\n  0x2f8788117e7eff1d82e926ec794901d17c78024a50270940304540a733656f0d\n  mload(0x40)\n  mload(0x40)\n  dup1\n  swap2\n  sub\n  swap1\n  log4\n    /* \"@openzeppelin/contracts/access/AccessControl.sol\":6407:6411  true */\n  0x01\n    /* \"@openzeppelin/contracts/access/AccessControl.sol\":6400:6411  return true */\n  swap1\n  pop\n  jump(tag_12)\n    /* \"@openzeppelin/contracts/access/AccessControl.sol\":6248:6465  if (!hasRole(role, account)) {... */\ntag_15:\n    /* \"@openzeppelin/contracts/access/AccessControl.sol\":6449:6454  false */\n  0x00\n    /* \"@openzeppelin/contracts/access/AccessControl.sol\":6442:6454  return false */\n  swap1\n  pop\n    /* \"@openzeppelin/contracts/access/AccessControl.sol\":6155:6471  function _grantRole(bytes32 role, address account) internal virtual returns (bool) {... */\ntag_12:\n  swap3\n  swap2\n  pop\n  pop\n  jump\t// out\n    /* \"@openzeppelin/contracts/access/AccessControl.sol\":2830:2966  function hasRole(bytes32 role, address account) public view virtual returns (bool) {... */\ntag_14:\n    /* \"@openzeppelin/contracts/access/AccessControl.sol\":2907:2911  bool */\n  0x00\n    /* \"@openzeppelin/contracts/access/AccessControl.sol\":2930:2936  _roles */\n  dup1\n    /* \"@openzeppelin/contracts/access/AccessControl.sol\":2930:2942  _roles[role] */\n  0x00\n    /* \"@openzeppelin/contracts/access/AccessControl.sol\":2937:2941  role */\n  dup5\n    /* \"@openzeppelin/contracts/access/AccessControl.sol\":2930:2942  _roles[role] */\n  dup2\n  mstore\n  0x20\n  add\n  swap1\n  dup2\n  mstore\n  0x20\n  add\n  0x00\n  keccak256\n    /* \"@openzeppelin/contracts/access/AccessControl.sol\":2930:2950  _roles[role].hasRole */\n  0x00\n  add\n    /* \"@openzeppelin/contracts/access/AccessControl.sol\":2930:2959  _roles[role].hasRole[account] */\n  0x00\n    /* \"@openzeppelin/contracts/access/AccessControl.sol\":2951:2958  account */\n  dup4\n    /* \"@openzeppelin/contracts/access/AccessControl.sol\":2930:2959  _roles[role].hasRole[account] */\n  0xffffffffffffffffffffffffffffffffffffffff\n  and\n  0xffffffffffffffffffffffffffffffffffffffff\n  and\n  dup2\n  mstore\n  0x20\n  add\n  swap1\n  dup2\n  mstore\n  0x20\n  add\n  0x00\n  keccak256\n  0x00\n  swap1\n  sload\n  swap1\n  0x0100\n  exp\n  swap1\n  div\n  0xff\n  and\n    /* \"@openzeppelin/contracts/access/AccessControl.sol\":2923:2959  return _roles[role].hasRole[account] */\n  swap1\n  pop\n    /* \"@openzeppelin/contracts/access/AccessControl.sol\":2830:2966  function hasRole(bytes32 role, address account) public view virtual returns (bool) {... */\n  swap3\n  swap2\n  pop\n  pop\n  jump\t// out\n    /* \"@openzeppelin/contracts/utils/Context.sol\":656:752  function _msgSender() internal view virtual returns (address) {... */\ntag_17:\n    /* \"@openzeppelin/contracts/utils/Context.sol\":709:716  address */\n  0x00\n    /* \"@openzeppelin/contracts/utils/Context.sol\":735:745  msg.sender */\n  caller\n    /* \"@openzeppelin/contracts/utils/Context.sol\":728:745  return msg.sender */\n  swap1\n  pop\n    /* \"@openzeppelin/contracts/utils/Context.sol\":656:752  function _msgSender() internal view virtual returns (address) {... */\n  swap1\n  jump\t// out\n    /* \"#utility.yul\":88:205   */\ntag_22:\n    /* \"#utility.yul\":197:198   */\n  0x00\n    /* \"#utility.yul\":194:195   */\n  dup1\n    /* \"#utility.yul\":187:199   */\n  revert\n    /* \"#utility.yul\":334:460   */\ntag_24:\n    /* \"#utility.yul\":371:378   */\n  0x00\n    /* \"#utility.yul\":411:453   */\n  0xffffffffffffffffffffffffffffffffffffffff\n    /* \"#utility.yul\":404:409   */\n  dup3\n    /* \"#utility.yul\":400:454   */\n  and\n    /* \"#utility.yul\":389:454   */\n  swap1\n  pop\n    /* \"#utility.yul\":334:460   */\n  swap2\n  swap1\n  pop\n  jump\t// out\n    /* \"#utility.yul\":466:562   */\ntag_25:\n    /* \"#utility.yul\":503:510   */\n  0x00\n    /* \"#utility.yul\":532:556   */\n  tag_37\n    /* \"#utility.yul\":550:555   */\n  dup3\n    /* \"#utility.yul\":532:556   */\n  tag_24\n  jump\t// in\ntag_37:\n    /* \"#utility.yul\":521:556   */\n  swap1\n  pop\n    /* \"#utility.yul\":466:562   */\n  swap2\n  swap1\n  pop\n  jump\t// out\n    /* \"#utility.yul\":568:678   */\ntag_26:\n    /* \"#utility.yul\":619:626   */\n  0x00\n    /* \"#utility.yul\":648:672   */\n  tag_39\n    /* \"#utility.yul\":666:671   */\n  dup3\n    /* \"#utility.yul\":648:672   */\n  tag_25\n  jump\t// in\ntag_39:\n    /* \"#utility.yul\":637:672   */\n  swap1\n  pop\n    /* \"#utility.yul\":568:678   */\n  swap2\n  swap1\n  pop\n  jump\t// out\n    /* \"#utility.yul\":684:834   */\ntag_27:\n    /* \"#utility.yul\":771:809   */\n  tag_41\n    /* \"#utility.yul\":803:808   */\n  dup2\n    /* \"#utility.yul\":771:809   */\n  tag_26\n  jump\t// in\ntag_41:\n    /* \"#utility.yul\":764:769   */\n  dup2\n    /* \"#utility.yul\":761:810   */\n  eq\n    /* \"#utility.yul\":751:828   */\n  tag_42\n  jumpi\n    /* \"#utility.yul\":824:825   */\n  0x00\n    /* \"#utility.yul\":821:822   */\n  dup1\n    /* \"#utility.yul\":814:826   */\n  revert\n    /* \"#utility.yul\":751:828   */\ntag_42:\n    /* \"#utility.yul\":684:834   */\n  pop\n  jump\t// out\n    /* \"#utility.yul\":840:1011   */\ntag_28:\n    /* \"#utility.yul\":911:916   */\n  0x00\n    /* \"#utility.yul\":942:948   */\n  dup2\n    /* \"#utility.yul\":936:949   */\n  mload\n    /* \"#utility.yul\":927:949   */\n  swap1\n  pop\n    /* \"#utility.yul\":958:1005   */\n  tag_44\n    /* \"#utility.yul\":999:1004   */\n  dup2\n    /* \"#utility.yul\":958:1005   */\n  tag_27\n  jump\t// in\ntag_44:\n    /* \"#utility.yul\":840:1011   */\n  swap3\n  swap2\n  pop\n  pop\n  jump\t// out\n    /* \"#utility.yul\":1017:1139   */\ntag_29:\n    /* \"#utility.yul\":1090:1114   */\n  tag_46\n    /* \"#utility.yul\":1108:1113   */\n  dup2\n    /* \"#utility.yul\":1090:1114   */\n  tag_25\n  jump\t// in\ntag_46:\n    /* \"#utility.yul\":1083:1088   */\n  dup2\n    /* \"#utility.yul\":1080:1115   */\n  eq\n    /* \"#utility.yul\":1070:1133   */\n  tag_47\n  jumpi\n    /* \"#utility.yul\":1129:1130   */\n  0x00\n    /* \"#utility.yul\":1126:1127   */\n  dup1\n    /* \"#utility.yul\":1119:1131   */\n  revert\n    /* \"#utility.yul\":1070:1133   */\ntag_47:\n    /* \"#utility.yul\":1017:1139   */\n  pop\n  jump\t// out\n    /* \"#utility.yul\":1145:1288   */\ntag_30:\n    /* \"#utility.yul\":1202:1207   */\n  0x00\n    /* \"#utility.yul\":1233:1239   */\n  dup2\n    /* \"#utility.yul\":1227:1240   */\n  mload\n    /* \"#utility.yul\":1218:1240   */\n  swap1\n  pop\n    /* \"#utility.yul\":1249:1282   */\n  tag_49\n    /* \"#utility.yul\":1276:1281   */\n  dup2\n    /* \"#utility.yul\":1249:1282   */\n  tag_29\n  jump\t// in\ntag_49:\n    /* \"#utility.yul\":1145:1288   */\n  swap3\n  swap2\n  pop\n  pop\n  jump\t// out\n    /* \"#utility.yul\":1294:1985   */\ntag_3:\n    /* \"#utility.yul\":1396:1402   */\n  0x00\n    /* \"#utility.yul\":1404:1410   */\n  dup1\n    /* \"#utility.yul\":1412:1418   */\n  0x00\n    /* \"#utility.yul\":1461:1463   */\n  0x60\n    /* \"#utility.yul\":1449:1458   */\n  dup5\n    /* \"#utility.yul\":1440:1447   */\n  dup7\n    /* \"#utility.yul\":1436:1459   */\n  sub\n    /* \"#utility.yul\":1432:1464   */\n  slt\n    /* \"#utility.yul\":1429:1548   */\n  iszero\n  tag_51\n  jumpi\n    /* \"#utility.yul\":1467:1546   */\n  tag_52\n  tag_22\n  jump\t// in\ntag_52:\n    /* \"#utility.yul\":1429:1548   */\ntag_51:\n    /* \"#utility.yul\":1587:1588   */\n  0x00\n    /* \"#utility.yul\":1612:1690   */\n  tag_53\n    /* \"#utility.yul\":1682:1689   */\n  dup7\n    /* \"#utility.yul\":1673:1679   */\n  dup3\n    /* \"#utility.yul\":1662:1671   */\n  dup8\n    /* \"#utility.yul\":1658:1680   */\n  add\n    /* \"#utility.yul\":1612:1690   */\n  tag_28\n  jump\t// in\ntag_53:\n    /* \"#utility.yul\":1602:1690   */\n  swap4\n  pop\n    /* \"#utility.yul\":1558:1700   */\n  pop\n    /* \"#utility.yul\":1739:1741   */\n  0x20\n    /* \"#utility.yul\":1765:1829   */\n  tag_54\n    /* \"#utility.yul\":1821:1828   */\n  dup7\n    /* \"#utility.yul\":1812:1818   */\n  dup3\n    /* \"#utility.yul\":1801:1810   */\n  dup8\n    /* \"#utility.yul\":1797:1819   */\n  add\n    /* \"#utility.yul\":1765:1829   */\n  tag_30\n  jump\t// in\ntag_54:\n    /* \"#utility.yul\":1755:1829   */\n  swap3\n  pop\n    /* \"#utility.yul\":1710:1839   */\n  pop\n    /* \"#utility.yul\":1878:1880   */\n  0x40\n    /* \"#utility.yul\":1904:1968   */\n  tag_55\n    /* \"#utility.yul\":1960:1967   */\n  dup7\n    /* \"#utility.yul\":1951:1957   */\n  dup3\n    /* \"#utility.yul\":1940:1949   */\n  dup8\n    /* \"#utility.yul\":1936:1958   */\n  add\n    /* \"#utility.yul\":1904:1968   */\n  tag_30\n  jump\t// in\ntag_55:\n    /* \"#utility.yul\":1894:1968   */\n  swap2\n  pop\n    /* \"#utility.yul\":1849:1978   */\n  pop\n    /* \"#utility.yul\":1294:1985   */\n  swap3\n  pop\n  swap3\n  pop\n  swap3\n  jump\t// out\n    /* \"contracts/PisoPaymaster.sol\":238:2891  contract PisoPaymaster is AccessControl, ReentrancyGuard {... */\ntag_11:\n  mload(0x80)\n  codecopy(0x00, dataOffset(sub_0), dataSize(sub_0))\n  0x00\n  assignImmutable(\"0x84a03125b104c11968e358d5f682f85e2d800fa6885d3315fc7e189cab9d099b\")\n  return(0x00, dataSize(sub_0))\nstop\n\nsub_0: assembly {\n        /* \"contracts/PisoPaymaster.sol\":238:2891  contract PisoPaymaster is AccessControl, ReentrancyGuard {... */\n      mstore(0x40, 0x80)\n      callvalue\n      dup1\n      iszero\n      tag_1\n      jumpi\n      0x00\n      dup1\n      revert\n    tag_1:\n      pop\n      jumpi(tag_2, lt(calldatasize, 0x04))\n      shr(0xe0, calldataload(0x00))\n      dup1\n      0x64aff9ec\n      gt\n      tag_20\n      jumpi\n      dup1\n      0xb6b55f25\n      gt\n      tag_21\n      jumpi\n      dup1\n      0xb6b55f25\n      eq\n      tag_15\n      jumpi\n      dup1\n      0xd547741f\n      eq\n      tag_16\n      jumpi\n      dup1\n      0xd9cc6248\n      eq\n      tag_17\n      jumpi\n      dup1\n      0xec87621c\n      eq\n      tag_18\n      jumpi\n      dup1\n      0xfc7e286d\n      eq\n      tag_19\n      jumpi\n      jump(tag_2)\n    tag_21:\n      dup1\n      0x64aff9ec\n      eq\n      tag_11\n      jumpi\n      dup1\n      0x91d14854\n      eq\n      tag_12\n      jumpi\n      dup1\n      0x92dce564\n      eq\n      tag_13\n      jumpi\n      dup1\n      0xa217fddf\n      eq\n      tag_14\n      jumpi\n      jump(tag_2)\n    tag_20:\n      dup1\n      0x2e1a7d4d\n      gt\n      tag_22\n      jumpi\n      dup1\n      0x2e1a7d4d\n      eq\n      tag_7\n      jumpi\n      dup1\n      0x2f2ff15d\n      eq\n      tag_8\n      jumpi\n      dup1\n      0x36568abe\n      eq\n      tag_9\n      jumpi\n      dup1\n      0x61d027b3\n      eq\n      tag_10\n      jumpi\n      jump(tag_2)\n    tag_22:\n      dup1\n      0x8683bd\n      eq\n      tag_3\n      jumpi\n      dup1\n      0x01ffc9a7\n      eq\n      tag_4\n      jumpi\n      dup1\n      0x248a9ca3\n      eq\n      tag_5\n      jumpi\n      dup1\n      0x24a9d853\n      eq\n      tag_6\n      jumpi\n    tag_2:\n      0x00\n      dup1\n      revert\n        /* \"contracts/PisoPaymaster.sol\":1894:2196  function payRelayer(address relayer, uint256 amount) external nonReentrant {... */\n    tag_3:\n      tag_23\n      0x04\n      dup1\n      calldatasize\n      sub\n      dup2\n      add\n      swap1\n      tag_24\n      swap2\n      swap1\n      tag_25\n      jump\t// in\n    tag_24:\n      tag_26\n      jump\t// in\n    tag_23:\n      stop\n        /* \"@openzeppelin/contracts/access/AccessControl.sol\":2541:2743  function supportsInterface(bytes4 interfaceId) public view virtual override returns (bool) {... */\n    tag_4:\n      tag_27\n      0x04\n      dup1\n      calldatasize\n      sub\n      dup2\n      add\n      swap1\n      tag_28\n      swap2\n      swap1\n      tag_29\n      jump\t// in\n    tag_28:\n      tag_30\n      jump\t// in\n    tag_27:\n      mload(0x40)\n      tag_31\n      swap2\n      swap1\n      tag_32\n      jump\t// in\n    tag_31:\n      mload(0x40)\n      dup1\n      swap2\n      sub\n      swap1\n      return\n        /* \"@openzeppelin/contracts/access/AccessControl.sol\":3786:3906  function getRoleAdmin(bytes32 role) public view virtual returns (bytes32) {... */\n    tag_5:\n      tag_33\n      0x04\n      dup1\n      calldatasize\n      sub\n      dup2\n      add\n      swap1\n      tag_34\n      swap2\n      swap1\n      tag_35\n      jump\t// in\n    tag_34:\n      tag_36\n      jump\t// in\n    tag_33:\n      mload(0x40)\n      tag_37\n      swap2\n      swap1\n      tag_38\n      jump\t// in\n    tag_37:\n      mload(0x40)\n      dup1\n      swap2\n      sub\n      swap1\n      return\n        /* \"contracts/PisoPaymaster.sol\":406:432  uint256 public feeBps = 50 */\n    tag_6:\n      tag_39\n      tag_40\n      jump\t// in\n    tag_39:\n      mload(0x40)\n      tag_41\n      swap2\n      swap1\n      tag_42\n      jump\t// in\n    tag_41:\n      mload(0x40)\n      dup1\n      swap2\n      sub\n      swap1\n      return\n        /* \"contracts/PisoPaymaster.sol\":1268:1628  function withdraw(uint256 amount) external nonReentrant {... */\n    tag_7:\n      tag_43\n      0x04\n      dup1\n      calldatasize\n      sub\n      dup2\n      add\n      swap1\n      tag_44\n      swap2\n      swap1\n      tag_45\n      jump\t// in\n    tag_44:\n      tag_46\n      jump\t// in\n    tag_43:\n      stop\n        /* \"@openzeppelin/contracts/access/AccessControl.sol\":4202:4338  function grantRole(bytes32 role, address account) public virtual onlyRole(getRoleAdmin(role)) {... */\n    tag_8:\n      tag_47\n      0x04\n      dup1\n      calldatasize\n      sub\n      dup2\n      add\n      swap1\n      tag_48\n      swap2\n      swap1\n      tag_49\n      jump\t// in\n    tag_48:\n      tag_50\n      jump\t// in\n    tag_47:\n      stop\n        /* \"@openzeppelin/contracts/access/AccessControl.sol\":5304:5549  function renounceRole(bytes32 role, address callerConfirmation) public virtual {... */\n    tag_9:\n      tag_51\n      0x04\n      dup1\n      calldatasize\n      sub\n      dup2\n      add\n      swap1\n      tag_52\n      swap2\n      swap1\n      tag_49\n      jump\t// in\n    tag_52:\n      tag_53\n      jump\t// in\n    tag_51:\n      stop\n        /* \"contracts/PisoPaymaster.sol\":438:461  address public treasury */\n    tag_10:\n      tag_54\n      tag_55\n      jump\t// in\n    tag_54:\n      mload(0x40)\n      tag_56\n      swap2\n      swap1\n      tag_57\n      jump\t// in\n    tag_56:\n      mload(0x40)\n      dup1\n      swap2\n      sub\n      swap1\n      return\n        /* \"contracts/PisoPaymaster.sol\":2724:2889  function sweepToken(IERC20 token, address to, uint256 amount) external onlyRole(MANAGER_ROLE) {... */\n    tag_11:\n      tag_58\n      0x04\n      dup1\n      calldatasize\n      sub\n      dup2\n      add\n      swap1\n      tag_59\n      swap2\n      swap1\n      tag_60\n      jump\t// in\n    tag_59:\n      tag_61\n      jump\t// in\n    tag_58:\n      stop\n        /* \"@openzeppelin/contracts/access/AccessControl.sol\":2830:2966  function hasRole(bytes32 role, address account) public view virtual returns (bool) {... */\n    tag_12:\n      tag_62\n      0x04\n      dup1\n      calldatasize\n      sub\n      dup2\n      add\n      swap1\n      tag_63\n      swap2\n      swap1\n      tag_49\n      jump\t// in\n    tag_63:\n      tag_64\n      jump\t// in\n    tag_62:\n      mload(0x40)\n      tag_65\n      swap2\n      swap1\n      tag_32\n      jump\t// in\n    tag_65:\n      mload(0x40)\n      dup1\n      swap2\n      sub\n      swap1\n      return\n        /* \"contracts/PisoPaymaster.sol\":1634:1888  function setFeeParams(uint256 _feeBps, address _treasury) external onlyRole(MANAGER_ROLE) {... */\n    tag_13:\n      tag_66\n      0x04\n      dup1\n      calldatasize\n      sub\n      dup2\n      add\n      swap1\n      tag_67\n      swap2\n      swap1\n      tag_68\n      jump\t// in\n    tag_67:\n      tag_69\n      jump\t// in\n    tag_66:\n      stop\n        /* \"@openzeppelin/contracts/access/AccessControl.sol\":2196:2245  bytes32 public constant DEFAULT_ADMIN_ROLE = 0x00 */\n    tag_14:\n      tag_70\n      tag_71\n      jump\t// in\n    tag_70:\n      mload(0x40)\n      tag_72\n      swap2\n      swap1\n      tag_38\n      jump\t// in\n    tag_72:\n      mload(0x40)\n      dup1\n      swap2\n      sub\n      swap1\n      return\n        /* \"contracts/PisoPaymaster.sol\":989:1262  function deposit(uint256 amount) external nonReentrant {... */\n    tag_15:\n      tag_73\n      0x04\n      dup1\n      calldatasize\n      sub\n      dup2\n      add\n      swap1\n      tag_74\n      swap2\n      swap1\n      tag_45\n      jump\t// in\n    tag_74:\n      tag_75\n      jump\t// in\n    tag_73:\n      stop\n        /* \"@openzeppelin/contracts/access/AccessControl.sol\":4618:4756  function revokeRole(bytes32 role, address account) public virtual onlyRole(getRoleAdmin(role)) {... */\n    tag_16:\n      tag_76\n      0x04\n      dup1\n      calldatasize\n      sub\n      dup2\n      add\n      swap1\n      tag_77\n      swap2\n      swap1\n      tag_49\n      jump\t// in\n    tag_77:\n      tag_78\n      jump\t// in\n    tag_76:\n      stop\n        /* \"contracts/PisoPaymaster.sol\":372:400  IERC20 public immutable piso */\n    tag_17:\n      tag_79\n      tag_80\n      jump\t// in\n    tag_79:\n      mload(0x40)\n      tag_81\n      swap2\n      swap1\n      tag_82\n      jump\t// in\n    tag_81:\n      mload(0x40)\n      dup1\n      swap2\n      sub\n      swap1\n      return\n        /* \"contracts/PisoPaymaster.sol\":301:365  bytes32 public constant MANAGER_ROLE = keccak256(\"MANAGER_ROLE\") */\n    tag_18:\n      tag_83\n      tag_84\n      jump\t// in\n    tag_83:\n      mload(0x40)\n      tag_85\n      swap2\n      swap1\n      tag_38\n      jump\t// in\n    tag_85:\n      mload(0x40)\n      dup1\n      swap2\n      sub\n      swap1\n      return\n        /* \"contracts/PisoPaymaster.sol\":468:511  mapping(address => uint256) public deposits */\n    tag_19:\n      tag_86\n      0x04\n      dup1\n      calldatasize\n      sub\n      dup2\n      add\n      swap1\n      tag_87\n      swap2\n      swap1\n      tag_88\n      jump\t// in\n    tag_87:\n      tag_89\n      jump\t// in\n    tag_86:\n      mload(0x40)\n      tag_90\n      swap2\n      swap1\n      tag_42\n      jump\t// in\n    tag_90:\n      mload(0x40)\n      dup1\n      swap2\n      sub\n      swap1\n      return\n        /* \"contracts/PisoPaymaster.sol\":1894:2196  function payRelayer(address relayer, uint256 amount) external nonReentrant {... */\n    tag_26:\n        /* \"@openzeppelin/contracts/security/ReentrancyGuard.sol\":2261:2282  _nonReentrantBefore() */\n      tag_92\n        /* \"@openzeppelin/contracts/security/ReentrancyGuard.sol\":2261:2280  _nonReentrantBefore */\n      tag_93\n        /* \"@openzeppelin/contracts/security/ReentrancyGuard.sol\":2261:2282  _nonReentrantBefore() */\n      jump\t// in\n    tag_92:\n        /* \"contracts/PisoPaymaster.sol\":1996:1997  0 */\n      0x00\n        /* \"contracts/PisoPaymaster.sol\":1987:1993  amount */\n      dup2\n        /* \"contracts/PisoPaymaster.sol\":1987:1997  amount > 0 */\n      gt\n        /* \"contracts/PisoPaymaster.sol\":1979:2006  require(amount > 0, \"zero\") */\n      tag_95\n      jumpi\n      mload(0x40)\n      0x08c379a000000000000000000000000000000000000000000000000000000000\n      dup2\n      mstore\n      0x04\n      add\n      tag_96\n      swap1\n      tag_97\n      jump\t// in\n    tag_96:\n      mload(0x40)\n      dup1\n      swap2\n      sub\n      swap1\n      revert\n    tag_95:\n        /* \"contracts/PisoPaymaster.sol\":2016:2027  uint256 bal */\n      0x00\n        /* \"contracts/PisoPaymaster.sol\":2030:2038  deposits */\n      0x04\n        /* \"contracts/PisoPaymaster.sol\":2030:2050  deposits[msg.sender] */\n      0x00\n        /* \"contracts/PisoPaymaster.sol\":2039:2049  msg.sender */\n      caller\n        /* \"contracts/PisoPaymaster.sol\":2030:2050  deposits[msg.sender] */\n      0xffffffffffffffffffffffffffffffffffffffff\n      and\n      0xffffffffffffffffffffffffffffffffffffffff\n      and\n      dup2\n      mstore\n      0x20\n      add\n      swap1\n      dup2\n      mstore\n      0x20\n      add\n      0x00\n      keccak256\n      sload\n        /* \"contracts/PisoPaymaster.sol\":2016:2050  uint256 bal = deposits[msg.sender] */\n      swap1\n      pop\n        /* \"contracts/PisoPaymaster.sol\":2075:2081  amount */\n      dup2\n        /* \"contracts/PisoPaymaster.sol\":2068:2071  bal */\n      dup2\n        /* \"contracts/PisoPaymaster.sol\":2068:2081  bal >= amount */\n      lt\n      iszero\n        /* \"contracts/PisoPaymaster.sol\":2060:2106  require(bal >= amount, \"insufficient deposit\") */\n      tag_98\n      jumpi\n      mload(0x40)\n      0x08c379a000000000000000000000000000000000000000000000000000000000\n      dup2\n      mstore\n      0x04\n      add\n      tag_99\n      swap1\n      tag_100\n      jump\t// in\n    tag_99:\n      mload(0x40)\n      dup1\n      swap2\n      sub\n      swap1\n      revert\n    tag_98:\n        /* \"contracts/PisoPaymaster.sol\":2145:2151  amount */\n      dup2\n        /* \"contracts/PisoPaymaster.sol\":2139:2142  bal */\n      dup2\n        /* \"contracts/PisoPaymaster.sol\":2139:2151  bal - amount */\n      tag_101\n      swap2\n      swap1\n      tag_102\n      jump\t// in\n    tag_101:\n        /* \"contracts/PisoPaymaster.sol\":2116:2124  deposits */\n      0x04\n        /* \"contracts/PisoPaymaster.sol\":2116:2136  deposits[msg.sender] */\n      0x00\n        /* \"contracts/PisoPaymaster.sol\":2125:2135  msg.sender */\n      caller\n        /* \"contracts/PisoPaymaster.sol\":2116:2136  deposits[msg.sender] */\n      0xffffffffffffffffffffffffffffffffffffffff\n      and\n      0xffffffffffffffffffffffffffffffffffffffff\n      and\n      dup2\n      mstore\n      0x20\n      add\n      swap1\n      dup2\n      mstore\n      0x20\n      add\n      0x00\n      keccak256\n        /* \"contracts/PisoPaymaster.sol\":2116:2151  deposits[msg.sender] = bal - amount */\n      dup2\n      swap1\n      sstore\n      pop\n        /* \"contracts/PisoPaymaster.sol\":2161:2189  _payRelayer(relayer, amount) */\n      tag_103\n        /* \"contracts/PisoPaymaster.sol\":2173:2180  relayer */\n      dup4\n        /* \"contracts/PisoPaymaster.sol\":2182:2188  amount */\n      dup4\n        /* \"contracts/PisoPaymaster.sol\":2161:2172  _payRelayer */\n      tag_104\n        /* \"contracts/PisoPaymaster.sol\":2161:2189  _payRelayer(relayer, amount) */\n      jump\t// in\n    tag_103:\n        /* \"contracts/PisoPaymaster.sol\":1969:2196  {... */\n      pop\n        /* \"@openzeppelin/contracts/security/ReentrancyGuard.sol\":2303:2323  _nonReentrantAfter() */\n      tag_105\n        /* \"@openzeppelin/contracts/security/ReentrancyGuard.sol\":2303:2321  _nonReentrantAfter */\n      tag_106\n        /* \"@openzeppelin/contracts/security/ReentrancyGuard.sol\":2303:2323  _nonReentrantAfter() */\n      jump\t// in\n    tag_105:\n        /* \"contracts/PisoPaymaster.sol\":1894:2196  function payRelayer(address relayer, uint256 amount) external nonReentrant {... */\n      pop\n      pop\n      jump\t// out\n        /* \"@openzeppelin/contracts/access/AccessControl.sol\":2541:2743  function supportsInterface(bytes4 interfaceId) public view virtual override returns (bool) {... */\n    tag_30:\n        /* \"@openzeppelin/contracts/access/AccessControl.sol\":2626:2630  bool */\n      0x00\n        /* \"@openzeppelin/contracts/access/AccessControl.sol\":2664:2696  type(IAccessControl).interfaceId */\n      0x7965db0b00000000000000000000000000000000000000000000000000000000\n        /* \"@openzeppelin/contracts/access/AccessControl.sol\":2649:2696  interfaceId == type(IAccessControl).interfaceId */\n      not(0xffffffffffffffffffffffffffffffffffffffffffffffffffffffff)\n      and\n        /* \"@openzeppelin/contracts/access/AccessControl.sol\":2649:2660  interfaceId */\n      dup3\n        /* \"@openzeppelin/contracts/access/AccessControl.sol\":2649:2696  interfaceId == type(IAccessControl).interfaceId */\n      not(0xffffffffffffffffffffffffffffffffffffffffffffffffffffffff)\n      and\n      eq\n        /* \"@openzeppelin/contracts/access/AccessControl.sol\":2649:2736  interfaceId == type(IAccessControl).interfaceId || super.supportsInterface(interfaceId) */\n      dup1\n      tag_108\n      jumpi\n      pop\n        /* \"@openzeppelin/contracts/access/AccessControl.sol\":2700:2736  super.supportsInterface(interfaceId) */\n      tag_109\n        /* \"@openzeppelin/contracts/access/AccessControl.sol\":2724:2735  interfaceId */\n      dup3\n        /* \"@openzeppelin/contracts/access/AccessControl.sol\":2700:2723  super.supportsInterface */\n      tag_110\n        /* \"@openzeppelin/contracts/access/AccessControl.sol\":2700:2736  super.supportsInterface(interfaceId) */\n      jump\t// in\n    tag_109:\n        /* \"@openzeppelin/contracts/access/AccessControl.sol\":2649:2736  interfaceId == type(IAccessControl).interfaceId || super.supportsInterface(interfaceId) */\n    tag_108:\n        /* \"@openzeppelin/contracts/access/AccessControl.sol\":2642:2736  return interfaceId == type(IAccessControl).interfaceId || super.supportsInterface(interfaceId) */\n      swap1\n      pop\n        /* \"@openzeppelin/contracts/access/AccessControl.sol\":2541:2743  function supportsInterface(bytes4 interfaceId) public view virtual override returns (bool) {... */\n      swap2\n      swap1\n      pop\n      jump\t// out\n        /* \"@openzeppelin/contracts/access/AccessControl.sol\":3786:3906  function getRoleAdmin(bytes32 role) public view virtual returns (bytes32) {... */\n    tag_36:\n        /* \"@openzeppelin/contracts/access/AccessControl.sol\":3851:3858  bytes32 */\n      0x00\n        /* \"@openzeppelin/contracts/access/AccessControl.sol\":3877:3883  _roles */\n      dup1\n        /* \"@openzeppelin/contracts/access/AccessControl.sol\":3877:3889  _roles[role] */\n      0x00\n        /* \"@openzeppelin/contracts/access/AccessControl.sol\":3884:3888  role */\n      dup4\n        /* \"@openzeppelin/contracts/access/AccessControl.sol\":3877:3889  _roles[role] */\n      dup2\n      mstore\n      0x20\n      add\n      swap1\n      dup2\n      mstore\n      0x20\n      add\n      0x00\n      keccak256\n        /* \"@openzeppelin/contracts/access/AccessControl.sol\":3877:3899  _roles[role].adminRole */\n      0x01\n      add\n      sload\n        /* \"@openzeppelin/contracts/access/AccessControl.sol\":3870:3899  return _roles[role].adminRole */\n      swap1\n      pop\n        /* \"@openzeppelin/contracts/access/AccessControl.sol\":3786:3906  function getRoleAdmin(bytes32 role) public view virtual returns (bytes32) {... */\n      swap2\n      swap1\n      pop\n      jump\t// out\n        /* \"contracts/PisoPaymaster.sol\":406:432  uint256 public feeBps = 50 */\n    tag_40:\n      sload(0x02)\n      dup2\n      jump\t// out\n        /* \"contracts/PisoPaymaster.sol\":1268:1628  function withdraw(uint256 amount) external nonReentrant {... */\n    tag_46:\n        /* \"@openzeppelin/contracts/security/ReentrancyGuard.sol\":2261:2282  _nonReentrantBefore() */\n      tag_113\n        /* \"@openzeppelin/contracts/security/ReentrancyGuard.sol\":2261:2280  _nonReentrantBefore */\n      tag_93\n        /* \"@openzeppelin/contracts/security/ReentrancyGuard.sol\":2261:2282  _nonReentrantBefore() */\n      jump\t// in\n    tag_113:\n        /* \"contracts/PisoPaymaster.sol\":1351:1352  0 */\n      0x00\n        /* \"contracts/PisoPaymaster.sol\":1342:1348  amount */\n      dup2\n        /* \"contracts/PisoPaymaster.sol\":1342:1352  amount > 0 */\n      gt\n        /* \"contracts/PisoPaymaster.sol\":1334:1361  require(amount > 0, \"zero\") */\n      tag_115\n      jumpi\n      mload(0x40)\n      0x08c379a000000000000000000000000000000000000000000000000000000000\n      dup2\n      mstore\n      0x04\n      add\n      tag_116\n      swap1\n      tag_97\n      jump\t// in\n    tag_116:\n      mload(0x40)\n      dup1\n      swap2\n      sub\n      swap1\n      revert\n    tag_115:\n        /* \"contracts/PisoPaymaster.sol\":1371:1382  uint256 bal */\n      0x00\n        /* \"contracts/PisoPaymaster.sol\":1385:1393  deposits */\n      0x04\n        /* \"contracts/PisoPaymaster.sol\":1385:1405  deposits[msg.sender] */\n      0x00\n        /* \"contracts/PisoPaymaster.sol\":1394:1404  msg.sender */\n      caller\n        /* \"contracts/PisoPaymaster.sol\":1385:1405  deposits[msg.sender] */\n      0xffffffffffffffffffffffffffffffffffffffff\n      and\n      0xffffffffffffffffffffffffffffffffffffffff\n      and\n      dup2\n      mstore\n      0x20\n      add\n      swap1\n      dup2\n      mstore\n      0x20\n      add\n      0x00\n      keccak256\n      sload\n        /* \"contracts/PisoPaymaster.sol\":1371:1405  uint256 bal = deposits[msg.sender] */\n      swap1\n      pop\n        /* \"contracts/PisoPaymaster.sol\":1430:1436  amount */\n      dup2\n        /* \"contracts/PisoPaymaster.sol\":1423:1426  bal */\n      dup2\n        /* \"contracts/PisoPaymaster.sol\":1423:1436  bal >= amount */\n      lt\n      iszero\n        /* \"contracts/PisoPaymaster.sol\":1415:1461  require(bal >= amount, \"insufficient deposit\") */\n      tag_117\n      jumpi\n      mload(0x40)\n      0x08c379a000000000000000000000000000000000000000000000000000000000\n      dup2\n      mstore\n      0x04\n      add\n      tag_118\n      swap1\n      tag_100\n      jump\t// in\n    tag_118:\n      mload(0x40)\n      dup1\n      swap2\n      sub\n      swap1\n      revert\n    tag_117:\n        /* \"contracts/PisoPaymaster.sol\":1500:1506  amount */\n      dup2\n        /* \"contracts/PisoPaymaster.sol\":1494:1497  bal */\n      dup2\n        /* \"contracts/PisoPaymaster.sol\":1494:1506  bal - amount */\n      tag_119\n      swap2\n      swap1\n      tag_102\n      jump\t// in\n    tag_119:\n        /* \"contracts/PisoPaymaster.sol\":1471:1479  deposits */\n      0x04\n        /* \"contracts/PisoPaymaster.sol\":1471:1491  deposits[msg.sender] */\n      0x00\n        /* \"contracts/PisoPaymaster.sol\":1480:1490  msg.sender */\n      caller\n        /* \"contracts/PisoPaymaster.sol\":1471:1491  deposits[msg.sender] */\n      0xffffffffffffffffffffffffffffffffffffffff\n      and\n      0xffffffffffffffffffffffffffffffffffffffff\n      and\n      dup2\n      mstore\n      0x20\n      add\n      swap1\n      dup2\n      mstore\n      0x20\n      add\n      0x00\n      keccak256\n        /* \"contracts/PisoPaymaster.sol\":1471:1506  deposits[msg.sender] = bal - amount */\n      dup2\n      swap1\n      sstore\n      pop\n        /* \"contracts/PisoPaymaster.sol\":1524:1528  piso */\n      immutable(\"0x84a03125b104c11968e358d5f682f85e2d800fa6885d3315fc7e189cab9d099b\")\n        /* \"contracts/PisoPaymaster.sol\":1524:1537  piso.transfer */\n      0xffffffffffffffffffffffffffffffffffffffff\n      and\n      0xa9059cbb\n        /* \"contracts/PisoPaymaster.sol\":1538:1548  msg.sender */\n      caller\n        /* \"contracts/PisoPaymaster.sol\":1550:1556  amount */\n      dup5\n        /* \"contracts/PisoPaymaster.sol\":1524:1557  piso.transfer(msg.sender, amount) */\n      mload(0x40)\n      dup4\n      0xffffffff\n      and\n      0xe0\n      shl\n      dup2\n      mstore\n      0x04\n      add\n      tag_120\n      swap3\n      swap2\n      swap1\n      tag_121\n      jump\t// in\n    tag_120:\n      0x20\n      mload(0x40)\n      dup1\n      dup4\n      sub\n      dup2\n      0x00\n      dup8\n      gas\n      call\n      iszero\n      dup1\n      iszero\n      tag_123\n      jumpi\n      returndatasize\n      0x00\n      dup1\n      returndatacopy\n      revert(0x00, returndatasize)\n    tag_123:\n      pop\n      pop\n      pop\n      pop\n      mload(0x40)\n      returndatasize\n      not(0x1f)\n      0x1f\n      dup3\n      add\n      and\n      dup3\n      add\n      dup1\n      0x40\n      mstore\n      pop\n      dup2\n      add\n      swap1\n      tag_124\n      swap2\n      swap1\n      tag_125\n      jump\t// in\n    tag_124:\n        /* \"contracts/PisoPaymaster.sol\":1516:1577  require(piso.transfer(msg.sender, amount), \"transfer failed\") */\n      tag_126\n      jumpi\n      mload(0x40)\n      0x08c379a000000000000000000000000000000000000000000000000000000000\n      dup2\n      mstore\n      0x04\n      add\n      tag_127\n      swap1\n      tag_128\n      jump\t// in\n    tag_127:\n      mload(0x40)\n      dup1\n      swap2\n      sub\n      swap1\n      revert\n    tag_126:\n        /* \"contracts/PisoPaymaster.sol\":1602:1612  msg.sender */\n      caller\n        /* \"contracts/PisoPaymaster.sol\":1592:1621  Withdrawn(msg.sender, amount) */\n      0xffffffffffffffffffffffffffffffffffffffff\n      and\n      0x7084f5476618d8e60b11ef0d7d3f06914655adb8793e28ff7f018d4c76d505d5\n        /* \"contracts/PisoPaymaster.sol\":1614:1620  amount */\n      dup4\n        /* \"contracts/PisoPaymaster.sol\":1592:1621  Withdrawn(msg.sender, amount) */\n      mload(0x40)\n      tag_129\n      swap2\n      swap1\n      tag_42\n      jump\t// in\n    tag_129:\n      mload(0x40)\n      dup1\n      swap2\n      sub\n      swap1\n      log2\n        /* \"contracts/PisoPaymaster.sol\":1324:1628  {... */\n      pop\n        /* \"@openzeppelin/contracts/security/ReentrancyGuard.sol\":2303:2323  _nonReentrantAfter() */\n      tag_130\n        /* \"@openzeppelin/contracts/security/ReentrancyGuard.sol\":2303:2321  _nonReentrantAfter */\n      tag_106\n        /* \"@openzeppelin/contracts/security/ReentrancyGuard.sol\":2303:2323  _nonReentrantAfter() */\n      jump\t// in\n    tag_130:\n        /* \"contracts/PisoPaymaster.sol\":1268:1628  function withdraw(uint256 amount) external nonReentrant {... */\n      pop\n      jump\t// out\n        /* \"@openzeppelin/contracts/access/AccessControl.sol\":4202:4338  function grantRole(bytes32 role, address account) public virtual onlyRole(getRoleAdmin(role)) {... */\n    tag_50:\n        /* \"@openzeppelin/contracts/access/AccessControl.sol\":4276:4294  getRoleAdmin(role) */\n      tag_131\n        /* \"@openzeppelin/contracts/access/AccessControl.sol\":4289:4293  role */\n      dup3\n        /* \"@openzeppelin/contracts/access/AccessControl.sol\":4276:4288  getRoleAdmin */\n      tag_36\n        /* \"@openzeppelin/contracts/access/AccessControl.sol\":4276:4294  getRoleAdmin(role) */\n      jump\t// in\n    tag_131:\n        /* \"@openzeppelin/contracts/access/AccessControl.sol\":2473:2489  _checkRole(role) */\n      tag_133\n        /* \"@openzeppelin/contracts/access/AccessControl.sol\":2484:2488  role */\n      dup2\n        /* \"@openzeppelin/contracts/access/AccessControl.sol\":2473:2483  _checkRole */\n      tag_134\n        /* \"@openzeppelin/contracts/access/AccessControl.sol\":2473:2489  _checkRole(role) */\n      jump\t// in\n    tag_133:\n        /* \"@openzeppelin/contracts/access/AccessControl.sol\":4306:4331  _grantRole(role, account) */\n      tag_136\n        /* \"@openzeppelin/contracts/access/AccessControl.sol\":4317:4321  role */\n      dup4\n        /* \"@openzeppelin/contracts/access/AccessControl.sol\":4323:4330  account */\n      dup4\n        /* \"@openzeppelin/contracts/access/AccessControl.sol\":4306:4316  _grantRole */\n      tag_137\n        /* \"@openzeppelin/contracts/access/AccessControl.sol\":4306:4331  _grantRole(role, account) */\n      jump\t// in\n    tag_136:\n      pop\n        /* \"@openzeppelin/contracts/access/AccessControl.sol\":4202:4338  function grantRole(bytes32 role, address account) public virtual onlyRole(getRoleAdmin(role)) {... */\n      pop\n      pop\n      pop\n      jump\t// out\n        /* \"@openzeppelin/contracts/access/AccessControl.sol\":5304:5549  function renounceRole(bytes32 role, address callerConfirmation) public virtual {... */\n    tag_53:\n        /* \"@openzeppelin/contracts/access/AccessControl.sol\":5419:5431  _msgSender() */\n      tag_139\n        /* \"@openzeppelin/contracts/access/AccessControl.sol\":5419:5429  _msgSender */\n      tag_140\n        /* \"@openzeppelin/contracts/access/AccessControl.sol\":5419:5431  _msgSender() */\n      jump\t// in\n    tag_139:\n        /* \"@openzeppelin/contracts/access/AccessControl.sol\":5397:5431  callerConfirmation != _msgSender() */\n      0xffffffffffffffffffffffffffffffffffffffff\n      and\n        /* \"@openzeppelin/contracts/access/AccessControl.sol\":5397:5415  callerConfirmation */\n      dup2\n        /* \"@openzeppelin/contracts/access/AccessControl.sol\":5397:5431  callerConfirmation != _msgSender() */\n      0xffffffffffffffffffffffffffffffffffffffff\n      and\n      eq\n        /* \"@openzeppelin/contracts/access/AccessControl.sol\":5393:5495  if (callerConfirmation != _msgSender()) {... */\n      tag_141\n      jumpi\n        /* \"@openzeppelin/contracts/access/AccessControl.sol\":5454:5484  AccessControlBadConfirmation() */\n      mload(0x40)\n      0x6697b23200000000000000000000000000000000000000000000000000000000\n      dup2\n      mstore\n      0x04\n      add\n      mload(0x40)\n      dup1\n      swap2\n      sub\n      swap1\n      revert\n        /* \"@openzeppelin/contracts/access/AccessControl.sol\":5393:5495  if (callerConfirmation != _msgSender()) {... */\n    tag_141:\n        /* \"@openzeppelin/contracts/access/AccessControl.sol\":5505:5542  _revokeRole(role, callerConfirmation) */\n      tag_142\n        /* \"@openzeppelin/contracts/access/AccessControl.sol\":5517:5521  role */\n      dup3\n        /* \"@openzeppelin/contracts/access/AccessControl.sol\":5523:5541  callerConfirmation */\n      dup3\n        /* \"@openzeppelin/contracts/access/AccessControl.sol\":5505:5516  _revokeRole */\n      tag_143\n        /* \"@openzeppelin/contracts/access/AccessControl.sol\":5505:5542  _revokeRole(role, callerConfirmation) */\n      jump\t// in\n    tag_142:\n      pop\n        /* \"@openzeppelin/contracts/access/AccessControl.sol\":5304:5549  function renounceRole(bytes32 role, address callerConfirmation) public virtual {... */\n      pop\n      pop\n      jump\t// out\n        /* \"contracts/PisoPaymaster.sol\":438:461  address public treasury */\n    tag_55:\n      0x03\n      0x00\n      swap1\n      sload\n      swap1\n      0x0100\n      exp\n      swap1\n      div\n      0xffffffffffffffffffffffffffffffffffffffff\n      and\n      dup2\n      jump\t// out\n        /* \"contracts/PisoPaymaster.sol\":2724:2889  function sweepToken(IERC20 token, address to, uint256 amount) external onlyRole(MANAGER_ROLE) {... */\n    tag_61:\n        /* \"contracts/PisoPaymaster.sol\":340:365  keccak256(\"MANAGER_ROLE\") */\n      0x241ecf16d79d0f8dbfb92cbc07fe17840425976cf0667f022fe9877caa831b08\n        /* \"@openzeppelin/contracts/access/AccessControl.sol\":2473:2489  _checkRole(role) */\n      tag_145\n        /* \"@openzeppelin/contracts/access/AccessControl.sol\":2484:2488  role */\n      dup2\n        /* \"@openzeppelin/contracts/access/AccessControl.sol\":2473:2483  _checkRole */\n      tag_134\n        /* \"@openzeppelin/contracts/access/AccessControl.sol\":2473:2489  _checkRole(role) */\n      jump\t// in\n    tag_145:\n        /* \"contracts/PisoPaymaster.sol\":2836:2841  token */\n      dup4\n        /* \"contracts/PisoPaymaster.sol\":2836:2850  token.transfer */\n      0xffffffffffffffffffffffffffffffffffffffff\n      and\n      0xa9059cbb\n        /* \"contracts/PisoPaymaster.sol\":2851:2853  to */\n      dup5\n        /* \"contracts/PisoPaymaster.sol\":2855:2861  amount */\n      dup5\n        /* \"contracts/PisoPaymaster.sol\":2836:2862  token.transfer(to, amount) */\n      mload(0x40)\n      dup4\n      0xffffffff\n      and\n      0xe0\n      shl\n      dup2\n      mstore\n      0x04\n      add\n      tag_147\n      swap3\n      swap2\n      swap1\n      tag_121\n      jump\t// in\n    tag_147:\n      0x20\n      mload(0x40)\n      dup1\n      dup4\n      sub\n      dup2\n      0x00\n      dup8\n      gas\n      call\n      iszero\n      dup1\n      iszero\n      tag_149\n      jumpi\n      returndatasize\n      0x00\n      dup1\n      returndatacopy\n      revert(0x00, returndatasize)\n    tag_149:\n      pop\n      pop\n      pop\n      pop\n      mload(0x40)\n      returndatasize\n      not(0x1f)\n      0x1f\n      dup3\n      add\n      and\n      dup3\n      add\n      dup1\n      0x40\n      mstore\n      pop\n      dup2\n      add\n      swap1\n      tag_150\n      swap2\n      swap1\n      tag_125\n      jump\t// in\n    tag_150:\n        /* \"contracts/PisoPaymaster.sol\":2828:2882  require(token.transfer(to, amount), \"transfer failed\") */\n      tag_151\n      jumpi\n      mload(0x40)\n      0x08c379a000000000000000000000000000000000000000000000000000000000\n      dup2\n      mstore\n      0x04\n      add\n      tag_152\n      swap1\n      tag_128\n      jump\t// in\n    tag_152:\n      mload(0x40)\n      dup1\n      swap2\n      sub\n      swap1\n      revert\n    tag_151:\n        /* \"contracts/PisoPaymaster.sol\":2724:2889  function sweepToken(IERC20 token, address to, uint256 amount) external onlyRole(MANAGER_ROLE) {... */\n      pop\n      pop\n      pop\n      pop\n      jump\t// out\n        /* \"@openzeppelin/contracts/access/AccessControl.sol\":2830:2966  function hasRole(bytes32 role, address account) public view virtual returns (bool) {... */\n    tag_64:\n        /* \"@openzeppelin/contracts/access/AccessControl.sol\":2907:2911  bool */\n      0x00\n        /* \"@openzeppelin/contracts/access/AccessControl.sol\":2930:2936  _roles */\n      dup1\n        /* \"@openzeppelin/contracts/access/AccessControl.sol\":2930:2942  _roles[role] */\n      0x00\n        /* \"@openzeppelin/contracts/access/AccessControl.sol\":2937:2941  role */\n      dup5\n        /* \"@openzeppelin/contracts/access/AccessControl.sol\":2930:2942  _roles[role] */\n      dup2\n      mstore\n      0x20\n      add\n      swap1\n      dup2\n      mstore\n      0x20\n      add\n      0x00\n      keccak256\n        /* \"@openzeppelin/contracts/access/AccessControl.sol\":2930:2950  _roles[role].hasRole */\n      0x00\n      add\n        /* \"@openzeppelin/contracts/access/AccessControl.sol\":2930:2959  _roles[role].hasRole[account] */\n      0x00\n        /* \"@openzeppelin/contracts/access/AccessControl.sol\":2951:2958  account */\n      dup4\n        /* \"@openzeppelin/contracts/access/AccessControl.sol\":2930:2959  _roles[role].hasRole[account] */\n      0xffffffffffffffffffffffffffffffffffffffff\n      and\n      0xffffffffffffffffffffffffffffffffffffffff\n      and\n      dup2\n      mstore\n      0x20\n      add\n      swap1\n      dup2\n      mstore\n      0x20\n      add\n      0x00\n      keccak256\n      0x00\n      swap1\n      sload\n      swap1\n      0x0100\n      exp\n      swap1\n      div\n      0xff\n      and\n        /* \"@openzeppelin/contracts/access/AccessControl.sol\":2923:2959  return _roles[role].hasRole[account] */\n      swap1\n      pop\n        /* \"@openzeppelin/contracts/access/AccessControl.sol\":2830:2966  function hasRole(bytes32 role, address account) public view virtual returns (bool) {... */\n      swap3\n      swap2\n      pop\n      pop\n      jump\t// out\n        /* \"contracts/PisoPaymaster.sol\":1634:1888  function setFeeParams(uint256 _feeBps, address _treasury) external onlyRole(MANAGER_ROLE) {... */\n    tag_69:\n        /* \"contracts/PisoPaymaster.sol\":340:365  keccak256(\"MANAGER_ROLE\") */\n      0x241ecf16d79d0f8dbfb92cbc07fe17840425976cf0667f022fe9877caa831b08\n        /* \"@openzeppelin/contracts/access/AccessControl.sol\":2473:2489  _checkRole(role) */\n      tag_155\n        /* \"@openzeppelin/contracts/access/AccessControl.sol\":2484:2488  role */\n      dup2\n        /* \"@openzeppelin/contracts/access/AccessControl.sol\":2473:2483  _checkRole */\n      tag_134\n        /* \"@openzeppelin/contracts/access/AccessControl.sol\":2473:2489  _checkRole(role) */\n      jump\t// in\n    tag_155:\n        /* \"contracts/PisoPaymaster.sol\":1753:1757  1000 */\n      0x03e8\n        /* \"contracts/PisoPaymaster.sol\":1742:1749  _feeBps */\n      dup4\n        /* \"contracts/PisoPaymaster.sol\":1742:1757  _feeBps <= 1000 */\n      gt\n      iszero\n        /* \"contracts/PisoPaymaster.sol\":1734:1774  require(_feeBps <= 1000, \"fee too high\") */\n      tag_157\n      jumpi\n      mload(0x40)\n      0x08c379a000000000000000000000000000000000000000000000000000000000\n      dup2\n      mstore\n      0x04\n      add\n      tag_158\n      swap1\n      tag_159\n      jump\t// in\n    tag_158:\n      mload(0x40)\n      dup1\n      swap2\n      sub\n      swap1\n      revert\n    tag_157:\n        /* \"contracts/PisoPaymaster.sol\":1793:1800  _feeBps */\n      dup3\n        /* \"contracts/PisoPaymaster.sol\":1784:1790  feeBps */\n      0x02\n        /* \"contracts/PisoPaymaster.sol\":1784:1800  feeBps = _feeBps */\n      dup2\n      swap1\n      sstore\n      pop\n        /* \"contracts/PisoPaymaster.sol\":1821:1830  _treasury */\n      dup2\n        /* \"contracts/PisoPaymaster.sol\":1810:1818  treasury */\n      0x03\n      0x00\n        /* \"contracts/PisoPaymaster.sol\":1810:1830  treasury = _treasury */\n      0x0100\n      exp\n      dup2\n      sload\n      dup2\n      0xffffffffffffffffffffffffffffffffffffffff\n      mul\n      not\n      and\n      swap1\n      dup4\n      0xffffffffffffffffffffffffffffffffffffffff\n      and\n      mul\n      or\n      swap1\n      sstore\n      pop\n        /* \"contracts/PisoPaymaster.sol\":1845:1881  FeeParamsUpdated(_feeBps, _treasury) */\n      0xeecc969cd8da3140016e16b0603215de782af59713abfc5055d917b88f4a7b91\n        /* \"contracts/PisoPaymaster.sol\":1862:1869  _feeBps */\n      dup4\n        /* \"contracts/PisoPaymaster.sol\":1871:1880  _treasury */\n      dup4\n        /* \"contracts/PisoPaymaster.sol\":1845:1881  FeeParamsUpdated(_feeBps, _treasury) */\n      mload(0x40)\n      tag_160\n      swap3\n      swap2\n      swap1\n      tag_161\n      jump\t// in\n    tag_160:\n      mload(0x40)\n      dup1\n      swap2\n      sub\n      swap1\n      log1\n        /* \"contracts/PisoPaymaster.sol\":1634:1888  function setFeeParams(uint256 _feeBps, address _treasury) external onlyRole(MANAGER_ROLE) {... */\n      pop\n      pop\n      pop\n      jump\t// out\n        /* \"@openzeppelin/contracts/access/AccessControl.sol\":2196:2245  bytes32 public constant DEFAULT_ADMIN_ROLE = 0x00 */\n    tag_71:\n        /* \"@openzeppelin/contracts/access/AccessControl.sol\":2241:2245  0x00 */\n      0x00\n        /* \"@openzeppelin/contracts/access/AccessControl.sol\":2196:2245  bytes32 public constant DEFAULT_ADMIN_ROLE = 0x00 */\n      dup1\n      shl\n      dup2\n      jump\t// out\n        /* \"contracts/PisoPaymaster.sol\":989:1262  function deposit(uint256 amount) external nonReentrant {... */\n    tag_75:\n        /* \"@openzeppelin/contracts/security/ReentrancyGuard.sol\":2261:2282  _nonReentrantBefore() */\n      tag_163\n        /* \"@openzeppelin/contracts/security/ReentrancyGuard.sol\":2261:2280  _nonReentrantBefore */\n      tag_93\n        /* \"@openzeppelin/contracts/security/ReentrancyGuard.sol\":2261:2282  _nonReentrantBefore() */\n      jump\t// in\n    tag_163:\n        /* \"contracts/PisoPaymaster.sol\":1071:1072  0 */\n      0x00\n        /* \"contracts/PisoPaymaster.sol\":1062:1068  amount */\n      dup2\n        /* \"contracts/PisoPaymaster.sol\":1062:1072  amount > 0 */\n      gt\n        /* \"contracts/PisoPaymaster.sol\":1054:1081  require(amount > 0, \"zero\") */\n      tag_165\n      jumpi\n      mload(0x40)\n      0x08c379a000000000000000000000000000000000000000000000000000000000\n      dup2\n      mstore\n      0x04\n      add\n      tag_166\n      swap1\n      tag_97\n      jump\t// in\n    tag_166:\n      mload(0x40)\n      dup1\n      swap2\n      sub\n      swap1\n      revert\n    tag_165:\n        /* \"contracts/PisoPaymaster.sol\":1115:1121  amount */\n      dup1\n        /* \"contracts/PisoPaymaster.sol\":1091:1099  deposits */\n      0x04\n        /* \"contracts/PisoPaymaster.sol\":1091:1111  deposits[msg.sender] */\n      0x00\n        /* \"contracts/PisoPaymaster.sol\":1100:1110  msg.sender */\n      caller\n        /* \"contracts/PisoPaymaster.sol\":1091:1111  deposits[msg.sender] */\n      0xffffffffffffffffffffffffffffffffffffffff\n      and\n      0xffffffffffffffffffffffffffffffffffffffff\n      and\n      dup2\n      mstore\n      0x20\n      add\n      swap1\n      dup2\n      mstore\n      0x20\n      add\n      0x00\n      keccak256\n      0x00\n        /* \"contracts/PisoPaymaster.sol\":1091:1121  deposits[msg.sender] += amount */\n      dup3\n      dup3\n      sload\n      tag_167\n      swap2\n      swap1\n      tag_168\n      jump\t// in\n    tag_167:\n      swap3\n      pop\n      pop\n      dup2\n      swap1\n      sstore\n      pop\n        /* \"contracts/PisoPaymaster.sol\":1139:1143  piso */\n      immutable(\"0x84a03125b104c11968e358d5f682f85e2d800fa6885d3315fc7e189cab9d099b\")\n        /* \"contracts/PisoPaymaster.sol\":1139:1156  piso.transferFrom */\n      0xffffffffffffffffffffffffffffffffffffffff\n      and\n      0x23b872dd\n        /* \"contracts/PisoPaymaster.sol\":1157:1167  msg.sender */\n      caller\n        /* \"contracts/PisoPaymaster.sol\":1177:1181  this */\n      address\n        /* \"contracts/PisoPaymaster.sol\":1184:1190  amount */\n      dup5\n        /* \"contracts/PisoPaymaster.sol\":1139:1191  piso.transferFrom(msg.sender, address(this), amount) */\n      mload(0x40)\n      dup5\n      0xffffffff\n      and\n      0xe0\n      shl\n      dup2\n      mstore\n      0x04\n      add\n      tag_169\n      swap4\n      swap3\n      swap2\n      swap1\n      tag_170\n      jump\t// in\n    tag_169:\n      0x20\n      mload(0x40)\n      dup1\n      dup4\n      sub\n      dup2\n      0x00\n      dup8\n      gas\n      call\n      iszero\n      dup1\n      iszero\n      tag_172\n      jumpi\n      returndatasize\n      0x00\n      dup1\n      returndatacopy\n      revert(0x00, returndatasize)\n    tag_172:\n      pop\n      pop\n      pop\n      pop\n      mload(0x40)\n      returndatasize\n      not(0x1f)\n      0x1f\n      dup3\n      add\n      and\n      dup3\n      add\n      dup1\n      0x40\n      mstore\n      pop\n      dup2\n      add\n      swap1\n      tag_173\n      swap2\n      swap1\n      tag_125\n      jump\t// in\n    tag_173:\n        /* \"contracts/PisoPaymaster.sol\":1131:1211  require(piso.transferFrom(msg.sender, address(this), amount), \"transfer failed\") */\n      tag_174\n      jumpi\n      mload(0x40)\n      0x08c379a000000000000000000000000000000000000000000000000000000000\n      dup2\n      mstore\n      0x04\n      add\n      tag_175\n      swap1\n      tag_128\n      jump\t// in\n    tag_175:\n      mload(0x40)\n      dup1\n      swap2\n      sub\n      swap1\n      revert\n    tag_174:\n        /* \"contracts/PisoPaymaster.sol\":1236:1246  msg.sender */\n      caller\n        /* \"contracts/PisoPaymaster.sol\":1226:1255  Deposited(msg.sender, amount) */\n      0xffffffffffffffffffffffffffffffffffffffff\n      and\n      0x2da466a7b24304f47e87fa2e1e5a81b9831ce54fec19055ce277ca2f39ba42c4\n        /* \"contracts/PisoPaymaster.sol\":1248:1254  amount */\n      dup3\n        /* \"contracts/PisoPaymaster.sol\":1226:1255  Deposited(msg.sender, amount) */\n      mload(0x40)\n      tag_176\n      swap2\n      swap1\n      tag_42\n      jump\t// in\n    tag_176:\n      mload(0x40)\n      dup1\n      swap2\n      sub\n      swap1\n      log2\n        /* \"@openzeppelin/contracts/security/ReentrancyGuard.sol\":2303:2323  _nonReentrantAfter() */\n      tag_177\n        /* \"@openzeppelin/contracts/security/ReentrancyGuard.sol\":2303:2321  _nonReentrantAfter */\n      tag_106\n        /* \"@openzeppelin/contracts/security/ReentrancyGuard.sol\":2303:2323  _nonReentrantAfter() */\n      jump\t// in\n    tag_177:\n        /* \"contracts/PisoPaymaster.sol\":989:1262  function deposit(uint256 amount) external nonReentrant {... */\n      pop\n      jump\t// out\n        /* \"@openzeppelin/contracts/access/AccessControl.sol\":4618:4756  function revokeRole(bytes32 role, address account) public virtual onlyRole(getRoleAdmin(role)) {... */\n    tag_78:\n        /* \"@openzeppelin/contracts/access/AccessControl.sol\":4693:4711  getRoleAdmin(role) */\n      tag_178\n        /* \"@openzeppelin/contracts/access/AccessControl.sol\":4706:4710  role */\n      dup3\n        /* \"@openzeppelin/contracts/access/AccessControl.sol\":4693:4705  getRoleAdmin */\n      tag_36\n        /* \"@openzeppelin/contracts/access/AccessControl.sol\":4693:4711  getRoleAdmin(role) */\n      jump\t// in\n    tag_178:\n        /* \"@openzeppelin/contracts/access/AccessControl.sol\":2473:2489  _checkRole(role) */\n      tag_180\n        /* \"@openzeppelin/contracts/access/AccessControl.sol\":2484:2488  role */\n      dup2\n        /* \"@openzeppelin/contracts/access/AccessControl.sol\":2473:2483  _checkRole */\n      tag_134\n        /* \"@openzeppelin/contracts/access/AccessControl.sol\":2473:2489  _checkRole(role) */\n      jump\t// in\n    tag_180:\n        /* \"@openzeppelin/contracts/access/AccessControl.sol\":4723:4749  _revokeRole(role, account) */\n      tag_182\n        /* \"@openzeppelin/contracts/access/AccessControl.sol\":4735:4739  role */\n      dup4\n        /* \"@openzeppelin/contracts/access/AccessControl.sol\":4741:4748  account */\n      dup4\n        /* \"@openzeppelin/contracts/access/AccessControl.sol\":4723:4734  _revokeRole */\n      tag_143\n        /* \"@openzeppelin/contracts/access/AccessControl.sol\":4723:4749  _revokeRole(role, account) */\n      jump\t// in\n    tag_182:\n      pop\n        /* \"@openzeppelin/contracts/access/AccessControl.sol\":4618:4756  function revokeRole(bytes32 role, address account) public virtual onlyRole(getRoleAdmin(role)) {... */\n      pop\n      pop\n      pop\n      jump\t// out\n        /* \"contracts/PisoPaymaster.sol\":372:400  IERC20 public immutable piso */\n    tag_80:\n      immutable(\"0x84a03125b104c11968e358d5f682f85e2d800fa6885d3315fc7e189cab9d099b\")\n      dup2\n      jump\t// out\n        /* \"contracts/PisoPaymaster.sol\":301:365  bytes32 public constant MANAGER_ROLE = keccak256(\"MANAGER_ROLE\") */\n    tag_84:\n        /* \"contracts/PisoPaymaster.sol\":340:365  keccak256(\"MANAGER_ROLE\") */\n      0x241ecf16d79d0f8dbfb92cbc07fe17840425976cf0667f022fe9877caa831b08\n        /* \"contracts/PisoPaymaster.sol\":301:365  bytes32 public constant MANAGER_ROLE = keccak256(\"MANAGER_ROLE\") */\n      dup2\n      jump\t// out\n        /* \"contracts/PisoPaymaster.sol\":468:511  mapping(address => uint256) public deposits */\n    tag_89:\n      mstore(0x20, 0x04)\n      dup1\n      0x00\n      mstore\n      keccak256(0x00, 0x40)\n      0x00\n      swap2\n      pop\n      swap1\n      pop\n      sload\n      dup2\n      jump\t// out\n        /* \"@openzeppelin/contracts/security/ReentrancyGuard.sol\":2336:2623  function _nonReentrantBefore() private {... */\n    tag_93:\n        /* \"@openzeppelin/contracts/security/ReentrancyGuard.sol\":1759:1760  2 */\n      0x02\n        /* \"@openzeppelin/contracts/security/ReentrancyGuard.sol\":2468:2475  _status */\n      sload(0x01)\n        /* \"@openzeppelin/contracts/security/ReentrancyGuard.sol\":2468:2487  _status != _ENTERED */\n      sub\n        /* \"@openzeppelin/contracts/security/ReentrancyGuard.sol\":2460:2523  require(_status != _ENTERED, \"ReentrancyGuard: reentrant call\") */\n      tag_184\n      jumpi\n      mload(0x40)\n      0x08c379a000000000000000000000000000000000000000000000000000000000\n      dup2\n      mstore\n      0x04\n      add\n      tag_185\n      swap1\n      tag_186\n      jump\t// in\n    tag_185:\n      mload(0x40)\n      dup1\n      swap2\n      sub\n      swap1\n      revert\n    tag_184:\n        /* \"@openzeppelin/contracts/security/ReentrancyGuard.sol\":1759:1760  2 */\n      0x02\n        /* \"@openzeppelin/contracts/security/ReentrancyGuard.sol\":2598:2605  _status */\n      0x01\n        /* \"@openzeppelin/contracts/security/ReentrancyGuard.sol\":2598:2616  _status = _ENTERED */\n      dup2\n      swap1\n      sstore\n      pop\n        /* \"@openzeppelin/contracts/security/ReentrancyGuard.sol\":2336:2623  function _nonReentrantBefore() private {... */\n      jump\t// out\n        /* \"contracts/PisoPaymaster.sol\":2202:2597  function _payRelayer(address relayer, uint256 amount) internal {... */\n    tag_104:\n        /* \"contracts/PisoPaymaster.sol\":2275:2286  uint256 fee */\n      0x00\n        /* \"contracts/PisoPaymaster.sol\":2289:2305  _calcFee(amount) */\n      tag_188\n        /* \"contracts/PisoPaymaster.sol\":2298:2304  amount */\n      dup3\n        /* \"contracts/PisoPaymaster.sol\":2289:2297  _calcFee */\n      tag_189\n        /* \"contracts/PisoPaymaster.sol\":2289:2305  _calcFee(amount) */\n      jump\t// in\n    tag_188:\n        /* \"contracts/PisoPaymaster.sol\":2275:2305  uint256 fee = _calcFee(amount) */\n      swap1\n      pop\n        /* \"contracts/PisoPaymaster.sol\":2315:2326  uint256 net */\n      0x00\n        /* \"contracts/PisoPaymaster.sol\":2338:2341  fee */\n      dup2\n        /* \"contracts/PisoPaymaster.sol\":2329:2335  amount */\n      dup4\n        /* \"contracts/PisoPaymaster.sol\":2329:2341  amount - fee */\n      tag_190\n      swap2\n      swap1\n      tag_102\n      jump\t// in\n    tag_190:\n        /* \"contracts/PisoPaymaster.sol\":2315:2341  uint256 net = amount - fee */\n      swap1\n      pop\n        /* \"contracts/PisoPaymaster.sol\":2359:2363  piso */\n      immutable(\"0x84a03125b104c11968e358d5f682f85e2d800fa6885d3315fc7e189cab9d099b\")\n        /* \"contracts/PisoPaymaster.sol\":2359:2372  piso.transfer */\n      0xffffffffffffffffffffffffffffffffffffffff\n      and\n      0xa9059cbb\n        /* \"contracts/PisoPaymaster.sol\":2373:2380  relayer */\n      dup6\n        /* \"contracts/PisoPaymaster.sol\":2382:2385  net */\n      dup4\n        /* \"contracts/PisoPaymaster.sol\":2359:2386  piso.transfer(relayer, net) */\n      mload(0x40)\n      dup4\n      0xffffffff\n      and\n      0xe0\n      shl\n      dup2\n      mstore\n      0x04\n      add\n      tag_191\n      swap3\n      swap2\n      swap1\n      tag_121\n      jump\t// in\n    tag_191:\n      0x20\n      mload(0x40)\n      dup1\n      dup4\n      sub\n      dup2\n      0x00\n      dup8\n      gas\n      call\n      iszero\n      dup1\n      iszero\n      tag_193\n      jumpi\n      returndatasize\n      0x00\n      dup1\n      returndatacopy\n      revert(0x00, returndatasize)\n    tag_193:\n      pop\n      pop\n      pop\n      pop\n      mload(0x40)\n      returndatasize\n      not(0x1f)\n      0x1f\n      dup3\n      add\n      and\n      dup3\n      add\n      dup1\n      0x40\n      mstore\n      pop\n      dup2\n      add\n      swap1\n      tag_194\n      swap2\n      swap1\n      tag_125\n      jump\t// in\n    tag_194:\n        /* \"contracts/PisoPaymaster.sol\":2351:2409  require(piso.transfer(relayer, net), \"pay relayer failed\") */\n      tag_195\n      jumpi\n      mload(0x40)\n      0x08c379a000000000000000000000000000000000000000000000000000000000\n      dup2\n      mstore\n      0x04\n      add\n      tag_196\n      swap1\n      tag_197\n      jump\t// in\n    tag_196:\n      mload(0x40)\n      dup1\n      swap2\n      sub\n      swap1\n      revert\n    tag_195:\n        /* \"contracts/PisoPaymaster.sol\":2429:2430  0 */\n      0x00\n        /* \"contracts/PisoPaymaster.sol\":2423:2426  fee */\n      dup3\n        /* \"contracts/PisoPaymaster.sol\":2423:2430  fee > 0 */\n      gt\n        /* \"contracts/PisoPaymaster.sol\":2423:2456  fee > 0 && treasury != address(0) */\n      dup1\n      iszero\n      tag_198\n      jumpi\n      pop\n        /* \"contracts/PisoPaymaster.sol\":2454:2455  0 */\n      0x00\n        /* \"contracts/PisoPaymaster.sol\":2434:2456  treasury != address(0) */\n      0xffffffffffffffffffffffffffffffffffffffff\n      and\n        /* \"contracts/PisoPaymaster.sol\":2434:2442  treasury */\n      0x03\n      0x00\n      swap1\n      sload\n      swap1\n      0x0100\n      exp\n      swap1\n      div\n      0xffffffffffffffffffffffffffffffffffffffff\n      and\n        /* \"contracts/PisoPaymaster.sol\":2434:2456  treasury != address(0) */\n      0xffffffffffffffffffffffffffffffffffffffff\n      and\n      eq\n      iszero\n        /* \"contracts/PisoPaymaster.sol\":2423:2456  fee > 0 && treasury != address(0) */\n    tag_198:\n        /* \"contracts/PisoPaymaster.sol\":2419:2543  if (fee > 0 && treasury != address(0)) {... */\n      iszero\n      tag_199\n      jumpi\n        /* \"contracts/PisoPaymaster.sol\":2480:2484  piso */\n      immutable(\"0x84a03125b104c11968e358d5f682f85e2d800fa6885d3315fc7e189cab9d099b\")\n        /* \"contracts/PisoPaymaster.sol\":2480:2493  piso.transfer */\n      0xffffffffffffffffffffffffffffffffffffffff\n      and\n      0xa9059cbb\n        /* \"contracts/PisoPaymaster.sol\":2494:2502  treasury */\n      0x03\n      0x00\n      swap1\n      sload\n      swap1\n      0x0100\n      exp\n      swap1\n      div\n      0xffffffffffffffffffffffffffffffffffffffff\n      and\n        /* \"contracts/PisoPaymaster.sol\":2504:2507  fee */\n      dup5\n        /* \"contracts/PisoPaymaster.sol\":2480:2508  piso.transfer(treasury, fee) */\n      mload(0x40)\n      dup4\n      0xffffffff\n      and\n      0xe0\n      shl\n      dup2\n      mstore\n      0x04\n      add\n      tag_200\n      swap3\n      swap2\n      swap1\n      tag_121\n      jump\t// in\n    tag_200:\n      0x20\n      mload(0x40)\n      dup1\n      dup4\n      sub\n      dup2\n      0x00\n      dup8\n      gas\n      call\n      iszero\n      dup1\n      iszero\n      tag_202\n      jumpi\n      returndatasize\n      0x00\n      dup1\n      returndatacopy\n      revert(0x00, returndatasize)\n    tag_202:\n      pop\n      pop\n      pop\n      pop\n      mload(0x40)\n      returndatasize\n      not(0x1f)\n      0x1f\n      dup3\n      add\n      and\n      dup3\n      add\n      dup1\n      0x40\n      mstore\n      pop\n      dup2\n      add\n      swap1\n      tag_203\n      swap2\n      swap1\n      tag_125\n      jump\t// in\n    tag_203:\n        /* \"contracts/PisoPaymaster.sol\":2472:2532  require(piso.transfer(treasury, fee), \"pay treasury failed\") */\n      tag_204\n      jumpi\n      mload(0x40)\n      0x08c379a000000000000000000000000000000000000000000000000000000000\n      dup2\n      mstore\n      0x04\n      add\n      tag_205\n      swap1\n      tag_206\n      jump\t// in\n    tag_205:\n      mload(0x40)\n      dup1\n      swap2\n      sub\n      swap1\n      revert\n    tag_204:\n        /* \"contracts/PisoPaymaster.sol\":2419:2543  if (fee > 0 && treasury != address(0)) {... */\n    tag_199:\n        /* \"contracts/PisoPaymaster.sol\":2569:2576  relayer */\n      dup4\n        /* \"contracts/PisoPaymaster.sol\":2557:2590  RelayerPaid(relayer, amount, fee) */\n      0xffffffffffffffffffffffffffffffffffffffff\n      and\n      0xc63be668767b92798030f3590af1f2e7ca3990163fa2606c8047ed5522b246d6\n        /* \"contracts/PisoPaymaster.sol\":2578:2584  amount */\n      dup5\n        /* \"contracts/PisoPaymaster.sol\":2586:2589  fee */\n      dup5\n        /* \"contracts/PisoPaymaster.sol\":2557:2590  RelayerPaid(relayer, amount, fee) */\n      mload(0x40)\n      tag_207\n      swap3\n      swap2\n      swap1\n      tag_208\n      jump\t// in\n    tag_207:\n      mload(0x40)\n      dup1\n      swap2\n      sub\n      swap1\n      log2\n        /* \"contracts/PisoPaymaster.sol\":2265:2597  {... */\n      pop\n      pop\n        /* \"contracts/PisoPaymaster.sol\":2202:2597  function _payRelayer(address relayer, uint256 amount) internal {... */\n      pop\n      pop\n      jump\t// out\n        /* \"@openzeppelin/contracts/security/ReentrancyGuard.sol\":2629:2838  function _nonReentrantAfter() private {... */\n    tag_106:\n        /* \"@openzeppelin/contracts/security/ReentrancyGuard.sol\":1716:1717  1 */\n      0x01\n        /* \"@openzeppelin/contracts/security/ReentrancyGuard.sol\":2809:2816  _status */\n      dup1\n        /* \"@openzeppelin/contracts/security/ReentrancyGuard.sol\":2809:2831  _status = _NOT_ENTERED */\n      dup2\n      swap1\n      sstore\n      pop\n        /* \"@openzeppelin/contracts/security/ReentrancyGuard.sol\":2629:2838  function _nonReentrantAfter() private {... */\n      jump\t// out\n        /* \"@openzeppelin/contracts/utils/introspection/ERC165.sol\":730:876  function supportsInterface(bytes4 interfaceId) public view virtual returns (bool) {... */\n    tag_110:\n        /* \"@openzeppelin/contracts/utils/introspection/ERC165.sol\":806:810  bool */\n      0x00\n        /* \"@openzeppelin/contracts/utils/introspection/ERC165.sol\":844:869  type(IERC165).interfaceId */\n      0x01ffc9a700000000000000000000000000000000000000000000000000000000\n        /* \"@openzeppelin/contracts/utils/introspection/ERC165.sol\":829:869  interfaceId == type(IERC165).interfaceId */\n      not(0xffffffffffffffffffffffffffffffffffffffffffffffffffffffff)\n      and\n        /* \"@openzeppelin/contracts/utils/introspection/ERC165.sol\":829:840  interfaceId */\n      dup3\n        /* \"@openzeppelin/contracts/utils/introspection/ERC165.sol\":829:869  interfaceId == type(IERC165).interfaceId */\n      not(0xffffffffffffffffffffffffffffffffffffffffffffffffffffffff)\n      and\n      eq\n        /* \"@openzeppelin/contracts/utils/introspection/ERC165.sol\":822:869  return interfaceId == type(IERC165).interfaceId */\n      swap1\n      pop\n        /* \"@openzeppelin/contracts/utils/introspection/ERC165.sol\":730:876  function supportsInterface(bytes4 interfaceId) public view virtual returns (bool) {... */\n      swap2\n      swap1\n      pop\n      jump\t// out\n        /* \"@openzeppelin/contracts/access/AccessControl.sol\":3175:3278  function _checkRole(bytes32 role) internal view virtual {... */\n    tag_134:\n        /* \"@openzeppelin/contracts/access/AccessControl.sol\":3241:3271  _checkRole(role, _msgSender()) */\n      tag_212\n        /* \"@openzeppelin/contracts/access/AccessControl.sol\":3252:3256  role */\n      dup2\n        /* \"@openzeppelin/contracts/access/AccessControl.sol\":3258:3270  _msgSender() */\n      tag_213\n        /* \"@openzeppelin/contracts/access/AccessControl.sol\":3258:3268  _msgSender */\n      tag_140\n        /* \"@openzeppelin/contracts/access/AccessControl.sol\":3258:3270  _msgSender() */\n      jump\t// in\n    tag_213:\n        /* \"@openzeppelin/contracts/access/AccessControl.sol\":3241:3251  _checkRole */\n      tag_214\n        /* \"@openzeppelin/contracts/access/AccessControl.sol\":3241:3271  _checkRole(role, _msgSender()) */\n      jump\t// in\n    tag_212:\n        /* \"@openzeppelin/contracts/access/AccessControl.sol\":3175:3278  function _checkRole(bytes32 role) internal view virtual {... */\n      pop\n      jump\t// out\n        /* \"@openzeppelin/contracts/access/AccessControl.sol\":6155:6471  function _grantRole(bytes32 role, address account) internal virtual returns (bool) {... */\n    tag_137:\n        /* \"@openzeppelin/contracts/access/AccessControl.sol\":6232:6236  bool */\n      0x00\n        /* \"@openzeppelin/contracts/access/AccessControl.sol\":6253:6275  hasRole(role, account) */\n      tag_216\n        /* \"@openzeppelin/contracts/access/AccessControl.sol\":6261:6265  role */\n      dup4\n        /* \"@openzeppelin/contracts/access/AccessControl.sol\":6267:6274  account */\n      dup4\n        /* \"@openzeppelin/contracts/access/AccessControl.sol\":6253:6260  hasRole */\n      tag_64\n        /* \"@openzeppelin/contracts/access/AccessControl.sol\":6253:6275  hasRole(role, account) */\n      jump\t// in\n    tag_216:\n        /* \"@openzeppelin/contracts/access/AccessControl.sol\":6248:6465  if (!hasRole(role, account)) {... */\n      tag_217\n      jumpi\n        /* \"@openzeppelin/contracts/access/AccessControl.sol\":6323:6327  true */\n      0x01\n        /* \"@openzeppelin/contracts/access/AccessControl.sol\":6291:6297  _roles */\n      0x00\n        /* \"@openzeppelin/contracts/access/AccessControl.sol\":6291:6303  _roles[role] */\n      dup1\n        /* \"@openzeppelin/contracts/access/AccessControl.sol\":6298:6302  role */\n      dup6\n        /* \"@openzeppelin/contracts/access/AccessControl.sol\":6291:6303  _roles[role] */\n      dup2\n      mstore\n      0x20\n      add\n      swap1\n      dup2\n      mstore\n      0x20\n      add\n      0x00\n      keccak256\n        /* \"@openzeppelin/contracts/access/AccessControl.sol\":6291:6311  _roles[role].hasRole */\n      0x00\n      add\n        /* \"@openzeppelin/contracts/access/AccessControl.sol\":6291:6320  _roles[role].hasRole[account] */\n      0x00\n        /* \"@openzeppelin/contracts/access/AccessControl.sol\":6312:6319  account */\n      dup5\n        /* \"@openzeppelin/contracts/access/AccessControl.sol\":6291:6320  _roles[role].hasRole[account] */\n      0xffffffffffffffffffffffffffffffffffffffff\n      and\n      0xffffffffffffffffffffffffffffffffffffffff\n      and\n      dup2\n      mstore\n      0x20\n      add\n      swap1\n      dup2\n      mstore\n      0x20\n      add\n      0x00\n      keccak256\n      0x00\n        /* \"@openzeppelin/contracts/access/AccessControl.sol\":6291:6327  _roles[role].hasRole[account] = true */\n      0x0100\n      exp\n      dup2\n      sload\n      dup2\n      0xff\n      mul\n      not\n      and\n      swap1\n      dup4\n      iszero\n      iszero\n      mul\n      or\n      swap1\n      sstore\n      pop\n        /* \"@openzeppelin/contracts/access/AccessControl.sol\":6373:6385  _msgSender() */\n      tag_218\n        /* \"@openzeppelin/contracts/access/AccessControl.sol\":6373:6383  _msgSender */\n      tag_140\n        /* \"@openzeppelin/contracts/access/AccessControl.sol\":6373:6385  _msgSender() */\n      jump\t// in\n    tag_218:\n        /* \"@openzeppelin/contracts/access/AccessControl.sol\":6346:6386  RoleGranted(role, account, _msgSender()) */\n      0xffffffffffffffffffffffffffffffffffffffff\n      and\n        /* \"@openzeppelin/contracts/access/AccessControl.sol\":6364:6371  account */\n      dup3\n        /* \"@openzeppelin/contracts/access/AccessControl.sol\":6346:6386  RoleGranted(role, account, _msgSender()) */\n      0xffffffffffffffffffffffffffffffffffffffff\n      and\n        /* \"@openzeppelin/contracts/access/AccessControl.sol\":6358:6362  role */\n      dup5\n        /* \"@openzeppelin/contracts/access/AccessControl.sol\":6346:6386  RoleGranted(role, account, _msgSender()) */\n      0x2f8788117e7eff1d82e926ec794901d17c78024a50270940304540a733656f0d\n      mload(0x40)\n      mload(0x40)\n      dup1\n      swap2\n      sub\n      swap1\n      log4\n        /* \"@openzeppelin/contracts/access/AccessControl.sol\":6407:6411  true */\n      0x01\n        /* \"@openzeppelin/contracts/access/AccessControl.sol\":6400:6411  return true */\n      swap1\n      pop\n      jump(tag_215)\n        /* \"@openzeppelin/contracts/access/AccessControl.sol\":6248:6465  if (!hasRole(role, account)) {... */\n    tag_217:\n        /* \"@openzeppelin/contracts/access/AccessControl.sol\":6449:6454  false */\n      0x00\n        /* \"@openzeppelin/contracts/access/AccessControl.sol\":6442:6454  return false */\n      swap1\n      pop\n        /* \"@openzeppelin/contracts/access/AccessControl.sol\":6155:6471  function _grantRole(bytes32 role, address account) internal virtual returns (bool) {... */\n    tag_215:\n      swap3\n      swap2\n      pop\n      pop\n      jump\t// out\n        /* \"@openzeppelin/contracts/utils/Context.sol\":656:752  function _msgSender() internal view virtual returns (address) {... */\n    tag_140:\n        /* \"@openzeppelin/contracts/utils/Context.sol\":709:716  address */\n      0x00\n        /* \"@openzeppelin/contracts/utils/Context.sol\":735:745  msg.sender */\n      caller\n        /* \"@openzeppelin/contracts/utils/Context.sol\":728:745  return msg.sender */\n      swap1\n      pop\n        /* \"@openzeppelin/contracts/utils/Context.sol\":656:752  function _msgSender() internal view virtual returns (address) {... */\n      swap1\n      jump\t// out\n        /* \"@openzeppelin/contracts/access/AccessControl.sol\":6708:7025  function _revokeRole(bytes32 role, address account) internal virtual returns (bool) {... */\n    tag_143:\n        /* \"@openzeppelin/contracts/access/AccessControl.sol\":6786:6790  bool */\n      0x00\n        /* \"@openzeppelin/contracts/access/AccessControl.sol\":6806:6828  hasRole(role, account) */\n      tag_222\n        /* \"@openzeppelin/contracts/access/AccessControl.sol\":6814:6818  role */\n      dup4\n        /* \"@openzeppelin/contracts/access/AccessControl.sol\":6820:6827  account */\n      dup4\n        /* \"@openzeppelin/contracts/access/AccessControl.sol\":6806:6813  hasRole */\n      tag_64\n        /* \"@openzeppelin/contracts/access/AccessControl.sol\":6806:6828  hasRole(role, account) */\n      jump\t// in\n    tag_222:\n        /* \"@openzeppelin/contracts/access/AccessControl.sol\":6802:7019  if (hasRole(role, account)) {... */\n      iszero\n      tag_223\n      jumpi\n        /* \"@openzeppelin/contracts/access/AccessControl.sol\":6876:6881  false */\n      0x00\n        /* \"@openzeppelin/contracts/access/AccessControl.sol\":6844:6850  _roles */\n      dup1\n        /* \"@openzeppelin/contracts/access/AccessControl.sol\":6844:6856  _roles[role] */\n      0x00\n        /* \"@openzeppelin/contracts/access/AccessControl.sol\":6851:6855  role */\n      dup6\n        /* \"@openzeppelin/contracts/access/AccessControl.sol\":6844:6856  _roles[role] */\n      dup2\n      mstore\n      0x20\n      add\n      swap1\n      dup2\n      mstore\n      0x20\n      add\n      0x00\n      keccak256\n        /* \"@openzeppelin/contracts/access/AccessControl.sol\":6844:6864  _roles[role].hasRole */\n      0x00\n      add\n        /* \"@openzeppelin/contracts/access/AccessControl.sol\":6844:6873  _roles[role].hasRole[account] */\n      0x00\n        /* \"@openzeppelin/contracts/access/AccessControl.sol\":6865:6872  account */\n      dup5\n        /* \"@openzeppelin/contracts/access/AccessControl.sol\":6844:6873  _roles[role].hasRole[account] */\n      0xffffffffffffffffffffffffffffffffffffffff\n      and\n      0xffffffffffffffffffffffffffffffffffffffff\n      and\n      dup2\n      mstore\n      0x20\n      add\n      swap1\n      dup2\n      mstore\n      0x20\n      add\n      0x00\n      keccak256\n      0x00\n        /* \"@openzeppelin/contracts/access/AccessControl.sol\":6844:6881  _roles[role].hasRole[account] = false */\n      0x0100\n      exp\n      dup2\n      sload\n      dup2\n      0xff\n      mul\n      not\n      and\n      swap1\n      dup4\n      iszero\n      iszero\n      mul\n      or\n      swap1\n      sstore\n      pop\n        /* \"@openzeppelin/contracts/access/AccessControl.sol\":6927:6939  _msgSender() */\n      tag_224\n        /* \"@openzeppelin/contracts/access/AccessControl.sol\":6927:6937  _msgSender */\n      tag_140\n        /* \"@openzeppelin/contracts/access/AccessControl.sol\":6927:6939  _msgSender() */\n      jump\t// in\n    tag_224:\n        /* \"@openzeppelin/contracts/access/AccessControl.sol\":6900:6940  RoleRevoked(role, account, _msgSender()) */\n      0xffffffffffffffffffffffffffffffffffffffff\n      and\n        /* \"@openzeppelin/contracts/access/AccessControl.sol\":6918:6925  account */\n      dup3\n        /* \"@openzeppelin/contracts/access/AccessControl.sol\":6900:6940  RoleRevoked(role, account, _msgSender()) */\n      0xffffffffffffffffffffffffffffffffffffffff\n      and\n        /* \"@openzeppelin/contracts/access/AccessControl.sol\":6912:6916  role */\n      dup5\n        /* \"@openzeppelin/contracts/access/AccessControl.sol\":6900:6940  RoleRevoked(role, account, _msgSender()) */\n      0xf6391f5c32d9c69d2a47ea670b442974b53935d1edc7fd64eb21e047a839171b\n      mload(0x40)\n      mload(0x40)\n      dup1\n      swap2\n      sub\n      swap1\n      log4\n        /* \"@openzeppelin/contracts/access/AccessControl.sol\":6961:6965  true */\n      0x01\n        /* \"@openzeppelin/contracts/access/AccessControl.sol\":6954:6965  return true */\n      swap1\n      pop\n      jump(tag_221)\n        /* \"@openzeppelin/contracts/access/AccessControl.sol\":6802:7019  if (hasRole(role, account)) {... */\n    tag_223:\n        /* \"@openzeppelin/contracts/access/AccessControl.sol\":7003:7008  false */\n      0x00\n        /* \"@openzeppelin/contracts/access/AccessControl.sol\":6996:7008  return false */\n      swap1\n      pop\n        /* \"@openzeppelin/contracts/access/AccessControl.sol\":6708:7025  function _revokeRole(bytes32 role, address account) internal virtual returns (bool) {... */\n    tag_221:\n      swap3\n      swap2\n      pop\n      pop\n      jump\t// out\n        /* \"contracts/PisoPaymaster.sol\":2603:2718  function _calcFee(uint256 amount) internal view returns (uint256) {... */\n    tag_189:\n        /* \"contracts/PisoPaymaster.sol\":2660:2667  uint256 */\n      0x00\n        /* \"contracts/PisoPaymaster.sol\":2706:2711  10000 */\n      0x2710\n        /* \"contracts/PisoPaymaster.sol\":2696:2702  feeBps */\n      sload(0x02)\n        /* \"contracts/PisoPaymaster.sol\":2687:2693  amount */\n      dup4\n        /* \"contracts/PisoPaymaster.sol\":2687:2702  amount * feeBps */\n      tag_227\n      swap2\n      swap1\n      tag_228\n      jump\t// in\n    tag_227:\n        /* \"contracts/PisoPaymaster.sol\":2686:2711  (amount * feeBps) / 10000 */\n      tag_229\n      swap2\n      swap1\n      tag_230\n      jump\t// in\n    tag_229:\n        /* \"contracts/PisoPaymaster.sol\":2679:2711  return (amount * feeBps) / 10000 */\n      swap1\n      pop\n        /* \"contracts/PisoPaymaster.sol\":2603:2718  function _calcFee(uint256 amount) internal view returns (uint256) {... */\n      swap2\n      swap1\n      pop\n      jump\t// out\n        /* \"@openzeppelin/contracts/access/AccessControl.sol\":3408:3605  function _checkRole(bytes32 role, address account) internal view virtual {... */\n    tag_214:\n        /* \"@openzeppelin/contracts/access/AccessControl.sol\":3496:3518  hasRole(role, account) */\n      tag_232\n        /* \"@openzeppelin/contracts/access/AccessControl.sol\":3504:3508  role */\n      dup3\n        /* \"@openzeppelin/contracts/access/AccessControl.sol\":3510:3517  account */\n      dup3\n        /* \"@openzeppelin/contracts/access/AccessControl.sol\":3496:3503  hasRole */\n      tag_64\n        /* \"@openzeppelin/contracts/access/AccessControl.sol\":3496:3518  hasRole(role, account) */\n      jump\t// in\n    tag_232:\n        /* \"@openzeppelin/contracts/access/AccessControl.sol\":3491:3599  if (!hasRole(role, account)) {... */\n      tag_233\n      jumpi\n        /* \"@openzeppelin/contracts/access/AccessControl.sol\":3574:3581  account */\n      dup1\n        /* \"@openzeppelin/contracts/access/AccessControl.sol\":3583:3587  role */\n      dup3\n        /* \"@openzeppelin/contracts/access/AccessControl.sol\":3541:3588  AccessControlUnauthorizedAccount(account, role) */\n      mload(0x40)\n      0xe2517d3f00000000000000000000000000000000000000000000000000000000\n      dup2\n      mstore\n      0x04\n      add\n      tag_234\n      swap3\n      swap2\n      swap1\n      tag_235\n      jump\t// in\n    tag_234:\n      mload(0x40)\n      dup1\n      swap2\n      sub\n      swap1\n      revert\n        /* \"@openzeppelin/contracts/access/AccessControl.sol\":3491:3599  if (!hasRole(role, account)) {... */\n    tag_233:\n        /* \"@openzeppelin/contracts/access/AccessControl.sol\":3408:3605  function _checkRole(bytes32 role, address account) internal view virtual {... */\n      pop\n      pop\n      jump\t// out\n        /* \"#utility.yul\":88:205   */\n    tag_237:\n        /* \"#utility.yul\":197:198   */\n      0x00\n        /* \"#utility.yul\":194:195   */\n      dup1\n        /* \"#utility.yul\":187:199   */\n      revert\n        /* \"#utility.yul\":334:460   */\n    tag_239:\n        /* \"#utility.yul\":371:378   */\n      0x00\n        /* \"#utility.yul\":411:453   */\n      0xffffffffffffffffffffffffffffffffffffffff\n        /* \"#utility.yul\":404:409   */\n      dup3\n        /* \"#utility.yul\":400:454   */\n      and\n        /* \"#utility.yul\":389:454   */\n      swap1\n      pop\n        /* \"#utility.yul\":334:460   */\n      swap2\n      swap1\n      pop\n      jump\t// out\n        /* \"#utility.yul\":466:562   */\n    tag_240:\n        /* \"#utility.yul\":503:510   */\n      0x00\n        /* \"#utility.yul\":532:556   */\n      tag_290\n        /* \"#utility.yul\":550:555   */\n      dup3\n        /* \"#utility.yul\":532:556   */\n      tag_239\n      jump\t// in\n    tag_290:\n        /* \"#utility.yul\":521:556   */\n      swap1\n      pop\n        /* \"#utility.yul\":466:562   */\n      swap2\n      swap1\n      pop\n      jump\t// out\n        /* \"#utility.yul\":568:690   */\n    tag_241:\n        /* \"#utility.yul\":641:665   */\n      tag_292\n        /* \"#utility.yul\":659:664   */\n      dup2\n        /* \"#utility.yul\":641:665   */\n      tag_240\n      jump\t// in\n    tag_292:\n        /* \"#utility.yul\":634:639   */\n      dup2\n        /* \"#utility.yul\":631:666   */\n      eq\n        /* \"#utility.yul\":621:684   */\n      tag_293\n      jumpi\n        /* \"#utility.yul\":680:681   */\n      0x00\n        /* \"#utility.yul\":677:678   */\n      dup1\n        /* \"#utility.yul\":670:682   */\n      revert\n        /* \"#utility.yul\":621:684   */\n    tag_293:\n        /* \"#utility.yul\":568:690   */\n      pop\n      jump\t// out\n        /* \"#utility.yul\":696:835   */\n    tag_242:\n        /* \"#utility.yul\":742:747   */\n      0x00\n        /* \"#utility.yul\":780:786   */\n      dup2\n        /* \"#utility.yul\":767:787   */\n      calldataload\n        /* \"#utility.yul\":758:787   */\n      swap1\n      pop\n        /* \"#utility.yul\":796:829   */\n      tag_295\n        /* \"#utility.yul\":823:828   */\n      dup2\n        /* \"#utility.yul\":796:829   */\n      tag_241\n      jump\t// in\n    tag_295:\n        /* \"#utility.yul\":696:835   */\n      swap3\n      swap2\n      pop\n      pop\n      jump\t// out\n        /* \"#utility.yul\":841:918   */\n    tag_243:\n        /* \"#utility.yul\":878:885   */\n      0x00\n        /* \"#utility.yul\":907:912   */\n      dup2\n        /* \"#utility.yul\":896:912   */\n      swap1\n      pop\n        /* \"#utility.yul\":841:918   */\n      swap2\n      swap1\n      pop\n      jump\t// out\n        /* \"#utility.yul\":924:1046   */\n    tag_244:\n        /* \"#utility.yul\":997:1021   */\n      tag_298\n        /* \"#utility.yul\":1015:1020   */\n      dup2\n        /* \"#utility.yul\":997:1021   */\n      tag_243\n      jump\t// in\n    tag_298:\n        /* \"#utility.yul\":990:995   */\n      dup2\n        /* \"#utility.yul\":987:1022   */\n      eq\n        /* \"#utility.yul\":977:1040   */\n      tag_299\n      jumpi\n        /* \"#utility.yul\":1036:1037   */\n      0x00\n        /* \"#utility.yul\":1033:1034   */\n      dup1\n        /* \"#utility.yul\":1026:1038   */\n      revert\n        /* \"#utility.yul\":977:1040   */\n    tag_299:\n        /* \"#utility.yul\":924:1046   */\n      pop\n      jump\t// out\n        /* \"#utility.yul\":1052:1191   */\n    tag_245:\n        /* \"#utility.yul\":1098:1103   */\n      0x00\n        /* \"#utility.yul\":1136:1142   */\n      dup2\n        /* \"#utility.yul\":1123:1143   */\n      calldataload\n        /* \"#utility.yul\":1114:1143   */\n      swap1\n      pop\n        /* \"#utility.yul\":1152:1185   */\n      tag_301\n        /* \"#utility.yul\":1179:1184   */\n      dup2\n        /* \"#utility.yul\":1152:1185   */\n      tag_244\n      jump\t// in\n    tag_301:\n        /* \"#utility.yul\":1052:1191   */\n      swap3\n      swap2\n      pop\n      pop\n      jump\t// out\n        /* \"#utility.yul\":1197:1671   */\n    tag_25:\n        /* \"#utility.yul\":1265:1271   */\n      0x00\n        /* \"#utility.yul\":1273:1279   */\n      dup1\n        /* \"#utility.yul\":1322:1324   */\n      0x40\n        /* \"#utility.yul\":1310:1319   */\n      dup4\n        /* \"#utility.yul\":1301:1308   */\n      dup6\n        /* \"#utility.yul\":1297:1320   */\n      sub\n        /* \"#utility.yul\":1293:1325   */\n      slt\n        /* \"#utility.yul\":1290:1409   */\n      iszero\n      tag_303\n      jumpi\n        /* \"#utility.yul\":1328:1407   */\n      tag_304\n      tag_237\n      jump\t// in\n    tag_304:\n        /* \"#utility.yul\":1290:1409   */\n    tag_303:\n        /* \"#utility.yul\":1448:1449   */\n      0x00\n        /* \"#utility.yul\":1473:1526   */\n      tag_305\n        /* \"#utility.yul\":1518:1525   */\n      dup6\n        /* \"#utility.yul\":1509:1515   */\n      dup3\n        /* \"#utility.yul\":1498:1507   */\n      dup7\n        /* \"#utility.yul\":1494:1516   */\n      add\n        /* \"#utility.yul\":1473:1526   */\n      tag_242\n      jump\t// in\n    tag_305:\n        /* \"#utility.yul\":1463:1526   */\n      swap3\n      pop\n        /* \"#utility.yul\":1419:1536   */\n      pop\n        /* \"#utility.yul\":1575:1577   */\n      0x20\n        /* \"#utility.yul\":1601:1654   */\n      tag_306\n        /* \"#utility.yul\":1646:1653   */\n      dup6\n        /* \"#utility.yul\":1637:1643   */\n      dup3\n        /* \"#utility.yul\":1626:1635   */\n      dup7\n        /* \"#utility.yul\":1622:1644   */\n      add\n        /* \"#utility.yul\":1601:1654   */\n      tag_245\n      jump\t// in\n    tag_306:\n        /* \"#utility.yul\":1591:1654   */\n      swap2\n      pop\n        /* \"#utility.yul\":1546:1664   */\n      pop\n        /* \"#utility.yul\":1197:1671   */\n      swap3\n      pop\n      swap3\n      swap1\n      pop\n      jump\t// out\n        /* \"#utility.yul\":1677:1826   */\n    tag_246:\n        /* \"#utility.yul\":1713:1720   */\n      0x00\n        /* \"#utility.yul\":1753:1819   */\n      0xffffffff00000000000000000000000000000000000000000000000000000000\n        /* \"#utility.yul\":1746:1751   */\n      dup3\n        /* \"#utility.yul\":1742:1820   */\n      and\n        /* \"#utility.yul\":1731:1820   */\n      swap1\n      pop\n        /* \"#utility.yul\":1677:1826   */\n      swap2\n      swap1\n      pop\n      jump\t// out\n        /* \"#utility.yul\":1832:1952   */\n    tag_247:\n        /* \"#utility.yul\":1904:1927   */\n      tag_309\n        /* \"#utility.yul\":1921:1926   */\n      dup2\n        /* \"#utility.yul\":1904:1927   */\n      tag_246\n      jump\t// in\n    tag_309:\n        /* \"#utility.yul\":1897:1902   */\n      dup2\n        /* \"#utility.yul\":1894:1928   */\n      eq\n        /* \"#utility.yul\":1884:1946   */\n      tag_310\n      jumpi\n        /* \"#utility.yul\":1942:1943   */\n      0x00\n        /* \"#utility.yul\":1939:1940   */\n      dup1\n        /* \"#utility.yul\":1932:1944   */\n      revert\n        /* \"#utility.yul\":1884:1946   */\n    tag_310:\n        /* \"#utility.yul\":1832:1952   */\n      pop\n      jump\t// out\n        /* \"#utility.yul\":1958:2095   */\n    tag_248:\n        /* \"#utility.yul\":2003:2008   */\n      0x00\n        /* \"#utility.yul\":2041:2047   */\n      dup2\n        /* \"#utility.yul\":2028:2048   */\n      calldataload\n        /* \"#utility.yul\":2019:2048   */\n      swap1\n      pop\n        /* \"#utility.yul\":2057:2089   */\n      tag_312\n        /* \"#utility.yul\":2083:2088   */\n      dup2\n        /* \"#utility.yul\":2057:2089   */\n      tag_247\n      jump\t// in\n    tag_312:\n        /* \"#utility.yul\":1958:2095   */\n      swap3\n      swap2\n      pop\n      pop\n      jump\t// out\n        /* \"#utility.yul\":2101:2428   */\n    tag_29:\n        /* \"#utility.yul\":2159:2165   */\n      0x00\n        /* \"#utility.yul\":2208:2210   */\n      0x20\n        /* \"#utility.yul\":2196:2205   */\n      dup3\n        /* \"#utility.yul\":2187:2194   */\n      dup5\n        /* \"#utility.yul\":2183:2206   */\n      sub\n        /* \"#utility.yul\":2179:2211   */\n      slt\n        /* \"#utility.yul\":2176:2295   */\n      iszero\n      tag_314\n      jumpi\n        /* \"#utility.yul\":2214:2293   */\n      tag_315\n      tag_237\n      jump\t// in\n    tag_315:\n        /* \"#utility.yul\":2176:2295   */\n    tag_314:\n        /* \"#utility.yul\":2334:2335   */\n      0x00\n        /* \"#utility.yul\":2359:2411   */\n      tag_316\n        /* \"#utility.yul\":2403:2410   */\n      dup5\n        /* \"#utility.yul\":2394:2400   */\n      dup3\n        /* \"#utility.yul\":2383:2392   */\n      dup6\n        /* \"#utility.yul\":2379:2401   */\n      add\n        /* \"#utility.yul\":2359:2411   */\n      tag_248\n      jump\t// in\n    tag_316:\n        /* \"#utility.yul\":2349:2411   */\n      swap2\n      pop\n        /* \"#utility.yul\":2305:2421   */\n      pop\n        /* \"#utility.yul\":2101:2428   */\n      swap3\n      swap2\n      pop\n      pop\n      jump\t// out\n        /* \"#utility.yul\":2434:2524   */\n    tag_249:\n        /* \"#utility.yul\":2468:2475   */\n      0x00\n        /* \"#utility.yul\":2511:2516   */\n      dup2\n        /* \"#utility.yul\":2504:2517   */\n      iszero\n        /* \"#utility.yul\":2497:2518   */\n      iszero\n        /* \"#utility.yul\":2486:2518   */\n      swap1\n      pop\n        /* \"#utility.yul\":2434:2524   */\n      swap2\n      swap1\n      pop\n      jump\t// out\n        /* \"#utility.yul\":2530:2639   */\n    tag_250:\n        /* \"#utility.yul\":2611:2632   */\n      tag_319\n        /* \"#utility.yul\":2626:2631   */\n      dup2\n        /* \"#utility.yul\":2611:2632   */\n      tag_249\n      jump\t// in\n    tag_319:\n        /* \"#utility.yul\":2606:2609   */\n      dup3\n        /* \"#utility.yul\":2599:2633   */\n      mstore\n        /* \"#utility.yul\":2530:2639   */\n      pop\n      pop\n      jump\t// out\n        /* \"#utility.yul\":2645:2855   */\n    tag_32:\n        /* \"#utility.yul\":2732:2736   */\n      0x00\n        /* \"#utility.yul\":2770:2772   */\n      0x20\n        /* \"#utility.yul\":2759:2768   */\n      dup3\n        /* \"#utility.yul\":2755:2773   */\n      add\n        /* \"#utility.yul\":2747:2773   */\n      swap1\n      pop\n        /* \"#utility.yul\":2783:2848   */\n      tag_321\n        /* \"#utility.yul\":2845:2846   */\n      0x00\n        /* \"#utility.yul\":2834:2843   */\n      dup4\n        /* \"#utility.yul\":2830:2847   */\n      add\n        /* \"#utility.yul\":2821:2827   */\n      dup5\n        /* \"#utility.yul\":2783:2848   */\n      tag_250\n      jump\t// in\n    tag_321:\n        /* \"#utility.yul\":2645:2855   */\n      swap3\n      swap2\n      pop\n      pop\n      jump\t// out\n        /* \"#utility.yul\":2861:2938   */\n    tag_251:\n        /* \"#utility.yul\":2898:2905   */\n      0x00\n        /* \"#utility.yul\":2927:2932   */\n      dup2\n        /* \"#utility.yul\":2916:2932   */\n      swap1\n      pop\n        /* \"#utility.yul\":2861:2938   */\n      swap2\n      swap1\n      pop\n      jump\t// out\n        /* \"#utility.yul\":2944:3066   */\n    tag_252:\n        /* \"#utility.yul\":3017:3041   */\n      tag_324\n        /* \"#utility.yul\":3035:3040   */\n      dup2\n        /* \"#utility.yul\":3017:3041   */\n      tag_251\n      jump\t// in\n    tag_324:\n        /* \"#utility.yul\":3010:3015   */\n      dup2\n        /* \"#utility.yul\":3007:3042   */\n      eq\n        /* \"#utility.yul\":2997:3060   */\n      tag_325\n      jumpi\n        /* \"#utility.yul\":3056:3057   */\n      0x00\n        /* \"#utility.yul\":3053:3054   */\n      dup1\n        /* \"#utility.yul\":3046:3058   */\n      revert\n        /* \"#utility.yul\":2997:3060   */\n    tag_325:\n        /* \"#utility.yul\":2944:3066   */\n      pop\n      jump\t// out\n        /* \"#utility.yul\":3072:3211   */\n    tag_253:\n        /* \"#utility.yul\":3118:3123   */\n      0x00\n        /* \"#utility.yul\":3156:3162   */\n      dup2\n        /* \"#utility.yul\":3143:3163   */\n      calldataload\n        /* \"#utility.yul\":3134:3163   */\n      swap1\n      pop\n        /* \"#utility.yul\":3172:3205   */\n      tag_327\n        /* \"#utility.yul\":3199:3204   */\n      dup2\n        /* \"#utility.yul\":3172:3205   */\n      tag_252\n      jump\t// in\n    tag_327:\n        /* \"#utility.yul\":3072:3211   */\n      swap3\n      swap2\n      pop\n      pop\n      jump\t// out\n        /* \"#utility.yul\":3217:3546   */\n    tag_35:\n        /* \"#utility.yul\":3276:3282   */\n      0x00\n        /* \"#utility.yul\":3325:3327   */\n      0x20\n        /* \"#utility.yul\":3313:3322   */\n      dup3\n        /* \"#utility.yul\":3304:3311   */\n      dup5\n        /* \"#utility.yul\":3300:3323   */\n      sub\n        /* \"#utility.yul\":3296:3328   */\n      slt\n        /* \"#utility.yul\":3293:3412   */\n      iszero\n      tag_329\n      jumpi\n        /* \"#utility.yul\":3331:3410   */\n      tag_330\n      tag_237\n      jump\t// in\n    tag_330:\n        /* \"#utility.yul\":3293:3412   */\n    tag_329:\n        /* \"#utility.yul\":3451:3452   */\n      0x00\n        /* \"#utility.yul\":3476:3529   */\n      tag_331\n        /* \"#utility.yul\":3521:3528   */\n      dup5\n        /* \"#utility.yul\":3512:3518   */\n      dup3\n        /* \"#utility.yul\":3501:3510   */\n      dup6\n        /* \"#utility.yul\":3497:3519   */\n      add\n        /* \"#utility.yul\":3476:3529   */\n      tag_253\n      jump\t// in\n    tag_331:\n        /* \"#utility.yul\":3466:3529   */\n      swap2\n      pop\n        /* \"#utility.yul\":3422:3539   */\n      pop\n        /* \"#utility.yul\":3217:3546   */\n      swap3\n      swap2\n      pop\n      pop\n      jump\t// out\n        /* \"#utility.yul\":3552:3670   */\n    tag_254:\n        /* \"#utility.yul\":3639:3663   */\n      tag_333\n        /* \"#utility.yul\":3657:3662   */\n      dup2\n        /* \"#utility.yul\":3639:3663   */\n      tag_251\n      jump\t// in\n    tag_333:\n        /* \"#utility.yul\":3634:3637   */\n      dup3\n        /* \"#utility.yul\":3627:3664   */\n      mstore\n        /* \"#utility.yul\":3552:3670   */\n      pop\n      pop\n      jump\t// out\n        /* \"#utility.yul\":3676:3898   */\n    tag_38:\n        /* \"#utility.yul\":3769:3773   */\n      0x00\n        /* \"#utility.yul\":3807:3809   */\n      0x20\n        /* \"#utility.yul\":3796:3805   */\n      dup3\n        /* \"#utility.yul\":3792:3810   */\n      add\n        /* \"#utility.yul\":3784:3810   */\n      swap1\n      pop\n        /* \"#utility.yul\":3820:3891   */\n      tag_335\n        /* \"#utility.yul\":3888:3889   */\n      0x00\n        /* \"#utility.yul\":3877:3886   */\n      dup4\n        /* \"#utility.yul\":3873:3890   */\n      add\n        /* \"#utility.yul\":3864:3870   */\n      dup5\n        /* \"#utility.yul\":3820:3891   */\n      tag_254\n      jump\t// in\n    tag_335:\n        /* \"#utility.yul\":3676:3898   */\n      swap3\n      swap2\n      pop\n      pop\n      jump\t// out\n        /* \"#utility.yul\":3904:4022   */\n    tag_255:\n        /* \"#utility.yul\":3991:4015   */\n      tag_337\n        /* \"#utility.yul\":4009:4014   */\n      dup2\n        /* \"#utility.yul\":3991:4015   */\n      tag_243\n      jump\t// in\n    tag_337:\n        /* \"#utility.yul\":3986:3989   */\n      dup3\n        /* \"#utility.yul\":3979:4016   */\n      mstore\n        /* \"#utility.yul\":3904:4022   */\n      pop\n      pop\n      jump\t// out\n        /* \"#utility.yul\":4028:4250   */\n    tag_42:\n        /* \"#utility.yul\":4121:4125   */\n      0x00\n        /* \"#utility.yul\":4159:4161   */\n      0x20\n        /* \"#utility.yul\":4148:4157   */\n      dup3\n        /* \"#utility.yul\":4144:4162   */\n      add\n        /* \"#utility.yul\":4136:4162   */\n      swap1\n      pop\n        /* \"#utility.yul\":4172:4243   */\n      tag_339\n        /* \"#utility.yul\":4240:4241   */\n      0x00\n        /* \"#utility.yul\":4229:4238   */\n      dup4\n        /* \"#utility.yul\":4225:4242   */\n      add\n        /* \"#utility.yul\":4216:4222   */\n      dup5\n        /* \"#utility.yul\":4172:4243   */\n      tag_255\n      jump\t// in\n    tag_339:\n        /* \"#utility.yul\":4028:4250   */\n      swap3\n      swap2\n      pop\n      pop\n      jump\t// out\n        /* \"#utility.yul\":4256:4585   */\n    tag_45:\n        /* \"#utility.yul\":4315:4321   */\n      0x00\n        /* \"#utility.yul\":4364:4366   */\n      0x20\n        /* \"#utility.yul\":4352:4361   */\n      dup3\n        /* \"#utility.yul\":4343:4350   */\n      dup5\n        /* \"#utility.yul\":4339:4362   */\n      sub\n        /* \"#utility.yul\":4335:4367   */\n      slt\n        /* \"#utility.yul\":4332:4451   */\n      iszero\n      tag_341\n      jumpi\n        /* \"#utility.yul\":4370:4449   */\n      tag_342\n      tag_237\n      jump\t// in\n    tag_342:\n        /* \"#utility.yul\":4332:4451   */\n    tag_341:\n        /* \"#utility.yul\":4490:4491   */\n      0x00\n        /* \"#utility.yul\":4515:4568   */\n      tag_343\n        /* \"#utility.yul\":4560:4567   */\n      dup5\n        /* \"#utility.yul\":4551:4557   */\n      dup3\n        /* \"#utility.yul\":4540:4549   */\n      dup6\n        /* \"#utility.yul\":4536:4558   */\n      add\n        /* \"#utility.yul\":4515:4568   */\n      tag_245\n      jump\t// in\n    tag_343:\n        /* \"#utility.yul\":4505:4568   */\n      swap2\n      pop\n        /* \"#utility.yul\":4461:4578   */\n      pop\n        /* \"#utility.yul\":4256:4585   */\n      swap3\n      swap2\n      pop\n      pop\n      jump\t// out\n        /* \"#utility.yul\":4591:5065   */\n    tag_49:\n        /* \"#utility.yul\":4659:4665   */\n      0x00\n        /* \"#utility.yul\":4667:4673   */\n      dup1\n        /* \"#utility.yul\":4716:4718   */\n      0x40\n        /* \"#utility.yul\":4704:4713   */\n      dup4\n        /* \"#utility.yul\":4695:4702   */\n      dup6\n        /* \"#utility.yul\":4691:4714   */\n      sub\n        /* \"#utility.yul\":4687:4719   */\n      slt\n        /* \"#utility.yul\":4684:4803   */\n      iszero\n      tag_345\n      jumpi\n        /* \"#utility.yul\":4722:4801   */\n      tag_346\n      tag_237\n      jump\t// in\n    tag_346:\n        /* \"#utility.yul\":4684:4803   */\n    tag_345:\n        /* \"#utility.yul\":4842:4843   */\n      0x00\n        /* \"#utility.yul\":4867:4920   */\n      tag_347\n        /* \"#utility.yul\":4912:4919   */\n      dup6\n        /* \"#utility.yul\":4903:4909   */\n      dup3\n        /* \"#utility.yul\":4892:4901   */\n      dup7\n        /* \"#utility.yul\":4888:4910   */\n      add\n        /* \"#utility.yul\":4867:4920   */\n      tag_253\n      jump\t// in\n    tag_347:\n        /* \"#utility.yul\":4857:4920   */\n      swap3\n      pop\n        /* \"#utility.yul\":4813:4930   */\n      pop\n        /* \"#utility.yul\":4969:4971   */\n      0x20\n        /* \"#utility.yul\":4995:5048   */\n      tag_348\n        /* \"#utility.yul\":5040:5047   */\n      dup6\n        /* \"#utility.yul\":5031:5037   */\n      dup3\n        /* \"#utility.yul\":5020:5029   */\n      dup7\n        /* \"#utility.yul\":5016:5038   */\n      add\n        /* \"#utility.yul\":4995:5048   */\n      tag_242\n      jump\t// in\n    tag_348:\n        /* \"#utility.yul\":4985:5048   */\n      swap2\n      pop\n        /* \"#utility.yul\":4940:5058   */\n      pop\n        /* \"#utility.yul\":4591:5065   */\n      swap3\n      pop\n      swap3\n      swap1\n      pop\n      jump\t// out\n        /* \"#utility.yul\":5071:5189   */\n    tag_256:\n        /* \"#utility.yul\":5158:5182   */\n      tag_350\n        /* \"#utility.yul\":5176:5181   */\n      dup2\n        /* \"#utility.yul\":5158:5182   */\n      tag_240\n      jump\t// in\n    tag_350:\n        /* \"#utility.yul\":5153:5156   */\n      dup3\n        /* \"#utility.yul\":5146:5183   */\n      mstore\n        /* \"#utility.yul\":5071:5189   */\n      pop\n      pop\n      jump\t// out\n        /* \"#utility.yul\":5195:5417   */\n    tag_57:\n        /* \"#utility.yul\":5288:5292   */\n      0x00\n        /* \"#utility.yul\":5326:5328   */\n      0x20\n        /* \"#utility.yul\":5315:5324   */\n      dup3\n        /* \"#utility.yul\":5311:5329   */\n      add\n        /* \"#utility.yul\":5303:5329   */\n      swap1\n      pop\n        /* \"#utility.yul\":5339:5410   */\n      tag_352\n        /* \"#utility.yul\":5407:5408   */\n      0x00\n        /* \"#utility.yul\":5396:5405   */\n      dup4\n        /* \"#utility.yul\":5392:5409   */\n      add\n        /* \"#utility.yul\":5383:5389   */\n      dup5\n        /* \"#utility.yul\":5339:5410   */\n      tag_256\n      jump\t// in\n    tag_352:\n        /* \"#utility.yul\":5195:5417   */\n      swap3\n      swap2\n      pop\n      pop\n      jump\t// out\n        /* \"#utility.yul\":5423:5533   */\n    tag_257:\n        /* \"#utility.yul\":5474:5481   */\n      0x00\n        /* \"#utility.yul\":5503:5527   */\n      tag_354\n        /* \"#utility.yul\":5521:5526   */\n      dup3\n        /* \"#utility.yul\":5503:5527   */\n      tag_240\n      jump\t// in\n    tag_354:\n        /* \"#utility.yul\":5492:5527   */\n      swap1\n      pop\n        /* \"#utility.yul\":5423:5533   */\n      swap2\n      swap1\n      pop\n      jump\t// out\n        /* \"#utility.yul\":5539:5689   */\n    tag_258:\n        /* \"#utility.yul\":5626:5664   */\n      tag_356\n        /* \"#utility.yul\":5658:5663   */\n      dup2\n        /* \"#utility.yul\":5626:5664   */\n      tag_257\n      jump\t// in\n    tag_356:\n        /* \"#utility.yul\":5619:5624   */\n      dup2\n        /* \"#utility.yul\":5616:5665   */\n      eq\n        /* \"#utility.yul\":5606:5683   */\n      tag_357\n      jumpi\n        /* \"#utility.yul\":5679:5680   */\n      0x00\n        /* \"#utility.yul\":5676:5677   */\n      dup1\n        /* \"#utility.yul\":5669:5681   */\n      revert\n        /* \"#utility.yul\":5606:5683   */\n    tag_357:\n        /* \"#utility.yul\":5539:5689   */\n      pop\n      jump\t// out\n        /* \"#utility.yul\":5695:5862   */\n    tag_259:\n        /* \"#utility.yul\":5755:5760   */\n      0x00\n        /* \"#utility.yul\":5793:5799   */\n      dup2\n        /* \"#utility.yul\":5780:5800   */\n      calldataload\n        /* \"#utility.yul\":5771:5800   */\n      swap1\n      pop\n        /* \"#utility.yul\":5809:5856   */\n      tag_359\n        /* \"#utility.yul\":5850:5855   */\n      dup2\n        /* \"#utility.yul\":5809:5856   */\n      tag_258\n      jump\t// in\n    tag_359:\n        /* \"#utility.yul\":5695:5862   */\n      swap3\n      swap2\n      pop\n      pop\n      jump\t// out\n        /* \"#utility.yul\":5868:6515   */\n    tag_60:\n        /* \"#utility.yul\":5959:5965   */\n      0x00\n        /* \"#utility.yul\":5967:5973   */\n      dup1\n        /* \"#utility.yul\":5975:5981   */\n      0x00\n        /* \"#utility.yul\":6024:6026   */\n      0x60\n        /* \"#utility.yul\":6012:6021   */\n      dup5\n        /* \"#utility.yul\":6003:6010   */\n      dup7\n        /* \"#utility.yul\":5999:6022   */\n      sub\n        /* \"#utility.yul\":5995:6027   */\n      slt\n        /* \"#utility.yul\":5992:6111   */\n      iszero\n      tag_361\n      jumpi\n        /* \"#utility.yul\":6030:6109   */\n      tag_362\n      tag_237\n      jump\t// in\n    tag_362:\n        /* \"#utility.yul\":5992:6111   */\n    tag_361:\n        /* \"#utility.yul\":6150:6151   */\n      0x00\n        /* \"#utility.yul\":6175:6242   */\n      tag_363\n        /* \"#utility.yul\":6234:6241   */\n      dup7\n        /* \"#utility.yul\":6225:6231   */\n      dup3\n        /* \"#utility.yul\":6214:6223   */\n      dup8\n        /* \"#utility.yul\":6210:6232   */\n      add\n        /* \"#utility.yul\":6175:6242   */\n      tag_259\n      jump\t// in\n    tag_363:\n        /* \"#utility.yul\":6165:6242   */\n      swap4\n      pop\n        /* \"#utility.yul\":6121:6252   */\n      pop\n        /* \"#utility.yul\":6291:6293   */\n      0x20\n        /* \"#utility.yul\":6317:6370   */\n      tag_364\n        /* \"#utility.yul\":6362:6369   */\n      dup7\n        /* \"#utility.yul\":6353:6359   */\n      dup3\n        /* \"#utility.yul\":6342:6351   */\n      dup8\n        /* \"#utility.yul\":6338:6360   */\n      add\n        /* \"#utility.yul\":6317:6370   */\n      tag_242\n      jump\t// in\n    tag_364:\n        /* \"#utility.yul\":6307:6370   */\n      swap3\n      pop\n        /* \"#utility.yul\":6262:6380   */\n      pop\n        /* \"#utility.yul\":6419:6421   */\n      0x40\n        /* \"#utility.yul\":6445:6498   */\n      tag_365\n        /* \"#utility.yul\":6490:6497   */\n      dup7\n        /* \"#utility.yul\":6481:6487   */\n      dup3\n        /* \"#utility.yul\":6470:6479   */\n      dup8\n        /* \"#utility.yul\":6466:6488   */\n      add\n        /* \"#utility.yul\":6445:6498   */\n      tag_245\n      jump\t// in\n    tag_365:\n        /* \"#utility.yul\":6435:6498   */\n      swap2\n      pop\n        /* \"#utility.yul\":6390:6508   */\n      pop\n        /* \"#utility.yul\":5868:6515   */\n      swap3\n      pop\n      swap3\n      pop\n      swap3\n      jump\t// out\n        /* \"#utility.yul\":6521:6995   */\n    tag_68:\n        /* \"#utility.yul\":6589:6595   */\n      0x00\n        /* \"#utility.yul\":6597:6603   */\n      dup1\n        /* \"#utility.yul\":6646:6648   */\n      0x40\n        /* \"#utility.yul\":6634:6643   */\n      dup4\n        /* \"#utility.yul\":6625:6632   */\n      dup6\n        /* \"#utility.yul\":6621:6644   */\n      sub\n        /* \"#utility.yul\":6617:6649   */\n      slt\n        /* \"#utility.yul\":6614:6733   */\n      iszero\n      tag_367\n      jumpi\n        /* \"#utility.yul\":6652:6731   */\n      tag_368\n      tag_237\n      jump\t// in\n    tag_368:\n        /* \"#utility.yul\":6614:6733   */\n    tag_367:\n        /* \"#utility.yul\":6772:6773   */\n      0x00\n        /* \"#utility.yul\":6797:6850   */\n      tag_369\n        /* \"#utility.yul\":6842:6849   */\n      dup6\n        /* \"#utility.yul\":6833:6839   */\n      dup3\n        /* \"#utility.yul\":6822:6831   */\n      dup7\n        /* \"#utility.yul\":6818:6840   */\n      add\n        /* \"#utility.yul\":6797:6850   */\n      tag_245\n      jump\t// in\n    tag_369:\n        /* \"#utility.yul\":6787:6850   */\n      swap3\n      pop\n        /* \"#utility.yul\":6743:6860   */\n      pop\n        /* \"#utility.yul\":6899:6901   */\n      0x20\n        /* \"#utility.yul\":6925:6978   */\n      tag_370\n        /* \"#utility.yul\":6970:6977   */\n      dup6\n        /* \"#utility.yul\":6961:6967   */\n      dup3\n        /* \"#utility.yul\":6950:6959   */\n      dup7\n        /* \"#utility.yul\":6946:6968   */\n      add\n        /* \"#utility.yul\":6925:6978   */\n      tag_242\n      jump\t// in\n    tag_370:\n        /* \"#utility.yul\":6915:6978   */\n      swap2\n      pop\n        /* \"#utility.yul\":6870:6988   */\n      pop\n        /* \"#utility.yul\":6521:6995   */\n      swap3\n      pop\n      swap3\n      swap1\n      pop\n      jump\t// out\n        /* \"#utility.yul\":7001:7061   */\n    tag_260:\n        /* \"#utility.yul\":7029:7032   */\n      0x00\n        /* \"#utility.yul\":7050:7055   */\n      dup2\n        /* \"#utility.yul\":7043:7055   */\n      swap1\n      pop\n        /* \"#utility.yul\":7001:7061   */\n      swap2\n      swap1\n      pop\n      jump\t// out\n        /* \"#utility.yul\":7067:7209   */\n    tag_261:\n        /* \"#utility.yul\":7117:7126   */\n      0x00\n        /* \"#utility.yul\":7150:7203   */\n      tag_373\n        /* \"#utility.yul\":7168:7202   */\n      tag_374\n        /* \"#utility.yul\":7177:7201   */\n      tag_375\n        /* \"#utility.yul\":7195:7200   */\n      dup5\n        /* \"#utility.yul\":7177:7201   */\n      tag_239\n      jump\t// in\n    tag_375:\n        /* \"#utility.yul\":7168:7202   */\n      tag_260\n      jump\t// in\n    tag_374:\n        /* \"#utility.yul\":7150:7203   */\n      tag_239\n      jump\t// in\n    tag_373:\n        /* \"#utility.yul\":7137:7203   */\n      swap1\n      pop\n        /* \"#utility.yul\":7067:7209   */\n      swap2\n      swap1\n      pop\n      jump\t// out\n        /* \"#utility.yul\":7215:7341   */\n    tag_262:\n        /* \"#utility.yul\":7265:7274   */\n      0x00\n        /* \"#utility.yul\":7298:7335   */\n      tag_377\n        /* \"#utility.yul\":7329:7334   */\n      dup3\n        /* \"#utility.yul\":7298:7335   */\n      tag_261\n      jump\t// in\n    tag_377:\n        /* \"#utility.yul\":7285:7335   */\n      swap1\n      pop\n        /* \"#utility.yul\":7215:7341   */\n      swap2\n      swap1\n      pop\n      jump\t// out\n        /* \"#utility.yul\":7347:7487   */\n    tag_263:\n        /* \"#utility.yul\":7411:7420   */\n      0x00\n        /* \"#utility.yul\":7444:7481   */\n      tag_379\n        /* \"#utility.yul\":7475:7480   */\n      dup3\n        /* \"#utility.yul\":7444:7481   */\n      tag_262\n      jump\t// in\n    tag_379:\n        /* \"#utility.yul\":7431:7481   */\n      swap1\n      pop\n        /* \"#utility.yul\":7347:7487   */\n      swap2\n      swap1\n      pop\n      jump\t// out\n        /* \"#utility.yul\":7493:7652   */\n    tag_264:\n        /* \"#utility.yul\":7594:7645   */\n      tag_381\n        /* \"#utility.yul\":7639:7644   */\n      dup2\n        /* \"#utility.yul\":7594:7645   */\n      tag_263\n      jump\t// in\n    tag_381:\n        /* \"#utility.yul\":7589:7592   */\n      dup3\n        /* \"#utility.yul\":7582:7646   */\n      mstore\n        /* \"#utility.yul\":7493:7652   */\n      pop\n      pop\n      jump\t// out\n        /* \"#utility.yul\":7658:7908   */\n    tag_82:\n        /* \"#utility.yul\":7765:7769   */\n      0x00\n        /* \"#utility.yul\":7803:7805   */\n      0x20\n        /* \"#utility.yul\":7792:7801   */\n      dup3\n        /* \"#utility.yul\":7788:7806   */\n      add\n        /* \"#utility.yul\":7780:7806   */\n      swap1\n      pop\n        /* \"#utility.yul\":7816:7901   */\n      tag_383\n        /* \"#utility.yul\":7898:7899   */\n      0x00\n        /* \"#utility.yul\":7887:7896   */\n      dup4\n        /* \"#utility.yul\":7883:7900   */\n      add\n        /* \"#utility.yul\":7874:7880   */\n      dup5\n        /* \"#utility.yul\":7816:7901   */\n      tag_264\n      jump\t// in\n    tag_383:\n        /* \"#utility.yul\":7658:7908   */\n      swap3\n      swap2\n      pop\n      pop\n      jump\t// out\n        /* \"#utility.yul\":7914:8243   */\n    tag_88:\n        /* \"#utility.yul\":7973:7979   */\n      0x00\n        /* \"#utility.yul\":8022:8024   */\n      0x20\n        /* \"#utility.yul\":8010:8019   */\n      dup3\n        /* \"#utility.yul\":8001:8008   */\n      dup5\n        /* \"#utility.yul\":7997:8020   */\n      sub\n        /* \"#utility.yul\":7993:8025   */\n      slt\n        /* \"#utility.yul\":7990:8109   */\n      iszero\n      tag_385\n      jumpi\n        /* \"#utility.yul\":8028:8107   */\n      tag_386\n      tag_237\n      jump\t// in\n    tag_386:\n        /* \"#utility.yul\":7990:8109   */\n    tag_385:\n        /* \"#utility.yul\":8148:8149   */\n      0x00\n        /* \"#utility.yul\":8173:8226   */\n      tag_387\n        /* \"#utility.yul\":8218:8225   */\n      dup5\n        /* \"#utility.yul\":8209:8215   */\n      dup3\n        /* \"#utility.yul\":8198:8207   */\n      dup6\n        /* \"#utility.yul\":8194:8216   */\n      add\n        /* \"#utility.yul\":8173:8226   */\n      tag_242\n      jump\t// in\n    tag_387:\n        /* \"#utility.yul\":8163:8226   */\n      swap2\n      pop\n        /* \"#utility.yul\":8119:8236   */\n      pop\n        /* \"#utility.yul\":7914:8243   */\n      swap3\n      swap2\n      pop\n      pop\n      jump\t// out\n        /* \"#utility.yul\":8249:8418   */\n    tag_265:\n        /* \"#utility.yul\":8333:8344   */\n      0x00\n        /* \"#utility.yul\":8367:8373   */\n      dup3\n        /* \"#utility.yul\":8362:8365   */\n      dup3\n        /* \"#utility.yul\":8355:8374   */\n      mstore\n        /* \"#utility.yul\":8407:8411   */\n      0x20\n        /* \"#utility.yul\":8402:8405   */\n      dup3\n        /* \"#utility.yul\":8398:8412   */\n      add\n        /* \"#utility.yul\":8383:8412   */\n      swap1\n      pop\n        /* \"#utility.yul\":8249:8418   */\n      swap3\n      swap2\n      pop\n      pop\n      jump\t// out\n        /* \"#utility.yul\":8424:8578   */\n    tag_266:\n        /* \"#utility.yul\":8564:8570   */\n      0x7a65726f00000000000000000000000000000000000000000000000000000000\n        /* \"#utility.yul\":8560:8561   */\n      0x00\n        /* \"#utility.yul\":8552:8558   */\n      dup3\n        /* \"#utility.yul\":8548:8562   */\n      add\n        /* \"#utility.yul\":8541:8571   */\n      mstore\n        /* \"#utility.yul\":8424:8578   */\n      pop\n      jump\t// out\n        /* \"#utility.yul\":8584:8949   */\n    tag_267:\n        /* \"#utility.yul\":8726:8729   */\n      0x00\n        /* \"#utility.yul\":8747:8813   */\n      tag_391\n        /* \"#utility.yul\":8811:8812   */\n      0x04\n        /* \"#utility.yul\":8806:8809   */\n      dup4\n        /* \"#utility.yul\":8747:8813   */\n      tag_265\n      jump\t// in\n    tag_391:\n        /* \"#utility.yul\":8740:8813   */\n      swap2\n      pop\n        /* \"#utility.yul\":8822:8915   */\n      tag_392\n        /* \"#utility.yul\":8911:8914   */\n      dup3\n        /* \"#utility.yul\":8822:8915   */\n      tag_266\n      jump\t// in\n    tag_392:\n        /* \"#utility.yul\":8940:8942   */\n      0x20\n        /* \"#utility.yul\":8935:8938   */\n      dup3\n        /* \"#utility.yul\":8931:8943   */\n      add\n        /* \"#utility.yul\":8924:8943   */\n      swap1\n      pop\n        /* \"#utility.yul\":8584:8949   */\n      swap2\n      swap1\n      pop\n      jump\t// out\n        /* \"#utility.yul\":8955:9374   */\n    tag_97:\n        /* \"#utility.yul\":9121:9125   */\n      0x00\n        /* \"#utility.yul\":9159:9161   */\n      0x20\n        /* \"#utility.yul\":9148:9157   */\n      dup3\n        /* \"#utility.yul\":9144:9162   */\n      add\n        /* \"#utility.yul\":9136:9162   */\n      swap1\n      pop\n        /* \"#utility.yul\":9208:9217   */\n      dup2\n        /* \"#utility.yul\":9202:9206   */\n      dup2\n        /* \"#utility.yul\":9198:9218   */\n      sub\n        /* \"#utility.yul\":9194:9195   */\n      0x00\n        /* \"#utility.yul\":9183:9192   */\n      dup4\n        /* \"#utility.yul\":9179:9196   */\n      add\n        /* \"#utility.yul\":9172:9219   */\n      mstore\n        /* \"#utility.yul\":9236:9367   */\n      tag_394\n        /* \"#utility.yul\":9362:9366   */\n      dup2\n        /* \"#utility.yul\":9236:9367   */\n      tag_267\n      jump\t// in\n    tag_394:\n        /* \"#utility.yul\":9228:9367   */\n      swap1\n      pop\n        /* \"#utility.yul\":8955:9374   */\n      swap2\n      swap1\n      pop\n      jump\t// out\n        /* \"#utility.yul\":9380:9550   */\n    tag_268:\n        /* \"#utility.yul\":9520:9542   */\n      0x696e73756666696369656e74206465706f736974000000000000000000000000\n        /* \"#utility.yul\":9516:9517   */\n      0x00\n        /* \"#utility.yul\":9508:9514   */\n      dup3\n        /* \"#utility.yul\":9504:9518   */\n      add\n        /* \"#utility.yul\":9497:9543   */\n      mstore\n        /* \"#utility.yul\":9380:9550   */\n      pop\n      jump\t// out\n        /* \"#utility.yul\":9556:9922   */\n    tag_269:\n        /* \"#utility.yul\":9698:9701   */\n      0x00\n        /* \"#utility.yul\":9719:9786   */\n      tag_397\n        /* \"#utility.yul\":9783:9785   */\n      0x14\n        /* \"#utility.yul\":9778:9781   */\n      dup4\n        /* \"#utility.yul\":9719:9786   */\n      tag_265\n      jump\t// in\n    tag_397:\n        /* \"#utility.yul\":9712:9786   */\n      swap2\n      pop\n        /* \"#utility.yul\":9795:9888   */\n      tag_398\n        /* \"#utility.yul\":9884:9887   */\n      dup3\n        /* \"#utility.yul\":9795:9888   */\n      tag_268\n      jump\t// in\n    tag_398:\n        /* \"#utility.yul\":9913:9915   */\n      0x20\n        /* \"#utility.yul\":9908:9911   */\n      dup3\n        /* \"#utility.yul\":9904:9916   */\n      add\n        /* \"#utility.yul\":9897:9916   */\n      swap1\n      pop\n        /* \"#utility.yul\":9556:9922   */\n      swap2\n      swap1\n      pop\n      jump\t// out\n        /* \"#utility.yul\":9928:10347   */\n    tag_100:\n        /* \"#utility.yul\":10094:10098   */\n      0x00\n        /* \"#utility.yul\":10132:10134   */\n      0x20\n        /* \"#utility.yul\":10121:10130   */\n      dup3\n        /* \"#utility.yul\":10117:10135   */\n      add\n        /* \"#utility.yul\":10109:10135   */\n      swap1\n      pop\n        /* \"#utility.yul\":10181:10190   */\n      dup2\n        /* \"#utility.yul\":10175:10179   */\n      dup2\n        /* \"#utility.yul\":10171:10191   */\n      sub\n        /* \"#utility.yul\":10167:10168   */\n      0x00\n        /* \"#utility.yul\":10156:10165   */\n      dup4\n        /* \"#utility.yul\":10152:10169   */\n      add\n        /* \"#utility.yul\":10145:10192   */\n      mstore\n        /* \"#utility.yul\":10209:10340   */\n      tag_400\n        /* \"#utility.yul\":10335:10339   */\n      dup2\n        /* \"#utility.yul\":10209:10340   */\n      tag_269\n      jump\t// in\n    tag_400:\n        /* \"#utility.yul\":10201:10340   */\n      swap1\n      pop\n        /* \"#utility.yul\":9928:10347   */\n      swap2\n      swap1\n      pop\n      jump\t// out\n        /* \"#utility.yul\":10353:10533   */\n    tag_270:\n        /* \"#utility.yul\":10401:10478   */\n      0x4e487b7100000000000000000000000000000000000000000000000000000000\n        /* \"#utility.yul\":10398:10399   */\n      0x00\n        /* \"#utility.yul\":10391:10479   */\n      mstore\n        /* \"#utility.yul\":10498:10502   */\n      0x11\n        /* \"#utility.yul\":10495:10496   */\n      0x04\n        /* \"#utility.yul\":10488:10503   */\n      mstore\n        /* \"#utility.yul\":10522:10526   */\n      0x24\n        /* \"#utility.yul\":10519:10520   */\n      0x00\n        /* \"#utility.yul\":10512:10527   */\n      revert\n        /* \"#utility.yul\":10539:10733   */\n    tag_102:\n        /* \"#utility.yul\":10579:10583   */\n      0x00\n        /* \"#utility.yul\":10599:10619   */\n      tag_403\n        /* \"#utility.yul\":10617:10618   */\n      dup3\n        /* \"#utility.yul\":10599:10619   */\n      tag_243\n      jump\t// in\n    tag_403:\n        /* \"#utility.yul\":10594:10619   */\n      swap2\n      pop\n        /* \"#utility.yul\":10633:10653   */\n      tag_404\n        /* \"#utility.yul\":10651:10652   */\n      dup4\n        /* \"#utility.yul\":10633:10653   */\n      tag_243\n      jump\t// in\n    tag_404:\n        /* \"#utility.yul\":10628:10653   */\n      swap3\n      pop\n        /* \"#utility.yul\":10677:10678   */\n      dup3\n        /* \"#utility.yul\":10674:10675   */\n      dup3\n        /* \"#utility.yul\":10670:10679   */\n      sub\n        /* \"#utility.yul\":10662:10679   */\n      swap1\n      pop\n        /* \"#utility.yul\":10701:10702   */\n      dup2\n        /* \"#utility.yul\":10695:10699   */\n      dup2\n        /* \"#utility.yul\":10692:10703   */\n      gt\n        /* \"#utility.yul\":10689:10726   */\n      iszero\n      tag_405\n      jumpi\n        /* \"#utility.yul\":10706:10724   */\n      tag_406\n      tag_270\n      jump\t// in\n    tag_406:\n        /* \"#utility.yul\":10689:10726   */\n    tag_405:\n        /* \"#utility.yul\":10539:10733   */\n      swap3\n      swap2\n      pop\n      pop\n      jump\t// out\n        /* \"#utility.yul\":10739:11071   */\n    tag_121:\n        /* \"#utility.yul\":10860:10864   */\n      0x00\n        /* \"#utility.yul\":10898:10900   */\n      0x40\n        /* \"#utility.yul\":10887:10896   */\n      dup3\n        /* \"#utility.yul\":10883:10901   */\n      add\n        /* \"#utility.yul\":10875:10901   */\n      swap1\n      pop\n        /* \"#utility.yul\":10911:10982   */\n      tag_408\n        /* \"#utility.yul\":10979:10980   */\n      0x00\n        /* \"#utility.yul\":10968:10977   */\n      dup4\n        /* \"#utility.yul\":10964:10981   */\n      add\n        /* \"#utility.yul\":10955:10961   */\n      dup6\n        /* \"#utility.yul\":10911:10982   */\n      tag_256\n      jump\t// in\n    tag_408:\n        /* \"#utility.yul\":10992:11064   */\n      tag_409\n        /* \"#utility.yul\":11060:11062   */\n      0x20\n        /* \"#utility.yul\":11049:11058   */\n      dup4\n        /* \"#utility.yul\":11045:11063   */\n      add\n        /* \"#utility.yul\":11036:11042   */\n      dup5\n        /* \"#utility.yul\":10992:11064   */\n      tag_255\n      jump\t// in\n    tag_409:\n        /* \"#utility.yul\":10739:11071   */\n      swap4\n      swap3\n      pop\n      pop\n      pop\n      jump\t// out\n        /* \"#utility.yul\":11077:11193   */\n    tag_271:\n        /* \"#utility.yul\":11147:11168   */\n      tag_411\n        /* \"#utility.yul\":11162:11167   */\n      dup2\n        /* \"#utility.yul\":11147:11168   */\n      tag_249\n      jump\t// in\n    tag_411:\n        /* \"#utility.yul\":11140:11145   */\n      dup2\n        /* \"#utility.yul\":11137:11169   */\n      eq\n        /* \"#utility.yul\":11127:11187   */\n      tag_412\n      jumpi\n        /* \"#utility.yul\":11183:11184   */\n      0x00\n        /* \"#utility.yul\":11180:11181   */\n      dup1\n        /* \"#utility.yul\":11173:11185   */\n      revert\n        /* \"#utility.yul\":11127:11187   */\n    tag_412:\n        /* \"#utility.yul\":11077:11193   */\n      pop\n      jump\t// out\n        /* \"#utility.yul\":11199:11336   */\n    tag_272:\n        /* \"#utility.yul\":11253:11258   */\n      0x00\n        /* \"#utility.yul\":11284:11290   */\n      dup2\n        /* \"#utility.yul\":11278:11291   */\n      mload\n        /* \"#utility.yul\":11269:11291   */\n      swap1\n      pop\n        /* \"#utility.yul\":11300:11330   */\n      tag_414\n        /* \"#utility.yul\":11324:11329   */\n      dup2\n        /* \"#utility.yul\":11300:11330   */\n      tag_271\n      jump\t// in\n    tag_414:\n        /* \"#utility.yul\":11199:11336   */\n      swap3\n      swap2\n      pop\n      pop\n      jump\t// out\n        /* \"#utility.yul\":11342:11687   */\n    tag_125:\n        /* \"#utility.yul\":11409:11415   */\n      0x00\n        /* \"#utility.yul\":11458:11460   */\n      0x20\n        /* \"#utility.yul\":11446:11455   */\n      dup3\n        /* \"#utility.yul\":11437:11444   */\n      dup5\n        /* \"#utility.yul\":11433:11456   */\n      sub\n        /* \"#utility.yul\":11429:11461   */\n      slt\n        /* \"#utility.yul\":11426:11545   */\n      iszero\n      tag_416\n      jumpi\n        /* \"#utility.yul\":11464:11543   */\n      tag_417\n      tag_237\n      jump\t// in\n    tag_417:\n        /* \"#utility.yul\":11426:11545   */\n    tag_416:\n        /* \"#utility.yul\":11584:11585   */\n      0x00\n        /* \"#utility.yul\":11609:11670   */\n      tag_418\n        /* \"#utility.yul\":11662:11669   */\n      dup5\n        /* \"#utility.yul\":11653:11659   */\n      dup3\n        /* \"#utility.yul\":11642:11651   */\n      dup6\n        /* \"#utility.yul\":11638:11660   */\n      add\n        /* \"#utility.yul\":11609:11670   */\n      tag_272\n      jump\t// in\n    tag_418:\n        /* \"#utility.yul\":11599:11670   */\n      swap2\n      pop\n        /* \"#utility.yul\":11555:11680   */\n      pop\n        /* \"#utility.yul\":11342:11687   */\n      swap3\n      swap2\n      pop\n      pop\n      jump\t// out\n        /* \"#utility.yul\":11693:11858   */\n    tag_273:\n        /* \"#utility.yul\":11833:11850   */\n      0x7472616e73666572206661696c65640000000000000000000000000000000000\n        /* \"#utility.yul\":11829:11830   */\n      0x00\n        /* \"#utility.yul\":11821:11827   */\n      dup3\n        /* \"#utility.yul\":11817:11831   */\n      add\n        /* \"#utility.yul\":11810:11851   */\n      mstore\n        /* \"#utility.yul\":11693:11858   */\n      pop\n      jump\t// out\n        /* \"#utility.yul\":11864:12230   */\n    tag_274:\n        /* \"#utility.yul\":12006:12009   */\n      0x00\n        /* \"#utility.yul\":12027:12094   */\n      tag_421\n        /* \"#utility.yul\":12091:12093   */\n      0x0f\n        /* \"#utility.yul\":12086:12089   */\n      dup4\n        /* \"#utility.yul\":12027:12094   */\n      tag_265\n      jump\t// in\n    tag_421:\n        /* \"#utility.yul\":12020:12094   */\n      swap2\n      pop\n        /* \"#utility.yul\":12103:12196   */\n      tag_422\n        /* \"#utility.yul\":12192:12195   */\n      dup3\n        /* \"#utility.yul\":12103:12196   */\n      tag_273\n      jump\t// in\n    tag_422:\n        /* \"#utility.yul\":12221:12223   */\n      0x20\n        /* \"#utility.yul\":12216:12219   */\n      dup3\n        /* \"#utility.yul\":12212:12224   */\n      add\n        /* \"#utility.yul\":12205:12224   */\n      swap1\n      pop\n        /* \"#utility.yul\":11864:12230   */\n      swap2\n      swap1\n      pop\n      jump\t// out\n        /* \"#utility.yul\":12236:12655   */\n    tag_128:\n        /* \"#utility.yul\":12402:12406   */\n      0x00\n        /* \"#utility.yul\":12440:12442   */\n      0x20\n        /* \"#utility.yul\":12429:12438   */\n      dup3\n        /* \"#utility.yul\":12425:12443   */\n      add\n        /* \"#utility.yul\":12417:12443   */\n      swap1\n      pop\n        /* \"#utility.yul\":12489:12498   */\n      dup2\n        /* \"#utility.yul\":12483:12487   */\n      dup2\n        /* \"#utility.yul\":12479:12499   */\n      sub\n        /* \"#utility.yul\":12475:12476   */\n      0x00\n        /* \"#utility.yul\":12464:12473   */\n      dup4\n        /* \"#utility.yul\":12460:12477   */\n      add\n        /* \"#utility.yul\":12453:12500   */\n      mstore\n        /* \"#utility.yul\":12517:12648   */\n      tag_424\n        /* \"#utility.yul\":12643:12647   */\n      dup2\n        /* \"#utility.yul\":12517:12648   */\n      tag_274\n      jump\t// in\n    tag_424:\n        /* \"#utility.yul\":12509:12648   */\n      swap1\n      pop\n        /* \"#utility.yul\":12236:12655   */\n      swap2\n      swap1\n      pop\n      jump\t// out\n        /* \"#utility.yul\":12661:12823   */\n    tag_275:\n        /* \"#utility.yul\":12801:12815   */\n      0x66656520746f6f20686967680000000000000000000000000000000000000000\n        /* \"#utility.yul\":12797:12798   */\n      0x00\n        /* \"#utility.yul\":12789:12795   */\n      dup3\n        /* \"#utility.yul\":12785:12799   */\n      add\n        /* \"#utility.yul\":12778:12816   */\n      mstore\n        /* \"#utility.yul\":12661:12823   */\n      pop\n      jump\t// out\n        /* \"#utility.yul\":12829:13195   */\n    tag_276:\n        /* \"#utility.yul\":12971:12974   */\n      0x00\n        /* \"#utility.yul\":12992:13059   */\n      tag_427\n        /* \"#utility.yul\":13056:13058   */\n      0x0c\n        /* \"#utility.yul\":13051:13054   */\n      dup4\n        /* \"#utility.yul\":12992:13059   */\n      tag_265\n      jump\t// in\n    tag_427:\n        /* \"#utility.yul\":12985:13059   */\n      swap2\n      pop\n        /* \"#utility.yul\":13068:13161   */\n      tag_428\n        /* \"#utility.yul\":13157:13160   */\n      dup3\n        /* \"#utility.yul\":13068:13161   */\n      tag_275\n      jump\t// in\n    tag_428:\n        /* \"#utility.yul\":13186:13188   */\n      0x20\n        /* \"#utility.yul\":13181:13184   */\n      dup3\n        /* \"#utility.yul\":13177:13189   */\n      add\n        /* \"#utility.yul\":13170:13189   */\n      swap1\n      pop\n        /* \"#utility.yul\":12829:13195   */\n      swap2\n      swap1\n      pop\n      jump\t// out\n        /* \"#utility.yul\":13201:13620   */\n    tag_159:\n        /* \"#utility.yul\":13367:13371   */\n      0x00\n        /* \"#utility.yul\":13405:13407   */\n      0x20\n        /* \"#utility.yul\":13394:13403   */\n      dup3\n        /* \"#utility.yul\":13390:13408   */\n      add\n        /* \"#utility.yul\":13382:13408   */\n      swap1\n      pop\n        /* \"#utility.yul\":13454:13463   */\n      dup2\n        /* \"#utility.yul\":13448:13452   */\n      dup2\n        /* \"#utility.yul\":13444:13464   */\n      sub\n        /* \"#utility.yul\":13440:13441   */\n      0x00\n        /* \"#utility.yul\":13429:13438   */\n      dup4\n        /* \"#utility.yul\":13425:13442   */\n      add\n        /* \"#utility.yul\":13418:13465   */\n      mstore\n        /* \"#utility.yul\":13482:13613   */\n      tag_430\n        /* \"#utility.yul\":13608:13612   */\n      dup2\n        /* \"#utility.yul\":13482:13613   */\n      tag_276\n      jump\t// in\n    tag_430:\n        /* \"#utility.yul\":13474:13613   */\n      swap1\n      pop\n        /* \"#utility.yul\":13201:13620   */\n      swap2\n      swap1\n      pop\n      jump\t// out\n        /* \"#utility.yul\":13626:13958   */\n    tag_161:\n        /* \"#utility.yul\":13747:13751   */\n      0x00\n        /* \"#utility.yul\":13785:13787   */\n      0x40\n        /* \"#utility.yul\":13774:13783   */\n      dup3\n        /* \"#utility.yul\":13770:13788   */\n      add\n        /* \"#utility.yul\":13762:13788   */\n      swap1\n      pop\n        /* \"#utility.yul\":13798:13869   */\n      tag_432\n        /* \"#utility.yul\":13866:13867   */\n      0x00\n        /* \"#utility.yul\":13855:13864   */\n      dup4\n        /* \"#utility.yul\":13851:13868   */\n      add\n        /* \"#utility.yul\":13842:13848   */\n      dup6\n        /* \"#utility.yul\":13798:13869   */\n      tag_255\n      jump\t// in\n    tag_432:\n        /* \"#utility.yul\":13879:13951   */\n      tag_433\n        /* \"#utility.yul\":13947:13949   */\n      0x20\n        /* \"#utility.yul\":13936:13945   */\n      dup4\n        /* \"#utility.yul\":13932:13950   */\n      add\n        /* \"#utility.yul\":13923:13929   */\n      dup5\n        /* \"#utility.yul\":13879:13951   */\n      tag_256\n      jump\t// in\n    tag_433:\n        /* \"#utility.yul\":13626:13958   */\n      swap4\n      swap3\n      pop\n      pop\n      pop\n      jump\t// out\n        /* \"#utility.yul\":13964:14155   */\n    tag_168:\n        /* \"#utility.yul\":14004:14007   */\n      0x00\n        /* \"#utility.yul\":14023:14043   */\n      tag_435\n        /* \"#utility.yul\":14041:14042   */\n      dup3\n        /* \"#utility.yul\":14023:14043   */\n      tag_243\n      jump\t// in\n    tag_435:\n        /* \"#utility.yul\":14018:14043   */\n      swap2\n      pop\n        /* \"#utility.yul\":14057:14077   */\n      tag_436\n        /* \"#utility.yul\":14075:14076   */\n      dup4\n        /* \"#utility.yul\":14057:14077   */\n      tag_243\n      jump\t// in\n    tag_436:\n        /* \"#utility.yul\":14052:14077   */\n      swap3\n      pop\n        /* \"#utility.yul\":14100:14101   */\n      dup3\n        /* \"#utility.yul\":14097:14098   */\n      dup3\n        /* \"#utility.yul\":14093:14102   */\n      add\n        /* \"#utility.yul\":14086:14102   */\n      swap1\n      pop\n        /* \"#utility.yul\":14121:14124   */\n      dup1\n        /* \"#utility.yul\":14118:14119   */\n      dup3\n        /* \"#utility.yul\":14115:14125   */\n      gt\n        /* \"#utility.yul\":14112:14148   */\n      iszero\n      tag_437\n      jumpi\n        /* \"#utility.yul\":14128:14146   */\n      tag_438\n      tag_270\n      jump\t// in\n    tag_438:\n        /* \"#utility.yul\":14112:14148   */\n    tag_437:\n        /* \"#utility.yul\":13964:14155   */\n      swap3\n      swap2\n      pop\n      pop\n      jump\t// out\n        /* \"#utility.yul\":14161:14603   */\n    tag_170:\n        /* \"#utility.yul\":14310:14314   */\n      0x00\n        /* \"#utility.yul\":14348:14350   */\n      0x60\n        /* \"#utility.yul\":14337:14346   */\n      dup3\n        /* \"#utility.yul\":14333:14351   */\n      add\n        /* \"#utility.yul\":14325:14351   */\n      swap1\n      pop\n        /* \"#utility.yul\":14361:14432   */\n      tag_440\n        /* \"#utility.yul\":14429:14430   */\n      0x00\n        /* \"#utility.yul\":14418:14427   */\n      dup4\n        /* \"#utility.yul\":14414:14431   */\n      add\n        /* \"#utility.yul\":14405:14411   */\n      dup7\n        /* \"#utility.yul\":14361:14432   */\n      tag_256\n      jump\t// in\n    tag_440:\n        /* \"#utility.yul\":14442:14514   */\n      tag_441\n        /* \"#utility.yul\":14510:14512   */\n      0x20\n        /* \"#utility.yul\":14499:14508   */\n      dup4\n        /* \"#utility.yul\":14495:14513   */\n      add\n        /* \"#utility.yul\":14486:14492   */\n      dup6\n        /* \"#utility.yul\":14442:14514   */\n      tag_256\n      jump\t// in\n    tag_441:\n        /* \"#utility.yul\":14524:14596   */\n      tag_442\n        /* \"#utility.yul\":14592:14594   */\n      0x40\n        /* \"#utility.yul\":14581:14590   */\n      dup4\n        /* \"#utility.yul\":14577:14595   */\n      add\n        /* \"#utility.yul\":14568:14574   */\n      dup5\n        /* \"#utility.yul\":14524:14596   */\n      tag_255\n      jump\t// in\n    tag_442:\n        /* \"#utility.yul\":14161:14603   */\n      swap5\n      swap4\n      pop\n      pop\n      pop\n      pop\n      jump\t// out\n        /* \"#utility.yul\":14609:14790   */\n    tag_277:\n        /* \"#utility.yul\":14749:14782   */\n      0x5265656e7472616e637947756172643a207265656e7472616e742063616c6c00\n        /* \"#utility.yul\":14745:14746   */\n      0x00\n        /* \"#utility.yul\":14737:14743   */\n      dup3\n        /* \"#utility.yul\":14733:14747   */\n      add\n        /* \"#utility.yul\":14726:14783   */\n      mstore\n        /* \"#utility.yul\":14609:14790   */\n      pop\n      jump\t// out\n        /* \"#utility.yul\":14796:15162   */\n    tag_278:\n        /* \"#utility.yul\":14938:14941   */\n      0x00\n        /* \"#utility.yul\":14959:15026   */\n      tag_445\n        /* \"#utility.yul\":15023:15025   */\n      0x1f\n        /* \"#utility.yul\":15018:15021   */\n      dup4\n        /* \"#utility.yul\":14959:15026   */\n      tag_265\n      jump\t// in\n    tag_445:\n        /* \"#utility.yul\":14952:15026   */\n      swap2\n      pop\n        /* \"#utility.yul\":15035:15128   */\n      tag_446\n        /* \"#utility.yul\":15124:15127   */\n      dup3\n        /* \"#utility.yul\":15035:15128   */\n      tag_277\n      jump\t// in\n    tag_446:\n        /* \"#utility.yul\":15153:15155   */\n      0x20\n        /* \"#utility.yul\":15148:15151   */\n      dup3\n        /* \"#utility.yul\":15144:15156   */\n      add\n        /* \"#utility.yul\":15137:15156   */\n      swap1\n      pop\n        /* \"#utility.yul\":14796:15162   */\n      swap2\n      swap1\n      pop\n      jump\t// out\n        /* \"#utility.yul\":15168:15587   */\n    tag_186:\n        /* \"#utility.yul\":15334:15338   */\n      0x00\n        /* \"#utility.yul\":15372:15374   */\n      0x20\n        /* \"#utility.yul\":15361:15370   */\n      dup3\n        /* \"#utility.yul\":15357:15375   */\n      add\n        /* \"#utility.yul\":15349:15375   */\n      swap1\n      pop\n        /* \"#utility.yul\":15421:15430   */\n      dup2\n        /* \"#utility.yul\":15415:15419   */\n      dup2\n        /* \"#utility.yul\":15411:15431   */\n      sub\n        /* \"#utility.yul\":15407:15408   */\n      0x00\n        /* \"#utility.yul\":15396:15405   */\n      dup4\n        /* \"#utility.yul\":15392:15409   */\n      add\n        /* \"#utility.yul\":15385:15432   */\n      mstore\n        /* \"#utility.yul\":15449:15580   */\n      tag_448\n        /* \"#utility.yul\":15575:15579   */\n      dup2\n        /* \"#utility.yul\":15449:15580   */\n      tag_278\n      jump\t// in\n    tag_448:\n        /* \"#utility.yul\":15441:15580   */\n      swap1\n      pop\n        /* \"#utility.yul\":15168:15587   */\n      swap2\n      swap1\n      pop\n      jump\t// out\n        /* \"#utility.yul\":15593:15761   */\n    tag_279:\n        /* \"#utility.yul\":15733:15753   */\n      0x7061792072656c61796572206661696c65640000000000000000000000000000\n        /* \"#utility.yul\":15729:15730   */\n      0x00\n        /* \"#utility.yul\":15721:15727   */\n      dup3\n        /* \"#utility.yul\":15717:15731   */\n      add\n        /* \"#utility.yul\":15710:15754   */\n      mstore\n        /* \"#utility.yul\":15593:15761   */\n      pop\n      jump\t// out\n        /* \"#utility.yul\":15767:16133   */\n    tag_280:\n        /* \"#utility.yul\":15909:15912   */\n      0x00\n        /* \"#utility.yul\":15930:15997   */\n      tag_451\n        /* \"#utility.yul\":15994:15996   */\n      0x12\n        /* \"#utility.yul\":15989:15992   */\n      dup4\n        /* \"#utility.yul\":15930:15997   */\n      tag_265\n      jump\t// in\n    tag_451:\n        /* \"#utility.yul\":15923:15997   */\n      swap2\n      pop\n        /* \"#utility.yul\":16006:16099   */\n      tag_452\n        /* \"#utility.yul\":16095:16098   */\n      dup3\n        /* \"#utility.yul\":16006:16099   */\n      tag_279\n      jump\t// in\n    tag_452:\n        /* \"#utility.yul\":16124:16126   */\n      0x20\n        /* \"#utility.yul\":16119:16122   */\n      dup3\n        /* \"#utility.yul\":16115:16127   */\n      add\n        /* \"#utility.yul\":16108:16127   */\n      swap1\n      pop\n        /* \"#utility.yul\":15767:16133   */\n      swap2\n      swap1\n      pop\n      jump\t// out\n        /* \"#utility.yul\":16139:16558   */\n    tag_197:\n        /* \"#utility.yul\":16305:16309   */\n      0x00\n        /* \"#utility.yul\":16343:16345   */\n      0x20\n        /* \"#utility.yul\":16332:16341   */\n      dup3\n        /* \"#utility.yul\":16328:16346   */\n      add\n        /* \"#utility.yul\":16320:16346   */\n      swap1\n      pop\n        /* \"#utility.yul\":16392:16401   */\n      dup2\n        /* \"#utility.yul\":16386:16390   */\n      dup2\n        /* \"#utility.yul\":16382:16402   */\n      sub\n        /* \"#utility.yul\":16378:16379   */\n      0x00\n        /* \"#utility.yul\":16367:16376   */\n      dup4\n        /* \"#utility.yul\":16363:16380   */\n      add\n        /* \"#utility.yul\":16356:16403   */\n      mstore\n        /* \"#utility.yul\":16420:16551   */\n      tag_454\n        /* \"#utility.yul\":16546:16550   */\n      dup2\n        /* \"#utility.yul\":16420:16551   */\n      tag_280\n      jump\t// in\n    tag_454:\n        /* \"#utility.yul\":16412:16551   */\n      swap1\n      pop\n        /* \"#utility.yul\":16139:16558   */\n      swap2\n      swap1\n      pop\n      jump\t// out\n        /* \"#utility.yul\":16564:16733   */\n    tag_281:\n        /* \"#utility.yul\":16704:16725   */\n      0x706179207472656173757279206661696c656400000000000000000000000000\n        /* \"#utility.yul\":16700:16701   */\n      0x00\n        /* \"#utility.yul\":16692:16698   */\n      dup3\n        /* \"#utility.yul\":16688:16702   */\n      add\n        /* \"#utility.yul\":16681:16726   */\n      mstore\n        /* \"#utility.yul\":16564:16733   */\n      pop\n      jump\t// out\n        /* \"#utility.yul\":16739:17105   */\n    tag_282:\n        /* \"#utility.yul\":16881:16884   */\n      0x00\n        /* \"#utility.yul\":16902:16969   */\n      tag_457\n        /* \"#utility.yul\":16966:16968   */\n      0x13\n        /* \"#utility.yul\":16961:16964   */\n      dup4\n        /* \"#utility.yul\":16902:16969   */\n      tag_265\n      jump\t// in\n    tag_457:\n        /* \"#utility.yul\":16895:16969   */\n      swap2\n      pop\n        /* \"#utility.yul\":16978:17071   */\n      tag_458\n        /* \"#utility.yul\":17067:17070   */\n      dup3\n        /* \"#utility.yul\":16978:17071   */\n      tag_281\n      jump\t// in\n    tag_458:\n        /* \"#utility.yul\":17096:17098   */\n      0x20\n        /* \"#utility.yul\":17091:17094   */\n      dup3\n        /* \"#utility.yul\":17087:17099   */\n      add\n        /* \"#utility.yul\":17080:17099   */\n      swap1\n      pop\n        /* \"#utility.yul\":16739:17105   */\n      swap2\n      swap1\n      pop\n      jump\t// out\n        /* \"#utility.yul\":17111:17530   */\n    tag_206:\n        /* \"#utility.yul\":17277:17281   */\n      0x00\n        /* \"#utility.yul\":17315:17317   */\n      0x20\n        /* \"#utility.yul\":17304:17313   */\n      dup3\n        /* \"#utility.yul\":17300:17318   */\n      add\n        /* \"#utility.yul\":17292:17318   */\n      swap1\n      pop\n        /* \"#utility.yul\":17364:17373   */\n      dup2\n        /* \"#utility.yul\":17358:17362   */\n      dup2\n        /* \"#utility.yul\":17354:17374   */\n      sub\n        /* \"#utility.yul\":17350:17351   */\n      0x00\n        /* \"#utility.yul\":17339:17348   */\n      dup4\n        /* \"#utility.yul\":17335:17352   */\n      add\n        /* \"#utility.yul\":17328:17375   */\n      mstore\n        /* \"#utility.yul\":17392:17523   */\n      tag_460\n        /* \"#utility.yul\":17518:17522   */\n      dup2\n        /* \"#utility.yul\":17392:17523   */\n      tag_282\n      jump\t// in\n    tag_460:\n        /* \"#utility.yul\":17384:17523   */\n      swap1\n      pop\n        /* \"#utility.yul\":17111:17530   */\n      swap2\n      swap1\n      pop\n      jump\t// out\n        /* \"#utility.yul\":17536:17868   */\n    tag_208:\n        /* \"#utility.yul\":17657:17661   */\n      0x00\n        /* \"#utility.yul\":17695:17697   */\n      0x40\n        /* \"#utility.yul\":17684:17693   */\n      dup3\n        /* \"#utility.yul\":17680:17698   */\n      add\n        /* \"#utility.yul\":17672:17698   */\n      swap1\n      pop\n        /* \"#utility.yul\":17708:17779   */\n      tag_462\n        /* \"#utility.yul\":17776:17777   */\n      0x00\n        /* \"#utility.yul\":17765:17774   */\n      dup4\n        /* \"#utility.yul\":17761:17778   */\n      add\n        /* \"#utility.yul\":17752:17758   */\n      dup6\n        /* \"#utility.yul\":17708:17779   */\n      tag_255\n      jump\t// in\n    tag_462:\n        /* \"#utility.yul\":17789:17861   */\n      tag_463\n        /* \"#utility.yul\":17857:17859   */\n      0x20\n        /* \"#utility.yul\":17846:17855   */\n      dup4\n        /* \"#utility.yul\":17842:17860   */\n      add\n        /* \"#utility.yul\":17833:17839   */\n      dup5\n        /* \"#utility.yul\":17789:17861   */\n      tag_255\n      jump\t// in\n    tag_463:\n        /* \"#utility.yul\":17536:17868   */\n      swap4\n      swap3\n      pop\n      pop\n      pop\n      jump\t// out\n        /* \"#utility.yul\":17874:18284   */\n    tag_228:\n        /* \"#utility.yul\":17914:17921   */\n      0x00\n        /* \"#utility.yul\":17937:17957   */\n      tag_465\n        /* \"#utility.yul\":17955:17956   */\n      dup3\n        /* \"#utility.yul\":17937:17957   */\n      tag_243\n      jump\t// in\n    tag_465:\n        /* \"#utility.yul\":17932:17957   */\n      swap2\n      pop\n        /* \"#utility.yul\":17971:17991   */\n      tag_466\n        /* \"#utility.yul\":17989:17990   */\n      dup4\n        /* \"#utility.yul\":17971:17991   */\n      tag_243\n      jump\t// in\n    tag_466:\n        /* \"#utility.yul\":17966:17991   */\n      swap3\n      pop\n        /* \"#utility.yul\":18026:18027   */\n      dup3\n        /* \"#utility.yul\":18023:18024   */\n      dup3\n        /* \"#utility.yul\":18019:18028   */\n      mul\n        /* \"#utility.yul\":18048:18078   */\n      tag_467\n        /* \"#utility.yul\":18066:18077   */\n      dup2\n        /* \"#utility.yul\":18048:18078   */\n      tag_243\n      jump\t// in\n    tag_467:\n        /* \"#utility.yul\":18037:18078   */\n      swap2\n      pop\n        /* \"#utility.yul\":18227:18228   */\n      dup3\n        /* \"#utility.yul\":18218:18225   */\n      dup3\n        /* \"#utility.yul\":18214:18229   */\n      div\n        /* \"#utility.yul\":18211:18212   */\n      dup5\n        /* \"#utility.yul\":18208:18230   */\n      eq\n        /* \"#utility.yul\":18188:18189   */\n      dup4\n        /* \"#utility.yul\":18181:18190   */\n      iszero\n        /* \"#utility.yul\":18161:18244   */\n      or\n        /* \"#utility.yul\":18138:18277   */\n      tag_468\n      jumpi\n        /* \"#utility.yul\":18257:18275   */\n      tag_469\n      tag_270\n      jump\t// in\n    tag_469:\n        /* \"#utility.yul\":18138:18277   */\n    tag_468:\n        /* \"#utility.yul\":17922:18284   */\n      pop\n        /* \"#utility.yul\":17874:18284   */\n      swap3\n      swap2\n      pop\n      pop\n      jump\t// out\n        /* \"#utility.yul\":18290:18470   */\n    tag_283:\n        /* \"#utility.yul\":18338:18415   */\n      0x4e487b7100000000000000000000000000000000000000000000000000000000\n        /* \"#utility.yul\":18335:18336   */\n      0x00\n        /* \"#utility.yul\":18328:18416   */\n      mstore\n        /* \"#utility.yul\":18435:18439   */\n      0x12\n        /* \"#utility.yul\":18432:18433   */\n      0x04\n        /* \"#utility.yul\":18425:18440   */\n      mstore\n        /* \"#utility.yul\":18459:18463   */\n      0x24\n        /* \"#utility.yul\":18456:18457   */\n      0x00\n        /* \"#utility.yul\":18449:18464   */\n      revert\n        /* \"#utility.yul\":18476:18661   */\n    tag_230:\n        /* \"#utility.yul\":18516:18517   */\n      0x00\n        /* \"#utility.yul\":18533:18553   */\n      tag_472\n        /* \"#utility.yul\":18551:18552   */\n      dup3\n        /* \"#utility.yul\":18533:18553   */\n      tag_243\n      jump\t// in\n    tag_472:\n        /* \"#utility.yul\":18528:18553   */\n      swap2\n      pop\n        /* \"#utility.yul\":18567:18587   */\n      tag_473\n        /* \"#utility.yul\":18585:18586   */\n      dup4\n        /* \"#utility.yul\":18567:18587   */\n      tag_243\n      jump\t// in\n    tag_473:\n        /* \"#utility.yul\":18562:18587   */\n      swap3\n      pop\n        /* \"#utility.yul\":18606:18607   */\n      dup3\n        /* \"#utility.yul\":18596:18631   */\n      tag_474\n      jumpi\n        /* \"#utility.yul\":18611:18629   */\n      tag_475\n      tag_283\n      jump\t// in\n    tag_475:\n        /* \"#utility.yul\":18596:18631   */\n    tag_474:\n        /* \"#utility.yul\":18653:18654   */\n      dup3\n        /* \"#utility.yul\":18650:18651   */\n      dup3\n        /* \"#utility.yul\":18646:18655   */\n      div\n        /* \"#utility.yul\":18641:18655   */\n      swap1\n      pop\n        /* \"#utility.yul\":18476:18661   */\n      swap3\n      swap2\n      pop\n      pop\n      jump\t// out\n        /* \"#utility.yul\":18667:18999   */\n    tag_235:\n        /* \"#utility.yul\":18788:18792   */\n      0x00\n        /* \"#utility.yul\":18826:18828   */\n      0x40\n        /* \"#utility.yul\":18815:18824   */\n      dup3\n        /* \"#utility.yul\":18811:18829   */\n      add\n        /* \"#utility.yul\":18803:18829   */\n      swap1\n      pop\n        /* \"#utility.yul\":18839:18910   */\n      tag_477\n        /* \"#utility.yul\":18907:18908   */\n      0x00\n        /* \"#utility.yul\":18896:18905   */\n      dup4\n        /* \"#utility.yul\":18892:18909   */\n      add\n        /* \"#utility.yul\":18883:18889   */\n      dup6\n        /* \"#utility.yul\":18839:18910   */\n      tag_256\n      jump\t// in\n    tag_477:\n        /* \"#utility.yul\":18920:18992   */\n      tag_478\n        /* \"#utility.yul\":18988:18990   */\n      0x20\n        /* \"#utility.yul\":18977:18986   */\n      dup4\n        /* \"#utility.yul\":18973:18991   */\n      add\n        /* \"#utility.yul\":18964:18970   */\n      dup5\n        /* \"#utility.yul\":18920:18992   */\n      tag_254\n      jump\t// in\n    tag_478:\n        /* \"#utility.yul\":18667:18999   */\n      swap4\n      swap3\n      pop\n      pop\n      pop\n      jump\t// out\n\n    auxdata: 0xa264697066735822122073f788420ccac30e0848cca4cd40e500b7b4a6301f3f981578f89a60202fabe164736f6c63430008140033\n}\n",
				"bytecode": {
					"linkReferences": {},
					"object": "60a0604052603260025534801562000015575f80fd5b5060405162001fc138038062001fc183398181016040528101906200003b919062000313565b600180819055508273ffffffffffffffffffffffffffffffffffffffff1660808173ffffffffffffffffffffffffffffffffffffffff16815250506200008a5f801b836200010760201b60201c565b50620000bd7f241ecf16d79d0f8dbfb92cbc07fe17840425976cf0667f022fe9877caa831b08836200010760201b60201c565b508060035f6101000a81548173ffffffffffffffffffffffffffffffffffffffff021916908373ffffffffffffffffffffffffffffffffffffffff1602179055505050506200036c565b5f6200011a83836200020260201b60201c565b620001f85760015f808581526020019081526020015f205f015f8473ffffffffffffffffffffffffffffffffffffffff1673ffffffffffffffffffffffffffffffffffffffff1681526020019081526020015f205f6101000a81548160ff021916908315150217905550620001946200026560201b60201c565b73ffffffffffffffffffffffffffffffffffffffff168273ffffffffffffffffffffffffffffffffffffffff16847f2f8788117e7eff1d82e926ec794901d17c78024a50270940304540a733656f0d60405160405180910390a460019050620001fc565b5f90505b92915050565b5f805f8481526020019081526020015f205f015f8373ffffffffffffffffffffffffffffffffffffffff1673ffffffffffffffffffffffffffffffffffffffff1681526020019081526020015f205f9054906101000a900460ff16905092915050565b5f33905090565b5f80fd5b5f73ffffffffffffffffffffffffffffffffffffffff82169050919050565b5f6200029b8262000270565b9050919050565b5f620002ae826200028f565b9050919050565b620002c081620002a2565b8114620002cb575f80fd5b50565b5f81519050620002de81620002b5565b92915050565b620002ef816200028f565b8114620002fa575f80fd5b50565b5f815190506200030d81620002e4565b92915050565b5f805f606084860312156200032d576200032c6200026c565b5b5f6200033c86828701620002ce565b93505060206200034f86828701620002fd565b92505060406200036286828701620002fd565b9150509250925092565b608051611c20620003a15f395f818161062c01528181610b0601528181610c5d01528181610d240152610e5f0152611c205ff3fe608060405234801561000f575f80fd5b5060043610610108575f3560e01c806364aff9ec116100a0578063b6b55f251161006f578063b6b55f251461029e578063d547741f146102ba578063d9cc6248146102d6578063ec87621c146102f4578063fc7e286d1461031257610108565b806364aff9ec1461021857806391d148541461023457806392dce56414610264578063a217fddf1461028057610108565b80632e1a7d4d116100dc5780632e1a7d4d146101a65780632f2ff15d146101c257806336568abe146101de57806361d027b3146101fa57610108565b80628683bd1461010c57806301ffc9a714610128578063248a9ca31461015857806324a9d85314610188575b5f80fd5b61012660048036038101906101219190611313565b610342565b005b610142600480360381019061013d91906113a6565b610474565b60405161014f91906113eb565b60405180910390f35b610172600480360381019061016d9190611437565b6104ed565b60405161017f9190611471565b60405180910390f35b610190610509565b60405161019d9190611499565b60405180910390f35b6101c060048036038101906101bb91906114b2565b61050f565b005b6101dc60048036038101906101d791906114dd565b61075e565b005b6101f860048036038101906101f391906114dd565b610780565b005b6102026107fb565b60405161020f919061152a565b60405180910390f35b610232600480360381019061022d919061157e565b610820565b005b61024e600480360381019061024991906114dd565b61090a565b60405161025b91906113eb565b60405180910390f35b61027e600480360381019061027991906115ce565b61096d565b005b610288610a61565b6040516102959190611471565b60405180910390f35b6102b860048036038101906102b391906114b2565b610a67565b005b6102d460048036038101906102cf91906114dd565b610c39565b005b6102de610c5b565b6040516102eb9190611667565b60405180910390f35b6102fc610c7f565b6040516103099190611471565b60405180910390f35b61032c60048036038101906103279190611680565b610ca3565b6040516103399190611499565b60405180910390f35b61034a610cb8565b5f811161038c576040517f08c379a000000000000000000000000000000000000000000000000000000000815260040161038390611705565b60405180910390fd5b5f60045f3373ffffffffffffffffffffffffffffffffffffffff1673ffffffffffffffffffffffffffffffffffffffff1681526020019081526020015f2054905081811015610410576040517f08c379a00000000000000000000000000000000000000000000000000000000081526004016104079061176d565b60405180910390fd5b818161041c91906117b8565b60045f3373ffffffffffffffffffffffffffffffffffffffff1673ffffffffffffffffffffffffffffffffffffffff1681526020019081526020015f20819055506104678383610d07565b50610470610faf565b5050565b5f7f7965db0b000000000000000000000000000000000000000000000000000000007bffffffffffffffffffffffffffffffffffffffffffffffffffffffff1916827bffffffffffffffffffffffffffffffffffffffffffffffffffffffff191614806104e657506104e582610fb8565b5b9050919050565b5f805f8381526020019081526020015f20600101549050919050565b60025481565b610517610cb8565b5f8111610559576040517f08c379a000000000000000000000000000000000000000000000000000000000815260040161055090611705565b60405180910390fd5b5f60045f3373ffffffffffffffffffffffffffffffffffffffff1673ffffffffffffffffffffffffffffffffffffffff1681526020019081526020015f20549050818110156105dd576040517f08c379a00000000000000000000000000000000000000000000000000000000081526004016105d49061176d565b60405180910390fd5b81816105e991906117b8565b60045f3373ffffffffffffffffffffffffffffffffffffffff1673ffffffffffffffffffffffffffffffffffffffff1681526020019081526020015f20819055507f000000000000000000000000000000000000000000000000000000000000000073ffffffffffffffffffffffffffffffffffffffff1663a9059cbb33846040518363ffffffff1660e01b81526004016106859291906117eb565b6020604051808303815f875af11580156106a1573d5f803e3d5ffd5b505050506040513d601f19601f820116820180604052508101906106c5919061183c565b610704576040517f08c379a00000000000000000000000000000000000000000000000000000000081526004016106fb906118b1565b60405180910390fd5b3373ffffffffffffffffffffffffffffffffffffffff167f7084f5476618d8e60b11ef0d7d3f06914655adb8793e28ff7f018d4c76d505d58360405161074a9190611499565b60405180910390a25061075b610faf565b50565b610767826104ed565b61077081611021565b61077a8383611035565b50505050565b61078861111e565b73ffffffffffffffffffffffffffffffffffffffff168173ffffffffffffffffffffffffffffffffffffffff16146107ec576040517f6697b23200000000000000000000000000000000000000000000000000000000815260040160405180910390fd5b6107f68282611125565b505050565b60035f9054906101000a900473ffffffffffffffffffffffffffffffffffffffff1681565b7f241ecf16d79d0f8dbfb92cbc07fe17840425976cf0667f022fe9877caa831b0861084a81611021565b8373ffffffffffffffffffffffffffffffffffffffff1663a9059cbb84846040518363ffffffff1660e01b81526004016108859291906117eb565b6020604051808303815f875af11580156108a1573d5f803e3d5ffd5b505050506040513d601f19601f820116820180604052508101906108c5919061183c565b610904576040517f08c379a00000000000000000000000000000000000000000000000000000000081526004016108fb906118b1565b60405180910390fd5b50505050565b5f805f8481526020019081526020015f205f015f8373ffffffffffffffffffffffffffffffffffffffff1673ffffffffffffffffffffffffffffffffffffffff1681526020019081526020015f205f9054906101000a900460ff16905092915050565b7f241ecf16d79d0f8dbfb92cbc07fe17840425976cf0667f022fe9877caa831b0861099781611021565b6103e88311156109dc576040517f08c379a00000000000000000000000000000000000000000000000000000000081526004016109d390611919565b60405180910390fd5b826002819055508160035f6101000a81548173ffffffffffffffffffffffffffffffffffffffff021916908373ffffffffffffffffffffffffffffffffffffffff1602179055507feecc969cd8da3140016e16b0603215de782af59713abfc5055d917b88f4a7b918383604051610a54929190611937565b60405180910390a1505050565b5f801b81565b610a6f610cb8565b5f8111610ab1576040517f08c379a0000000000000000000000000000000000000000000000000000000008152600401610aa890611705565b60405180910390fd5b8060045f3373ffffffffffffffffffffffffffffffffffffffff1673ffffffffffffffffffffffffffffffffffffffff1681526020019081526020015f205f828254610afd919061195e565b925050819055507f000000000000000000000000000000000000000000000000000000000000000073ffffffffffffffffffffffffffffffffffffffff166323b872dd3330846040518463ffffffff1660e01b8152600401610b6193929190611991565b6020604051808303815f875af1158015610b7d573d5f803e3d5ffd5b505050506040513d601f19601f82011682018060405250810190610ba1919061183c565b610be0576040517f08c379a0000000000000000000000000000000000000000000000000000000008152600401610bd7906118b1565b60405180910390fd5b3373ffffffffffffffffffffffffffffffffffffffff167f2da466a7b24304f47e87fa2e1e5a81b9831ce54fec19055ce277ca2f39ba42c482604051610c269190611499565b60405180910390a2610c36610faf565b50565b610c42826104ed565b610c4b81611021565b610c558383611125565b50505050565b7f000000000000000000000000000000000000000000000000000000000000000081565b7f241ecf16d79d0f8dbfb92cbc07fe17840425976cf0667f022fe9877caa831b0881565b6004602052805f5260405f205f915090505481565b600260015403610cfd576040517f08c379a0000000000000000000000000000000000000000000000000000000008152600401610cf490611a10565b60405180910390fd5b6002600181905550565b5f610d118261120e565b90505f8183610d2091906117b8565b90507f000000000000000000000000000000000000000000000000000000000000000073ffffffffffffffffffffffffffffffffffffffff1663a9059cbb85836040518363ffffffff1660e01b8152600401610d7d9291906117eb565b6020604051808303815f875af1158015610d99573d5f803e3d5ffd5b505050506040513d601f19601f82011682018060405250810190610dbd919061183c565b610dfc576040517f08c379a0000000000000000000000000000000000000000000000000000000008152600401610df390611a78565b60405180910390fd5b5f82118015610e5857505f73ffffffffffffffffffffffffffffffffffffffff1660035f9054906101000a900473ffffffffffffffffffffffffffffffffffffffff1673ffffffffffffffffffffffffffffffffffffffff1614155b15610f59577f000000000000000000000000000000000000000000000000000000000000000073ffffffffffffffffffffffffffffffffffffffff1663a9059cbb60035f9054906101000a900473ffffffffffffffffffffffffffffffffffffffff16846040518363ffffffff1660e01b8152600401610ed99291906117eb565b6020604051808303815f875af1158015610ef5573d5f803e3d5ffd5b505050506040513d601f19601f82011682018060405250810190610f19919061183c565b610f58576040517f08c379a0000000000000000000000000000000000000000000000000000000008152600401610f4f90611ae0565b60405180910390fd5b5b8373ffffffffffffffffffffffffffffffffffffffff167fc63be668767b92798030f3590af1f2e7ca3990163fa2606c8047ed5522b246d68484604051610fa1929190611afe565b60405180910390a250505050565b60018081905550565b5f7f01ffc9a7000000000000000000000000000000000000000000000000000000007bffffffffffffffffffffffffffffffffffffffffffffffffffffffff1916827bffffffffffffffffffffffffffffffffffffffffffffffffffffffff1916149050919050565b6110328161102d61111e565b611231565b50565b5f611040838361090a565b6111145760015f808581526020019081526020015f205f015f8473ffffffffffffffffffffffffffffffffffffffff1673ffffffffffffffffffffffffffffffffffffffff1681526020019081526020015f205f6101000a81548160ff0219169083151502179055506110b161111e565b73ffffffffffffffffffffffffffffffffffffffff168273ffffffffffffffffffffffffffffffffffffffff16847f2f8788117e7eff1d82e926ec794901d17c78024a50270940304540a733656f0d60405160405180910390a460019050611118565b5f90505b92915050565b5f33905090565b5f611130838361090a565b15611204575f805f8581526020019081526020015f205f015f8473ffffffffffffffffffffffffffffffffffffffff1673ffffffffffffffffffffffffffffffffffffffff1681526020019081526020015f205f6101000a81548160ff0219169083151502179055506111a161111e565b73ffffffffffffffffffffffffffffffffffffffff168273ffffffffffffffffffffffffffffffffffffffff16847ff6391f5c32d9c69d2a47ea670b442974b53935d1edc7fd64eb21e047a839171b60405160405180910390a460019050611208565b5f90505b92915050565b5f612710600254836112209190611b25565b61122a9190611b93565b9050919050565b61123b828261090a565b61127e5780826040517fe2517d3f000000000000000000000000000000000000000000000000000000008152600401611275929190611bc3565b60405180910390fd5b5050565b5f80fd5b5f73ffffffffffffffffffffffffffffffffffffffff82169050919050565b5f6112af82611286565b9050919050565b6112bf816112a5565b81146112c9575f80fd5b50565b5f813590506112da816112b6565b92915050565b5f819050919050565b6112f2816112e0565b81146112fc575f80fd5b50565b5f8135905061130d816112e9565b92915050565b5f806040838503121561132957611328611282565b5b5f611336858286016112cc565b9250506020611347858286016112ff565b9150509250929050565b5f7fffffffff0000000000000000000000000000000000000000000000000000000082169050919050565b61138581611351565b811461138f575f80fd5b50565b5f813590506113a08161137c565b92915050565b5f602082840312156113bb576113ba611282565b5b5f6113c884828501611392565b91505092915050565b5f8115159050919050565b6113e5816113d1565b82525050565b5f6020820190506113fe5f8301846113dc565b92915050565b5f819050919050565b61141681611404565b8114611420575f80fd5b50565b5f813590506114318161140d565b92915050565b5f6020828403121561144c5761144b611282565b5b5f61145984828501611423565b91505092915050565b61146b81611404565b82525050565b5f6020820190506114845f830184611462565b92915050565b611493816112e0565b82525050565b5f6020820190506114ac5f83018461148a565b92915050565b5f602082840312156114c7576114c6611282565b5b5f6114d4848285016112ff565b91505092915050565b5f80604083850312156114f3576114f2611282565b5b5f61150085828601611423565b9250506020611511858286016112cc565b9150509250929050565b611524816112a5565b82525050565b5f60208201905061153d5f83018461151b565b92915050565b5f61154d826112a5565b9050919050565b61155d81611543565b8114611567575f80fd5b50565b5f8135905061157881611554565b92915050565b5f805f6060848603121561159557611594611282565b5b5f6115a28682870161156a565b93505060206115b3868287016112cc565b92505060406115c4868287016112ff565b9150509250925092565b5f80604083850312156115e4576115e3611282565b5b5f6115f1858286016112ff565b9250506020611602858286016112cc565b9150509250929050565b5f819050919050565b5f61162f61162a61162584611286565b61160c565b611286565b9050919050565b5f61164082611615565b9050919050565b5f61165182611636565b9050919050565b61166181611647565b82525050565b5f60208201905061167a5f830184611658565b92915050565b5f6020828403121561169557611694611282565b5b5f6116a2848285016112cc565b91505092915050565b5f82825260208201905092915050565b7f7a65726f000000000000000000000000000000000000000000000000000000005f82015250565b5f6116ef6004836116ab565b91506116fa826116bb565b602082019050919050565b5f6020820190508181035f83015261171c816116e3565b9050919050565b7f696e73756666696369656e74206465706f7369740000000000000000000000005f82015250565b5f6117576014836116ab565b915061176282611723565b602082019050919050565b5f6020820190508181035f8301526117848161174b565b9050919050565b7f4e487b71000000000000000000000000000000000000000000000000000000005f52601160045260245ffd5b5f6117c2826112e0565b91506117cd836112e0565b92508282039050818111156117e5576117e461178b565b5b92915050565b5f6040820190506117fe5f83018561151b565b61180b602083018461148a565b9392505050565b61181b816113d1565b8114611825575f80fd5b50565b5f8151905061183681611812565b92915050565b5f6020828403121561185157611850611282565b5b5f61185e84828501611828565b91505092915050565b7f7472616e73666572206661696c656400000000000000000000000000000000005f82015250565b5f61189b600f836116ab565b91506118a682611867565b602082019050919050565b5f6020820190508181035f8301526118c88161188f565b9050919050565b7f66656520746f6f206869676800000000000000000000000000000000000000005f82015250565b5f611903600c836116ab565b915061190e826118cf565b602082019050919050565b5f6020820190508181035f830152611930816118f7565b9050919050565b5f60408201905061194a5f83018561148a565b611957602083018461151b565b9392505050565b5f611968826112e0565b9150611973836112e0565b925082820190508082111561198b5761198a61178b565b5b92915050565b5f6060820190506119a45f83018661151b565b6119b1602083018561151b565b6119be604083018461148a565b949350505050565b7f5265656e7472616e637947756172643a207265656e7472616e742063616c6c005f82015250565b5f6119fa601f836116ab565b9150611a05826119c6565b602082019050919050565b5f6020820190508181035f830152611a27816119ee565b9050919050565b7f7061792072656c61796572206661696c656400000000000000000000000000005f82015250565b5f611a626012836116ab565b9150611a6d82611a2e565b602082019050919050565b5f6020820190508181035f830152611a8f81611a56565b9050919050565b7f706179207472656173757279206661696c6564000000000000000000000000005f82015250565b5f611aca6013836116ab565b9150611ad582611a96565b602082019050919050565b5f6020820190508181035f830152611af781611abe565b9050919050565b5f604082019050611b115f83018561148a565b611b1e602083018461148a565b9392505050565b5f611b2f826112e0565b9150611b3a836112e0565b9250828202611b48816112e0565b91508282048414831517611b5f57611b5e61178b565b5b5092915050565b7f4e487b71000000000000000000000000000000000000000000000000000000005f52601260045260245ffd5b5f611b9d826112e0565b9150611ba8836112e0565b925082611bb857611bb7611b66565b5b828204905092915050565b5f604082019050611bd65f83018561151b565b611be36020830184611462565b939250505056fea264697066735822122073f788420ccac30e0848cca4cd40e500b7b4a6301f3f981578f89a60202fabe164736f6c63430008140033",
					"opcodes": "PUSH1 0xA0 PUSH1 0x40 MSTORE PUSH1 0x32 PUSH1 0x2 SSTORE CALLVALUE DUP1 ISZERO PUSH3 0x15 JUMPI PUSH0 DUP1 REVERT JUMPDEST POP PUSH1 0x40 MLOAD PUSH3 0x1FC1 CODESIZE SUB DUP1 PUSH3 0x1FC1 DUP4 CODECOPY DUP2 DUP2 ADD PUSH1 0x40 MSTORE DUP2 ADD SWAP1 PUSH3 0x3B SWAP2 SWAP1 PUSH3 0x313 JUMP JUMPDEST PUSH1 0x1 DUP1 DUP2 SWAP1 SSTORE POP DUP3 PUSH20 0xFFFFFFFFFFFFFFFFFFFFFFFFFFFFFFFFFFFFFFFF AND PUSH1 0x80 DUP2 PUSH20 0xFFFFFFFFFFFFFFFFFFFFFFFFFFFFFFFFFFFFFFFF AND DUP2 MSTORE POP POP PUSH3 0x8A PUSH0 DUP1 SHL DUP4 PUSH3 0x107 PUSH1 0x20 SHL PUSH1 0x20 SHR JUMP JUMPDEST POP PUSH3 0xBD PUSH32 0x241ECF16D79D0F8DBFB92CBC07FE17840425976CF0667F022FE9877CAA831B08 DUP4 PUSH3 0x107 PUSH1 0x20 SHL PUSH1 0x20 SHR JUMP JUMPDEST POP DUP1 PUSH1 0x3 PUSH0 PUSH2 0x100 EXP DUP2 SLOAD DUP2 PUSH20 0xFFFFFFFFFFFFFFFFFFFFFFFFFFFFFFFFFFFFFFFF MUL NOT AND SWAP1 DUP4 PUSH20 0xFFFFFFFFFFFFFFFFFFFFFFFFFFFFFFFFFFFFFFFF AND MUL OR SWAP1 SSTORE POP POP POP POP PUSH3 0x36C JUMP JUMPDEST PUSH0 PUSH3 0x11A DUP4 DUP4 PUSH3 0x202 PUSH1 0x20 SHL PUSH1 0x20 SHR JUMP JUMPDEST PUSH3 0x1F8 JUMPI PUSH1 0x1 PUSH0 DUP1 DUP6 DUP2 MSTORE PUSH1 0x20 ADD SWAP1 DUP2 MSTORE PUSH1 0x20 ADD PUSH0 KECCAK256 PUSH0 ADD PUSH0 DUP5 PUSH20 0xFFFFFFFFFFFFFFFFFFFFFFFFFFFFFFFFFFFFFFFF AND PUSH20 0xFFFFFFFFFFFFFFFFFFFFFFFFFFFFFFFFFFFFFFFF AND DUP2 MSTORE PUSH1 0x20 ADD SWAP1 DUP2 MSTORE PUSH1 0x20 ADD PUSH0 KECCAK256 PUSH0 PUSH2 0x100 EXP DUP2 SLOAD DUP2 PUSH1 0xFF MUL NOT AND SWAP1 DUP4 ISZERO ISZERO MUL OR SWAP1 SSTORE POP PUSH3 0x194 PUSH3 0x265 PUSH1 0x20 SHL PUSH1 0x20 SHR JUMP JUMPDEST PUSH20 0xFFFFFFFFFFFFFFFFFFFFFFFFFFFFFFFFFFFFFFFF AND DUP3 PUSH20 0xFFFFFFFFFFFFFFFFFFFFFFFFFFFFFFFFFFFFFFFF AND DUP5 PUSH32 0x2F8788117E7EFF1D82E926EC794901D17C78024A50270940304540A733656F0D PUSH1 0x40 MLOAD PUSH1 0x40 MLOAD DUP1 SWAP2 SUB SWAP1 LOG4 PUSH1 0x1 SWAP1 POP PUSH3 0x1FC JUMP JUMPDEST PUSH0 SWAP1 POP JUMPDEST SWAP3 SWAP2 POP POP JUMP JUMPDEST PUSH0 DUP1 PUSH0 DUP5 DUP2 MSTORE PUSH1 0x20 ADD SWAP1 DUP2 MSTORE PUSH1 0x20 ADD PUSH0 KECCAK256 PUSH0 ADD PUSH0 DUP4 PUSH20 0xFFFFFFFFFFFFFFFFFFFFFFFFFFFFFFFFFFFFFFFF AND PUSH20 0xFFFFFFFFFFFFFFFFFFFFFFFFFFFFFFFFFFFFFFFF AND DUP2 MSTORE PUSH1 0x20 ADD SWAP1 DUP2 MSTORE PUSH1 0x20 ADD PUSH0 KECCAK256 PUSH0 SWAP1 SLOAD SWAP1 PUSH2 0x100 EXP SWAP1 DIV PUSH1 0xFF AND SWAP1 POP SWAP3 SWAP2 POP POP JUMP JUMPDEST PUSH0 CALLER SWAP1 POP SWAP1 JUMP JUMPDEST PUSH0 DUP1 REVERT JUMPDEST PUSH0 PUSH20 0xFFFFFFFFFFFFFFFFFFFFFFFFFFFFFFFFFFFFFFFF DUP3 AND SWAP1 POP SWAP2 SWAP1 POP JUMP JUMPDEST PUSH0 PUSH3 0x29B DUP3 PUSH3 0x270 JUMP JUMPDEST SWAP1 POP SWAP2 SWAP1 POP JUMP JUMPDEST PUSH0 PUSH3 0x2AE DUP3 PUSH3 0x28F JUMP JUMPDEST SWAP1 POP SWAP2 SWAP1 POP JUMP JUMPDEST PUSH3 0x2C0 DUP2 PUSH3 0x2A2 JUMP JUMPDEST DUP2 EQ PUSH3 0x2CB JUMPI PUSH0 DUP1 REVERT JUMPDEST POP JUMP JUMPDEST PUSH0 DUP2 MLOAD SWAP1 POP PUSH3 0x2DE DUP2 PUSH3 0x2B5 JUMP JUMPDEST SWAP3 SWAP2 POP POP JUMP JUMPDEST PUSH3 0x2EF DUP2 PUSH3 0x28F JUMP JUMPDEST DUP2 EQ PUSH3 0x2FA JUMPI PUSH0 DUP1 REVERT JUMPDEST POP JUMP JUMPDEST PUSH0 DUP2 MLOAD SWAP1 POP PUSH3 0x30D DUP2 PUSH3 0x2E4 JUMP JUMPDEST SWAP3 SWAP2 POP POP JUMP JUMPDEST PUSH0 DUP1 PUSH0 PUSH1 0x60 DUP5 DUP7 SUB SLT ISZERO PUSH3 0x32D JUMPI PUSH3 0x32C PUSH3 0x26C JUMP JUMPDEST JUMPDEST PUSH0 PUSH3 0x33C DUP7 DUP3 DUP8 ADD PUSH3 0x2CE JUMP JUMPDEST SWAP4 POP POP PUSH1 0x20 PUSH3 0x34F DUP7 DUP3 DUP8 ADD PUSH3 0x2FD JUMP JUMPDEST SWAP3 POP POP PUSH1 0x40 PUSH3 0x362 DUP7 DUP3 DUP8 ADD PUSH3 0x2FD JUMP JUMPDEST SWAP2 POP POP SWAP3 POP SWAP3 POP SWAP3 JUMP JUMPDEST PUSH1 0x80 MLOAD PUSH2 0x1C20 PUSH3 0x3A1 PUSH0 CODECOPY PUSH0 DUP2 DUP2 PUSH2 0x62C ADD MSTORE DUP2 DUP2 PUSH2 0xB06 ADD MSTORE DUP2 DUP2 PUSH2 0xC5D ADD MSTORE DUP2 DUP2 PUSH2 0xD24 ADD MSTORE PUSH2 0xE5F ADD MSTORE PUSH2 0x1C20 PUSH0 RETURN INVALID PUSH1 0x80 PUSH1 0x40 MSTORE CALLVALUE DUP1 ISZERO PUSH2 0xF JUMPI PUSH0 DUP1 REVERT JUMPDEST POP PUSH1 0x4 CALLDATASIZE LT PUSH2 0x108 JUMPI PUSH0 CALLDATALOAD PUSH1 0xE0 SHR DUP1 PUSH4 0x64AFF9EC GT PUSH2 0xA0 JUMPI DUP1 PUSH4 0xB6B55F25 GT PUSH2 0x6F JUMPI DUP1 PUSH4 0xB6B55F25 EQ PUSH2 0x29E JUMPI DUP1 PUSH4 0xD547741F EQ PUSH2 0x2BA JUMPI DUP1 PUSH4 0xD9CC6248 EQ PUSH2 0x2D6 JUMPI DUP1 PUSH4 0xEC87621C EQ PUSH2 0x2F4 JUMPI DUP1 PUSH4 0xFC7E286D EQ PUSH2 0x312 JUMPI PUSH2 0x108 JUMP JUMPDEST DUP1 PUSH4 0x64AFF9EC EQ PUSH2 0x218 JUMPI DUP1 PUSH4 0x91D14854 EQ PUSH2 0x234 JUMPI DUP1 PUSH4 0x92DCE564 EQ PUSH2 0x264 JUMPI DUP1 PUSH4 0xA217FDDF EQ PUSH2 0x280 JUMPI PUSH2 0x108 JUMP JUMPDEST DUP1 PUSH4 0x2E1A7D4D GT PUSH2 0xDC JUMPI DUP1 PUSH4 0x2E1A7D4D EQ PUSH2 0x1A6 JUMPI DUP1 PUSH4 0x2F2FF15D EQ PUSH2 0x1C2 JUMPI DUP1 PUSH4 0x36568ABE EQ PUSH2 0x1DE JUMPI DUP1 PUSH4 0x61D027B3 EQ PUSH2 0x1FA JUMPI PUSH2 0x108 JUMP JUMPDEST DUP1 PUSH3 0x8683BD EQ PUSH2 0x10C JUMPI DUP1 PUSH4 0x1FFC9A7 EQ PUSH2 0x128 JUMPI DUP1 PUSH4 0x248A9CA3 EQ PUSH2 0x158 JUMPI DUP1 PUSH4 0x24A9D853 EQ PUSH2 0x188 JUMPI JUMPDEST PUSH0 DUP1 REVERT JUMPDEST PUSH2 0x126 PUSH1 0x4 DUP1 CALLDATASIZE SUB DUP2 ADD SWAP1 PUSH2 0x121 SWAP2 SWAP1 PUSH2 0x1313 JUMP JUMPDEST PUSH2 0x342 JUMP JUMPDEST STOP JUMPDEST PUSH2 0x142 PUSH1 0x4 DUP1 CALLDATASIZE SUB DUP2 ADD SWAP1 PUSH2 0x13D SWAP2 SWAP1 PUSH2 0x13A6 JUMP JUMPDEST PUSH2 0x474 JUMP JUMPDEST PUSH1 0x40 MLOAD PUSH2 0x14F SWAP2 SWAP1 PUSH2 0x13EB JUMP JUMPDEST PUSH1 0x40 MLOAD DUP1 SWAP2 SUB SWAP1 RETURN JUMPDEST PUSH2 0x172 PUSH1 0x4 DUP1 CALLDATASIZE SUB DUP2 ADD SWAP1 PUSH2 0x16D SWAP2 SWAP1 PUSH2 0x1437 JUMP JUMPDEST PUSH2 0x4ED JUMP JUMPDEST PUSH1 0x40 MLOAD PUSH2 0x17F SWAP2 SWAP1 PUSH2 0x1471 JUMP JUMPDEST PUSH1 0x40 MLOAD DUP1 SWAP2 SUB SWAP1 RETURN JUMPDEST PUSH2 0x190 PUSH2 0x509 JUMP JUMPDEST PUSH1 0x40 MLOAD PUSH2 0x19D SWAP2 SWAP1 PUSH2 0x1499 JUMP JUMPDEST PUSH1 0x40 MLOAD DUP1 SWAP2 SUB SWAP1 RETURN JUMPDEST PUSH2 0x1C0 PUSH1 0x4 DUP1 CALLDATASIZE SUB DUP2 ADD SWAP1 PUSH2 0x1BB SWAP2 SWAP1 PUSH2 0x14B2 JUMP JUMPDEST PUSH2 0x50F JUMP JUMPDEST STOP JUMPDEST PUSH2 0x1DC PUSH1 0x4 DUP1 CALLDATASIZE SUB DUP2 ADD SWAP1 PUSH2 0x1D7 SWAP2 SWAP1 PUSH2 0x14DD JUMP JUMPDEST PUSH2 0x75E JUMP JUMPDEST STOP JUMPDEST PUSH2 0x1F8 PUSH1 0x4 DUP1 CALLDATASIZE SUB DUP2 ADD SWAP1 PUSH2 0x1F3 SWAP2 SWAP1 PUSH2 0x14DD JUMP JUMPDEST PUSH2 0x780 JUMP JUMPDEST STOP JUMPDEST PUSH2 0x202 PUSH2 0x7FB JUMP JUMPDEST PUSH1 0x40 MLOAD PUSH2 0x20F SWAP2 SWAP1 PUSH2 0x152A JUMP JUMPDEST PUSH1 0x40 MLOAD DUP1 SWAP2 SUB SWAP1 RETURN JUMPDEST PUSH2 0x232 PUSH1 0x4 DUP1 CALLDATASIZE SUB DUP2 ADD SWAP1 PUSH2 0x22D SWAP2 SWAP1 PUSH2 0x157E JUMP JUMPDEST PUSH2 0x820 JUMP JUMPDEST STOP JUMPDEST PUSH2 0x24E PUSH1 0x4 DUP1 CALLDATASIZE SUB DUP2 ADD SWAP1 PUSH2 0x249 SWAP2 SWAP1 PUSH2 0x14DD JUMP JUMPDEST PUSH2 0x90A JUMP JUMPDEST PUSH1 0x40 MLOAD PUSH2 0x25B SWAP2 SWAP1 PUSH2 0x13EB JUMP JUMPDEST PUSH1 0x40 MLOAD DUP1 SWAP2 SUB SWAP1 RETURN JUMPDEST PUSH2 0x27E PUSH1 0x4 DUP1 CALLDATASIZE SUB DUP2 ADD SWAP1 PUSH2 0x279 SWAP2 SWAP1 PUSH2 0x15CE JUMP JUMPDEST PUSH2 0x96D JUMP JUMPDEST STOP JUMPDEST PUSH2 0x288 PUSH2 0xA61 JUMP JUMPDEST PUSH1 0x40 MLOAD PUSH2 0x295 SWAP2 SWAP1 PUSH2 0x1471 JUMP JUMPDEST PUSH1 0x40 MLOAD DUP1 SWAP2 SUB SWAP1 RETURN JUMPDEST PUSH2 0x2B8 PUSH1 0x4 DUP1 CALLDATASIZE SUB DUP2 ADD SWAP1 PUSH2 0x2B3 SWAP2 SWAP1 PUSH2 0x14B2 JUMP JUMPDEST PUSH2 0xA67 JUMP JUMPDEST STOP JUMPDEST PUSH2 0x2D4 PUSH1 0x4 DUP1 CALLDATASIZE SUB DUP2 ADD SWAP1 PUSH2 0x2CF SWAP2 SWAP1 PUSH2 0x14DD JUMP JUMPDEST PUSH2 0xC39 JUMP JUMPDEST STOP JUMPDEST PUSH2 0x2DE PUSH2 0xC5B JUMP JUMPDEST PUSH1 0x40 MLOAD PUSH2 0x2EB SWAP2 SWAP1 PUSH2 0x1667 JUMP JUMPDEST PUSH1 0x40 MLOAD DUP1 SWAP2 SUB SWAP1 RETURN JUMPDEST PUSH2 0x2FC PUSH2 0xC7F JUMP JUMPDEST PUSH1 0x40 MLOAD PUSH2 0x309 SWAP2 SWAP1 PUSH2 0x1471 JUMP JUMPDEST PUSH1 0x40 MLOAD DUP1 SWAP2 SUB SWAP1 RETURN JUMPDEST PUSH2 0x32C PUSH1 0x4 DUP1 CALLDATASIZE SUB DUP2 ADD SWAP1 PUSH2 0x327 SWAP2 SWAP1 PUSH2 0x1680 JUMP JUMPDEST PUSH2 0xCA3 JUMP JUMPDEST PUSH1 0x40 MLOAD PUSH2 0x339 SWAP2 SWAP1 PUSH2 0x1499 JUMP JUMPDEST PUSH1 0x40 MLOAD DUP1 SWAP2 SUB SWAP1 RETURN JUMPDEST PUSH2 0x34A PUSH2 0xCB8 JUMP JUMPDEST PUSH0 DUP2 GT PUSH2 0x38C JUMPI PUSH1 0x40 MLOAD PUSH32 0x8C379A000000000000000000000000000000000000000000000000000000000 DUP2 MSTORE PUSH1 0x4 ADD PUSH2 0x383 SWAP1 PUSH2 0x1705 JUMP JUMPDEST PUSH1 0x40 MLOAD DUP1 SWAP2 SUB SWAP1 REVERT JUMPDEST PUSH0 PUSH1 0x4 PUSH0 CALLER PUSH20 0xFFFFFFFFFFFFFFFFFFFFFFFFFFFFFFFFFFFFFFFF AND PUSH20 0xFFFFFFFFFFFFFFFFFFFFFFFFFFFFFFFFFFFFFFFF AND DUP2 MSTORE PUSH1 0x20 ADD SWAP1 DUP2 MSTORE PUSH1 0x20 ADD PUSH0 KECCAK256 SLOAD SWAP1 POP DUP2 DUP2 LT ISZERO PUSH2 0x410 JUMPI PUSH1 0x40 MLOAD PUSH32 0x8C379A000000000000000000000000000000000000000000000000000000000 DUP2 MSTORE PUSH1 0x4 ADD PUSH2 0x407 SWAP1 PUSH2 0x176D JUMP JUMPDEST PUSH1 0x40 MLOAD DUP1 SWAP2 SUB SWAP1 REVERT JUMPDEST DUP2 DUP2 PUSH2 0x41C SWAP2 SWAP1 PUSH2 0x17B8 JUMP JUMPDEST PUSH1 0x4 PUSH0 CALLER PUSH20 0xFFFFFFFFFFFFFFFFFFFFFFFFFFFFFFFFFFFFFFFF AND PUSH20 0xFFFFFFFFFFFFFFFFFFFFFFFFFFFFFFFFFFFFFFFF AND DUP2 MSTORE PUSH1 0x20 ADD SWAP1 DUP2 MSTORE PUSH1 0x20 ADD PUSH0 KECCAK256 DUP2 SWAP1 SSTORE POP PUSH2 0x467 DUP4 DUP4 PUSH2 0xD07 JUMP JUMPDEST POP PUSH2 0x470 PUSH2 0xFAF JUMP JUMPDEST POP POP JUMP JUMPDEST PUSH0 PUSH32 0x7965DB0B00000000000000000000000000000000000000000000000000000000 PUSH28 0xFFFFFFFFFFFFFFFFFFFFFFFFFFFFFFFFFFFFFFFFFFFFFFFFFFFFFFFF NOT AND DUP3 PUSH28 0xFFFFFFFFFFFFFFFFFFFFFFFFFFFFFFFFFFFFFFFFFFFFFFFFFFFFFFFF NOT AND EQ DUP1 PUSH2 0x4E6 JUMPI POP PUSH2 0x4E5 DUP3 PUSH2 0xFB8 JUMP JUMPDEST JUMPDEST SWAP1 POP SWAP2 SWAP1 POP JUMP JUMPDEST PUSH0 DUP1 PUSH0 DUP4 DUP2 MSTORE PUSH1 0x20 ADD SWAP1 DUP2 MSTORE PUSH1 0x20 ADD PUSH0 KECCAK256 PUSH1 0x1 ADD SLOAD SWAP1 POP SWAP2 SWAP1 POP JUMP JUMPDEST PUSH1 0x2 SLOAD DUP2 JUMP JUMPDEST PUSH2 0x517 PUSH2 0xCB8 JUMP JUMPDEST PUSH0 DUP2 GT PUSH2 0x559 JUMPI PUSH1 0x40 MLOAD PUSH32 0x8C379A000000000000000000000000000000000000000000000000000000000 DUP2 MSTORE PUSH1 0x4 ADD PUSH2 0x550 SWAP1 PUSH2 0x1705 JUMP JUMPDEST PUSH1 0x40 MLOAD DUP1 SWAP2 SUB SWAP1 REVERT JUMPDEST PUSH0 PUSH1 0x4 PUSH0 CALLER PUSH20 0xFFFFFFFFFFFFFFFFFFFFFFFFFFFFFFFFFFFFFFFF AND PUSH20 0xFFFFFFFFFFFFFFFFFFFFFFFFFFFFFFFFFFFFFFFF AND DUP2 MSTORE PUSH1 0x20 ADD SWAP1 DUP2 MSTORE PUSH1 0x20 ADD PUSH0 KECCAK256 SLOAD SWAP1 POP DUP2 DUP2 LT ISZERO PUSH2 0x5DD JUMPI PUSH1 0x40 MLOAD PUSH32 0x8C379A000000000000000000000000000000000000000000000000000000000 DUP2 MSTORE PUSH1 0x4 ADD PUSH2 0x5D4 SWAP1 PUSH2 0x176D JUMP JUMPDEST PUSH1 0x40 MLOAD DUP1 SWAP2 SUB SWAP1 REVERT JUMPDEST DUP2 DUP2 PUSH2 0x5E9 SWAP2 SWAP1 PUSH2 0x17B8 JUMP JUMPDEST PUSH1 0x4 PUSH0 CALLER PUSH20 0xFFFFFFFFFFFFFFFFFFFFFFFFFFFFFFFFFFFFFFFF AND PUSH20 0xFFFFFFFFFFFFFFFFFFFFFFFFFFFFFFFFFFFFFFFF AND DUP2 MSTORE PUSH1 0x20 ADD SWAP1 DUP2 MSTORE PUSH1 0x20 ADD PUSH0 KECCAK256 DUP2 SWAP1 SSTORE POP PUSH32 0x0 PUSH20 0xFFFFFFFFFFFFFFFFFFFFFFFFFFFFFFFFFFFFFFFF AND PUSH4 0xA9059CBB CALLER DUP5 PUSH1 0x40 MLOAD DUP4 PUSH4 0xFFFFFFFF AND PUSH1 0xE0 SHL DUP2 MSTORE PUSH1 0x4 ADD PUSH2 0x685 SWAP3 SWAP2 SWAP1 PUSH2 0x17EB JUMP JUMPDEST PUSH1 0x20 PUSH1 0x40 MLOAD DUP1 DUP4 SUB DUP2 PUSH0 DUP8 GAS CALL ISZERO DUP1 ISZERO PUSH2 0x6A1 JUMPI RETURNDATASIZE PUSH0 DUP1 RETURNDATACOPY RETURNDATASIZE PUSH0 REVERT JUMPDEST POP POP POP POP PUSH1 0x40 MLOAD RETURNDATASIZE PUSH1 0x1F NOT PUSH1 0x1F DUP3 ADD AND DUP3 ADD DUP1 PUSH1 0x40 MSTORE POP DUP2 ADD SWAP1 PUSH2 0x6C5 SWAP2 SWAP1 PUSH2 0x183C JUMP JUMPDEST PUSH2 0x704 JUMPI PUSH1 0x40 MLOAD PUSH32 0x8C379A000000000000000000000000000000000000000000000000000000000 DUP2 MSTORE PUSH1 0x4 ADD PUSH2 0x6FB SWAP1 PUSH2 0x18B1 JUMP JUMPDEST PUSH1 0x40 MLOAD DUP1 SWAP2 SUB SWAP1 REVERT JUMPDEST CALLER PUSH20 0xFFFFFFFFFFFFFFFFFFFFFFFFFFFFFFFFFFFFFFFF AND PUSH32 0x7084F5476618D8E60B11EF0D7D3F06914655ADB8793E28FF7F018D4C76D505D5 DUP4 PUSH1 0x40 MLOAD PUSH2 0x74A SWAP2 SWAP1 PUSH2 0x1499 JUMP JUMPDEST PUSH1 0x40 MLOAD DUP1 SWAP2 SUB SWAP1 LOG2 POP PUSH2 0x75B PUSH2 0xFAF JUMP JUMPDEST POP JUMP JUMPDEST PUSH2 0x767 DUP3 PUSH2 0x4ED JUMP JUMPDEST PUSH2 0x770 DUP2 PUSH2 0x1021 JUMP JUMPDEST PUSH2 0x77A DUP4 DUP4 PUSH2 0x1035 JUMP JUMPDEST POP POP POP POP JUMP JUMPDEST PUSH2 0x788 PUSH2 0x111E JUMP JUMPDEST PUSH20 0xFFFFFFFFFFFFFFFFFFFFFFFFFFFFFFFFFFFFFFFF AND DUP2 PUSH20 0xFFFFFFFFFFFFFFFFFFFFFFFFFFFFFFFFFFFFFFFF AND EQ PUSH2 0x7EC JUMPI PUSH1 0x40 MLOAD PUSH32 0x6697B23200000000000000000000000000000000000000000000000000000000 DUP2 MSTORE PUSH1 0x4 ADD PUSH1 0x40 MLOAD DUP1 SWAP2 SUB SWAP1 REVERT JUMPDEST PUSH2 0x7F6 DUP3 DUP3 PUSH2 0x1125 JUMP JUMPDEST POP POP POP JUMP JUMPDEST PUSH1 0x3 PUSH0 SWAP1 SLOAD SWAP1 PUSH2 0x100 EXP SWAP1 DIV PUSH20 0xFFFFFFFFFFFFFFFFFFFFFFFFFFFFFFFFFFFFFFFF AND DUP2 JUMP JUMPDEST PUSH32 0x241ECF16D79D0F8DBFB92CBC07FE17840425976CF0667F022FE9877CAA831B08 PUSH2 0x84A DUP2 PUSH2 0x1021 JUMP JUMPDEST DUP4 PUSH20 0xFFFFFFFFFFFFFFFFFFFFFFFFFFFFFFFFFFFFFFFF AND PUSH4 0xA9059CBB DUP5 DUP5 PUSH1 0x40 MLOAD DUP4 PUSH4 0xFFFFFFFF AND PUSH1 0xE0 SHL DUP2 MSTORE PUSH1 0x4 ADD PUSH2 0x885 SWAP3 SWAP2 SWAP1 PUSH2 0x17EB JUMP JUMPDEST PUSH1 0x20 PUSH1 0x40 MLOAD DUP1 DUP4 SUB DUP2 PUSH0 DUP8 GAS CALL ISZERO DUP1 ISZERO PUSH2 0x8A1 JUMPI RETURNDATASIZE PUSH0 DUP1 RETURNDATACOPY RETURNDATASIZE PUSH0 REVERT JUMPDEST POP POP POP POP PUSH1 0x40 MLOAD RETURNDATASIZE PUSH1 0x1F NOT PUSH1 0x1F DUP3 ADD AND DUP3 ADD DUP1 PUSH1 0x40 MSTORE POP DUP2 ADD SWAP1 PUSH2 0x8C5 SWAP2 SWAP1 PUSH2 0x183C JUMP JUMPDEST PUSH2 0x904 JUMPI PUSH1 0x40 MLOAD PUSH32 0x8C379A000000000000000000000000000000000000000000000000000000000 DUP2 MSTORE PUSH1 0x4 ADD PUSH2 0x8FB SWAP1 PUSH2 0x18B1 JUMP JUMPDEST PUSH1 0x40 MLOAD DUP1 SWAP2 SUB SWAP1 REVERT JUMPDEST POP POP POP POP JUMP JUMPDEST PUSH0 DUP1 PUSH0 DUP5 DUP2 MSTORE PUSH1 0x20 ADD SWAP1 DUP2 MSTORE PUSH1 0x20 ADD PUSH0 KECCAK256 PUSH0 ADD PUSH0 DUP4 PUSH20 0xFFFFFFFFFFFFFFFFFFFFFFFFFFFFFFFFFFFFFFFF AND PUSH20 0xFFFFFFFFFFFFFFFFFFFFFFFFFFFFFFFFFFFFFFFF AND DUP2 MSTORE PUSH1 0x20 ADD SWAP1 DUP2 MSTORE PUSH1 0x20 ADD PUSH0 KECCAK256 PUSH0 SWAP1 SLOAD SWAP1 PUSH2 0x100 EXP SWAP1 DIV PUSH1 0xFF AND SWAP1 POP SWAP3 SWAP2 POP POP JUMP JUMPDEST PUSH32 0x241ECF16D79D0F8DBFB92CBC07FE17840425976CF0667F022FE9877CAA831B08 PUSH2 0x997 DUP2 PUSH2 0x1021 JUMP JUMPDEST PUSH2 0x3E8 DUP4 GT ISZERO PUSH2 0x9DC JUMPI PUSH1 0x40 MLOAD PUSH32 0x8C379A000000000000000000000000000000000000000000000000000000000 DUP2 MSTORE PUSH1 0x4 ADD PUSH2 0x9D3 SWAP1 PUSH2 0x1919 JUMP JUMPDEST PUSH1 0x40 MLOAD DUP1 SWAP2 SUB SWAP1 REVERT JUMPDEST DUP3 PUSH1 0x2 DUP2 SWAP1 SSTORE POP DUP2 PUSH1 0x3 PUSH0 PUSH2 0x100 EXP DUP2 SLOAD DUP2 PUSH20 0xFFFFFFFFFFFFFFFFFFFFFFFFFFFFFFFFFFFFFFFF MUL NOT AND SWAP1 DUP4 PUSH20 0xFFFFFFFFFFFFFFFFFFFFFFFFFFFFFFFFFFFFFFFF AND MUL OR SWAP1 SSTORE POP PUSH32 0xEECC969CD8DA3140016E16B0603215DE782AF59713ABFC5055D917B88F4A7B91 DUP4 DUP4 PUSH1 0x40 MLOAD PUSH2 0xA54 SWAP3 SWAP2 SWAP1 PUSH2 0x1937 JUMP JUMPDEST PUSH1 0x40 MLOAD DUP1 SWAP2 SUB SWAP1 LOG1 POP POP POP JUMP JUMPDEST PUSH0 DUP1 SHL DUP2 JUMP JUMPDEST PUSH2 0xA6F PUSH2 0xCB8 JUMP JUMPDEST PUSH0 DUP2 GT PUSH2 0xAB1 JUMPI PUSH1 0x40 MLOAD PUSH32 0x8C379A000000000000000000000000000000000000000000000000000000000 DUP2 MSTORE PUSH1 0x4 ADD PUSH2 0xAA8 SWAP1 PUSH2 0x1705 JUMP JUMPDEST PUSH1 0x40 MLOAD DUP1 SWAP2 SUB SWAP1 REVERT JUMPDEST DUP1 PUSH1 0x4 PUSH0 CALLER PUSH20 0xFFFFFFFFFFFFFFFFFFFFFFFFFFFFFFFFFFFFFFFF AND PUSH20 0xFFFFFFFFFFFFFFFFFFFFFFFFFFFFFFFFFFFFFFFF AND DUP2 MSTORE PUSH1 0x20 ADD SWAP1 DUP2 MSTORE PUSH1 0x20 ADD PUSH0 KECCAK256 PUSH0 DUP3 DUP3 SLOAD PUSH2 0xAFD SWAP2 SWAP1 PUSH2 0x195E JUMP JUMPDEST SWAP3 POP POP DUP2 SWAP1 SSTORE POP PUSH32 0x0 PUSH20 0xFFFFFFFFFFFFFFFFFFFFFFFFFFFFFFFFFFFFFFFF AND PUSH4 0x23B872DD CALLER ADDRESS DUP5 PUSH1 0x40 MLOAD DUP5 PUSH4 0xFFFFFFFF AND PUSH1 0xE0 SHL DUP2 MSTORE PUSH1 0x4 ADD PUSH2 0xB61 SWAP4 SWAP3 SWAP2 SWAP1 PUSH2 0x1991 JUMP JUMPDEST PUSH1 0x20 PUSH1 0x40 MLOAD DUP1 DUP4 SUB DUP2 PUSH0 DUP8 GAS CALL ISZERO DUP1 ISZERO PUSH2 0xB7D JUMPI RETURNDATASIZE PUSH0 DUP1 RETURNDATACOPY RETURNDATASIZE PUSH0 REVERT JUMPDEST POP POP POP POP PUSH1 0x40 MLOAD RETURNDATASIZE PUSH1 0x1F NOT PUSH1 0x1F DUP3 ADD AND DUP3 ADD DUP1 PUSH1 0x40 MSTORE POP DUP2 ADD SWAP1 PUSH2 0xBA1 SWAP2 SWAP1 PUSH2 0x183C JUMP JUMPDEST PUSH2 0xBE0 JUMPI PUSH1 0x40 MLOAD PUSH32 0x8C379A000000000000000000000000000000000000000000000000000000000 DUP2 MSTORE PUSH1 0x4 ADD PUSH2 0xBD7 SWAP1 PUSH2 0x18B1 JUMP JUMPDEST PUSH1 0x40 MLOAD DUP1 SWAP2 SUB SWAP1 REVERT JUMPDEST CALLER PUSH20 0xFFFFFFFFFFFFFFFFFFFFFFFFFFFFFFFFFFFFFFFF AND PUSH32 0x2DA466A7B24304F47E87FA2E1E5A81B9831CE54FEC19055CE277CA2F39BA42C4 DUP3 PUSH1 0x40 MLOAD PUSH2 0xC26 SWAP2 SWAP1 PUSH2 0x1499 JUMP JUMPDEST PUSH1 0x40 MLOAD DUP1 SWAP2 SUB SWAP1 LOG2 PUSH2 0xC36 PUSH2 0xFAF JUMP JUMPDEST POP JUMP JUMPDEST PUSH2 0xC42 DUP3 PUSH2 0x4ED JUMP JUMPDEST PUSH2 0xC4B DUP2 PUSH2 0x1021 JUMP JUMPDEST PUSH2 0xC55 DUP4 DUP4 PUSH2 0x1125 JUMP JUMPDEST POP POP POP POP JUMP JUMPDEST PUSH32 0x0 DUP2 JUMP JUMPDEST PUSH32 0x241ECF16D79D0F8DBFB92CBC07FE17840425976CF0667F022FE9877CAA831B08 DUP2 JUMP JUMPDEST PUSH1 0x4 PUSH1 0x20 MSTORE DUP1 PUSH0 MSTORE PUSH1 0x40 PUSH0 KECCAK256 PUSH0 SWAP2 POP SWAP1 POP SLOAD DUP2 JUMP JUMPDEST PUSH1 0x2 PUSH1 0x1 SLOAD SUB PUSH2 0xCFD JUMPI PUSH1 0x40 MLOAD PUSH32 0x8C379A000000000000000000000000000000000000000000000000000000000 DUP2 MSTORE PUSH1 0x4 ADD PUSH2 0xCF4 SWAP1 PUSH2 0x1A10 JUMP JUMPDEST PUSH1 0x40 MLOAD DUP1 SWAP2 SUB SWAP1 REVERT JUMPDEST PUSH1 0x2 PUSH1 0x1 DUP2 SWAP1 SSTORE POP JUMP JUMPDEST PUSH0 PUSH2 0xD11 DUP3 PUSH2 0x120E JUMP JUMPDEST SWAP1 POP PUSH0 DUP2 DUP4 PUSH2 0xD20 SWAP2 SWAP1 PUSH2 0x17B8 JUMP JUMPDEST SWAP1 POP PUSH32 0x0 PUSH20 0xFFFFFFFFFFFFFFFFFFFFFFFFFFFFFFFFFFFFFFFF AND PUSH4 0xA9059CBB DUP6 DUP4 PUSH1 0x40 MLOAD DUP4 PUSH4 0xFFFFFFFF AND PUSH1 0xE0 SHL DUP2 MSTORE PUSH1 0x4 ADD PUSH2 0xD7D SWAP3 SWAP2 SWAP1 PUSH2 0x17EB JUMP JUMPDEST PUSH1 0x20 PUSH1 0x40 MLOAD DUP1 DUP4 SUB DUP2 PUSH0 DUP8 GAS CALL ISZERO DUP1 ISZERO PUSH2 0xD99 JUMPI RETURNDATASIZE PUSH0 DUP1 RETURNDATACOPY RETURNDATASIZE PUSH0 REVERT JUMPDEST POP POP POP POP PUSH1 0x40 MLOAD RETURNDATASIZE PUSH1 0x1F NOT PUSH1 0x1F DUP3 ADD AND DUP3 ADD DUP1 PUSH1 0x40 MSTORE POP DUP2 ADD SWAP1 PUSH2 0xDBD SWAP2 SWAP1 PUSH2 0x183C JUMP JUMPDEST PUSH2 0xDFC JUMPI PUSH1 0x40 MLOAD PUSH32 0x8C379A000000000000000000000000000000000000000000000000000000000 DUP2 MSTORE PUSH1 0x4 ADD PUSH2 0xDF3 SWAP1 PUSH2 0x1A78 JUMP JUMPDEST PUSH1 0x40 MLOAD DUP1 SWAP2 SUB SWAP1 REVERT JUMPDEST PUSH0 DUP3 GT DUP1 ISZERO PUSH2 0xE58 JUMPI POP PUSH0 PUSH20 0xFFFFFFFFFFFFFFFFFFFFFFFFFFFFFFFFFFFFFFFF AND PUSH1 0x3 PUSH0 SWAP1 SLOAD SWAP1 PUSH2 0x100 EXP SWAP1 DIV PUSH20 0xFFFFFFFFFFFFFFFFFFFFFFFFFFFFFFFFFFFFFFFF AND PUSH20 0xFFFFFFFFFFFFFFFFFFFFFFFFFFFFFFFFFFFFFFFF AND EQ ISZERO JUMPDEST ISZERO PUSH2 0xF59 JUMPI PUSH32 0x0 PUSH20 0xFFFFFFFFFFFFFFFFFFFFFFFFFFFFFFFFFFFFFFFF AND PUSH4 0xA9059CBB PUSH1 0x3 PUSH0 SWAP1 SLOAD SWAP1 PUSH2 0x100 EXP SWAP1 DIV PUSH20 0xFFFFFFFFFFFFFFFFFFFFFFFFFFFFFFFFFFFFFFFF AND DUP5 PUSH1 0x40 MLOAD DUP4 PUSH4 0xFFFFFFFF AND PUSH1 0xE0 SHL DUP2 MSTORE PUSH1 0x4 ADD PUSH2 0xED9 SWAP3 SWAP2 SWAP1 PUSH2 0x17EB JUMP JUMPDEST PUSH1 0x20 PUSH1 0x40 MLOAD DUP1 DUP4 SUB DUP2 PUSH0 DUP8 GAS CALL ISZERO DUP1 ISZERO PUSH2 0xEF5 JUMPI RETURNDATASIZE PUSH0 DUP1 RETURNDATACOPY RETURNDATASIZE PUSH0 REVERT JUMPDEST POP POP POP POP PUSH1 0x40 MLOAD RETURNDATASIZE PUSH1 0x1F NOT PUSH1 0x1F DUP3 ADD AND DUP3 ADD DUP1 PUSH1 0x40 MSTORE POP DUP2 ADD SWAP1 PUSH2 0xF19 SWAP2 SWAP1 PUSH2 0x183C JUMP JUMPDEST PUSH2 0xF58 JUMPI PUSH1 0x40 MLOAD PUSH32 0x8C379A000000000000000000000000000000000000000000000000000000000 DUP2 MSTORE PUSH1 0x4 ADD PUSH2 0xF4F SWAP1 PUSH2 0x1AE0 JUMP JUMPDEST PUSH1 0x40 MLOAD DUP1 SWAP2 SUB SWAP1 REVERT JUMPDEST JUMPDEST DUP4 PUSH20 0xFFFFFFFFFFFFFFFFFFFFFFFFFFFFFFFFFFFFFFFF AND PUSH32 0xC63BE668767B92798030F3590AF1F2E7CA3990163FA2606C8047ED5522B246D6 DUP5 DUP5 PUSH1 0x40 MLOAD PUSH2 0xFA1 SWAP3 SWAP2 SWAP1 PUSH2 0x1AFE JUMP JUMPDEST PUSH1 0x40 MLOAD DUP1 SWAP2 SUB SWAP1 LOG2 POP POP POP POP JUMP JUMPDEST PUSH1 0x1 DUP1 DUP2 SWAP1 SSTORE POP JUMP JUMPDEST PUSH0 PUSH32 0x1FFC9A700000000000000000000000000000000000000000000000000000000 PUSH28 0xFFFFFFFFFFFFFFFFFFFFFFFFFFFFFFFFFFFFFFFFFFFFFFFFFFFFFFFF NOT AND DUP3 PUSH28 0xFFFFFFFFFFFFFFFFFFFFFFFFFFFFFFFFFFFFFFFFFFFFFFFFFFFFFFFF NOT AND EQ SWAP1 POP SWAP2 SWAP1 POP JUMP JUMPDEST PUSH2 0x1032 DUP2 PUSH2 0x102D PUSH2 0x111E JUMP JUMPDEST PUSH2 0x1231 JUMP JUMPDEST POP JUMP JUMPDEST PUSH0 PUSH2 0x1040 DUP4 DUP4 PUSH2 0x90A JUMP JUMPDEST PUSH2 0x1114 JUMPI PUSH1 0x1 PUSH0 DUP1 DUP6 DUP2 MSTORE PUSH1 0x20 ADD SWAP1 DUP2 MSTORE PUSH1 0x20 ADD PUSH0 KECCAK256 PUSH0 ADD PUSH0 DUP5 PUSH20 0xFFFFFFFFFFFFFFFFFFFFFFFFFFFFFFFFFFFFFFFF AND PUSH20 0xFFFFFFFFFFFFFFFFFFFFFFFFFFFFFFFFFFFFFFFF AND DUP2 MSTORE PUSH1 0x20 ADD SWAP1 DUP2 MSTORE PUSH1 0x20 ADD PUSH0 KECCAK256 PUSH0 PUSH2 0x100 EXP DUP2 SLOAD DUP2 PUSH1 0xFF MUL NOT AND SWAP1 DUP4 ISZERO ISZERO MUL OR SWAP1 SSTORE POP PUSH2 0x10B1 PUSH2 0x111E JUMP JUMPDEST PUSH20 0xFFFFFFFFFFFFFFFFFFFFFFFFFFFFFFFFFFFFFFFF AND DUP3 PUSH20 0xFFFFFFFFFFFFFFFFFFFFFFFFFFFFFFFFFFFFFFFF AND DUP5 PUSH32 0x2F8788117E7EFF1D82E926EC794901D17C78024A50270940304540A733656F0D PUSH1 0x40 MLOAD PUSH1 0x40 MLOAD DUP1 SWAP2 SUB SWAP1 LOG4 PUSH1 0x1 SWAP1 POP PUSH2 0x1118 JUMP JUMPDEST PUSH0 SWAP1 POP JUMPDEST SWAP3 SWAP2 POP POP JUMP JUMPDEST PUSH0 CALLER SWAP1 POP SWAP1 JUMP JUMPDEST PUSH0 PUSH2 0x1130 DUP4 DUP4 PUSH2 0x90A JUMP JUMPDEST ISZERO PUSH2 0x1204 JUMPI PUSH0 DUP1 PUSH0 DUP6 DUP2 MSTORE PUSH1 0x20 ADD SWAP1 DUP2 MSTORE PUSH1 0x20 ADD PUSH0 KECCAK256 PUSH0 ADD PUSH0 DUP5 PUSH20 0xFFFFFFFFFFFFFFFFFFFFFFFFFFFFFFFFFFFFFFFF AND PUSH20 0xFFFFFFFFFFFFFFFFFFFFFFFFFFFFFFFFFFFFFFFF AND DUP2 MSTORE PUSH1 0x20 ADD SWAP1 DUP2 MSTORE PUSH1 0x20 ADD PUSH0 KECCAK256 PUSH0 PUSH2 0x100 EXP DUP2 SLOAD DUP2 PUSH1 0xFF MUL NOT AND SWAP1 DUP4 ISZERO ISZERO MUL OR SWAP1 SSTORE POP PUSH2 0x11A1 PUSH2 0x111E JUMP JUMPDEST PUSH20 0xFFFFFFFFFFFFFFFFFFFFFFFFFFFFFFFFFFFFFFFF AND DUP3 PUSH20 0xFFFFFFFFFFFFFFFFFFFFFFFFFFFFFFFFFFFFFFFF AND DUP5 PUSH32 0xF6391F5C32D9C69D2A47EA670B442974B53935D1EDC7FD64EB21E047A839171B PUSH1 0x40 MLOAD PUSH1 0x40 MLOAD DUP1 SWAP2 SUB SWAP1 LOG4 PUSH1 0x1 SWAP1 POP PUSH2 0x1208 JUMP JUMPDEST PUSH0 SWAP1 POP JUMPDEST SWAP3 SWAP2 POP POP JUMP JUMPDEST PUSH0 PUSH2 0x2710 PUSH1 0x2 SLOAD DUP4 PUSH2 0x1220 SWAP2 SWAP1 PUSH2 0x1B25 JUMP JUMPDEST PUSH2 0x122A SWAP2 SWAP1 PUSH2 0x1B93 JUMP JUMPDEST SWAP1 POP SWAP2 SWAP1 POP JUMP JUMPDEST PUSH2 0x123B DUP3 DUP3 PUSH2 0x90A JUMP JUMPDEST PUSH2 0x127E JUMPI DUP1 DUP3 PUSH1 0x40 MLOAD PUSH32 0xE2517D3F00000000000000000000000000000000000000000000000000000000 DUP2 MSTORE PUSH1 0x4 ADD PUSH2 0x1275 SWAP3 SWAP2 SWAP1 PUSH2 0x1BC3 JUMP JUMPDEST PUSH1 0x40 MLOAD DUP1 SWAP2 SUB SWAP1 REVERT JUMPDEST POP POP JUMP JUMPDEST PUSH0 DUP1 REVERT JUMPDEST PUSH0 PUSH20 0xFFFFFFFFFFFFFFFFFFFFFFFFFFFFFFFFFFFFFFFF DUP3 AND SWAP1 POP SWAP2 SWAP1 POP JUMP JUMPDEST PUSH0 PUSH2 0x12AF DUP3 PUSH2 0x1286 JUMP JUMPDEST SWAP1 POP SWAP2 SWAP1 POP JUMP JUMPDEST PUSH2 0x12BF DUP2 PUSH2 0x12A5 JUMP JUMPDEST DUP2 EQ PUSH2 0x12C9 JUMPI PUSH0 DUP1 REVERT JUMPDEST POP JUMP JUMPDEST PUSH0 DUP2 CALLDATALOAD SWAP1 POP PUSH2 0x12DA DUP2 PUSH2 0x12B6 JUMP JUMPDEST SWAP3 SWAP2 POP POP JUMP JUMPDEST PUSH0 DUP2 SWAP1 POP SWAP2 SWAP1 POP JUMP JUMPDEST PUSH2 0x12F2 DUP2 PUSH2 0x12E0 JUMP JUMPDEST DUP2 EQ PUSH2 0x12FC JUMPI PUSH0 DUP1 REVERT JUMPDEST POP JUMP JUMPDEST PUSH0 DUP2 CALLDATALOAD SWAP1 POP PUSH2 0x130D DUP2 PUSH2 0x12E9 JUMP JUMPDEST SWAP3 SWAP2 POP POP JUMP JUMPDEST PUSH0 DUP1 PUSH1 0x40 DUP4 DUP6 SUB SLT ISZERO PUSH2 0x1329 JUMPI PUSH2 0x1328 PUSH2 0x1282 JUMP JUMPDEST JUMPDEST PUSH0 PUSH2 0x1336 DUP6 DUP3 DUP7 ADD PUSH2 0x12CC JUMP JUMPDEST SWAP3 POP POP PUSH1 0x20 PUSH2 0x1347 DUP6 DUP3 DUP7 ADD PUSH2 0x12FF JUMP JUMPDEST SWAP2 POP POP SWAP3 POP SWAP3 SWAP1 POP JUMP JUMPDEST PUSH0 PUSH32 0xFFFFFFFF00000000000000000000000000000000000000000000000000000000 DUP3 AND SWAP1 POP SWAP2 SWAP1 POP JUMP JUMPDEST PUSH2 0x1385 DUP2 PUSH2 0x1351 JUMP JUMPDEST DUP2 EQ PUSH2 0x138F JUMPI PUSH0 DUP1 REVERT JUMPDEST POP JUMP JUMPDEST PUSH0 DUP2 CALLDATALOAD SWAP1 POP PUSH2 0x13A0 DUP2 PUSH2 0x137C JUMP JUMPDEST SWAP3 SWAP2 POP POP JUMP JUMPDEST PUSH0 PUSH1 0x20 DUP3 DUP5 SUB SLT ISZERO PUSH2 0x13BB JUMPI PUSH2 0x13BA PUSH2 0x1282 JUMP JUMPDEST JUMPDEST PUSH0 PUSH2 0x13C8 DUP5 DUP3 DUP6 ADD PUSH2 0x1392 JUMP JUMPDEST SWAP2 POP POP SWAP3 SWAP2 POP POP JUMP JUMPDEST PUSH0 DUP2 ISZERO ISZERO SWAP1 POP SWAP2 SWAP1 POP JUMP JUMPDEST PUSH2 0x13E5 DUP2 PUSH2 0x13D1 JUMP JUMPDEST DUP3 MSTORE POP POP JUMP JUMPDEST PUSH0 PUSH1 0x20 DUP3 ADD SWAP1 POP PUSH2 0x13FE PUSH0 DUP4 ADD DUP5 PUSH2 0x13DC JUMP JUMPDEST SWAP3 SWAP2 POP POP JUMP JUMPDEST PUSH0 DUP2 SWAP1 POP SWAP2 SWAP1 POP JUMP JUMPDEST PUSH2 0x1416 DUP2 PUSH2 0x1404 JUMP JUMPDEST DUP2 EQ PUSH2 0x1420 JUMPI PUSH0 DUP1 REVERT JUMPDEST POP JUMP JUMPDEST PUSH0 DUP2 CALLDATALOAD SWAP1 POP PUSH2 0x1431 DUP2 PUSH2 0x140D JUMP JUMPDEST SWAP3 SWAP2 POP POP JUMP JUMPDEST PUSH0 PUSH1 0x20 DUP3 DUP5 SUB SLT ISZERO PUSH2 0x144C JUMPI PUSH2 0x144B PUSH2 0x1282 JUMP JUMPDEST JUMPDEST PUSH0 PUSH2 0x1459 DUP5 DUP3 DUP6 ADD PUSH2 0x1423 JUMP JUMPDEST SWAP2 POP POP SWAP3 SWAP2 POP POP JUMP JUMPDEST PUSH2 0x146B DUP2 PUSH2 0x1404 JUMP JUMPDEST DUP3 MSTORE POP POP JUMP JUMPDEST PUSH0 PUSH1 0x20 DUP3 ADD SWAP1 POP PUSH2 0x1484 PUSH0 DUP4 ADD DUP5 PUSH2 0x1462 JUMP JUMPDEST SWAP3 SWAP2 POP POP JUMP JUMPDEST PUSH2 0x1493 DUP2 PUSH2 0x12E0 JUMP JUMPDEST DUP3 MSTORE POP POP JUMP JUMPDEST PUSH0 PUSH1 0x20 DUP3 ADD SWAP1 POP PUSH2 0x14AC PUSH0 DUP4 ADD DUP5 PUSH2 0x148A JUMP JUMPDEST SWAP3 SWAP2 POP POP JUMP JUMPDEST PUSH0 PUSH1 0x20 DUP3 DUP5 SUB SLT ISZERO PUSH2 0x14C7 JUMPI PUSH2 0x14C6 PUSH2 0x1282 JUMP JUMPDEST JUMPDEST PUSH0 PUSH2 0x14D4 DUP5 DUP3 DUP6 ADD PUSH2 0x12FF JUMP JUMPDEST SWAP2 POP POP SWAP3 SWAP2 POP POP JUMP JUMPDEST PUSH0 DUP1 PUSH1 0x40 DUP4 DUP6 SUB SLT ISZERO PUSH2 0x14F3 JUMPI PUSH2 0x14F2 PUSH2 0x1282 JUMP JUMPDEST JUMPDEST PUSH0 PUSH2 0x1500 DUP6 DUP3 DUP7 ADD PUSH2 0x1423 JUMP JUMPDEST SWAP3 POP POP PUSH1 0x20 PUSH2 0x1511 DUP6 DUP3 DUP7 ADD PUSH2 0x12CC JUMP JUMPDEST SWAP2 POP POP SWAP3 POP SWAP3 SWAP1 POP JUMP JUMPDEST PUSH2 0x1524 DUP2 PUSH2 0x12A5 JUMP JUMPDEST DUP3 MSTORE POP POP JUMP JUMPDEST PUSH0 PUSH1 0x20 DUP3 ADD SWAP1 POP PUSH2 0x153D PUSH0 DUP4 ADD DUP5 PUSH2 0x151B JUMP JUMPDEST SWAP3 SWAP2 POP POP JUMP JUMPDEST PUSH0 PUSH2 0x154D DUP3 PUSH2 0x12A5 JUMP JUMPDEST SWAP1 POP SWAP2 SWAP1 POP JUMP JUMPDEST PUSH2 0x155D DUP2 PUSH2 0x1543 JUMP JUMPDEST DUP2 EQ PUSH2 0x1567 JUMPI PUSH0 DUP1 REVERT JUMPDEST POP JUMP JUMPDEST PUSH0 DUP2 CALLDATALOAD SWAP1 POP PUSH2 0x1578 DUP2 PUSH2 0x1554 JUMP JUMPDEST SWAP3 SWAP2 POP POP JUMP JUMPDEST PUSH0 DUP1 PUSH0 PUSH1 0x60 DUP5 DUP7 SUB SLT ISZERO PUSH2 0x1595 JUMPI PUSH2 0x1594 PUSH2 0x1282 JUMP JUMPDEST JUMPDEST PUSH0 PUSH2 0x15A2 DUP7 DUP3 DUP8 ADD PUSH2 0x156A JUMP JUMPDEST SWAP4 POP POP PUSH1 0x20 PUSH2 0x15B3 DUP7 DUP3 DUP8 ADD PUSH2 0x12CC JUMP JUMPDEST SWAP3 POP POP PUSH1 0x40 PUSH2 0x15C4 DUP7 DUP3 DUP8 ADD PUSH2 0x12FF JUMP JUMPDEST SWAP2 POP POP SWAP3 POP SWAP3 POP SWAP3 JUMP JUMPDEST PUSH0 DUP1 PUSH1 0x40 DUP4 DUP6 SUB SLT ISZERO PUSH2 0x15E4 JUMPI PUSH2 0x15E3 PUSH2 0x1282 JUMP JUMPDEST JUMPDEST PUSH0 PUSH2 0x15F1 DUP6 DUP3 DUP7 ADD PUSH2 0x12FF JUMP JUMPDEST SWAP3 POP POP PUSH1 0x20 PUSH2 0x1602 DUP6 DUP3 DUP7 ADD PUSH2 0x12CC JUMP JUMPDEST SWAP2 POP POP SWAP3 POP SWAP3 SWAP1 POP JUMP JUMPDEST PUSH0 DUP2 SWAP1 POP SWAP2 SWAP1 POP JUMP JUMPDEST PUSH0 PUSH2 0x162F PUSH2 0x162A PUSH2 0x1625 DUP5 PUSH2 0x1286 JUMP JUMPDEST PUSH2 0x160C JUMP JUMPDEST PUSH2 0x1286 JUMP JUMPDEST SWAP1 POP SWAP2 SWAP1 POP JUMP JUMPDEST PUSH0 PUSH2 0x1640 DUP3 PUSH2 0x1615 JUMP JUMPDEST SWAP1 POP SWAP2 SWAP1 POP JUMP JUMPDEST PUSH0 PUSH2 0x1651 DUP3 PUSH2 0x1636 JUMP JUMPDEST SWAP1 POP SWAP2 SWAP1 POP JUMP JUMPDEST PUSH2 0x1661 DUP2 PUSH2 0x1647 JUMP JUMPDEST DUP3 MSTORE POP POP JUMP JUMPDEST PUSH0 PUSH1 0x20 DUP3 ADD SWAP1 POP PUSH2 0x167A PUSH0 DUP4 ADD DUP5 PUSH2 0x1658 JUMP JUMPDEST SWAP3 SWAP2 POP POP JUMP JUMPDEST PUSH0 PUSH1 0x20 DUP3 DUP5 SUB SLT ISZERO PUSH2 0x1695 JUMPI PUSH2 0x1694 PUSH2 0x1282 JUMP JUMPDEST JUMPDEST PUSH0 PUSH2 0x16A2 DUP5 DUP3 DUP6 ADD PUSH2 0x12CC JUMP JUMPDEST SWAP2 POP POP SWAP3 SWAP2 POP POP JUMP JUMPDEST PUSH0 DUP3 DUP3 MSTORE PUSH1 0x20 DUP3 ADD SWAP1 POP SWAP3 SWAP2 POP POP JUMP JUMPDEST PUSH32 0x7A65726F00000000000000000000000000000000000000000000000000000000 PUSH0 DUP3 ADD MSTORE POP JUMP JUMPDEST PUSH0 PUSH2 0x16EF PUSH1 0x4 DUP4 PUSH2 0x16AB JUMP JUMPDEST SWAP2 POP PUSH2 0x16FA DUP3 PUSH2 0x16BB JUMP JUMPDEST PUSH1 0x20 DUP3 ADD SWAP1 POP SWAP2 SWAP1 POP JUMP JUMPDEST PUSH0 PUSH1 0x20 DUP3 ADD SWAP1 POP DUP2 DUP2 SUB PUSH0 DUP4 ADD MSTORE PUSH2 0x171C DUP2 PUSH2 0x16E3 JUMP JUMPDEST SWAP1 POP SWAP2 SWAP1 POP JUMP JUMPDEST PUSH32 0x696E73756666696369656E74206465706F736974000000000000000000000000 PUSH0 DUP3 ADD MSTORE POP JUMP JUMPDEST PUSH0 PUSH2 0x1757 PUSH1 0x14 DUP4 PUSH2 0x16AB JUMP JUMPDEST SWAP2 POP PUSH2 0x1762 DUP3 PUSH2 0x1723 JUMP JUMPDEST PUSH1 0x20 DUP3 ADD SWAP1 POP SWAP2 SWAP1 POP JUMP JUMPDEST PUSH0 PUSH1 0x20 DUP3 ADD SWAP1 POP DUP2 DUP2 SUB PUSH0 DUP4 ADD MSTORE PUSH2 0x1784 DUP2 PUSH2 0x174B JUMP JUMPDEST SWAP1 POP SWAP2 SWAP1 POP JUMP JUMPDEST PUSH32 0x4E487B7100000000000000000000000000000000000000000000000000000000 PUSH0 MSTORE PUSH1 0x11 PUSH1 0x4 MSTORE PUSH1 0x24 PUSH0 REVERT JUMPDEST PUSH0 PUSH2 0x17C2 DUP3 PUSH2 0x12E0 JUMP JUMPDEST SWAP2 POP PUSH2 0x17CD DUP4 PUSH2 0x12E0 JUMP JUMPDEST SWAP3 POP DUP3 DUP3 SUB SWAP1 POP DUP2 DUP2 GT ISZERO PUSH2 0x17E5 JUMPI PUSH2 0x17E4 PUSH2 0x178B JUMP JUMPDEST JUMPDEST SWAP3 SWAP2 POP POP JUMP JUMPDEST PUSH0 PUSH1 0x40 DUP3 ADD SWAP1 POP PUSH2 0x17FE PUSH0 DUP4 ADD DUP6 PUSH2 0x151B JUMP JUMPDEST PUSH2 0x180B PUSH1 0x20 DUP4 ADD DUP5 PUSH2 0x148A JUMP JUMPDEST SWAP4 SWAP3 POP POP POP JUMP JUMPDEST PUSH2 0x181B DUP2 PUSH2 0x13D1 JUMP JUMPDEST DUP2 EQ PUSH2 0x1825 JUMPI PUSH0 DUP1 REVERT JUMPDEST POP JUMP JUMPDEST PUSH0 DUP2 MLOAD SWAP1 POP PUSH2 0x1836 DUP2 PUSH2 0x1812 JUMP JUMPDEST SWAP3 SWAP2 POP POP JUMP JUMPDEST PUSH0 PUSH1 0x20 DUP3 DUP5 SUB SLT ISZERO PUSH2 0x1851 JUMPI PUSH2 0x1850 PUSH2 0x1282 JUMP JUMPDEST JUMPDEST PUSH0 PUSH2 0x185E DUP5 DUP3 DUP6 ADD PUSH2 0x1828 JUMP JUMPDEST SWAP2 POP POP SWAP3 SWAP2 POP POP JUMP JUMPDEST PUSH32 0x7472616E73666572206661696C65640000000000000000000000000000000000 PUSH0 DUP3 ADD MSTORE POP JUMP JUMPDEST PUSH0 PUSH2 0x189B PUSH1 0xF DUP4 PUSH2 0x16AB JUMP JUMPDEST SWAP2 POP PUSH2 0x18A6 DUP3 PUSH2 0x1867 JUMP JUMPDEST PUSH1 0x20 DUP3 ADD SWAP1 POP SWAP2 SWAP1 POP JUMP JUMPDEST PUSH0 PUSH1 0x20 DUP3 ADD SWAP1 POP DUP2 DUP2 SUB PUSH0 DUP4 ADD MSTORE PUSH2 0x18C8 DUP2 PUSH2 0x188F JUMP JUMPDEST SWAP1 POP SWAP2 SWAP1 POP JUMP JUMPDEST PUSH32 0x66656520746F6F20686967680000000000000000000000000000000000000000 PUSH0 DUP3 ADD MSTORE POP JUMP JUMPDEST PUSH0 PUSH2 0x1903 PUSH1 0xC DUP4 PUSH2 0x16AB JUMP JUMPDEST SWAP2 POP PUSH2 0x190E DUP3 PUSH2 0x18CF JUMP JUMPDEST PUSH1 0x20 DUP3 ADD SWAP1 POP SWAP2 SWAP1 POP JUMP JUMPDEST PUSH0 PUSH1 0x20 DUP3 ADD SWAP1 POP DUP2 DUP2 SUB PUSH0 DUP4 ADD MSTORE PUSH2 0x1930 DUP2 PUSH2 0x18F7 JUMP JUMPDEST SWAP1 POP SWAP2 SWAP1 POP JUMP JUMPDEST PUSH0 PUSH1 0x40 DUP3 ADD SWAP1 POP PUSH2 0x194A PUSH0 DUP4 ADD DUP6 PUSH2 0x148A JUMP JUMPDEST PUSH2 0x1957 PUSH1 0x20 DUP4 ADD DUP5 PUSH2 0x151B JUMP JUMPDEST SWAP4 SWAP3 POP POP POP JUMP JUMPDEST PUSH0 PUSH2 0x1968 DUP3 PUSH2 0x12E0 JUMP JUMPDEST SWAP2 POP PUSH2 0x1973 DUP4 PUSH2 0x12E0 JUMP JUMPDEST SWAP3 POP DUP3 DUP3 ADD SWAP1 POP DUP1 DUP3 GT ISZERO PUSH2 0x198B JUMPI PUSH2 0x198A PUSH2 0x178B JUMP JUMPDEST JUMPDEST SWAP3 SWAP2 POP POP JUMP JUMPDEST PUSH0 PUSH1 0x60 DUP3 ADD SWAP1 POP PUSH2 0x19A4 PUSH0 DUP4 ADD DUP7 PUSH2 0x151B JUMP JUMPDEST PUSH2 0x19B1 PUSH1 0x20 DUP4 ADD DUP6 PUSH2 0x151B JUMP JUMPDEST PUSH2 0x19BE PUSH1 0x40 DUP4 ADD DUP5 PUSH2 0x148A JUMP JUMPDEST SWAP5 SWAP4 POP POP POP POP JUMP JUMPDEST PUSH32 0x5265656E7472616E637947756172643A207265656E7472616E742063616C6C00 PUSH0 DUP3 ADD MSTORE POP JUMP JUMPDEST PUSH0 PUSH2 0x19FA PUSH1 0x1F DUP4 PUSH2 0x16AB JUMP JUMPDEST SWAP2 POP PUSH2 0x1A05 DUP3 PUSH2 0x19C6 JUMP JUMPDEST PUSH1 0x20 DUP3 ADD SWAP1 POP SWAP2 SWAP1 POP JUMP JUMPDEST PUSH0 PUSH1 0x20 DUP3 ADD SWAP1 POP DUP2 DUP2 SUB PUSH0 DUP4 ADD MSTORE PUSH2 0x1A27 DUP2 PUSH2 0x19EE JUMP JUMPDEST SWAP1 POP SWAP2 SWAP1 POP JUMP JUMPDEST PUSH32 0x7061792072656C61796572206661696C65640000000000000000000000000000 PUSH0 DUP3 ADD MSTORE POP JUMP JUMPDEST PUSH0 PUSH2 0x1A62 PUSH1 0x12 DUP4 PUSH2 0x16AB JUMP JUMPDEST SWAP2 POP PUSH2 0x1A6D DUP3 PUSH2 0x1A2E JUMP JUMPDEST PUSH1 0x20 DUP3 ADD SWAP1 POP SWAP2 SWAP1 POP JUMP JUMPDEST PUSH0 PUSH1 0x20 DUP3 ADD SWAP1 POP DUP2 DUP2 SUB PUSH0 DUP4 ADD MSTORE PUSH2 0x1A8F DUP2 PUSH2 0x1A56 JUMP JUMPDEST SWAP1 POP SWAP2 SWAP1 POP JUMP JUMPDEST PUSH32 0x706179207472656173757279206661696C656400000000000000000000000000 PUSH0 DUP3 ADD MSTORE POP JUMP JUMPDEST PUSH0 PUSH2 0x1ACA PUSH1 0x13 DUP4 PUSH2 0x16AB JUMP JUMPDEST SWAP2 POP PUSH2 0x1AD5 DUP3 PUSH2 0x1A96 JUMP JUMPDEST PUSH1 0x20 DUP3 ADD SWAP1 POP SWAP2 SWAP1 POP JUMP JUMPDEST PUSH0 PUSH1 0x20 DUP3 ADD SWAP1 POP DUP2 DUP2 SUB PUSH0 DUP4 ADD MSTORE PUSH2 0x1AF7 DUP2 PUSH2 0x1ABE JUMP JUMPDEST SWAP1 POP SWAP2 SWAP1 POP JUMP JUMPDEST PUSH0 PUSH1 0x40 DUP3 ADD SWAP1 POP PUSH2 0x1B11 PUSH0 DUP4 ADD DUP6 PUSH2 0x148A JUMP JUMPDEST PUSH2 0x1B1E PUSH1 0x20 DUP4 ADD DUP5 PUSH2 0x148A JUMP JUMPDEST SWAP4 SWAP3 POP POP POP JUMP JUMPDEST PUSH0 PUSH2 0x1B2F DUP3 PUSH2 0x12E0 JUMP JUMPDEST SWAP2 POP PUSH2 0x1B3A DUP4 PUSH2 0x12E0 JUMP JUMPDEST SWAP3 POP DUP3 DUP3 MUL PUSH2 0x1B48 DUP2 PUSH2 0x12E0 JUMP JUMPDEST SWAP2 POP DUP3 DUP3 DIV DUP5 EQ DUP4 ISZERO OR PUSH2 0x1B5F JUMPI PUSH2 0x1B5E PUSH2 0x178B JUMP JUMPDEST JUMPDEST POP SWAP3 SWAP2 POP POP JUMP JUMPDEST PUSH32 0x4E487B7100000000000000000000000000000000000000000000000000000000 PUSH0 MSTORE PUSH1 0x12 PUSH1 0x4 MSTORE PUSH1 0x24 PUSH0 REVERT JUMPDEST PUSH0 PUSH2 0x1B9D DUP3 PUSH2 0x12E0 JUMP JUMPDEST SWAP2 POP PUSH2 0x1BA8 DUP4 PUSH2 0x12E0 JUMP JUMPDEST SWAP3 POP DUP3 PUSH2 0x1BB8 JUMPI PUSH2 0x1BB7 PUSH2 0x1B66 JUMP JUMPDEST JUMPDEST DUP3 DUP3 DIV SWAP1 POP SWAP3 SWAP2 POP POP JUMP JUMPDEST PUSH0 PUSH1 0x40 DUP3 ADD SWAP1 POP PUSH2 0x1BD6 PUSH0 DUP4 ADD DUP6 PUSH2 0x151B JUMP JUMPDEST PUSH2 0x1BE3 PUSH1 0x20 DUP4 ADD DUP5 PUSH2 0x1462 JUMP JUMPDEST SWAP4 SWAP3 POP POP POP JUMP INVALID LOG2 PUSH5 0x6970667358 0x22 SLT KECCAK256 PUSH20 0xF788420CCAC30E0848CCA4CD40E500B7B4A6301F EXTCODEHASH SWAP9 ISZERO PUSH25 0xF89A60202FABE164736F6C6343000814003300000000000000 "
				},
				"gasEstimates": {
					"creation": {
						"codeDepositCost": "1440000",
						"executionCost": "infinite",
						"totalCost": "infinite"
					},
					"external": {
						"DEFAULT_ADMIN_ROLE()": "419",
						"MANAGER_ROLE()": "413",
						"deposit(uint256)": "infinite",
						"deposits(address)": "2912",
						"feeBps()": "2515",
						"getRoleAdmin(bytes32)": "infinite",
						"grantRole(bytes32,address)": "infinite",
						"hasRole(bytes32,address)": "3167",
						"payRelayer(address,uint256)": "infinite",
						"piso()": "infinite",
						"renounceRole(bytes32,address)": "infinite",
						"revokeRole(bytes32,address)": "infinite",
						"setFeeParams(uint256,address)": "infinite",
						"supportsInterface(bytes4)": "763",
						"sweepToken(address,address,uint256)": "infinite",
						"treasury()": "2597",
						"withdraw(uint256)": "infinite"
					},
					"internal": {
						"_calcFee(uint256)": "infinite",
						"_payRelayer(address,uint256)": "infinite"
					}
				},
				"methodIdentifiers": {
					"DEFAULT_ADMIN_ROLE()": "a217fddf",
					"MANAGER_ROLE()": "ec87621c",
					"deposit(uint256)": "b6b55f25",
					"deposits(address)": "fc7e286d",
					"feeBps()": "24a9d853",
					"getRoleAdmin(bytes32)": "248a9ca3",
					"grantRole(bytes32,address)": "2f2ff15d",
					"hasRole(bytes32,address)": "91d14854",
					"payRelayer(address,uint256)": "008683bd",
					"piso()": "d9cc6248",
					"renounceRole(bytes32,address)": "36568abe",
					"revokeRole(bytes32,address)": "d547741f",
					"setFeeParams(uint256,address)": "92dce564",
					"supportsInterface(bytes4)": "01ffc9a7",
					"sweepToken(address,address,uint256)": "64aff9ec",
					"treasury()": "61d027b3",
					"withdraw(uint256)": "2e1a7d4d"
				}
			},
			"storageLayout": {
				"storage": [
					{
						"astId": 27,
						"contract": "contracts/PisoPaymaster.sol:PisoPaymaster",
						"label": "_roles",
						"offset": 0,
						"slot": "0",
						"type": "t_mapping(t_bytes32,t_struct(RoleData)22_storage)"
					},
					{
						"astId": 390,
						"contract": "contracts/PisoPaymaster.sol:PisoPaymaster",
						"label": "_status",
						"offset": 0,
						"slot": "1",
						"type": "t_uint256"
					},
					{
						"astId": 608,
						"contract": "contracts/PisoPaymaster.sol:PisoPaymaster",
						"label": "feeBps",
						"offset": 0,
						"slot": "2",
						"type": "t_uint256"
					},
					{
						"astId": 610,
						"contract": "contracts/PisoPaymaster.sol:PisoPaymaster",
						"label": "treasury",
						"offset": 0,
						"slot": "3",
						"type": "t_address"
					},
					{
						"astId": 614,
						"contract": "contracts/PisoPaymaster.sol:PisoPaymaster",
						"label": "deposits",
						"offset": 0,
						"slot": "4",
						"type": "t_mapping(t_address,t_uint256)"
					}
				],
				"types": {
					"t_address": {
						"encoding": "inplace",
						"label": "address",
						"numberOfBytes": "20"
					},
					"t_bool": {
						"encoding": "inplace",
						"label": "bool",
						"numberOfBytes": "1"
					},
					"t_bytes32": {
						"encoding": "inplace",
						"label": "bytes32",
						"numberOfBytes": "32"
					},
					"t_mapping(t_address,t_bool)": {
						"encoding": "mapping",
						"key": "t_address",
						"label": "mapping(address => bool)",
						"numberOfBytes": "32",
						"value": "t_bool"
					},
					"t_mapping(t_address,t_uint256)": {
						"encoding": "mapping",
						"key": "t_address",
						"label": "mapping(address => uint256)",
						"numberOfBytes": "32",
						"value": "t_uint256"
					},
					"t_mapping(t_bytes32,t_struct(RoleData)22_storage)": {
						"encoding": "mapping",
						"key": "t_bytes32",
						"label": "mapping(bytes32 => struct AccessControl.RoleData)",
						"numberOfBytes": "32",
						"value": "t_struct(RoleData)22_storage"
					},
					"t_struct(RoleData)22_storage": {
						"encoding": "inplace",
						"label": "struct AccessControl.RoleData",
						"members": [
							{
								"astId": 19,
								"contract": "contracts/PisoPaymaster.sol:PisoPaymaster",
								"label": "hasRole",
								"offset": 0,
								"slot": "0",
								"type": "t_mapping(t_address,t_bool)"
							},
							{
								"astId": 21,
								"contract": "contracts/PisoPaymaster.sol:PisoPaymaster",
								"label": "adminRole",
								"offset": 0,
								"slot": "1",
								"type": "t_bytes32"
							}
						],
						"numberOfBytes": "64"
					},
					"t_uint256": {
						"encoding": "inplace",
						"label": "uint256",
						"numberOfBytes": "32"
					}
				}
			},
			"userdoc": {
				"kind": "user",
				"methods": {},
				"version": 1
			}
		}
	}
}