{
	"data": {
		"bytecode": {
			"linkReferences": {},
			"object": "60a0604052603260025534801562000015575f80fd5b5060405162001fc138038062001fc183398181016040528101906200003b919062000313565b600180819055508273ffffffffffffffffffffffffffffffffffffffff1660808173ffffffffffffffffffffffffffffffffffffffff16815250506200008a5f801b836200010760201b60201c565b50620000bd7f241ecf16d79d0f8dbfb92cbc07fe17840425976cf0667f022fe9877caa831b08836200010760201b60201c565b508060035f6101000a81548173ffffffffffffffffffffffffffffffffffffffff021916908373ffffffffffffffffffffffffffffffffffffffff1602179055505050506200036c565b5f6200011a83836200020260201b60201c565b620001f85760015f808581526020019081526020015f205f015f8473ffffffffffffffffffffffffffffffffffffffff1673ffffffffffffffffffffffffffffffffffffffff1681526020019081526020015f205f6101000a81548160ff021916908315150217905550620001946200026560201b60201c565b73ffffffffffffffffffffffffffffffffffffffff168273ffffffffffffffffffffffffffffffffffffffff16847f2f8788117e7eff1d82e926ec794901d17c78024a50270940304540a733656f0d60405160405180910390a460019050620001fc565b5f90505b92915050565b5f805f8481526020019081526020015f205f015f8373ffffffffffffffffffffffffffffffffffffffff1673ffffffffffffffffffffffffffffffffffffffff1681526020019081526020015f205f9054906101000a900460ff16905092915050565b5f33905090565b5f80fd5b5f73ffffffffffffffffffffffffffffffffffffffff82169050919050565b5f6200029b8262000270565b9050919050565b5f620002ae826200028f565b9050919050565b620002c081620002a2565b8114620002cb575f80fd5b50565b5f81519050620002de81620002b5565b92915050565b620002ef816200028f565b8114620002fa575f80fd5b50565b5f815190506200030d81620002e4565b92915050565b5f805f606084860312156200032d576200032c6200026c565b5b5f6200033c86828701620002ce565b93505060206200034f86828701620002fd565b92505060406200036286828701620002fd565b9150509250925092565b608051611c20620003a15f395f818161062c01528181610b0601528181610c5d01528181610d240152610e5f0152611c205ff3fe608060405234801561000f575f80fd5b5060043610610108575f3560e01c806364aff9ec116100a0578063b6b55f251161006f578063b6b55f251461029e578063d547741f146102ba578063d9cc6248146102d6578063ec87621c146102f4578063fc7e286d1461031257610108565b806364aff9ec1461021857806391d148541461023457806392dce56414610264578063a217fddf1461028057610108565b80632e1a7d4d116100dc5780632e1a7d4d146101a65780632f2ff15d146101c257806336568abe146101de57806361d027b3146101fa57610108565b80628683bd1461010c57806301ffc9a714610128578063248a9ca31461015857806324a9d85314610188575b5f80fd5b61012660048036038101906101219190611313565b610342565b005b610142600480360381019061013d91906113a6565b610474565b60405161014f91906113eb565b60405180910390f35b610172600480360381019061016d9190611437565b6104ed565b60405161017f9190611471565b60405180910390f35b610190610509565b60405161019d9190611499565b60405180910390f35b6101c060048036038101906101bb91906114b2565b61050f565b005b6101dc60048036038101906101d791906114dd565b61075e565b005b6101f860048036038101906101f391906114dd565b610780565b005b6102026107fb565b60405161020f919061152a565b60405180910390f35b610232600480360381019061022d919061157e565b610820565b005b61024e600480360381019061024991906114dd565b61090a565b60405161025b91906113eb565b60405180910390f35b61027e600480360381019061027991906115ce565b61096d565b005b610288610a61565b6040516102959190611471565b60405180910390f35b6102b860048036038101906102b391906114b2565b610a67565b005b6102d460048036038101906102cf91906114dd565b610c39565b005b6102de610c5b565b6040516102eb9190611667565b60405180910390f35b6102fc610c7f565b6040516103099190611471565b60405180910390f35b61032c60048036038101906103279190611680565b610ca3565b6040516103399190611499565b60405180910390f35b61034a610cb8565b5f811161038c576040517f08c379a000000000000000000000000000000000000000000000000000000000815260040161038390611705565b60405180910390fd5b5f60045f3373ffffffffffffffffffffffffffffffffffffffff1673ffffffffffffffffffffffffffffffffffffffff1681526020019081526020015f2054905081811015610410576040517f08c379a00000000000000000000000000000000000000000000000000000000081526004016104079061176d565b60405180910390fd5b818161041c91906117b8565b60045f3373ffffffffffffffffffffffffffffffffffffffff1673ffffffffffffffffffffffffffffffffffffffff1681526020019081526020015f20819055506104678383610d07565b50610470610faf565b5050565b5f7f7965db0b000000000000000000000000000000000000000000000000000000007bffffffffffffffffffffffffffffffffffffffffffffffffffffffff1916827bffffffffffffffffffffffffffffffffffffffffffffffffffffffff191614806104e657506104e582610fb8565b5b9050919050565b5f805f8381526020019081526020015f20600101549050919050565b60025481565b610517610cb8565b5f8111610559576040517f08c379a000000000000000000000000000000000000000000000000000000000815260040161055090611705565b60405180910390fd5b5f60045f3373ffffffffffffffffffffffffffffffffffffffff1673ffffffffffffffffffffffffffffffffffffffff1681526020019081526020015f20549050818110156105dd576040517f08c379a00000000000000000000000000000000000000000000000000000000081526004016105d49061176d565b60405180910390fd5b81816105e991906117b8565b60045f3373ffffffffffffffffffffffffffffffffffffffff1673ffffffffffffffffffffffffffffffffffffffff1681526020019081526020015f20819055507f000000000000000000000000000000000000000000000000000000000000000073ffffffffffffffffffffffffffffffffffffffff1663a9059cbb33846040518363ffffffff1660e01b81526004016106859291906117eb565b6020604051808303815f875af11580156106a1573d5f803e3d5ffd5b505050506040513d601f19601f820116820180604052508101906106c5919061183c565b610704576040517f08c379a00000000000000000000000000000000000000000000000000000000081526004016106fb906118b1565b60405180910390fd5b3373ffffffffffffffffffffffffffffffffffffffff167f7084f5476618d8e60b11ef0d7d3f06914655adb8793e28ff7f018d4c76d505d58360405161074a9190611499565b60405180910390a25061075b610faf565b50565b610767826104ed565b61077081611021565b61077a8383611035565b50505050565b61078861111e565b73ffffffffffffffffffffffffffffffffffffffff168173ffffffffffffffffffffffffffffffffffffffff16146107ec576040517f6697b23200000000000000000000000000000000000000000000000000000000815260040160405180910390fd5b6107f68282611125565b505050565b60035f9054906101000a900473ffffffffffffffffffffffffffffffffffffffff1681565b7f241ecf16d79d0f8dbfb92cbc07fe17840425976cf0667f022fe9877caa831b0861084a81611021565b8373ffffffffffffffffffffffffffffffffffffffff1663a9059cbb84846040518363ffffffff1660e01b81526004016108859291906117eb565b6020604051808303815f875af11580156108a1573d5f803e3d5ffd5b505050506040513d601f19601f820116820180604052508101906108c5919061183c565b610904576040517f08c379a00000000000000000000000000000000000000000000000000000000081526004016108fb906118b1565b60405180910390fd5b50505050565b5f805f8481526020019081526020015f205f015f8373ffffffffffffffffffffffffffffffffffffffff1673ffffffffffffffffffffffffffffffffffffffff1681526020019081526020015f205f9054906101000a900460ff16905092915050565b7f241ecf16d79d0f8dbfb92cbc07fe17840425976cf0667f022fe9877caa831b0861099781611021565b6103e88311156109dc576040517f08c379a00000000000000000000000000000000000000000000000000000000081526004016109d390611919565b60405180910390fd5b826002819055508160035f6101000a81548173ffffffffffffffffffffffffffffffffffffffff021916908373ffffffffffffffffffffffffffffffffffffffff1602179055507feecc969cd8da3140016e16b0603215de782af59713abfc5055d917b88f4a7b918383604051610a54929190611937565b60405180910390a1505050565b5f801b81565b610a6f610cb8565b5f8111610ab1576040517f08c379a0000000000000000000000000000000000000000000000000000000008152600401610aa890611705565b60405180910390fd5b8060045f3373ffffffffffffffffffffffffffffffffffffffff1673ffffffffffffffffffffffffffffffffffffffff1681526020019081526020015f205f828254610afd919061195e565b925050819055507f000000000000000000000000000000000000000000000000000000000000000073ffffffffffffffffffffffffffffffffffffffff166323b872dd3330846040518463ffffffff1660e01b8152600401610b6193929190611991565b6020604051808303815f875af1158015610b7d573d5f803e3d5ffd5b505050506040513d601f19601f82011682018060405250810190610ba1919061183c565b610be0576040517f08c379a0000000000000000000000000000000000000000000000000000000008152600401610bd7906118b1565b60405180910390fd5b3373ffffffffffffffffffffffffffffffffffffffff167f2da466a7b24304f47e87fa2e1e5a81b9831ce54fec19055ce277ca2f39ba42c482604051610c269190611499565b60405180910390a2610c36610faf565b50565b610c42826104ed565b610c4b81611021565b610c558383611125565b50505050565b7f000000000000000000000000000000000000000000000000000000000000000081565b7f241ecf16d79d0f8dbfb92cbc07fe17840425976cf0667f022fe9877caa831b0881565b6004602052805f5260405f205f915090505481565b600260015403610cfd576040517f08c379a0000000000000000000000000000000000000000000000000000000008152600401610cf490611a10565b60405180910390fd5b6002600181905550565b5f610d118261120e565b90505f8183610d2091906117b8565b90507f000000000000000000000000000000000000000000000000000000000000000073ffffffffffffffffffffffffffffffffffffffff1663a9059cbb85836040518363ffffffff1660e01b8152600401610d7d9291906117eb565b6020604051808303815f875af1158015610d99573d5f803e3d5ffd5b505050506040513d601f19601f82011682018060405250810190610dbd919061183c565b610dfc576040517f08c379a0000000000000000000000000000000000000000000000000000000008152600401610df390611a78565b60405180910390fd5b5f82118015610e5857505f73ffffffffffffffffffffffffffffffffffffffff1660035f9054906101000a900473ffffffffffffffffffffffffffffffffffffffff1673ffffffffffffffffffffffffffffffffffffffff1614155b15610f59577f000000000000000000000000000000000000000000000000000000000000000073ffffffffffffffffffffffffffffffffffffffff1663a9059cbb60035f9054906101000a900473ffffffffffffffffffffffffffffffffffffffff16846040518363ffffffff1660e01b8152600401610ed99291906117eb565b6020604051808303815f875af1158015610ef5573d5f803e3d5ffd5b505050506040513d601f19601f82011682018060405250810190610f19919061183c565b610f58576040517f08c379a0000000000000000000000000000000000000000000000000000000008152600401610f4f90611ae0565b60405180910390fd5b5b8373ffffffffffffffffffffffffffffffffffffffff167fc63be668767b92798030f3590af1f2e7ca3990163fa2606c8047ed5522b246d68484604051610fa1929190611afe565b60405180910390a250505050565b60018081905550565b5f7f01ffc9a7000000000000000000000000000000000000000000000000000000007bffffffffffffffffffffffffffffffffffffffffffffffffffffffff1916827bffffffffffffffffffffffffffffffffffffffffffffffffffffffff1916149050919050565b6110328161102d61111e565b611231565b50565b5f611040838361090a565b6111145760015f808581526020019081526020015f205f015f8473ffffffffffffffffffffffffffffffffffffffff1673ffffffffffffffffffffffffffffffffffffffff1681526020019081526020015f205f6101000a81548160ff0219169083151502179055506110b161111e565b73ffffffffffffffffffffffffffffffffffffffff168273ffffffffffffffffffffffffffffffffffffffff16847f2f8788117e7eff1d82e926ec794901d17c78024a50270940304540a733656f0d60405160405180910390a460019050611118565b5f90505b92915050565b5f33905090565b5f611130838361090a565b15611204575f805f8581526020019081526020015f205f015f8473ffffffffffffffffffffffffffffffffffffffff1673ffffffffffffffffffffffffffffffffffffffff1681526020019081526020015f205f6101000a81548160ff0219169083151502179055506111a161111e565b73ffffffffffffffffffffffffffffffffffffffff168273ffffffffffffffffffffffffffffffffffffffff16847ff6391f5c32d9c69d2a47ea670b442974b53935d1edc7fd64eb21e047a839171b60405160405180910390a460019050611208565b5f90505b92915050565b5f612710600254836112209190611b25565b61122a9190611b93565b9050919050565b61123b828261090a565b61127e5780826040517fe2517d3f000000000000000000000000000000000000000000000000000000008152600401611275929190611bc3565b60405180910390fd5b5050565b5f80fd5b5f73ffffffffffffffffffffffffffffffffffffffff82169050919050565b5f6112af82611286565b9050919050565b6112bf816112a5565b81146112c9575f80fd5b50565b5f813590506112da816112b6565b92915050565b5f819050919050565b6112f2816112e0565b81146112fc575f80fd5b50565b5f8135905061130d816112e9565b92915050565b5f806040838503121561132957611328611282565b5b5f611336858286016112cc565b9250506020611347858286016112ff565b9150509250929050565b5f7fffffffff0000000000000000000000000000000000000000000000000000000082169050919050565b61138581611351565b811461138f575f80fd5b50565b5f813590506113a08161137c565b92915050565b5f602082840312156113bb576113ba611282565b5b5f6113c884828501611392565b91505092915050565b5f8115159050919050565b6113e5816113d1565b82525050565b5f6020820190506113fe5f8301846113dc565b92915050565b5f819050919050565b61141681611404565b8114611420575f80fd5b50565b5f813590506114318161140d565b92915050565b5f6020828403121561144c5761144b611282565b5b5f61145984828501611423565b91505092915050565b61146b81611404565b82525050565b5f6020820190506114845f830184611462565b92915050565b611493816112e0565b82525050565b5f6020820190506114ac5f83018461148a565b92915050565b5f602082840312156114c7576114c6611282565b5b5f6114d4848285016112ff565b91505092915050565b5f80604083850312156114f3576114f2611282565b5b5f61150085828601611423565b9250506020611511858286016112cc565b9150509250929050565b611524816112a5565b82525050565b5f60208201905061153d5f83018461151b565b92915050565b5f61154d826112a5565b9050919050565b61155d81611543565b8114611567575f80fd5b50565b5f8135905061157881611554565b92915050565b5f805f6060848603121561159557611594611282565b5b5f6115a28682870161156a565b93505060206115b3868287016112cc565b92505060406115c4868287016112ff565b9150509250925092565b5f80604083850312156115e4576115e3611282565b5b5f6115f1858286016112ff565b9250506020611602858286016112cc565b9150509250929050565b5f819050919050565b5f61162f61162a61162584611286565b61160c565b611286565b9050919050565b5f61164082611615565b9050919050565b5f61165182611636565b9050919050565b61166181611647565b82525050565b5f60208201905061167a5f830184611658565b92915050565b5f6020828403121561169557611694611282565b5b5f6116a2848285016112cc565b91505092915050565b5f82825260208201905092915050565b7f7a65726f000000000000000000000000000000000000000000000000000000005f82015250565b5f6116ef6004836116ab565b91506116fa826116bb565b602082019050919050565b5f6020820190508181035f83015261171c816116e3565b9050919050565b7f696e73756666696369656e74206465706f7369740000000000000000000000005f82015250565b5f6117576014836116ab565b915061176282611723565b602082019050919050565b5f6020820190508181035f8301526117848161174b565b9050919050565b7f4e487b71000000000000000000000000000000000000000000000000000000005f52601160045260245ffd5b5f6117c2826112e0565b91506117cd836112e0565b92508282039050818111156117e5576117e461178b565b5b92915050565b5f6040820190506117fe5f83018561151b565b61180b602083018461148a565b9392505050565b61181b816113d1565b8114611825575f80fd5b50565b5f8151905061183681611812565b92915050565b5f6020828403121561185157611850611282565b5b5f61185e84828501611828565b91505092915050565b7f7472616e73666572206661696c656400000000000000000000000000000000005f82015250565b5f61189b600f836116ab565b91506118a682611867565b602082019050919050565b5f6020820190508181035f8301526118c88161188f565b9050919050565b7f66656520746f6f206869676800000000000000000000000000000000000000005f82015250565b5f611903600c836116ab565b915061190e826118cf565b602082019050919050565b5f6020820190508181035f830152611930816118f7565b9050919050565b5f60408201905061194a5f83018561148a565b611957602083018461151b565b9392505050565b5f611968826112e0565b9150611973836112e0565b925082820190508082111561198b5761198a61178b565b5b92915050565b5f6060820190506119a45f83018661151b565b6119b1602083018561151b565b6119be604083018461148a565b949350505050565b7f5265656e7472616e637947756172643a207265656e7472616e742063616c6c005f82015250565b5f6119fa601f836116ab565b9150611a05826119c6565b602082019050919050565b5f6020820190508181035f830152611a27816119ee565b9050919050565b7f7061792072656c61796572206661696c656400000000000000000000000000005f82015250565b5f611a626012836116ab565b9150611a6d82611a2e565b602082019050919050565b5f6020820190508181035f830152611a8f81611a56565b9050919050565b7f706179207472656173757279206661696c6564000000000000000000000000005f82015250565b5f611aca6013836116ab565b9150611ad582611a96565b602082019050919050565b5f6020820190508181035f830152611af781611abe565b9050919050565b5f604082019050611b115f83018561148a565b611b1e602083018461148a565b9392505050565b5f611b2f826112e0565b9150611b3a836112e0565b9250828202611b48816112e0565b91508282048414831517611b5f57611b5e61178b565b5b5092915050565b7f4e487b71000000000000000000000000000000000000000000000000000000005f52601260045260245ffd5b5f611b9d826112e0565b9150611ba8836112e0565b925082611bb857611bb7611b66565b5b828204905092915050565b5f604082019050611bd65f83018561151b565b611be36020830184611462565b939250505056fea264697066735822122073f788420ccac30e0848cca4cd40e500b7b4a6301f3f981578f89a60202fabe164736f6c63430008140033",
			"opcodes": "PUSH1 0xA0 PUSH1 0x40 MSTORE PUSH1 0x32 PUSH1 0x2 SSTORE CALLVALUE DUP1 ISZERO PUSH3 0x15 JUMPI PUSH0 DUP1 REVERT JUMPDEST POP PUSH1 0x40 MLOAD PUSH3 0x1FC1 CODESIZE SUB DUP1 PUSH3 0x1FC1 DUP4 CODECOPY DUP2 DUP2 ADD PUSH1 0x40 MSTORE DUP2 ADD SWAP1 PUSH3 0x3B SWAP2 SWAP1 PUSH3 0x313 JUMP JUMPDEST PUSH1 0x1 DUP1 DUP2 SWAP1 SSTORE POP DUP3 PUSH20 0xFFFFFFFFFFFFFFFFFFFFFFFFFFFFFFFFFFFFFFFF AND PUSH1 0x80 DUP2 PUSH20 0xFFFFFFFFFFFFFFFFFFFFFFFFFFFFFFFFFFFFFFFF AND DUP2 MSTORE POP POP PUSH3 0x8A PUSH0 DUP1 SHL DUP4 PUSH3 0x107 PUSH1 0x20 SHL PUSH1 0x20 SHR JUMP JUMPDEST POP PUSH3 0xBD PUSH32 0x241ECF16D79D0F8DBFB92CBC07FE17840425976CF0667F022FE9877CAA831B08 DUP4 PUSH3 0x107 PUSH1 0x20 SHL PUSH1 0x20 SHR JUMP JUMPDEST POP DUP1 PUSH1 0x3 PUSH0 PUSH2 0x100 EXP DUP2 SLOAD DUP2 PUSH20 0xFFFFFFFFFFFFFFFFFFFFFFFFFFFFFFFFFFFFFFFF MUL NOT AND SWAP1 DUP4 PUSH20 0xFFFFFFFFFFFFFFFFFFFFFFFFFFFFFFFFFFFFFFFF AND MUL OR SWAP1 SSTORE POP POP POP POP PUSH3 0x36C JUMP JUMPDEST PUSH0 PUSH3 0x11A DUP4 DUP4 PUSH3 0x202 PUSH1 0x20 SHL PUSH1 0x20 SHR JUMP JUMPDEST PUSH3 0x1F8 JUMPI PUSH1 0x1 PUSH0 DUP1 DUP6 DUP2 MSTORE PUSH1 0x20 ADD SWAP1 DUP2 MSTORE PUSH1 0x20 ADD PUSH0 KECCAK256 PUSH0 ADD PUSH0 DUP5 PUSH20 0xFFFFFFFFFFFFFFFFFFFFFFFFFFFFFFFFFFFFFFFF AND PUSH20 0xFFFFFFFFFFFFFFFFFFFFFFFFFFFFFFFFFFFFFFFF AND DUP2 MSTORE PUSH1 0x20 ADD SWAP1 DUP2 MSTORE PUSH1 0x20 ADD PUSH0 KECCAK256 PUSH0 PUSH2 0x100 EXP DUP2 SLOAD DUP2 PUSH1 0xFF MUL NOT AND SWAP1 DUP4 ISZERO ISZERO MUL OR SWAP1 SSTORE POP PUSH3 0x194 PUSH3 0x265 PUSH1 0x20 SHL PUSH1 0x20 SHR JUMP JUMPDEST PUSH20 0xFFFFFFFFFFFFFFFFFFFFFFFFFFFFFFFFFFFFFFFF AND DUP3 PUSH20 0xFFFFFFFFFFFFFFFFFFFFFFFFFFFFFFFFFFFFFFFF AND DUP5 PUSH32 0x2F8788117E7EFF1D82E926EC794901D17C78024A50270940304540A733656F0D PUSH1 0x40 MLOAD PUSH1 0x40 MLOAD DUP1 SWAP2 SUB SWAP1 LOG4 PUSH1 0x1 SWAP1 POP PUSH3 0x1FC JUMP JUMPDEST PUSH0 SWAP1 POP JUMPDEST SWAP3 SWAP2 POP POP JUMP JUMPDEST PUSH0 DUP1 PUSH0 DUP5 DUP2 MSTORE PUSH1 0x20 ADD SWAP1 DUP2 MSTORE PUSH1 0x20 ADD PUSH0 KECCAK256 PUSH0 ADD PUSH0 DUP4 PUSH20 0xFFFFFFFFFFFFFFFFFFFFFFFFFFFFFFFFFFFFFFFF AND PUSH20 0xFFFFFFFFFFFFFFFFFFFFFFFFFFFFFFFFFFFFFFFF AND DUP2 MSTORE PUSH1 0x20 ADD SWAP1 DUP2 MSTORE PUSH1 0x20 ADD PUSH0 KECCAK256 PUSH0 SWAP1 SLOAD SWAP1 PUSH2 0x100 EXP SWAP1 DIV PUSH1 0xFF AND SWAP1 POP SWAP3 SWAP2 POP POP JUMP JUMPDEST PUSH0 CALLER SWAP1 POP SWAP1 JUMP JUMPDEST PUSH0 DUP1 REVERT JUMPDEST PUSH0 PUSH20 0xFFFFFFFFFFFFFFFFFFFFFFFFFFFFFFFFFFFFFFFF DUP3 AND SWAP1 POP SWAP2 SWAP1 POP JUMP JUMPDEST PUSH0 PUSH3 0x29B DUP3 PUSH3 0x270 JUMP JUMPDEST SWAP1 POP SWAP2 SWAP1 POP JUMP JUMPDEST PUSH0 PUSH3 0x2AE DUP3 PUSH3 0x28F JUMP JUMPDEST SWAP1 POP SWAP2 SWAP1 POP JUMP JUMPDEST PUSH3 0x2C0 DUP2 PUSH3 0x2A2 JUMP JUMPDEST DUP2 EQ PUSH3 0x2CB JUMPI PUSH0 DUP1 REVERT JUMPDEST POP JUMP JUMPDEST PUSH0 DUP2 MLOAD SWAP1 POP PUSH3 0x2DE DUP2 PUSH3 0x2B5 JUMP JUMPDEST SWAP3 SWAP2 POP POP JUMP JUMPDEST PUSH3 0x2EF DUP2 PUSH3 0x28F JUMP JUMPDEST DUP2 EQ PUSH3 0x2FA JUMPI PUSH0 DUP1 REVERT JUMPDEST POP JUMP JUMPDEST PUSH0 DUP2 MLOAD SWAP1 POP PUSH3 0x30D DUP2 PUSH3 0x2E4 JUMP JUMPDEST SWAP3 SWAP2 POP POP JUMP JUMPDEST PUSH0 DUP1 PUSH0 PUSH1 0x60 DUP5 DUP7 SUB SLT ISZERO PUSH3 0x32D JUMPI PUSH3 0x32C PUSH3 0x26C JUMP JUMPDEST JUMPDEST PUSH0 PUSH3 0x33C DUP7 DUP3 DUP8 ADD PUSH3 0x2CE JUMP JUMPDEST SWAP4 POP POP PUSH1 0x20 PUSH3 0x34F DUP7 DUP3 DUP8 ADD PUSH3 0x2FD JUMP JUMPDEST SWAP3 POP POP PUSH1 0x40 PUSH3 0x362 DUP7 DUP3 DUP8 ADD PUSH3 0x2FD JUMP JUMPDEST SWAP2 POP POP SWAP3 POP SWAP3 POP SWAP3 JUMP JUMPDEST PUSH1 0x80 MLOAD PUSH2 0x1C20 PUSH3 0x3A1 PUSH0 CODECOPY PUSH0 DUP2 DUP2 PUSH2 0x62C ADD MSTORE DUP2 DUP2 PUSH2 0xB06 ADD MSTORE DUP2 DUP2 PUSH2 0xC5D ADD MSTORE DUP2 DUP2 PUSH2 0xD24 ADD MSTORE PUSH2 0xE5F ADD MSTORE PUSH2 0x1C20 PUSH0 RETURN INVALID PUSH1 0x80 PUSH1 0x40 MSTORE CALLVALUE DUP1 ISZERO PUSH2 0xF JUMPI PUSH0 DUP1 REVERT JUMPDEST POP PUSH1 0x4 CALLDATASIZE LT PUSH2 0x108 JUMPI PUSH0 CALLDATALOAD PUSH1 0xE0 SHR DUP1 PUSH4 0x64AFF9EC GT PUSH2 0xA0 JUMPI DUP1 PUSH4 0xB6B55F25 GT PUSH2 0x6F JUMPI DUP1 PUSH4 0xB6B55F25 EQ PUSH2 0x29E JUMPI DUP1 PUSH4 0xD547741F EQ PUSH2 0x2BA JUMPI DUP1 PUSH4 0xD9CC6248 EQ PUSH2 0x2D6 JUMPI DUP1 PUSH4 0xEC87621C EQ PUSH2 0x2F4 JUMPI DUP1 PUSH4 0xFC7E286D EQ PUSH2 0x312 JUMPI PUSH2 0x108 JUMP JUMPDEST DUP1 PUSH4 0x64AFF9EC EQ PUSH2 0x218 JUMPI DUP1 PUSH4 0x91D14854 EQ PUSH2 0x234 JUMPI DUP1 PUSH4 0x92DCE564 EQ PUSH2 0x264 JUMPI DUP1 PUSH4 0xA217FDDF EQ PUSH2 0x280 JUMPI PUSH2 0x108 JUMP JUMPDEST DUP1 PUSH4 0x2E1A7D4D GT PUSH2 0xDC JUMPI DUP1 PUSH4 0x2E1A7D4D EQ PUSH2 0x1A6 JUMPI DUP1 PUSH4 0x2F2FF15D EQ PUSH2 0x1C2 JUMPI DUP1 PUSH4 0x36568ABE EQ PUSH2 0x1DE JUMPI DUP1 PUSH4 0x61D027B3 EQ PUSH2 0x1FA JUMPI PUSH2 0x108 JUMP JUMPDEST DUP1 PUSH3 0x8683BD EQ PUSH2 0x10C JUMPI DUP1 PUSH4 0x1FFC9A7 EQ PUSH2 0x128 JUMPI DUP1 PUSH4 0x248A9CA3 EQ PUSH2 0x158 JUMPI DUP1 PUSH4 0x24A9D853 EQ PUSH2 0x188 JUMPI JUMPDEST PUSH0 DUP1 REVERT JUMPDEST PUSH2 0x126 PUSH1 0x4 DUP1 CALLDATASIZE SUB DUP2 ADD SWAP1 PUSH2 0x121 SWAP2 SWAP1 PUSH2 0x1313 JUMP JUMPDEST PUSH2 0x342 JUMP JUMPDEST STOP JUMPDEST PUSH2 0x142 PUSH1 0x4 DUP1 CALLDATASIZE SUB DUP2 ADD SWAP1 PUSH2 0x13D SWAP2 SWAP1 PUSH2 0x13A6 JUMP JUMPDEST PUSH2 0x474 JUMP JUMPDEST PUSH1 0x40 MLOAD PUSH2 0x14F SWAP2 SWAP1 PUSH2 0x13EB JUMP JUMPDEST PUSH1 0x40 MLOAD DUP1 SWAP2 SUB SWAP1 RETURN JUMPDEST PUSH2 0x172 PUSH1 0x4 DUP1 CALLDATASIZE SUB DUP2 ADD SWAP1 PUSH2 0x16D SWAP2 SWAP1 PUSH2 0x1437 JUMP JUMPDEST PUSH2 0x4ED JUMP JUMPDEST PUSH1 0x40 MLOAD PUSH2 0x17F SWAP2 SWAP1 PUSH2 0x1471 JUMP JUMPDEST PUSH1 0x40 MLOAD DUP1 SWAP2 SUB SWAP1 RETURN JUMPDEST PUSH2 0x190 PUSH2 0x509 JUMP JUMPDEST PUSH1 0x40 MLOAD PUSH2 0x19D SWAP2 SWAP1 PUSH2 0x1499 JUMP JUMPDEST PUSH1 0x40 MLOAD DUP1 SWAP2 SUB SWAP1 RETURN JUMPDEST PUSH2 0x1C0 PUSH1 0x4 DUP1 CALLDATASIZE SUB DUP2 ADD SWAP1 PUSH2 0x1BB SWAP2 SWAP1 PUSH2 0x14B2 JUMP JUMPDEST PUSH2 0x50F JUMP JUMPDEST STOP JUMPDEST PUSH2 0x1DC PUSH1 0x4 DUP1 CALLDATASIZE SUB DUP2 ADD SWAP1 PUSH2 0x1D7 SWAP2 SWAP1 PUSH2 0x14DD JUMP JUMPDEST PUSH2 0x75E JUMP JUMPDEST STOP JUMPDEST PUSH2 0x1F8 PUSH1 0x4 DUP1 CALLDATASIZE SUB DUP2 ADD SWAP1 PUSH2 0x1F3 SWAP2 SWAP1 PUSH2 0x14DD JUMP JUMPDEST PUSH2 0x780 JUMP JUMPDEST STOP JUMPDEST PUSH2 0x202 PUSH2 0x7FB JUMP JUMPDEST PUSH1 0x40 MLOAD PUSH2 0x20F SWAP2 SWAP1 PUSH2 0x152A JUMP JUMPDEST PUSH1 0x40 MLOAD DUP1 SWAP2 SUB SWAP1 RETURN JUMPDEST PUSH2 0x232 PUSH1 0x4 DUP1 CALLDATASIZE SUB DUP2 ADD SWAP1 PUSH2 0x22D SWAP2 SWAP1 PUSH2 0x157E JUMP JUMPDEST PUSH2 0x820 JUMP JUMPDEST STOP JUMPDEST PUSH2 0x24E PUSH1 0x4 DUP1 CALLDATASIZE SUB DUP2 ADD SWAP1 PUSH2 0x249 SWAP2 SWAP1 PUSH2 0x14DD JUMP JUMPDEST PUSH2 0x90A JUMP JUMPDEST PUSH1 0x40 MLOAD PUSH2 0x25B SWAP2 SWAP1 PUSH2 0x13EB JUMP JUMPDEST PUSH1 0x40 MLOAD DUP1 SWAP2 SUB SWAP1 RETURN JUMPDEST PUSH2 0x27E PUSH1 0x4 DUP1 CALLDATASIZE SUB DUP2 ADD SWAP1 PUSH2 0x279 SWAP2 SWAP1 PUSH2 0x15CE JUMP JUMPDEST PUSH2 0x96D JUMP JUMPDEST STOP JUMPDEST PUSH2 0x288 PUSH2 0xA61 JUMP JUMPDEST PUSH1 0x40 MLOAD PUSH2 0x295 SWAP2 SWAP1 PUSH2 0x1471 JUMP JUMPDEST PUSH1 0x40 MLOAD DUP1 SWAP2 SUB SWAP1 RETURN JUMPDEST PUSH2 0x2B8 PUSH1 0x4 DUP1 CALLDATASIZE SUB DUP2 ADD SWAP1 PUSH2 0x2B3 SWAP2 SWAP1 PUSH2 0x14B2 JUMP JUMPDEST PUSH2 0xA67 JUMP JUMPDEST STOP JUMPDEST PUSH2 0x2D4 PUSH1 0x4 DUP1 CALLDATASIZE SUB DUP2 ADD SWAP1 PUSH2 0x2CF SWAP2 SWAP1 PUSH2 0x14DD JUMP JUMPDEST PUSH2 0xC39 JUMP JUMPDEST STOP JUMPDEST PUSH2 0x2DE PUSH2 0xC5B JUMP JUMPDEST PUSH1 0x40 MLOAD PUSH2 0x2EB SWAP2 SWAP1 PUSH2 0x1667 JUMP JUMPDEST PUSH1 0x40 MLOAD DUP1 SWAP2 SUB SWAP1 RETURN JUMPDEST PUSH2 0x2FC PUSH2 0xC7F JUMP JUMPDEST PUSH1 0x40 MLOAD PUSH2 0x309 SWAP2 SWAP1 PUSH2 0x1471 JUMP JUMPDEST PUSH1 0x40 MLOAD DUP1 SWAP2 SUB SWAP1 RETURN JUMPDEST PUSH2 0x32C PUSH1 0x4 DUP1 CALLDATASIZE SUB DUP2 ADD SWAP1 PUSH2 0x327 SWAP2 SWAP1 PUSH2 0x1680 JUMP JUMPDEST PUSH2 0xCA3 JUMP JUMPDEST PUSH1 0x40 MLOAD PUSH2 0x339 SWAP2 SWAP1 PUSH2 0x1499 JUMP JUMPDEST PUSH1 0x40 MLOAD DUP1 SWAP2 SUB SWAP1 RETURN JUMPDEST PUSH2 0x34A PUSH2 0xCB8 JUMP JUMPDEST PUSH0 DUP2 GT PUSH2 0x38C JUMPI PUSH1 0x40 MLOAD PUSH32 0x8C379A000000000000000000000000000000000000000000000000000000000 DUP2 MSTORE PUSH1 0x4 ADD PUSH2 0x383 SWAP1 PUSH2 0x1705 JUMP JUMPDEST PUSH1 0x40 MLOAD DUP1 SWAP2 SUB SWAP1 REVERT JUMPDEST PUSH0 PUSH1 0x4 PUSH0 CALLER PUSH20 0xFFFFFFFFFFFFFFFFFFFFFFFFFFFFFFFFFFFFFFFF AND PUSH20 0xFFFFFFFFFFFFFFFFFFFFFFFFFFFFFFFFFFFFFFFF AND DUP2 MSTORE PUSH1 0x20 ADD SWAP1 DUP2 MSTORE PUSH1 0x20 ADD PUSH0 KECCAK256 SLOAD SWAP1 POP DUP2 DUP2 LT ISZERO PUSH2 0x410 JUMPI PUSH1 0x40 MLOAD PUSH32 0x8C379A000000000000000000000000000000000000000000000000000000000 DUP2 MSTORE PUSH1 0x4 ADD PUSH2 0x407 SWAP1 PUSH2 0x176D JUMP JUMPDEST PUSH1 0x40 MLOAD DUP1 SWAP2 SUB SWAP1 REVERT JUMPDEST DUP2 DUP2 PUSH2 0x41C SWAP2 SWAP1 PUSH2 0x17B8 JUMP JUMPDEST PUSH1 0x4 PUSH0 CALLER PUSH20 0xFFFFFFFFFFFFFFFFFFFFFFFFFFFFFFFFFFFFFFFF AND PUSH20 0xFFFFFFFFFFFFFFFFFFFFFFFFFFFFFFFFFFFFFFFF AND DUP2 MSTORE PUSH1 0x20 ADD SWAP1 DUP2 MSTORE PUSH1 0x20 ADD PUSH0 KECCAK256 DUP2 SWAP1 SSTORE POP PUSH2 0x467 DUP4 DUP4 PUSH2 0xD07 JUMP JUMPDEST POP PUSH2 0x470 PUSH2 0xFAF JUMP JUMPDEST POP POP JUMP JUMPDEST PUSH0 PUSH32 0x7965DB0B00000000000000000000000000000000000000000000000000000000 PUSH28 0xFFFFFFFFFFFFFFFFFFFFFFFFFFFFFFFFFFFFFFFFFFFFFFFFFFFFFFFF NOT AND DUP3 PUSH28 0xFFFFFFFFFFFFFFFFFFFFFFFFFFFFFFFFFFFFFFFFFFFFFFFFFFFFFFFF NOT AND EQ DUP1 PUSH2 0x4E6 JUMPI POP PUSH2 0x4E5 DUP3 PUSH2 0xFB8 JUMP JUMPDEST JUMPDEST SWAP1 POP SWAP2 SWAP1 POP JUMP JUMPDEST PUSH0 DUP1 PUSH0 DUP4 DUP2 MSTORE PUSH1 0x20 ADD SWAP1 DUP2 MSTORE PUSH1 0x20 ADD PUSH0 KECCAK256 PUSH1 0x1 ADD SLOAD SWAP1 POP SWAP2 SWAP1 POP JUMP JUMPDEST PUSH1 0x2 SLOAD DUP2 JUMP JUMPDEST PUSH2 0x517 PUSH2 0xCB8 JUMP JUMPDEST PUSH0 DUP2 GT PUSH2 0x559 JUMPI PUSH1 0x40 MLOAD PUSH32 0x8C379A000000000000000000000000000000000000000000000000000000000 DUP2 MSTORE PUSH1 0x4 ADD PUSH2 0x550 SWAP1 PUSH2 0x1705 JUMP JUMPDEST PUSH1 0x40 MLOAD DUP1 SWAP2 SUB SWAP1 REVERT JUMPDEST PUSH0 PUSH1 0x4 PUSH0 CALLER PUSH20 0xFFFFFFFFFFFFFFFFFFFFFFFFFFFFFFFFFFFFFFFF AND PUSH20 0xFFFFFFFFFFFFFFFFFFFFFFFFFFFFFFFFFFFFFFFF AND DUP2 MSTORE PUSH1 0x20 ADD SWAP1 DUP2 MSTORE PUSH1 0x20 ADD PUSH0 KECCAK256 SLOAD SWAP1 POP DUP2 DUP2 LT ISZERO PUSH2 0x5DD JUMPI PUSH1 0x40 MLOAD PUSH32 0x8C379A000000000000000000000000000000000000000000000000000000000 DUP2 MSTORE PUSH1 0x4 ADD PUSH2 0x5D4 SWAP1 PUSH2 0x176D JUMP JUMPDEST PUSH1 0x40 MLOAD DUP1 SWAP2 SUB SWAP1 REVERT JUMPDEST DUP2 DUP2 PUSH2 0x5E9 SWAP2 SWAP1 PUSH2 0x17B8 JUMP JUMPDEST PUSH1 0x4 PUSH0 CALLER PUSH20 0xFFFFFFFFFFFFFFFFFFFFFFFFFFFFFFFFFFFFFFFF AND PUSH20 0xFFFFFFFFFFFFFFFFFFFFFFFFFFFFFFFFFFFFFFFF AND DUP2 MSTORE PUSH1 0x20 ADD SWAP1 DUP2 MSTORE PUSH1 0x20 ADD PUSH0 KECCAK256 DUP2 SWAP1 SSTORE POP PUSH32 0x0 PUSH20 0xFFFFFFFFFFFFFFFFFFFFFFFFFFFFFFFFFFFFFFFF AND PUSH4 0xA9059CBB CALLER DUP5 PUSH1 0x40 MLOAD DUP4 PUSH4 0xFFFFFFFF AND PUSH1 0xE0 SHL DUP2 MSTORE PUSH1 0x4 ADD PUSH2 0x685 SWAP3 SWAP2 SWAP1 PUSH2 0x17EB JUMP JUMPDEST PUSH1 0x20 PUSH1 0x40 MLOAD DUP1 DUP4 SUB DUP2 PUSH0 DUP8 GAS CALL ISZERO DUP1 ISZERO PUSH2 0x6A1 JUMPI RETURNDATASIZE PUSH0 DUP1 RETURNDATACOPY RETURNDATASIZE PUSH0 REVERT JUMPDEST POP POP POP POP PUSH1 0x40 MLOAD RETURNDATASIZE PUSH1 0x1F NOT PUSH1 0x1F DUP3 ADD AND DUP3 ADD DUP1 PUSH1 0x40 MSTORE POP DUP2 ADD SWAP1 PUSH2 0x6C5 SWAP2 SWAP1 PUSH2 0x183C JUMP JUMPDEST PUSH2 0x704 JUMPI PUSH1 0x40 MLOAD PUSH32 0x8C379A000000000000000000000000000000000000000000000000000000000 DUP2 MSTORE PUSH1 0x4 ADD PUSH2 0x6FB SWAP1 PUSH2 0x18B1 JUMP JUMPDEST PUSH1 0x40 MLOAD DUP1 SWAP2 SUB SWAP1 REVERT JUMPDEST CALLER PUSH20 0xFFFFFFFFFFFFFFFFFFFFFFFFFFFFFFFFFFFFFFFF AND PUSH32 0x7084F5476618D8E60B11EF0D7D3F06914655ADB8793E28FF7F018D4C76D505D5 DUP4 PUSH1 0x40 MLOAD PUSH2 0x74A SWAP2 SWAP1 PUSH2 0x1499 JUMP JUMPDEST PUSH1 0x40 MLOAD DUP1 SWAP2 SUB SWAP1 LOG2 POP PUSH2 0x75B PUSH2 0xFAF JUMP JUMPDEST POP JUMP JUMPDEST PUSH2 0x767 DUP3 PUSH2 0x4ED JUMP JUMPDEST PUSH2 0x770 DUP2 PUSH2 0x1021 JUMP JUMPDEST PUSH2 0x77A DUP4 DUP4 PUSH2 0x1035 JUMP JUMPDEST POP POP POP POP JUMP JUMPDEST PUSH2 0x788 PUSH2 0x111E JUMP JUMPDEST PUSH20 0xFFFFFFFFFFFFFFFFFFFFFFFFFFFFFFFFFFFFFFFF AND DUP2 PUSH20 0xFFFFFFFFFFFFFFFFFFFFFFFFFFFFFFFFFFFFFFFF AND EQ PUSH2 0x7EC JUMPI PUSH1 0x40 MLOAD PUSH32 0x6697B23200000000000000000000000000000000000000000000000000000000 DUP2 MSTORE PUSH1 0x4 ADD PUSH1 0x40 MLOAD DUP1 SWAP2 SUB SWAP1 REVERT JUMPDEST PUSH2 0x7F6 DUP3 DUP3 PUSH2 0x1125 JUMP JUMPDEST POP POP POP JUMP JUMPDEST PUSH1 0x3 PUSH0 SWAP1 SLOAD SWAP1 PUSH2 0x100 EXP SWAP1 DIV PUSH20 0xFFFFFFFFFFFFFFFFFFFFFFFFFFFFFFFFFFFFFFFF AND DUP2 JUMP JUMPDEST PUSH32 0x241ECF16D79D0F8DBFB92CBC07FE17840425976CF0667F022FE9877CAA831B08 PUSH2 0x84A DUP2 PUSH2 0x1021 JUMP JUMPDEST DUP4 PUSH20 0xFFFFFFFFFFFFFFFFFFFFFFFFFFFFFFFFFFFFFFFF AND PUSH4 0xA9059CBB DUP5 DUP5 PUSH1 0x40 MLOAD DUP4 PUSH4 0xFFFFFFFF AND PUSH1 0xE0 SHL DUP2 MSTORE PUSH1 0x4 ADD PUSH2 0x885 SWAP3 SWAP2 SWAP1 PUSH2 0x17EB JUMP JUMPDEST PUSH1 0x20 PUSH1 0x40 MLOAD DUP1 DUP4 SUB DUP2 PUSH0 DUP8 GAS CALL ISZERO DUP1 ISZERO PUSH2 0x8A1 JUMPI RETURNDATASIZE PUSH0 DUP1 RETURNDATACOPY RETURNDATASIZE PUSH0 REVERT JUMPDEST POP POP POP POP PUSH1 0x40 MLOAD RETURNDATASIZE PUSH1 0x1F NOT PUSH1 0x1F DUP3 ADD AND DUP3 ADD DUP1 PUSH1 0x40 MSTORE POP DUP2 ADD SWAP1 PUSH2 0x8C5 SWAP2 SWAP1 PUSH2 0x183C JUMP JUMPDEST PUSH2 0x904 JUMPI PUSH1 0x40 MLOAD PUSH32 0x8C379A000000000000000000000000000000000000000000000000000000000 DUP2 MSTORE PUSH1 0x4 ADD PUSH2 0x8FB SWAP1 PUSH2 0x18B1 JUMP JUMPDEST PUSH1 0x40 MLOAD DUP1 SWAP2 SUB SWAP1 REVERT JUMPDEST POP POP POP POP JUMP JUMPDEST PUSH0 DUP1 PUSH0 DUP5 DUP2 MSTORE PUSH1 0x20 ADD SWAP1 DUP2 MSTORE PUSH1 0x20 ADD PUSH0 KECCAK256 PUSH0 ADD PUSH0 DUP4 PUSH20 0xFFFFFFFFFFFFFFFFFFFFFFFFFFFFFFFFFFFFFFFF AND PUSH20 0xFFFFFFFFFFFFFFFFFFFFFFFFFFFFFFFFFFFFFFFF AND DUP2 MSTORE PUSH1 0x20 ADD SWAP1 DUP2 MSTORE PUSH1 0x20 ADD PUSH0 KECCAK256 PUSH0 SWAP1 SLOAD SWAP1 PUSH2 0x100 EXP SWAP1 DIV PUSH1 0xFF AND SWAP1 POP SWAP3 SWAP2 POP POP JUMP JUMPDEST PUSH32 0x241ECF16D79D0F8DBFB92CBC07FE17840425976CF0667F022FE9877CAA831B08 PUSH2 0x997 DUP2 PUSH2 0x1021 JUMP JUMPDEST PUSH2 0x3E8 DUP4 GT ISZERO PUSH2 0x9DC JUMPI PUSH1 0x40 MLOAD PUSH32 0x8C379A000000000000000000000000000000000000000000000000000000000 DUP2 MSTORE PUSH1 0x4 ADD PUSH2 0x9D3 SWAP1 PUSH2 0x1919 JUMP JUMPDEST PUSH1 0x40 MLOAD DUP1 SWAP2 SUB SWAP1 REVERT JUMPDEST DUP3 PUSH1 0x2 DUP2 SWAP1 SSTORE POP DUP2 PUSH1 0x3 PUSH0 PUSH2 0x100 EXP DUP2 SLOAD DUP2 PUSH20 0xFFFFFFFFFFFFFFFFFFFFFFFFFFFFFFFFFFFFFFFF MUL NOT AND SWAP1 DUP4 PUSH20 0xFFFFFFFFFFFFFFFFFFFFFFFFFFFFFFFFFFFFFFFF AND MUL OR SWAP1 SSTORE POP PUSH32 0xEECC969CD8DA3140016E16B0603215DE782AF59713ABFC5055D917B88F4A7B91 DUP4 DUP4 PUSH1 0x40 MLOAD PUSH2 0xA54 SWAP3 SWAP2 SWAP1 PUSH2 0x1937 JUMP JUMPDEST PUSH1 0x40 MLOAD DUP1 SWAP2 SUB SWAP1 LOG1 POP POP POP JUMP JUMPDEST PUSH0 DUP1 SHL DUP2 JUMP JUMPDEST PUSH2 0xA6F PUSH2 0xCB8 JUMP JUMPDEST PUSH0 DUP2 GT PUSH2 0xAB1 JUMPI PUSH1 0x40 MLOAD PUSH32 0x8C379A000000000000000000000000000000000000000000000000000000000 DUP2 MSTORE PUSH1 0x4 ADD PUSH2 0xAA8 SWAP1 PUSH2 0x1705 JUMP JUMPDEST PUSH1 0x40 MLOAD DUP1 SWAP2 SUB SWAP1 REVERT JUMPDEST DUP1 PUSH1 0x4 PUSH0 CALLER PUSH20 0xFFFFFFFFFFFFFFFFFFFFFFFFFFFFFFFFFFFFFFFF AND PUSH20 0xFFFFFFFFFFFFFFFFFFFFFFFFFFFFFFFFFFFFFFFF AND DUP2 MSTORE PUSH1 0x20 ADD SWAP1 DUP2 MSTORE PUSH1 0x20 ADD PUSH0 KECCAK256 PUSH0 DUP3 DUP3 SLOAD PUSH2 0xAFD SWAP2 SWAP1 PUSH2 0x195E JUMP JUMPDEST SWAP3 POP POP DUP2 SWAP1 SSTORE POP PUSH32 0x0 PUSH20 0xFFFFFFFFFFFFFFFFFFFFFFFFFFFFFFFFFFFFFFFF AND PUSH4 0x23B872DD CALLER ADDRESS DUP5 PUSH1 0x40 MLOAD DUP5 PUSH4 0xFFFFFFFF AND PUSH1 0xE0 SHL DUP2 MSTORE PUSH1 0x4 ADD PUSH2 0xB61 SWAP4 SWAP3 SWAP2 SWAP1 PUSH2 0x1991 JUMP JUMPDEST PUSH1 0x20 PUSH1 0x40 MLOAD DUP1 DUP4 SUB DUP2 PUSH0 DUP8 GAS CALL ISZERO DUP1 ISZERO PUSH2 0xB7D JUMPI RETURNDATASIZE PUSH0 DUP1 RETURNDATACOPY RETURNDATASIZE PUSH0 REVERT JUMPDEST POP POP POP POP PUSH1 0x40 MLOAD RETURNDATASIZE PUSH1 0x1F NOT PUSH1 0x1F DUP3 ADD AND DUP3 ADD DUP1 PUSH1 0x40 MSTORE POP DUP2 ADD SWAP1 PUSH2 0xBA1 SWAP2 SWAP1 PUSH2 0x183C JUMP JUMPDEST PUSH2 0xBE0 JUMPI PUSH1 0x40 MLOAD PUSH32 0x8C379A000000000000000000000000000000000000000000000000000000000 DUP2 MSTORE PUSH1 0x4 ADD PUSH2 0xBD7 SWAP1 PUSH2 0x18B1 JUMP JUMPDEST PUSH1 0x40 MLOAD DUP1 SWAP2 SUB SWAP1 REVERT JUMPDEST CALLER PUSH20 0xFFFFFFFFFFFFFFFFFFFFFFFFFFFFFFFFFFFFFFFF AND PUSH32 0x2DA466A7B24304F47E87FA2E1E5A81B9831CE54FEC19055CE277CA2F39BA42C4 DUP3 PUSH1 0x40 MLOAD PUSH2 0xC26 SWAP2 SWAP1 PUSH2 0x1499 JUMP JUMPDEST PUSH1 0x40 MLOAD DUP1 SWAP2 SUB SWAP1 LOG2 PUSH2 0xC36 PUSH2 0xFAF JUMP JUMPDEST POP JUMP JUMPDEST PUSH2 0xC42 DUP3 PUSH2 0x4ED JUMP JUMPDEST PUSH2 0xC4B DUP2 PUSH2 0x1021 JUMP JUMPDEST PUSH2 0xC55 DUP4 DUP4 PUSH2 0x1125 JUMP JUMPDEST POP POP POP POP JUMP JUMPDEST PUSH32 0x0 DUP2 JUMP JUMPDEST PUSH32 0x241ECF16D79D0F8DBFB92CBC07FE17840425976CF0667F022FE9877CAA831B08 DUP2 JUMP JUMPDEST PUSH1 0x4 PUSH1 0x20 MSTORE DUP1 PUSH0 MSTORE PUSH1 0x40 PUSH0 KECCAK256 PUSH0 SWAP2 POP SWAP1 POP SLOAD DUP2 JUMP JUMPDEST PUSH1 0x2 PUSH1 0x1 SLOAD SUB PUSH2 0xCFD JUMPI PUSH1 0x40 MLOAD PUSH32 0x8C379A000000000000000000000000000000000000000000000000000000000 DUP2 MSTORE PUSH1 0x4 ADD PUSH2 0xCF4 SWAP1 PUSH2 0x1A10 JUMP JUMPDEST PUSH1 0x40 MLOAD DUP1 SWAP2 SUB SWAP1 REVERT JUMPDEST PUSH1 0x2 PUSH1 0x1 DUP2 SWAP1 SSTORE POP JUMP JUMPDEST PUSH0 PUSH2 0xD11 DUP3 PUSH2 0x120E JUMP JUMPDEST SWAP1 POP PUSH0 DUP2 DUP4 PUSH2 0xD20 SWAP2 SWAP1 PUSH2 0x17B8 JUMP JUMPDEST SWAP1 POP PUSH32 0x0 PUSH20 0xFFFFFFFFFFFFFFFFFFFFFFFFFFFFFFFFFFFFFFFF AND PUSH4 0xA9059CBB DUP6 DUP4 PUSH1 0x40 MLOAD DUP4 PUSH4 0xFFFFFFFF AND PUSH1 0xE0 SHL DUP2 MSTORE PUSH1 0x4 ADD PUSH2 0xD7D SWAP3 SWAP2 SWAP1 PUSH2 0x17EB JUMP JUMPDEST PUSH1 0x20 PUSH1 0x40 MLOAD DUP1 DUP4 SUB DUP2 PUSH0 DUP8 GAS CALL ISZERO DUP1 ISZERO PUSH2 0xD99 JUMPI RETURNDATASIZE PUSH0 DUP1 RETURNDATACOPY RETURNDATASIZE PUSH0 REVERT JUMPDEST POP POP POP POP PUSH1 0x40 MLOAD RETURNDATASIZE PUSH1 0x1F NOT PUSH1 0x1F DUP3 ADD AND DUP3 ADD DUP1 PUSH1 0x40 MSTORE POP DUP2 ADD SWAP1 PUSH2 0xDBD SWAP2 SWAP1 PUSH2 0x183C JUMP JUMPDEST PUSH2 0xDFC JUMPI PUSH1 0x40 MLOAD PUSH32 0x8C379A000000000000000000000000000000000000000000000000000000000 DUP2 MSTORE PUSH1 0x4 ADD PUSH2 0xDF3 SWAP1 PUSH2 0x1A78 JUMP JUMPDEST PUSH1 0x40 MLOAD DUP1 SWAP2 SUB SWAP1 REVERT JUMPDEST PUSH0 DUP3 GT DUP1 ISZERO PUSH2 0xE58 JUMPI POP PUSH0 PUSH20 0xFFFFFFFFFFFFFFFFFFFFFFFFFFFFFFFFFFFFFFFF AND PUSH1 0x3 PUSH0 SWAP1 SLOAD SWAP1 PUSH2 0x100 EXP SWAP1 DIV PUSH20 0xFFFFFFFFFFFFFFFFFFFFFFFFFFFFFFFFFFFFFFFF AND PUSH20 0xFFFFFFFFFFFFFFFFFFFFFFFFFFFFFFFFFFFFFFFF AND EQ ISZERO JUMPDEST ISZERO PUSH2 0xF59 JUMPI PUSH32 0x0 PUSH20 0xFFFFFFFFFFFFFFFFFFFFFFFFFFFFFFFFFFFFFFFF AND PUSH4 0xA9059CBB PUSH1 0x3 PUSH0 SWAP1 SLOAD SWAP1 PUSH2 0x100 EXP SWAP1 DIV PUSH20 0xFFFFFFFFFFFFFFFFFFFFFFFFFFFFFFFFFFFFFFFF AND DUP5 PUSH1 0x40 MLOAD DUP4 PUSH4 0xFFFFFFFF AND PUSH1 0xE0 SHL DUP2 MSTORE PUSH1 0x4 ADD PUSH2 0xED9 SWAP3 SWAP2 SWAP1 PUSH2 0x17EB JUMP JUMPDEST PUSH1 0x20 PUSH1 0x40 MLOAD DUP1 DUP4 SUB DUP2 PUSH0 DUP8 GAS CALL ISZERO DUP1 ISZERO PUSH2 0xEF5 JUMPI RETURNDATASIZE PUSH0 DUP1 RETURNDATACOPY RETURNDATASIZE PUSH0 REVERT JUMPDEST POP POP POP POP PUSH1 0x40 MLOAD RETURNDATASIZE PUSH1 0x1F NOT PUSH1 0x1F DUP3 ADD AND DUP3 ADD DUP1 PUSH1 0x40 MSTORE POP DUP2 ADD SWAP1 PUSH2 0xF19 SWAP2 SWAP1 PUSH2 0x183C JUMP JUMPDEST PUSH2 0xF58 JUMPI PUSH1 0x40 MLOAD PUSH32 0x8C379A000000000000000000000000000000000000000000000000000000000 DUP2 MSTORE PUSH1 0x4 ADD PUSH2 0xF4F SWAP1 PUSH2 0x1AE0 JUMP JUMPDEST PUSH1 0x40 MLOAD DUP1 SWAP2 SUB SWAP1 REVERT JUMPDEST JUMPDEST DUP4 PUSH20 0xFFFFFFFFFFFFFFFFFFFFFFFFFFFFFFFFFFFFFFFF AND PUSH32 0xC63BE668767B92798030F3590AF1F2E7CA3990163FA2606C8047ED5522B246D6 DUP5 DUP5 PUSH1 0x40 MLOAD PUSH2 0xFA1 SWAP3 SWAP2 SWAP1 PUSH2 0x1AFE JUMP JUMPDEST PUSH1 0x40 MLOAD DUP1 SWAP2 SUB SWAP1 LOG2 POP POP POP POP JUMP JUMPDEST PUSH1 0x1 DUP1 DUP2 SWAP1 SSTORE POP JUMP JUMPDEST PUSH0 PUSH32 0x1FFC9A700000000000000000000000000000000000000000000000000000000 PUSH28 0xFFFFFFFFFFFFFFFFFFFFFFFFFFFFFFFFFFFFFFFFFFFFFFFFFFFFFFFF NOT AND DUP3 PUSH28 0xFFFFFFFFFFFFFFFFFFFFFFFFFFFFFFFFFFFFFFFFFFFFFFFFFFFFFFFF NOT AND EQ SWAP1 POP SWAP2 SWAP1 POP JUMP JUMPDEST PUSH2 0x1032 DUP2 PUSH2 0x102D PUSH2 0x111E JUMP JUMPDEST PUSH2 0x1231 JUMP JUMPDEST POP JUMP JUMPDEST PUSH0 PUSH2 0x1040 DUP4 DUP4 PUSH2 0x90A JUMP JUMPDEST PUSH2 0x1114 JUMPI PUSH1 0x1 PUSH0 DUP1 DUP6 DUP2 MSTORE PUSH1 0x20 ADD SWAP1 DUP2 MSTORE PUSH1 0x20 ADD PUSH0 KECCAK256 PUSH0 ADD PUSH0 DUP5 PUSH20 0xFFFFFFFFFFFFFFFFFFFFFFFFFFFFFFFFFFFFFFFF AND PUSH20 0xFFFFFFFFFFFFFFFFFFFFFFFFFFFFFFFFFFFFFFFF AND DUP2 MSTORE PUSH1 0x20 ADD SWAP1 DUP2 MSTORE PUSH1 0x20 ADD PUSH0 KECCAK256 PUSH0 PUSH2 0x100 EXP DUP2 SLOAD DUP2 PUSH1 0xFF MUL NOT AND SWAP1 DUP4 ISZERO ISZERO MUL OR SWAP1 SSTORE POP PUSH2 0x10B1 PUSH2 0x111E JUMP JUMPDEST PUSH20 0xFFFFFFFFFFFFFFFFFFFFFFFFFFFFFFFFFFFFFFFF AND DUP3 PUSH20 0xFFFFFFFFFFFFFFFFFFFFFFFFFFFFFFFFFFFFFFFF AND DUP5 PUSH32 0x2F8788117E7EFF1D82E926EC794901D17C78024A50270940304540A733656F0D PUSH1 0x40 MLOAD PUSH1 0x40 MLOAD DUP1 SWAP2 SUB SWAP1 LOG4 PUSH1 0x1 SWAP1 POP PUSH2 0x1118 JUMP JUMPDEST PUSH0 SWAP1 POP JUMPDEST SWAP3 SWAP2 POP POP JUMP JUMPDEST PUSH0 CALLER SWAP1 POP SWAP1 JUMP JUMPDEST PUSH0 PUSH2 0x1130 DUP4 DUP4 PUSH2 0x90A JUMP JUMPDEST ISZERO PUSH2 0x1204 JUMPI PUSH0 DUP1 PUSH0 DUP6 DUP2 MSTORE PUSH1 0x20 ADD SWAP1 DUP2 MSTORE PUSH1 0x20 ADD PUSH0 KECCAK256 PUSH0 ADD PUSH0 DUP5 PUSH20 0xFFFFFFFFFFFFFFFFFFFFFFFFFFFFFFFFFFFFFFFF AND PUSH20 0xFFFFFFFFFFFFFFFFFFFFFFFFFFFFFFFFFFFFFFFF AND DUP2 MSTORE PUSH1 0x20 ADD SWAP1 DUP2 MSTORE PUSH1 0x20 ADD PUSH0 KECCAK256 PUSH0 PUSH2 0x100 EXP DUP2 SLOAD DUP2 PUSH1 0xFF MUL NOT AND SWAP1 DUP4 ISZERO ISZERO MUL OR SWAP1 SSTORE POP PUSH2 0x11A1 PUSH2 0x111E JUMP JUMPDEST PUSH20 0xFFFFFFFFFFFFFFFFFFFFFFFFFFFFFFFFFFFFFFFF AND DUP3 PUSH20 0xFFFFFFFFFFFFFFFFFFFFFFFFFFFFFFFFFFFFFFFF AND DUP5 PUSH32 0xF6391F5C32D9C69D2A47EA670B442974B53935D1EDC7FD64EB21E047A839171B PUSH1 0x40 MLOAD PUSH1 0x40 MLOAD DUP1 SWAP2 SUB SWAP1 LOG4 PUSH1 0x1 SWAP1 POP PUSH2 0x1208 JUMP JUMPDEST PUSH0 SWAP1 POP JUMPDEST SWAP3 SWAP2 POP POP JUMP JUMPDEST PUSH0 PUSH2 0x2710 PUSH1 0x2 SLOAD DUP4 PUSH2 0x1220 SWAP2 SWAP1 PUSH2 0x1B25 JUMP JUMPDEST PUSH2 0x122A SWAP2 SWAP1 PUSH2 0x1B93 JUMP JUMPDEST SWAP1 POP SWAP2 SWAP1 POP JUMP JUMPDEST PUSH2 0x123B DUP3 DUP3 PUSH2 0x90A JUMP JUMPDEST PUSH2 0x127E JUMPI DUP1 DUP3 PUSH1 0x40 MLOAD PUSH32 0xE2517D3F00000000000000000000000000000000000000000000000000000000 DUP2 MSTORE PUSH1 0x4 ADD PUSH2 0x1275 SWAP3 SWAP2 SWAP1 PUSH2 0x1BC3 JUMP JUMPDEST PUSH1 0x40 MLOAD DUP1 SWAP2 SUB SWAP1 REVERT JUMPDEST POP POP JUMP JUMPDEST PUSH0 DUP1 REVERT JUMPDEST PUSH0 PUSH20 0xFFFFFFFFFFFFFFFFFFFFFFFFFFFFFFFFFFFFFFFF DUP3 AND SWAP1 POP SWAP2 SWAP1 POP JUMP JUMPDEST PUSH0 PUSH2 0x12AF DUP3 PUSH2 0x1286 JUMP JUMPDEST SWAP1 POP SWAP2 SWAP1 POP JUMP JUMPDEST PUSH2 0x12BF DUP2 PUSH2 0x12A5 JUMP JUMPDEST DUP2 EQ PUSH2 0x12C9 JUMPI PUSH0 DUP1 REVERT JUMPDEST POP JUMP JUMPDEST PUSH0 DUP2 CALLDATALOAD SWAP1 POP PUSH2 0x12DA DUP2 PUSH2 0x12B6 JUMP JUMPDEST SWAP3 SWAP2 POP POP JUMP JUMPDEST PUSH0 DUP2 SWAP1 POP SWAP2 SWAP1 POP JUMP JUMPDEST PUSH2 0x12F2 DUP2 PUSH2 0x12E0 JUMP JUMPDEST DUP2 EQ PUSH2 0x12FC JUMPI PUSH0 DUP1 REVERT JUMPDEST POP JUMP JUMPDEST PUSH0 DUP2 CALLDATALOAD SWAP1 POP PUSH2 0x130D DUP2 PUSH2 0x12E9 JUMP JUMPDEST SWAP3 SWAP2 POP POP JUMP JUMPDEST PUSH0 DUP1 PUSH1 0x40 DUP4 DUP6 SUB SLT ISZERO PUSH2 0x1329 JUMPI PUSH2 0x1328 PUSH2 0x1282 JUMP JUMPDEST JUMPDEST PUSH0 PUSH2 0x1336 DUP6 DUP3 DUP7 ADD PUSH2 0x12CC JUMP JUMPDEST SWAP3 POP POP PUSH1 0x20 PUSH2 0x1347 DUP6 DUP3 DUP7 ADD PUSH2 0x12FF JUMP JUMPDEST SWAP2 POP POP SWAP3 POP SWAP3 SWAP1 POP JUMP JUMPDEST PUSH0 PUSH32 0xFFFFFFFF00000000000000000000000000000000000000000000000000000000 DUP3 AND SWAP1 POP SWAP2 SWAP1 POP JUMP JUMPDEST PUSH2 0x1385 DUP2 PUSH2 0x1351 JUMP JUMPDEST DUP2 EQ PUSH2 0x138F JUMPI PUSH0 DUP1 REVERT JUMPDEST POP JUMP JUMPDEST PUSH0 DUP2 CALLDATALOAD SWAP1 POP PUSH2 0x13A0 DUP2 PUSH2 0x137C JUMP JUMPDEST SWAP3 SWAP2 POP POP JUMP JUMPDEST PUSH0 PUSH1 0x20 DUP3 DUP5 SUB SLT ISZERO PUSH2 0x13BB JUMPI PUSH2 0x13BA PUSH2 0x1282 JUMP JUMPDEST JUMPDEST PUSH0 PUSH2 0x13C8 DUP5 DUP3 DUP6 ADD PUSH2 0x1392 JUMP JUMPDEST SWAP2 POP POP SWAP3 SWAP2 POP POP JUMP JUMPDEST PUSH0 DUP2 ISZERO ISZERO SWAP1 POP SWAP2 SWAP1 POP JUMP JUMPDEST PUSH2 0x13E5 DUP2 PUSH2 0x13D1 JUMP JUMPDEST DUP3 MSTORE POP POP JUMP JUMPDEST PUSH0 PUSH1 0x20 DUP3 ADD SWAP1 POP PUSH2 0x13FE PUSH0 DUP4 ADD DUP5 PUSH2 0x13DC JUMP JUMPDEST SWAP3 SWAP2 POP POP JUMP JUMPDEST PUSH0 DUP2 SWAP1 POP SWAP2 SWAP1 POP JUMP JUMPDEST PUSH2 0x1416 DUP2 PUSH2 0x1404 JUMP JUMPDEST DUP2 EQ PUSH2 0x1420 JUMPI PUSH0 DUP1 REVERT JUMPDEST POP JUMP JUMPDEST PUSH0 DUP2 CALLDATALOAD SWAP1 POP PUSH2 0x1431 DUP2 PUSH2 0x140D JUMP JUMPDEST SWAP3 SWAP2 POP POP JUMP JUMPDEST PUSH0 PUSH1 0x20 DUP3 DUP5 SUB SLT ISZERO PUSH2 0x144C JUMPI PUSH2 0x144B PUSH2 0x1282 JUMP JUMPDEST JUMPDEST PUSH0 PUSH2 0x1459 DUP5 DUP3 DUP6 ADD PUSH2 0x1423 JUMP JUMPDEST SWAP2 POP POP SWAP3 SWAP2 POP POP JUMP JUMPDEST PUSH2 0x146B DUP2 PUSH2 0x1404 JUMP JUMPDEST DUP3 MSTORE POP POP JUMP JUMPDEST PUSH0 PUSH1 0x20 DUP3 ADD SWAP1 POP PUSH2 0x1484 PUSH0 DUP4 ADD DUP5 PUSH2 0x1462 JUMP JUMPDEST SWAP3 SWAP2 POP POP JUMP JUMPDEST PUSH2 0x1493 DUP2 PUSH2 0x12E0 JUMP JUMPDEST DUP3 MSTORE POP POP JUMP JUMPDEST PUSH0 PUSH1 0x20 DUP3 ADD SWAP1 POP PUSH2 0x14AC PUSH0 DUP4 ADD DUP5 PUSH2 0x148A JUMP JUMPDEST SWAP3 SWAP2 POP POP JUMP JUMPDEST PUSH0 PUSH1 0x20 DUP3 DUP5 SUB SLT ISZERO PUSH2 0x14C7 JUMPI PUSH2 0x14C6 PUSH2 0x1282 JUMP JUMPDEST JUMPDEST PUSH0 PUSH2 0x14D4 DUP5 DUP3 DUP6 ADD PUSH2 0x12FF JUMP JUMPDEST SWAP2 POP POP SWAP3 SWAP2 POP POP JUMP JUMPDEST PUSH0 DUP1 PUSH1 0x40 DUP4 DUP6 SUB SLT ISZERO PUSH2 0x14F3 JUMPI PUSH2 0x14F2 PUSH2 0x1282 JUMP JUMPDEST JUMPDEST PUSH0 PUSH2 0x1500 DUP6 DUP3 DUP7 ADD PUSH2 0x1423 JUMP JUMPDEST SWAP3 POP POP PUSH1 0x20 PUSH2 0x1511 DUP6 DUP3 DUP7 ADD PUSH2 0x12CC JUMP JUMPDEST SWAP2 POP POP SWAP3 POP SWAP3 SWAP1 POP JUMP JUMPDEST PUSH2 0x1524 DUP2 PUSH2 0x12A5 JUMP JUMPDEST DUP3 MSTORE POP POP JUMP JUMPDEST PUSH0 PUSH1 0x20 DUP3 ADD SWAP1 POP PUSH2 0x153D PUSH0 DUP4 ADD DUP5 PUSH2 0x151B JUMP JUMPDEST SWAP3 SWAP2 POP POP JUMP JUMPDEST PUSH0 PUSH2 0x154D DUP3 PUSH2 0x12A5 JUMP JUMPDEST SWAP1 POP SWAP2 SWAP1 POP JUMP JUMPDEST PUSH2 0x155D DUP2 PUSH2 0x1543 JUMP JUMPDEST DUP2 EQ PUSH2 0x1567 JUMPI PUSH0 DUP1 REVERT JUMPDEST POP JUMP JUMPDEST PUSH0 DUP2 CALLDATALOAD SWAP1 POP PUSH2 0x1578 DUP2 PUSH2 0x1554 JUMP JUMPDEST SWAP3 SWAP2 POP POP JUMP JUMPDEST PUSH0 DUP1 PUSH0 PUSH1 0x60 DUP5 DUP7 SUB SLT ISZERO PUSH2 0x1595 JUMPI PUSH2 0x1594 PUSH2 0x1282 JUMP JUMPDEST JUMPDEST PUSH0 PUSH2 0x15A2 DUP7 DUP3 DUP8 ADD PUSH2 0x156A JUMP JUMPDEST SWAP4 POP POP PUSH1 0x20 PUSH2 0x15B3 DUP7 DUP3 DUP8 ADD PUSH2 0x12CC JUMP JUMPDEST SWAP3 POP POP PUSH1 0x40 PUSH2 0x15C4 DUP7 DUP3 DUP8 ADD PUSH2 0x12FF JUMP JUMPDEST SWAP2 POP POP SWAP3 POP SWAP3 POP SWAP3 JUMP JUMPDEST PUSH0 DUP1 PUSH1 0x40 DUP4 DUP6 SUB SLT ISZERO PUSH2 0x15E4 JUMPI PUSH2 0x15E3 PUSH2 0x1282 JUMP JUMPDEST JUMPDEST PUSH0 PUSH2 0x15F1 DUP6 DUP3 DUP7 ADD PUSH2 0x12FF JUMP JUMPDEST SWAP3 POP POP PUSH1 0x20 PUSH2 0x1602 DUP6 DUP3 DUP7 ADD PUSH2 0x12CC JUMP JUMPDEST SWAP2 POP POP SWAP3 POP SWAP3 SWAP1 POP JUMP JUMPDEST PUSH0 DUP2 SWAP1 POP SWAP2 SWAP1 POP JUMP JUMPDEST PUSH0 PUSH2 0x162F PUSH2 0x162A PUSH2 0x1625 DUP5 PUSH2 0x1286 JUMP JUMPDEST PUSH2 0x160C JUMP JUMPDEST PUSH2 0x1286 JUMP JUMPDEST SWAP1 POP SWAP2 SWAP1 POP JUMP JUMPDEST PUSH0 PUSH2 0x1640 DUP3 PUSH2 0x1615 JUMP JUMPDEST SWAP1 POP SWAP2 SWAP1 POP JUMP JUMPDEST PUSH0 PUSH2 0x1651 DUP3 PUSH2 0x1636 JUMP JUMPDEST SWAP1 POP SWAP2 SWAP1 POP JUMP JUMPDEST PUSH2 0x1661 DUP2 PUSH2 0x1647 JUMP JUMPDEST DUP3 MSTORE POP POP JUMP JUMPDEST PUSH0 PUSH1 0x20 DUP3 ADD SWAP1 POP PUSH2 0x167A PUSH0 DUP4 ADD DUP5 PUSH2 0x1658 JUMP JUMPDEST SWAP3 SWAP2 POP POP JUMP JUMPDEST PUSH0 PUSH1 0x20 DUP3 DUP5 SUB SLT ISZERO PUSH2 0x1695 JUMPI PUSH2 0x1694 PUSH2 0x1282 JUMP JUMPDEST JUMPDEST PUSH0 PUSH2 0x16A2 DUP5 DUP3 DUP6 ADD PUSH2 0x12CC JUMP JUMPDEST SWAP2 POP POP SWAP3 SWAP2 POP POP JUMP JUMPDEST PUSH0 DUP3 DUP3 MSTORE PUSH1 0x20 DUP3 ADD SWAP1 POP SWAP3 SWAP2 POP POP JUMP JUMPDEST PUSH32 0x7A65726F00000000000000000000000000000000000000000000000000000000 PUSH0 DUP3 ADD MSTORE POP JUMP JUMPDEST PUSH0 PUSH2 0x16EF PUSH1 0x4 DUP4 PUSH2 0x16AB JUMP JUMPDEST SWAP2 POP PUSH2 0x16FA DUP3 PUSH2 0x16BB JUMP JUMPDEST PUSH1 0x20 DUP3 ADD SWAP1 POP SWAP2 SWAP1 POP JUMP JUMPDEST PUSH0 PUSH1 0x20 DUP3 ADD SWAP1 POP DUP2 DUP2 SUB PUSH0 DUP4 ADD MSTORE PUSH2 0x171C DUP2 PUSH2 0x16E3 JUMP JUMPDEST SWAP1 POP SWAP2 SWAP1 POP JUMP JUMPDEST PUSH32 0x696E73756666696369656E74206465706F736974000000000000000000000000 PUSH0 DUP3 ADD MSTORE POP JUMP JUMPDEST PUSH0 PUSH2 0x1757 PUSH1 0x14 DUP4 PUSH2 0x16AB JUMP JUMPDEST SWAP2 POP PUSH2 0x1762 DUP3 PUSH2 0x1723 JUMP JUMPDEST PUSH1 0x20 DUP3 ADD SWAP1 POP SWAP2 SWAP1 POP JUMP JUMPDEST PUSH0 PUSH1 0x20 DUP3 ADD SWAP1 POP DUP2 DUP2 SUB PUSH0 DUP4 ADD MSTORE PUSH2 0x1784 DUP2 PUSH2 0x174B JUMP JUMPDEST SWAP1 POP SWAP2 SWAP1 POP JUMP JUMPDEST PUSH32 0x4E487B7100000000000000000000000000000000000000000000000000000000 PUSH0 MSTORE PUSH1 0x11 PUSH1 0x4 MSTORE PUSH1 0x24 PUSH0 REVERT JUMPDEST PUSH0 PUSH2 0x17C2 DUP3 PUSH2 0x12E0 JUMP JUMPDEST SWAP2 POP PUSH2 0x17CD DUP4 PUSH2 0x12E0 JUMP JUMPDEST SWAP3 POP DUP3 DUP3 SUB SWAP1 POP DUP2 DUP2 GT ISZERO PUSH2 0x17E5 JUMPI PUSH2 0x17E4 PUSH2 0x178B JUMP JUMPDEST JUMPDEST SWAP3 SWAP2 POP POP JUMP JUMPDEST PUSH0 PUSH1 0x40 DUP3 ADD SWAP1 POP PUSH2 0x17FE PUSH0 DUP4 ADD DUP6 PUSH2 0x151B JUMP JUMPDEST PUSH2 0x180B PUSH1 0x20 DUP4 ADD DUP5 PUSH2 0x148A JUMP JUMPDEST SWAP4 SWAP3 POP POP POP JUMP JUMPDEST PUSH2 0x181B DUP2 PUSH2 0x13D1 JUMP JUMPDEST DUP2 EQ PUSH2 0x1825 JUMPI PUSH0 DUP1 REVERT JUMPDEST POP JUMP JUMPDEST PUSH0 DUP2 MLOAD SWAP1 POP PUSH2 0x1836 DUP2 PUSH2 0x1812 JUMP JUMPDEST SWAP3 SWAP2 POP POP JUMP JUMPDEST PUSH0 PUSH1 0x20 DUP3 DUP5 SUB SLT ISZERO PUSH2 0x1851 JUMPI PUSH2 0x1850 PUSH2 0x1282 JUMP JUMPDEST JUMPDEST PUSH0 PUSH2 0x185E DUP5 DUP3 DUP6 ADD PUSH2 0x1828 JUMP JUMPDEST SWAP2 POP POP SWAP3 SWAP2 POP POP JUMP JUMPDEST PUSH32 0x7472616E73666572206661696C65640000000000000000000000000000000000 PUSH0 DUP3 ADD MSTORE POP JUMP JUMPDEST PUSH0 PUSH2 0x189B PUSH1 0xF DUP4 PUSH2 0x16AB JUMP JUMPDEST SWAP2 POP PUSH2 0x18A6 DUP3 PUSH2 0x1867 JUMP JUMPDEST PUSH1 0x20 DUP3 ADD SWAP1 POP SWAP2 SWAP1 POP JUMP JUMPDEST PUSH0 PUSH1 0x20 DUP3 ADD SWAP1 POP DUP2 DUP2 SUB PUSH0 DUP4 ADD MSTORE PUSH2 0x18C8 DUP2 PUSH2 0x188F JUMP JUMPDEST SWAP1 POP SWAP2 SWAP1 POP JUMP JUMPDEST PUSH32 0x66656520746F6F20686967680000000000000000000000000000000000000000 PUSH0 DUP3 ADD MSTORE POP JUMP JUMPDEST PUSH0 PUSH2 0x1903 PUSH1 0xC DUP4 PUSH2 0x16AB JUMP JUMPDEST SWAP2 POP PUSH2 0x190E DUP3 PUSH2 0x18CF JUMP JUMPDEST PUSH1 0x20 DUP3 ADD SWAP1 POP SWAP2 SWAP1 POP JUMP JUMPDEST PUSH0 PUSH1 0x20 DUP3 ADD SWAP1 POP DUP2 DUP2 SUB PUSH0 DUP4 ADD MSTORE PUSH2 0x1930 DUP2 PUSH2 0x18F7 JUMP JUMPDEST SWAP1 POP SWAP2 SWAP1 POP JUMP JUMPDEST PUSH0 PUSH1 0x40 DUP3 ADD SWAP1 POP PUSH2 0x194A PUSH0 DUP4 ADD DUP6 PUSH2 0x148A JUMP JUMPDEST PUSH2 0x1957 PUSH1 0x20 DUP4 ADD DUP5 PUSH2 0x151B JUMP JUMPDEST SWAP4 SWAP3 POP POP POP JUMP JUMPDEST PUSH0 PUSH2 0x1968 DUP3 PUSH2 0x12E0 JUMP JUMPDEST SWAP2 POP PUSH2 0x1973 DUP4 PUSH2 0x12E0 JUMP JUMPDEST SWAP3 POP DUP3 DUP3 ADD SWAP1 POP DUP1 DUP3 GT ISZERO PUSH2 0x198B JUMPI PUSH2 0x198A PUSH2 0x178B JUMP JUMPDEST JUMPDEST SWAP3 SWAP2 POP POP JUMP JUMPDEST PUSH0 PUSH1 0x60 DUP3 ADD SWAP1 POP PUSH2 0x19A4 PUSH0 DUP4 ADD DUP7 PUSH2 0x151B JUMP JUMPDEST PUSH2 0x19B1 PUSH1 0x20 DUP4 ADD DUP6 PUSH2 0x151B JUMP JUMPDEST PUSH2 0x19BE PUSH1 0x40 DUP4 ADD DUP5 PUSH2 0x148A JUMP JUMPDEST SWAP5 SWAP4 POP POP POP POP JUMP JUMPDEST PUSH32 0x5265656E7472616E637947756172643A207265656E7472616E742063616C6C00 PUSH0 DUP3 ADD MSTORE POP JUMP JUMPDEST PUSH0 PUSH2 0x19FA PUSH1 0x1F DUP4 PUSH2 0x16AB JUMP JUMPDEST SWAP2 POP PUSH2 0x1A05 DUP3 PUSH2 0x19C6 JUMP JUMPDEST PUSH1 0x20 DUP3 ADD SWAP1 POP SWAP2 SWAP1 POP JUMP JUMPDEST PUSH0 PUSH1 0x20 DUP3 ADD SWAP1 POP DUP2 DUP2 SUB PUSH0 DUP4 ADD MSTORE PUSH2 0x1A27 DUP2 PUSH2 0x19EE JUMP JUMPDEST SWAP1 POP SWAP2 SWAP1 POP JUMP JUMPDEST PUSH32 0x7061792072656C61796572206661696C65640000000000000000000000000000 PUSH0 DUP3 ADD MSTORE POP JUMP JUMPDEST PUSH0 PUSH2 0x1A62 PUSH1 0x12 DUP4 PUSH2 0x16AB JUMP JUMPDEST SWAP2 POP PUSH2 0x1A6D DUP3 PUSH2 0x1A2E JUMP JUMPDEST PUSH1 0x20 DUP3 ADD SWAP1 POP SWAP2 SWAP1 POP JUMP JUMPDEST PUSH0 PUSH1 0x20 DUP3 ADD SWAP1 POP DUP2 DUP2 SUB PUSH0 DUP4 ADD MSTORE PUSH2 0x1A8F DUP2 PUSH2 0x1A56 JUMP JUMPDEST SWAP1 POP SWAP2 SWAP1 POP JUMP JUMPDEST PUSH32 0x706179207472656173757279206661696C656400000000000000000000000000 PUSH0 DUP3 ADD MSTORE POP JUMP JUMPDEST PUSH0 PUSH2 0x1ACA PUSH1 0x13 DUP4 PUSH2 0x16AB JUMP JUMPDEST SWAP2 POP PUSH2 0x1AD5 DUP3 PUSH2 0x1A96 JUMP JUMPDEST PUSH1 0x20 DUP3 ADD SWAP1 POP SWAP2 SWAP1 POP JUMP JUMPDEST PUSH0 PUSH1 0x20 DUP3 ADD SWAP1 POP DUP2 DUP2 SUB PUSH0 DUP4 ADD MSTORE PUSH2 0x1AF7 DUP2 PUSH2 0x1ABE JUMP JUMPDEST SWAP1 POP SWAP2 SWAP1 POP JUMP JUMPDEST PUSH0 PUSH1 0x40 DUP3 ADD SWAP1 POP PUSH2 0x1B11 PUSH0 DUP4 ADD DUP6 PUSH2 0x148A JUMP JUMPDEST PUSH2 0x1B1E PUSH1 0x20 DUP4 ADD DUP5 PUSH2 0x148A JUMP JUMPDEST SWAP4 SWAP3 POP POP POP JUMP JUMPDEST PUSH0 PUSH2 0x1B2F DUP3 PUSH2 0x12E0 JUMP JUMPDEST SWAP2 POP PUSH2 0x1B3A DUP4 PUSH2 0x12E0 JUMP JUMPDEST SWAP3 POP DUP3 DUP3 MUL PUSH2 0x1B48 DUP2 PUSH2 0x12E0 JUMP JUMPDEST SWAP2 POP DUP3 DUP3 DIV DUP5 EQ DUP4 ISZERO OR PUSH2 0x1B5F JUMPI PUSH2 0x1B5E PUSH2 0x178B JUMP JUMPDEST JUMPDEST POP SWAP3 SWAP2 POP POP JUMP JUMPDEST PUSH32 0x4E487B7100000000000000000000000000000000000000000000000000000000 PUSH0 MSTORE PUSH1 0x12 PUSH1 0x4 MSTORE PUSH1 0x24 PUSH0 REVERT JUMPDEST PUSH0 PUSH2 0x1B9D DUP3 PUSH2 0x12E0 JUMP JUMPDEST SWAP2 POP PUSH2 0x1BA8 DUP4 PUSH2 0x12E0 JUMP JUMPDEST SWAP3 POP DUP3 PUSH2 0x1BB8 JUMPI PUSH2 0x1BB7 PUSH2 0x1B66 JUMP JUMPDEST JUMPDEST DUP3 DUP3 DIV SWAP1 POP SWAP3 SWAP2 POP POP JUMP JUMPDEST PUSH0 PUSH1 0x40 DUP3 ADD SWAP1 POP PUSH2 0x1BD6 PUSH0 DUP4 ADD DUP6 PUSH2 0x151B JUMP JUMPDEST PUSH2 0x1BE3 PUSH1 0x20 DUP4 ADD DUP5 PUSH2 0x1462 JUMP JUMPDEST SWAP4 SWAP3 POP POP POP JUMP INVALID LOG2 PUSH5 0x6970667358 0x22 SLT KECCAK256 PUSH20 0xF788420CCAC30E0848CCA4CD40E500B7B4A6301F EXTCODEHASH SWAP9 ISZERO PUSH25 0xF89A60202FABE164736F6C6343000814003300000000000000 "
		},
		"gasEstimates": {
			"creation": {
				"codeDepositCost": "1440000",
				"executionCost": "infinite",
				"totalCost": "infinite"
			},
			"external": {
				"DEFAULT_ADMIN_ROLE()": "419",
				"MANAGER_ROLE()": "413",
				"deposit(uint256)": "infinite",
				"deposits(address)": "2912",
				"feeBps()": "2515",
				"getRoleAdmin(bytes32)": "infinite",
				"grantRole(bytes32,address)": "infinite",
				"hasRole(bytes32,address)": "3167",
				"payRelayer(address,uint256)": "infinite",
				"piso()": "infinite",
				"renounceRole(bytes32,address)": "infinite",
				"revokeRole(bytes32,address)": "infinite",
				"setFeeParams(uint256,address)": "infinite",
				"supportsInterface(bytes4)": "763",
				"sweepToken(address,address,uint256)": "infinite",
				"treasury()": "2597",
				"withdraw(uint256)": "infinite"
			},
			"internal": {
				"_calcFee(uint256)": "infinite",
				"_payRelayer(address,uint256)": "infinite"
			}
		},
		"methodIdentifiers": {
			"DEFAULT_ADMIN_ROLE()": "a217fddf",
			"MANAGER_ROLE()": "ec87621c",
			"deposit(uint256)": "b6b55f25",
			"deposits(address)": "fc7e286d",
			"feeBps()": "24a9d853",
			"getRoleAdmin(bytes32)": "248a9ca3",
			"grantRole(bytes32,address)": "2f2ff15d",
			"hasRole(bytes32,address)": "91d14854",
			"payRelayer(address,uint256)": "008683bd",
			"piso()": "d9cc6248",
			"renounceRole(bytes32,address)": "36568abe",
			"revokeRole(bytes32,address)": "d547741f",
			"setFeeParams(uint256,address)": "92dce564",
			"supportsInterface(bytes4)": "01ffc9a7",
			"sweepToken(address,address,uint256)": "64aff9ec",
			"treasury()": "61d027b3",
			"withdraw(uint256)": "2e1a7d4d"
		}
	},
	"abi": [
		{
			"inputs": [
				{
					"internalType": "contract IERC20",
					"name": "piso_",
					"type": "address"
				},
				{
					"internalType": "address",
					"name": "admin",
					"type": "address"
				},
				{
					"internalType": "address",
					"name": "treasury_",
					"type": "address"
				}
			],
			"stateMutability": "nonpayable",
			"type": "constructor"
		},
		{
			"inputs": [],
			"name": "AccessControlBadConfirmation",
			"type": "error"
		},
		{
			"inputs": [
				{
					"internalType": "address",
					"name": "account",
					"type": "address"
				},
				{
					"internalType": "bytes32",
					"name": "neededRole",
					"type": "bytes32"
				}
			],
			"name": "AccessControlUnauthorizedAccount",
			"type": "error"
		},
		{
			"anonymous": false,
			"inputs": [
				{
					"indexed": true,
					"internalType": "address",
					"name": "user",
					"type": "address"
				},
				{
					"indexed": false,
					"internalType": "uint256",
					"name": "amount",
					"type": "uint256"
				}
			],
			"name": "Deposited",
			"type": "event"
		},
		{
			"anonymous": false,
			"inputs": [
				{
					"indexed": false,
					"internalType": "uint256",
					"name": "feeBps",
					"type": "uint256"
				},
				{
					"indexed": false,
					"internalType": "address",
					"name": "treasury",
					"type": "address"
				}
			],
			"name": "FeeParamsUpdated",
			"type": "event"
		},
		{
			"anonymous": false,
			"inputs": [
				{
					"indexed": true,
					"internalType": "address",
					"name": "relayer",
					"type": "address"
				},
				{
					"indexed": false,
					"internalType": "uint256",
					"name": "amount",
					"type": "uint256"
				},
				{
					"indexed": false,
					"internalType": "uint256",
					"name": "fee",
					"type": "uint256"
				}
			],
			"name": "RelayerPaid",
			"type": "event"
		},
		{
			"anonymous": false,
			"inputs": [
				{
					"indexed": true,
					"internalType": "bytes32",
					"name": "role",
					"type": "bytes32"
				},
				{
					"indexed": true,
					"internalType": "bytes32",
					"name": "previousAdminRole",
					"type": "bytes32"
				},
				{
					"indexed": true,
					"internalType": "bytes32",
					"name": "newAdminRole",
					"type": "bytes32"
				}
			],
			"name": "RoleAdminChanged",
			"type": "event"
		},
		{
			"anonymous": false,
			"inputs": [
				{
					"indexed": true,
					"internalType": "bytes32",
					"name": "role",
					"type": "bytes32"
				},
				{
					"indexed": true,
					"internalType": "address",
					"name": "account",
					"type": "address"
				},
				{
					"indexed": true,
					"internalType": "address",
					"name": "sender",
					"type": "address"
				}
			],
			"name": "RoleGranted",
			"type": "event"
		},
		{
			"anonymous": false,
			"inputs": [
				{
					"indexed": true,
					"internalType": "bytes32",
					"name": "role",
					"type": "bytes32"
				},
				{
					"indexed": true,
					"internalType": "address",
					"name": "account",
					"type": "address"
				},
				{
					"indexed": true,
					"internalType": "address",
					"name": "sender",
					"type": "address"
				}
			],
			"name": "RoleRevoked",
			"type": "event"
		},
		{
			"anonymous": false,
			"inputs": [
				{
					"indexed": true,
					"internalType": "address",
					"name": "user",
					"type": "address"
				},
				{
					"indexed": false,
					"internalType": "uint256",
					"name": "amount",
					"type": "uint256"
				}
			],
			"name": "Withdrawn",
			"type": "event"
		},
		{
			"inputs": [],
			"name": "DEFAULT_ADMIN_ROLE",
			"outputs": [
				{
					"internalType": "bytes32",
					"name": "",
					"type": "bytes32"
				}
			],
			"stateMutability": "view",
			"type": "function"
		},
		{
			"inputs": [],
			"name": "MANAGER_ROLE",
			"outputs": [
				{
					"internalType": "bytes32",
					"name": "",
					"type": "bytes32"
				}
			],
			"stateMutability": "view",
			"type": "function"
		},
		{
			"inputs": [
				{
					"internalType": "uint256",
					"name": "amount",
					"type": "uint256"
				}
			],
			"name": "deposit",
			"outputs": [],
			"stateMutability": "nonpayable",
			"type": "function"
		},
		{
			"inputs": [
				{
					"internalType": "address",
					"name": "",
					"type": "address"
				}
			],
			"name": "deposits",
			"outputs": [
				{
					"internalType": "uint256",
					"name": "",
					"type": "uint256"
				}
			],
			"stateMutability": "view",
			"type": "function"
		},
		{
			"inputs": [],
			"name": "feeBps",
			"outputs": [
				{
					"internalType": "uint256",
					"name": "",
					"type": "uint256"
				}
			],
			"stateMutability": "view",
			"type": "function"
		},
		{
			"inputs": [
				{
					"internalType": "bytes32",
					"name": "role",
					"type": "bytes32"
				}
			],
			"name": "getRoleAdmin",
			"outputs": [
				{
					"internalType": "bytes32",
					"name": "",
					"type": "bytes32"
				}
			],
			"stateMutability": "view",
			"type": "function"
		},
		{
			"inputs": [
				{
					"internalType": "bytes32",
					"name": "role",
					"type": "bytes32"
				},
				{
					"internalType": "address",
					"name": "account",
					"type": "address"
				}
			],
			"name": "grantRole",
			"outputs": [],
			"stateMutability": "nonpayable",
			"type": "function"
		},
		{
			"inputs": [
				{
					"internalType": "bytes32",
					"name": "role",
					"type": "bytes32"
				},
				{
					"internalType": "address",
					"name": "account",
					"type": "address"
				}
			],
			"name": "hasRole",
			"outputs": [
				{
					"internalType": "bool",
					"name": "",
					"type": "bool"
				}
			],
			"stateMutability": "view",
			"type": "function"
		},
		{
			"inputs": [
				{
					"internalType": "address",
					"name": "relayer",
					"type": "address"
				},
				{
					"internalType": "uint256",
					"name": "amount",
					"type": "uint256"
				}
			],
			"name": "payRelayer",
			"outputs": [],
			"stateMutability": "nonpayable",
			"type": "function"
		},
		{
			"inputs": [],
			"name": "piso",
			"outputs": [
				{
					"internalType": "contract IERC20",
					"name": "",
					"type": "address"
				}
			],
			"stateMutability": "view",
			"type": "function"
		},
		{
			"inputs": [
				{
					"internalType": "bytes32",
					"name": "role",
					"type": "bytes32"
				},
				{
					"internalType": "address",
					"name": "callerConfirmation",
					"type": "address"
				}
			],
			"name": "renounceRole",
			"outputs": [],
			"stateMutability": "nonpayable",
			"type": "function"
		},
		{
			"inputs": [
				{
					"internalType": "bytes32",
					"name": "role",
					"type": "bytes32"
				},
				{
					"internalType": "address",
					"name": "account",
					"type": "address"
				}
			],
			"name": "revokeRole",
			"outputs": [],
			"stateMutability": "nonpayable",
			"type": "function"
		},
		{
			"inputs": [
				{
					"internalType": "uint256",
					"name": "_feeBps",
					"type": "uint256"
				},
				{
					"internalType": "address",
					"name": "_treasury",
					"type": "address"
				}
			],
			"name": "setFeeParams",
			"outputs": [],
			"stateMutability": "nonpayable",
			"type": "function"
		},
		{
			"inputs": [
				{
					"internalType": "bytes4",
					"name": "interfaceId",
					"type": "bytes4"
				}
			],
			"name": "supportsInterface",
			"outputs": [
				{
					"internalType": "bool",
					"name": "",
					"type": "bool"
				}
			],
			"stateMutability": "view",
			"type": "function"
		},
		{
			"inputs": [
				{
					"internalType": "contract IERC20",
					"name": "token",
					"type": "address"
				},
				{
					"internalType": "address",
					"name": "to",
					"type": "address"
				},
				{
					"internalType": "uint256",
					"name": "amount",
					"type": "uint256"
				}
			],
			"name": "sweepToken",
			"outputs": [],
			"stateMutability": "nonpayable",
			"type": "function"
		},
		{
			"inputs": [],
			"name": "treasury",
			"outputs": [
				{
					"internalType": "address",
					"name": "",
					"type": "address"
				}
			],
			"stateMutability": "view",
			"type": "function"
		},
		{
			"inputs": [
				{
					"internalType": "uint256",
					"name": "amount",
					"type": "uint256"
				}
			],
			"name": "withdraw",
			"outputs": [],
			"stateMutability": "nonpayable",
			"type": "function"
		}
	]
}